S00B0000494D552E737265632E
S31500000000083700201534000041320000113400008A
S3150000001011340000113400001134000011340000C6
S315000000200000000000000000000000001134000085
S3150000003011340000000000001134000011340000EB
S315000000401D2100008D200000AD210000F5210000DB
S31500000050492F0000B91700005D1800004119000083
S31500000060251A0000352C0000952F0000352C0000C5
S315000000702D280000BD270000A5280000E528000067
S31500000080352C000000000000000000000000000009
S31500000090000000000000000000000000000000005A
S315000000A0000000000000000000000000000000004A
S315000000B0000000000000000000000000000000003A
S315000000C0000000000000000000000000000000002A
S315000000D0000000000000000000000000000000001A
S315000000E0000000000000000000000000000000000A
S315000000F000000000000000000000000000000000FA
S3150000010000000000000000000000000000000000E9
S3150000011000000000000000000000000000000000D9
S3150000012000000000000000000000000000000000C9
S3150000013000000000000000000000000000000000B9
S3150000014000000000000000000000000000000000A9
S315000001500000000000000000000000000000000099
S315000001600000000000000000000000000000000089
S315000001700000000000000000000000000000000079
S315000001800000000000000000000000000000000069
S315000001900000000000000000000000000000000059
S315000001A00000000000000000000000000000000049
S315000001B00000000000000000000000000000000039
S315000001C0FFFFFFFFFFFFFFFFFFFFFFFFFFFFFFFF39
S315000001D0FFFFFFFFFFFFFFFFFFFFFFFFFFFFFFFF29
S315000001E0FFFFFFFFFFFFFFFFFFFFFFFFFFFFFFFF19
S315000001F0FFFFFFFFFFFFFFFFFFFFFFFFFFFFFFFF09
S3150000020010B5054C237833B9044B13B1044800E00C
S3150000021000BF0123237010BD000400200000000071
S315000002204094000008B5034B1BB10349034800E0A6
S3150000023000BF08BD00000000040400204094000038
S31500000240034A1368002BFCD000231360704700BFDD
S31500000250200400200379012B05D0022B05D10122B1
S31500000260024B1A607047024A136070472004002050
S315000002701C04002010B50A4B82B0996801908C6866
S315000002800122186801A9A04700B100BE054A1368FB
S31500000290002BFCD000230198136002B010BD00BFF4
S315000002A0108D00002004002070B5161E07DD0C46D8
S315000002B08D1914F9010BFFF7DDFFA542F9D1304680
S315000002C070BD00BFF0B50E464FF0000C072787B093
S315000002D08DF80F600446066880688DF817C080F8B0
S315000002E000C03068B668009715460123F6680DF120
S315000002F017020DF10F01B04770B9A46823783BB916
S31500000300084B00E053B12178013B0029FAD02BB10C
S3150000031015B19DF817302B7007B0F0BD142007B04B
S31500000320F0BD00BFA086010070B504460D46164616
S31500000330A18800220B4802F0FBFA2946002220463B
S31500000340FFF7C0FF054630B10122A188054802F03B
S31500000350EFFA284670BD024631462046FFF7B2FF47
S315000003600546F1E77004002070B503680546D3E939
S31500000370011282B012681868904728B10E28044608
S3150000038002D0204602B070BD002276212846FFF733
S31500000390CBFF04460028F4D1012211212846FFF79D
S315000003A0C3FF04460028ECD14FF47A710A2002F00C
S315000003B013FF2246A98832488DF8074002F0B8FAA2
S315000003C02246F5212846FFF77DFF044628B1012283
S315000003D0A9882B4802F0ACFAD3E7FF210DF10702FA
S315000003E02846FFF76FFF04460122A988244802F039
S315000003F09FFA002CC5D19DF80730472B3DD103222B
S3150000040014212846FFF790FF04460028B9D102467A
S3150000041064212846FFF788FF04460028B1D1082248
S3150000042065212846FFF780FF04460028A9D1482207
S3150000043050212846FFF778FF04460028A1D128223C
S315000004404F212846FFF770FF0446002899D1DFF8B0
S3150000045040E00C4C0C4B0D4E28462F224E211C60C2
S31500000460C6F800E0FFF760FF0446002889D14FF484
S315000004707A710A2002F0B0FE83E7222481E700BFEA
S31500000480700400200000FA3C280400202404002008
S315000004900000FA3DF0B50024054685B00E46174625
S315000004A0A98822462548CDE90244019402F040FA83
S315000004B022469F212846FFF705FF60B901AC02E0FE
S315000004C004AB9C4218D02246FF212846FFF7FAFECD
S315000004D001340028F4D00122A988184802F028FA2D
S315000004E01EB1002333807380B3801FB100233B808D
S315000004F07B80BB8005B0F0BD0122A9880F4802F0C1
S3150000050017FA5EB1BDF80410BDF80620BDF8083034
S3150000051049BA52BA5BBA31807280B380002FE9D0F3
S31500000520BDF80A10BDF80C20BDF80E3049BA52BA13
S315000005305BBA39807A80BB8005B0F0BD70040020BC
S3150000054020B10379012B04BF014A1370704700BF25
S315000005502C04002020B10379012B04BF014A13703B
S31500000560704700BF2D0400200148FFF7FDBE00BF05
S31500000570008C00000148FFF7F7BE00BFF48B0000B7
S3150000058030B50023054685B00C463048694602AAB8
S3150000059000930293ADF80430ADF80C30FFF77AFF04
S315000005A045B32B4BBDF90020D3ED005A06EE902A39
S315000005B0BDF90430BDF9022007EE903A07EE102A85
S315000005C0F8EEE66AB8EEC77AF8EEE77A9FED216AAA
S315000005D027EE257A66EEA56A67EEA57AC6EE865AF6
S315000005E0C7EE066A87EE867AC5ED005AC5ED016A42
S315000005F085ED027A44B3BDF90820174B06EE902A22
S31500000600BDF90A20D3ED005A07EE102ABDF90C20D9
S31500000610F8EEE66A07EE902AB8EEC77AF8EEE77AC1
S315000006209FED0E6A66EEA56A27EE257A67EEA57A35
S3150000063066EE866A27EE067A67EE867AC4ED006A6B
S3150000064084ED017AC4ED027A05B030BD008C00005D
S315000006502404002000007A442804002035FA8E3C49
S3150000066030B50023054685B00C463048694602AAD7
S3150000067000930293ADF80430ADF80C30FFF70AFF93
S3150000068045B32B4BBDF90020D3ED005A06EE902A58
S31500000690BDF90430BDF9022007EE903A07EE102AA4
S315000006A0F8EEE66AB8EEC77AF8EEE77A9FED216AC9
S315000006B027EE257A66EEA56A67EEA57AC6EE865A15
S315000006C0C7EE066A87EE867AC5ED005AC5ED016A61
S315000006D085ED027A44B3BDF90820174B06EE902A41
S315000006E0BDF90A20D3ED005A07EE102ABDF90C20F9
S315000006F0F8EEE66A07EE902AB8EEC77AF8EEE77AE1
S315000007009FED0E6A66EEA56A27EE257A67EEA57A54
S3150000071066EE866A27EE067A67EE867AC4ED006A8A
S3150000072084ED017AC4ED027A05B030BDF48B000089
S315000007302404002000007A442804002035FA8E3C68
S31500000740094C0A4A08B50A4B206011601B782BB980
S315000007504FF47A71642002F03FFDF9E70A4601463C
S31500000760044804F0F5F8F3E73804002040040020BC
S31500000770480400200C8C0000D1ED006A91ED017A4E
S3150000078000B566EEA66A2DED068B27EE077AB0EE6B
S3150000079040AA91ED020A36EE877A20EE000A37EE7D
S315000007A0007AB5EE407AF1EE10FAD2ED008A92EDBB
S315000007B0019A92ED028A83B000F12A81B1EEC70A4E
S315000007C09FED987AB4EEC70AF1EE10FA80F28780B0
S315000007D0D0ED014AD0ED035A90ED004A90ED025A51
S315000007E068EE053A29EE052A24EEE86A68EE846A80
S315000007F068EE252A29EE253A29EE047A68EE241AAF
S3150000080076EEA36AB6EE000A36EE426A2AEE000AD1
S3150000081068EEA53A29EE249A28EE048A37EE617A24
S3150000082036EE626A76EEC36A68EE857A26EE006A6E
S3150000083066EE806A38EE098A37EE237A36EE046A67
S3150000084027EE007A76EEA46A78EE677A37EE057AB6
S3150000085067EE807A26EEA65A26EE060A77EEA57A87
S3150000086030EE050A67EE075A80ED006A30EE250A7B
S3150000087027EEA76A30EE060AB5EE400AF1EE10FA48
S31500000880C0ED016A80ED027AC0ED037A00F1B9800D
S31500000890F1EEC07AF5EEC07AF1EE10FA4FF00003F1
S315000008A040F2A48090ED006AD0ED016A90ED027AE4
S315000008B090ED035AC6EE275A86EEA76AC7EE276A58
S315000008C085EE277AC0ED005A80ED016AC0ED026A16
S315000008D080ED037A03B0BDEC068B5DF804FB9FED5B
S315000008E0527AB4EEC70AF1EE10FAD0ED014A76D884
S315000008F090ED004AD0ED035A90ED025A24EEA47A08
S3150000090024EE041AD1ED003A91ED016AD1ED029A76
S3150000091031EE471A64EEA52A24EE057AC3EE806A04
S3150000092072EEC72AC6EE003A24EE847A89EE806A11
S3150000093025EE850A37EE007A25EE050A31EE401AD5
S3150000094025EEA50A72EEA22A31EE001A37EE077AD4
S3150000095026EE070A26EE226A26EE877A63EEA22A9A
S3150000096066EE816A63EE813A9FED303A76EE666A0C
S3150000097037EE627A73EEC03A67EE032A23EE836A95
S3150000098026EE833AF0EE040AD0ED071A90ED082A17
S31500000990D0ED097A62EE8A2A26EE0A6A23EE0A3A30
S315000009A072EEA72A76EE211A33EE023A27EE207A65
S315000009B063EEA03A66EEA06A37EE227A73EEA13AAB
S315000009C076EE836AC0ED092A38EE078AC0ED071A6B
S315000009D080ED083A78EEA38A39EE269A00E7D0ED44
S315000009E0035A90ED004A90ED025AF9E64FF07E5216
S315000009F043608360C360026003B0BDEC068B5DF8A4
S31500000A0004FB009008F074F80098F0EE407A41E795
S31500000A10B0EE470ACDE9000108F06AF8DDE9000109
S31500000A20CEE600BF3333333F6666A63F0AD7A33D03
S31500000A302DE9F0412DED068BDFED438A4FF4C876A4
S31500000A4000279FED429ADFED42AAF0EE689A05462E
S31500000A508846B0EE68AAB0EE688A86B095F82C3063
S31500000A608DED008A8DED018A8DED028A8DED038A6A
S31500000A708DED048A8DED058A63B9142401E0013CED
S31500000A8008D04FF47A71012002F0A6FB95F82C30BD
S31500000A90002BF4D00023684603A985F82C30C04704
S31500000AA09DED010ADDED007A60EE006A67EEA77A39
S31500000AB09DED020A20EE007A37EEA60A30EE070A0E
S31500000AC0B5EE400AF1EE10FA38D4F1EEC07AF4EE43
S31500000AD0C97AF1EE10FA11D4F4EEEA7AF1EE10FAD0
S31500000AE00CDCDDED036A9DED047ADDED057A3AEE68
S31500000AF026AA79EE879A78EEA78A0137013E16D0A4
S31500000B00C82FABD107EE907AF8EEE77A8AEE276A1D
S31500000B10C9EEA76A88EEA77A85ED046AC5ED056A6F
S31500000B2085ED067A06B0BDEC068BBDE8F081002F98
S31500000B30E8D100232B616B61AB61F3E707F0D8FFC7
S31500000B40F0EE407AC3E700BF000000009A99593FD3
S31500000B503333933F10B14368082B00D0704701220E
S31500000B60014B83F82C207047B401002010B1436874
S31500000B70092B00D070470122014B83F82C207047C7
S31500000B80840100202DE9F04F2DED028BC14B9DB065
S31500000B909A6818680292596812680390904708B1DB
S31500000BA00E2833D101210024BB4ABC4F1170D7F85F
S31500000BB0FC20BB4B42F08072C7F8FC205C601A68D0
S31500000BC0B84E0A431A60B84B00271C6033680026EB
S31500000BD0B64DB7482A6ADFF81C93C2F30262934007
S31500000BE0D3408342C9E900670CD9B24AB3FBF2F39A
S31500000BF0B14A00921360FFF7B7FC58B101460220D4
S31500000C00FFF79EFDAC4B00931960F4E70146012007
S31500000C10FFF796FDFFF7AEFC60B9A84BD3E900419C
S31500000C20204601F05DFF48B10E2807D0014604209A
S31500000C30FFF786FD01460320FFF782FD204601F0FF
S31500000C4091FF014610B10520FFF77AFD9C4BD3E9D1
S31500000C500041204601F044FF014620B10E2802D093
S31500000C600620FFF76DFD204601F07CFF064618B111
S31500000C7001460720FFF764FD9FED928A4FF07E53F1
S31500000C80914C924D924A84F82C0010809149A062B2
S31500000C9085F82C00A862204623602B6084ED048A28
S31500000CA084ED058A84ED068A85ED048A85ED058A3C
S31500000CB085ED068A84ED018A84ED028A84ED038A35
S31500000CC084ED078A84ED088A84ED098A85ED018A18
S31500000CD085ED028A85ED038A85ED078A85ED088A0A
S31500000CE085ED098AFFF7A4FE28467B49FFF7A0FE9B
S31500000CF06D496B4B84F82C6085F82C605B680A683C
S31500000D00D9F800000B609B1AD9F80410009A18183D
S31500000D1041F1000133461268C9F80000C9F8041011
S31500000D2002F0ECFD6D4B0DF16D0A18606C4B1E6008
S31500000D3094F82C308DED048A8DED058A8DED068AAA
S31500000D408DED078A8DED088A8DED098A8DED0A8A6B
S31500000D508DED0B8A8DED0C8A8DED0D8A8DED0E8A4B
S31500000D608DED0F8A03F0FF06002B00F0928100271D
S31500000D7007A904A884F82C70FFF702FC4A4A484BDE
S31500000D80D9F80410586813681060C01AD9F80030F2
S31500000D90009AC01841F100013B461268C9F80000EC
S31500000DA0C9F8041002F0AAFD95F82C30804603F02D
S31500000DB0FF06002B00F0D9810DA90AA885F82C7032
S31500000DC0FFF74EFC364A3848526801680260D9F887
S31500000DD00000521A1018D9F80410009A3B4641F147
S31500000DE000011268C9F80000C9F8041002F086FD77
S31500000DF00746DDED076A9DED087ADDED097A94ED8B
S31500000E00045AD4ED055A94ED066A76EEC56A37EEB5
S31500000E10657A77EEC67AA36ACDED076A8DED087A14
S31500000E20CDED097A002B00F09A81A8EB030307EEBB
S31500000E30903ADFED2C6AF8EE677A9FED2B7A87EE13
S31500000E40A60AB4EEC70AF1EE10FA00F199819FEDF9
S31500000E50277AB4EE470ADFED267AF1EE10FA37FE6E
S31500000E60800A194807AA04A9C4F82880FFF784FC59
S31500000E70002E40F082811A4B1B68002B3CD042F2B8
S31500000E800F72A8EB0303934236D80121C82002F063
S31500000E90A3F94DE7108D00004804002000ED00E0A6
S31500000EA0001000E0F00600203C04002000E00140B5
S31500000EB03F420F0040420F0080010020308C0000AE
S31500000EC0508C000000000000B401002084010020C6
S31500000ED02E04002081050000610600004404002065
S31500000EE04C040020002474496F12833A8FC2F53CEB
S31500000EF00AD7233C30040020A34BA44A1B680021D8
S31500000F00A8EB0303A2FB033611A82C2202F099FEDC
S31500000F1001235A22A5208DF841208DF842308DF804
S31500000F20433010A94FF6FF7341F221020191216867
S31500000F30D4F804E08DF84A102968D4F808C08DF872
S31500000F405A109349E768B1F800B021688DF844B0AB
S31500000F504FEA1B2B8DF845B04FEA961B8DF846B02D
S31500000F604FEA963BB60D8DF848600E0A8DF84B6039
S31500000F700E0C8DF84C600E0E8DF84D604FEA1E2655
S31500000F808DF84F604FEA1E468DF850604FEA1C26DA
S31500000F908DF853604FEA1C468DF854603E0A8DF872
S31500000FA04EE08DF852C04FEA1E6E4FEA1C6C8DF86B
S31500000FB057603E0C8DF856708DF851E08DF855C08F
S31500000FC08DF840008DF847B08DF858602968D5F83F
S31500000FD004C04FEA114E3F0E8DF85CE04FEA116EE9
S31500000FE08DF859708DF85DE0AF684FEA1C2E0E0A39
S31500000FF08DF85EC08DF85FE04FEA1C4E4FEA1C6C20
S315000010008DF85B608DF861C0EE684FEA172C8DF89D
S3150000101062708DF863C04FEA174C3F0E8DF865700D
S31500001020370A8DF866608DF867700199370C360EB1
S315000010308DF860E08DF864C08DF868708DF8696091
S3150000104083EA0023082013F4004F4FEA43039BB2C0
S3150000105000F1FF3018BF534010F0FF00F3D18A456E
S3150000106002D011F8010FEBE78DF86E301B0A8DF8F0
S315000010706F303022DDE9023010A99B6898470028BE
S3150000108075D0444B424AC3F800801388013313805D
S315000010904EE695F82C30002B3FF4F7AE0DA90AA8C2
S315000010A085F82C60FFF7DCFA3B493C4B0A685B6825
S315000010B0D9F800000B609B1AD9F80410009A18188A
S315000010C041F1000133461268C9F80000C9F804105E
S315000010D002F014FCB3468046DDED0D6A9DED0E7AF6
S315000010E0DDED0F7A95ED045AD5ED055A95ED066AB4
S315000010F076EEC56A37EE657A77EEC67AAB6ACDEDDF
S315000011000D6A8DED0E7ACDED0F7A5BB3A8EB030376
S3150000111007EE903ADFED226AF8EE677A9FED217AC4
S3150000112087EEA60AB4EEC70AF1EE10FA22D49FEDB6
S315000011301E7AB4EE470ADFED1D7AF1EE10FA37FE9D
S31500001140800A1B480DAA0AA9C5F82880FFF714FBD8
S31500001150002E3FF490AED84538BFD8468BE69FEDBB
S31500001160130A7EE69FED110AEBE7374641E6FFF7E5
S3150000117067F886E7B0EE470AE3E7C346B846ABE74B
S31500001180B0EE470A6DE600BF44040020D34D62105E
S315000011902E0400204C0400203C040020001000E037
S315000011A0002474496F12833A8FC2F53C0AD7233C58
S315000011B084010020FFF7E6BC022800D070470249F0
S315000011C0024801F083BC00BF508D0000700400206F
S315000011D008B5FFF7EFFF002008BD00BF84460020DA
S315000011E0CCE90A32CCF82410704700BF00224368CD
S315000011F010B502605A69044622B1936810681B6AEA
S31500001200984763681A6922B1936810681B6A984701
S31500001210636893F90220002A0EDB01212448530952
S3150000122002F01F02203301FA02F240F82320BFF336
S315000012304F8FBFF36F8F636893F90120002A0EDB8F
S3150000124001211B48530902F01F02203301FA02F262
S3150000125040F82320BFF34F8FBFF36F8F63680122DF
S3150000126093F903301248590903F01F03203102FA9B
S3150000127003F340F82130BFF34F8FBFF36F8F6368DE
S3150000128093F90430590903F01F039A4001F1200332
S3150000129040F82320BFF34F8FBFF36F8F0020A36862
S315000012A01A786FF386121A70DA78D87010BD00BFFC
S315000012B000E100E030B5836A85B004468C4601AD96
S315000012C0ABB193E8070085E8070062681846117815
S315000012D083F804C0E26A19609A60636A9847A36A51
S315000012E01BB195E8070083E8070005B030BD2B4623
S315000012F0EBE700BFF8B586681D4633789DF818C041
S3150000130013F0400340F08280C0E903120F464168A3
S3150000131080F820C00446C0E90533C5614869F0B1CC
S31500001320BCF10F0FA5615DD9022643681968CB7819
S3150000133066F30513CB7002268B7866F383038B70F6
S31500001340ABB2CB818A60002A6ED0836800685B6886
S315000013509847002845D1616894F820C0A6680B69B3
S3150000136003B3BCF10F0F656146D902205A681168B4
S31500001370CA7860F30512CA700220CA78ADB260F36B
S315000013808302CD81CA704F60002F54D032789D6899
S315000013906FF3451218686B683270984708BBA668E9
S315000013A094F820C0F27A338ABCF10F0FD2B29BB206
S315000013B02ED90CF1010C22F040024FEA9C0CACF144
S315000013C0050C42F02002002023F4706343EA0C2C43
S315000013D01FFA8CFCF272A6F810C0337843F0600353
S315000013E03370F8BDBCF1070F1AD841680968CE788A
S315000013F063F30516CE709EE7BCF1070F12D85A6844
S315000014001168CA786FF30512CA70B5E70820F8BDEF
S31500001410BCF1070F94BF42F0400202F09F02D2E7F0
S31500001420012682E70120A1E78B7862F383038B70A4
S31500001430044B8B6089E7D2B267F38302CA70024A13
S315000014404A60A3E7140500201805002010B594464D
S315000014508E461C4682B00021724663460094FFF712
S3150000146049FF02B010BD00BF10B594461C4682B0BD
S31500001470002263460094FFF73DFF02B010BD00BF97
S3150000148010B49DF8044001945DF8044BFFF732BF99
S315000014902DE9F04F044608780F6900F5800303F53F
S315000014A08D531B020D4685B003F10408002F00F092
S315000014B023814FF00062796838680B681A60C3F8B8
S315000014C00880BB681B6898470646002840F01081D4
S315000014D06B6973B1D3E901124FF4002618680B68E3
S315000014E012681E60C3F8048090470646002840F044
S315000014F04B81287800F5800303F58D531B020026E7
S31500001500AA6965606262EA69A360E262A6626F7AAE
S31500001510002F40F00881B82108264FF0100E6B7B93
S3150000152095F80BC02A6A1B03AD7A43EA4C032B439A
S315000015301578002D40F0FE80012505FA00F08007A1
S3150000154040F02A8192F801C0D5784FEA4C1646EA57
S315000015504C0621EACC11314390781679A84023F045
S3150000156070032D0101911EB1022E14BF20263026D4
S3150000157092F805C0BCF1000F06D0BCF1010F14BFF4
S315000015804EF0010E4EF0030E92F808C00CF0030C5C
S3150000159045EA8C052B4395790295002F40F0C680CD
S315000015A0917A92F80980D77A43F460430391EFF376
S315000015B0108A012585F310886168DFF8F89191F8A3
S315000015C000C0D9F804B0CCF1130C05FA0CFC2BEAD8
S315000015D00C0CC9F804C0D9F804C08AF310884FF07F
S315000015E0000C4FF010091FFA83FB9DF80410A36846
S315000015F05FFA80FAD878606883F803C0197083F8B8
S3150000160001A09E70D2795FFA8EFE9A72039A83F8D1
S315000016100C805A73029A9F7383F80FE0A3F810B0F8
S3150000162083F8202083F8219090F90230634580F2F8
S3150000163084805C4A90F90130002B26DB417903F166
S3150000164060400901C9B200F5614080F800135649AF
S3150000165003F1C00042F8234051F820506FF31045C3
S3150000166041F8205051F82010BFF35F8F012059092F
S31500001670890003F01F0301F1604101F5614100FAA1
S3150000168003F3C1F880310B606068017A90F9043089
S3150000169046480901444DC618C9B286F8001303F13D
S315000016A0C00142F8234055F821606FF3104645F813
S315000016B0216055F82110BFF35F8F012103F01F054C
S315000016C05B099B0003F1604303F56143A940C3F83E
S315000016D0801119600026636893F90310DB790844CA
S315000016E01B01DBB280F80033314B42F82140236006
S315000016F0304605B0BDE8F08F4A69002A3FF4FFAED8
S315000017004FF4002051680B681860C3F80480936892
S3150000171010681B689847064600283FF4EAAE304634
S3150000172005B0BDE8F08FB021B646F8E60027B8460A
S3150000173003973CE746F0B10104E7817903F1604085
S315000017400901184AC9B200F5614080F8001316492C
S3150000175003F1C00042F8234051F820606CF31046B4
S3150000176041F8206051F82010BFF35F8F03F01F018E
S315000017705B099B0003F160438D4003F56143C3F8A9
S3150000178080511D60606855E7BB6838681B6A9847DA
S31500001790304605B0BDE8F08F002F7FF4D3AE43F09E
S315000017A08003CFE6640500200060004000E100E011
S315000017B0495053520040084010B4EFF30383103BE6
S315000017C0234A5BB203F1C00152F821006FF31040C7
S315000017D042F8210052F821201E4A52F82330D3E95C
S315000017E006218A421DD0186948B393F820C0BCF17F
S315000017F00F0F0BD99968496840F82210D969013250
S315000018008A429A610DD05DF8044B7047BCF1070F10
S3150000181018D8996809798154D96901328A429A613E
S31500001820F1D15B6893F90330012203F01F000A49E6
S315000018305B09824041F823205DF8044B70479868A5
S315000018404068DCE79C68B4F804C020F812C0D6E70C
S31500001850006000406405002000E100E010B5EFF3F1
S315000018600383103B33495BB203F1C00251F82200F7
S315000018706FF3104041F8220051F822202E4A52F808
S3150000188023305C68226A82B392F801C0D869BCF141
S31500001890010F5A6918D0904210D0D96841B393F815
S315000018A020000F280BD8072898BF895C98688ABF44
S315000018B031F812100171818001325A6110BD9868A9
S315000018C051F822104160F7E700F1FF3E724512D051
S315000018D021690029DFD094F90310184801F01F028E
S315000018E00CFA02F2490940F821205A69D869D2E770
S315000018F098684160E0E794F9030000F1C00251F8EE
S3150000190022406FF3104441F8224051F82220BFF3E1
S315000019105F8F4209920000F01F0002F160420CFA4C
S3150000192000F002F56142C2F8800110605A69D86978
S31500001930B1E700BF006000406405002000E100E060
S31500001940EFF30383103B344A5BB203F1C00152F854
S3150000195021006FF3104042F8210052F821202F4A4F
S3150000196052F823008268D278920704D54268527AE8
S31500001970012A00D07047012230B45909284C03F0DF
S315000019801F03203102FA03F344F82130BFF34F8FCF
S31500001990BFF36F8F436893F90230002B32DB59098E
S315000019A003F01F0302FA03F3203144F82130BFF39A
S315000019B04F8FBFF36F8FD0E90114237891F902108E
S315000019C06FF386130029237018DB134B01F1C00453
S315000019D053F824506FF3104543F8245053F824303D
S315000019E0BFF35F8F4B099B0001F01F0103F16043BA
S315000019F08A4003F56143C3F880211A60012130BC97
S31500001A00FFF758BC8268012130BC13786FF3861348
S31500001A101370FFF74FBC00BF006000406405002054
S31500001A2000E100E070B5EFF30384354B103C64B27F
S31500001A3053F82460736893F90230002B48DB0120C9
S31500001A4030495A0903F01F03203200FA03F341F824
S31500001A502230BFF34F8FBFF36F8FD6E9013293F970
S31500001A6002301178002B6FF38611117019DB264AAC
S31500001A7003F1C00152F821506FF3104542F821508E
S31500001A8052F82120BFF35F8F03F01F025B099B0012
S31500001A9003F16043904003F56143C3F88001186089
S31500001AA0B2680021D378D1701A07DDB223D4EB07D0
S31500001AB014D405F01405142D18D0134BC03453F864
S31500001AC024206FF3104243F8242053F8243070BDCD
S31500001AD0B26813786FF386131370E2E70421304679
S31500001AE005F01405FFF7E6FB142DE6D10821304674
S31500001AF0FFF7E0FBE1E705213046FFF7DBFBD6E722
S31500001B006405002000E100E00060004010B40024FD
S31500001B100122036A44609C70C3692D4993F905301C
S31500001B204FEA531C03F01F0302FA03F30CF1200CD7
S31500001B3041F82C30BFF34F8FBFF36F8FC36993F912
S31500001B400B304FEA531C03F01F0302FA03F30CF1A8
S31500001B50200C41F82C30BFF34F8FBFF36F8FC36952
S31500001B6093F907304FEA531C03F01F0302FA03F3FD
S31500001B700CF1200C41F82C30BFF34F8FBFF36F8F61
S31500001B80C36993F909304FEA531C03F01F0302FAA5
S31500001B9003F30CF1200C41F82C30BFF34F8FBFF349
S31500001BA06F8FEFF3108182F31088C369094A93F8A7
S31500001BB000C04FF00043506823FA0CF30343536010
S31500001BC0536881F3108820465DF8044B704700BFC8
S31500001BD000E100E00040084003460020C3E905128A
S31500001BE0704700BF10B4046AA37803F07B03A370A8
S31500001BF0837803F00303D21A0B440261A278C36010
S31500001C00837842F0800203F00303022BA27005D012
S31500001C100B780020E3705DF8044B70470B880020BA
S31500001C2043F47E43E3815DF8044B7047844600200D
S31500001C30CCE90A32CCF82410704700BF70B586464E
S31500001C400024DEF820304D7893F802C00A780CF0B4
S31500001C500B069E70CEF80C4020468C7802F05C0293
S31500001C605C7093F800E00CF07B0C65F3010E83F8D2
S31500001C7000E0C9789974D97901F0A3010A43DA71B1
S31500001C8083F802C070BD00BF4FF0FF330020C1E9EA
S31500001C90003370478B0711D5002210B4046AC907B8
S31500001CA0A37803F07B03A3701346026102D50022DA
S31500001CB01346826118465DF8044B7047CA074FF019
S31500001CC0060302D50022134682611846704700BFFC
S31500001CD00346002210B49C6910460C605DF8044B64
S31500001CE09A617047F0B5846A85B005460F469446FA
S31500001CF06E46B4B194E80F0086E80F00EB69204603
S31500001D001B7884F804C02360EB6AC4E902736B6A2B
S31500001D109847AC6A1CB196E80F0084E80F0005B03E
S31500001D20F0BD3446EAE700BF0022F0B501240B7887
S31500001D30027003F5800303F58C531B0203624B69A3
S31500001D408D6943628378C16164F301038262C5626F
S31500001D5083704B7823B90222837862F30103837080
S31500001D60012491F90B50C44A6B0905F01F07203373
S31500001D7004FA07F78E7A42F82370BFF34F8FBFF34A
S31500001D806F8FBE4B05F1C00753F827C06FF3104C99
S31500001D9043F827C053F82770B94F360102EB050CFC
S31500001DA0F6B28CF8006347F8250091F905500E79D4
S31500001DB04FEA551C05F01F0E0CF1200C04FA0EFE1E
S31500001DC042F82CE0BFF34F8FBFF36F8F05F1C00CC5
S31500001DD053F82CE06FF3104E43F82CE053F82CC068
S31500001DE0360102EB050CF6B28CF8006347F82500C5
S31500001DF091F907508E794FEA551C05F01F0E0CF12C
S31500001E00200C04FA0EFE42F82CE0BFF34F8FBFF30E
S31500001E106F8F05F1C00C53F82CE06FF3104E43F8AA
S31500001E202CE053F82CC0360102EB050CF6B28CF808
S31500001E30006347F8250091F909500E7A4FEA551CC0
S31500001E4005F01F0E0CF1200C04FA0EFE42F82CE0F1
S31500001E50BFF34F8FBFF36F8F05F1C00C53F82CE023
S31500001E606FF3104E43F82CE053F82C303301DBB2FD
S31500001E702A4482F8003347F82500EFF3108584F3EF
S31500001E8010884FF000447F4B0E785A68F44022EADF
S31500001E9004025A605B6885F31088002240F2F93428
S31500001EA0036A40F2F9359A701A715A729A72DA72A6
S31500001EB05A830A7824FA02F2D60744BF4022DA741B
S31500001EC00622CC691A770A784E78D540ED078F78C6
S31500001ED0CA7848BF4FF478414FEAC20248BF998298
S31500001EE0032E42EA071200F0C280002E14BFF22130
S31500001EF0E221D2B21A709971227B082A0EBF0A22F9
S31500001F00520002F002025A736278A178D2014901A6
S31500001F1001F02001D2B20A430021197294F800C0E0
S31500001F20ACF10201012940F29880D2B2DA716268FE
S31500001F30917855785970197865F301011970D1783F
S31500001F4012789974D97902F05C0201F0A3010A4370
S31500001F50DA710022C16902618261C260426191F94F
S31500001F600550464B05F1C00153F8216062F3104657
S31500001F7043F8216053F82110BFF35F8F01266909EA
S31500001F80890005F01F0501F1604101F5614106FA7E
S31500001F9005F5C1F880510D60C16991F90B5005F145
S31500001FA0C00153F8217062F3104743F8217053F8CB
S31500001FB02110BFF35F8F6909890005F01F0501F144
S31500001FC0604106FA05F501F56141C1F880510D60E1
S31500001FD0C16991F907E00EF1C00153F8215062F38F
S31500001FE0104543F8215053F82110BFF35F8F4FEA95
S31500001FF05E1189000EF01F0E01F1604106FA0EF522
S3150000200001F56141C1F880510D60C16991F909106E
S3150000201001F1C00553F8257062F3104743F82570A7
S3150000202053F82530BFF35F8F4B099B0001F01F016A
S3150000203003F160438E4003F56143C3F880611E607F
S31500002040036A0CF0030C4CF0700C618983F802C033
S315000020500D4B018143601046F0BDFF21BCF1020F1C
S3150000206008BF42F01002D2B25970DA7171E7F2215C
S3150000207042F040023DE700BF00E100E000600040A2
S3150000208064050020004008405549435330B4EFF33F
S315000020900383103B1F4A5BB203F1C00152F82100D3
S315000020A06FF3104042F8210052F821201A4A52F8E4
S315000020B02300C3691B691BB103691BB130BC7047A0
S315000020C003697BB9D0E908240021937803F07F03E4
S315000020D043F004039370C160002CEFD030BC802223
S315000020E0FFF700BE827802F003010229C1680BD017
S315000020F0046A91F800C084F803C002F003029B1A38
S315000021000A44C0E90323D8E70C88056A44F47E44F0
S31500002110EC81F2E7006000406405002010B582B053
S31500002120EFF30383103B1F4A5BB203F1C00152F881
S3150000213021006FF3104042F8210052F821201A4A7C
S3150000214052F82340A27802F00303022B236A0CBF45
S31500002150198A5979A3690CBFC1F30801C9B2019163
S3150000216043B9636AB3B10422204602B0BDE8104009
S31500002170FFF7B8BD02F0030201A9606901F054FD42
S31500002180D4E90521A37803F003031A44C91AC4E964
S31500002190052109B102B010BD636A002BFAD00122F5
S315000021A0E2E700BF006000406405002010B5EFF3D1
S315000021B003830E4A103B5CB252F82400D0E9082192
S315000021C0937803F07B03937019B102220021FFF785
S315000021D089FD074A04F1C00352F823106FF310413A
S315000021E042F8231052F8233010BD00BF64050020CA
S315000021F00060004010B5EFF303831A4A103B5CB24F
S3150000220052F82400837803F00303022B036A0CBF01
S31500002210198A597993F804C00CBFC1F30801C9B2F1
S315000022201CF0100F0CF0380206D093F81CC01CF0FE
S31500002230010F08BF42F0400293F804C00CF0C70C2F
S3150000224083F804C0436A0BB1FFF74CFD064A04F15C
S31500002250C00352F823106FF3104142F8231052F8CE
S31500002260233010BD64050020006000408446002035
S31500002270CCE90932CCF82010704700BF4FF0000CB3
S31500002280012210B58368044683F802C043682E49CC
S3150000229093F90230580903F01F0302FA03F32030C2
S315000022A041F82030BFF34F8FBFF36F8F636893F908
S315000022B00130580903F01F0302FA03F3203041F8F6
S315000022C02030BFF34F8FBFF36F8F636893F90430ED
S315000022D0580903F01F0302FA03F3203041F82030B7
S315000022E0BFF34F8FBFF36F8F636893F903305809BD
S315000022F003F01F0302FA03F3203041F82030BFF346
S315000023004F8FBFF36F8FEFF3108182F310884FF07A
S31500002310004360680D4A0078C34050680343536029
S31500002320536881F3108863685A6922B1936810680C
S315000023301B6A984763681B691BB19A681868136A19
S3150000234098470020206010BD00E100E000400840F2
S3150000235030B5436A85B004468C4601ADABB193E80F
S31500002360070085E8070062681846117883F804C0FC
S31500002370A26A19609A60236A9847636A1BB195E856
S31500002380070083E8070005B030BD2B46EBE700BF2A
S315000023902DE9F04F00220C460B78896903F580037E
S315000023A003F58C530162E169426262691B020546CC
S315000023B0C0E9014385B08162002A00F03C814FF4F8
S315000023C000265168053308684360936806601B68F9
S315000023D0106898470646002840F0298122697AB19C
S315000023E0AB684FF0006651680333086883609368F2
S315000023F006601B68106898470646002840F0218151
S315000024006B68D3F820C09CF902109CF802E0002902
S31500002410597AB2BF042000204FF0FF0E012918BFE1
S315000024204FF00008997A9CF8012006BF4FF0020889
S315000024300526464602F00302012942F08002D97AB7
S31500002440019000F00981012914BF46F0800646F08C
S31500002450C006597B002914BFE221EA210391EFF35C
S315000024601087012080F310884FF0004193F8009008
S315000024707C4B21FA09F9596821EA090159605B6820
S3150000248087F31088D3B21F46F3B202930023AA68DB
S315000024904FF0840A937092F804904FF6000982F880
S315000024A004A0A2F814901770039F82F80280977117
S315000024B09CF800C0019F82F801C082F812E0D77133
S315000024C0029F4FF0020B57734FF04007137253727F
S315000024D09372D3725383D77482F81CB094F805C0F4
S315000024E094F90120604E614F4FEA0C1C604906EBDF
S315000024F0020E5FFA8CFC8EF800C302F1C00C47F89E
S31500002500225051F82CE063F3104E41F82CE051F8BC
S315000025102CC0BFF35F8F4FEA521C0CFA0BFC02F083
S315000025201F020CF1604C00FA02F20CF5614CCCF87B
S315000025308021CCF8002094F806C094F902204FEAD6
S315000025400C1C06EB020E5FFA8CFC8EF800C302F13F
S31500002550C00C47F8225051F82CE063F3104E41F8B6
S315000025602CE051F82CC0BFF35F8F4FEA521C0CFAD7
S315000025700BFC02F01F020CF1604C00FA02F20CF5A3
S31500002580614CCCF88021CCF8002094F807C094F96F
S3150000259003204FEA0C1C06EB020E5FFA8CFC8EF849
S315000025A000C302F1C00C47F8225051F82CE063F347
S315000025B0104E41F82CE051F82CC0BFF35F8F4FEA64
S315000025C0521C0CFA0BFC02F01F020CF1604C00FAD4
S315000025D002F20CF5614CCCF88021CCF8002094F87E
S315000025E008C094F904204FEA0C141644E4B286F8A5
S315000025F0004302F1C00447F8225051F8246063F307
S31500002600104641F8246051F82410BFF35F8F02F0A2
S315000026101F01520902FA0BF202F16042884002F5EC
S315000026206142C2F8800110601E46124B2B60304694
S3150000263005B0BDE8F08F2269002A7FF4D2AE2346AA
S31500002640DFE66369002BF2D09A681868136A984728
S31500002650304605B0BDE8F08F00297FF4FAAE46F0AB
S315000026604006F6E60040084000E100E06405002070
S31500002670006000405349435370B51D4683689B78FC
S3150000268013F0300334D1C0E9053343681646C0E978
S3150000269003121A690446C56192B1536845611B6805
S315000026A0A8B2D88131B302205960D97860F383018A
S315000026B0D9701946936810685B689847B8B963681B
S315000026C0596951B14EB18B680868324600219E683F
S315000026D0A561ABB2B04750B96368206988B1186983
S315000026E0A8B10020A268937843F0F003937070BD00
S315000026F0082070BDD87861F383002849D8705960E6
S31500002700D7E7A268937843F0A003937070BD5A6927
S31500002710A168002A14BFF02570258A7842EA0502CE
S315000027208A70E4D1012193F901301D485A0903F05A
S315000027301F03203201FA03F340F82230BFF34F8F14
S31500002740BFF36F8F6369E269934206D2D4E902014F
S3150000275001B3C95CC170013363616368597A0129A9
S315000027600BD093F90130012203F01F000C495B09DD
S31500002770824041F82320002070BD012AF1D9616909
S315000027808A42EED9D4E9020232B1525CC2700131FA
S315000027906161E6E7C170DEE7C270F8E71C0500205C
S315000027A000E100E08C46134600216246FFF764BF55
S315000027B013460022FFF760BFFFF75EBF10B4EFF3CA
S315000027C00383103B174A5BB203F1C00152F82100A4
S315000027D06FF3104042F8210052F82120124A52F8B5
S315000027E023305A69D9698A4206D2D868B0B1805C6A
S315000027F09C68E07001325A618A4202D05DF8044B4F
S3150000280070471A69002AF9D19A685DF8044B9378E3
S3150000281003F07B0343F00403937070479C68E070F9
S31500002820E8E700BF006000406405002010B4EFF345
S315000028300383103B194A5BB203F1C00152F8210031
S315000028406FF3104042F8210052F82120144A52F842
S3150000285023305A69D9698A4206D2D3E90240D0B1F7
S31500002860805CE07001325A619A698A4207D29868A0
S3150000287019694079541C9C618854D3E90621914218
S3150000288006D19A68937803F03B0343F004039370F0
S315000028905DF8044B7047E070E4E700BF006000405D
S315000028A06405002010B5EFF303830C4A103B5CB2BD
S315000028B052F8240001218268937803F00303937091
S315000028C0FFF746FD064A04F1C00352F823106FF3E2
S315000028D0104142F8231052F8233010BD6405002041
S315000028E00060004010B5EFF303834FF0840C0E4AEE
S315000028F0103B5CB252F82400042183689A7802F0F7
S3150000290003029A701A7983F804C0FFF721FD074A7B
S3150000291004F1C00352F823106FF3104142F823105C
S3150000292052F8233010BD00BF64050020006000404F
S315000029300123C8B283404AB91A040B0A5B0103F1AA
S31500002940804303F5002300209A6070479AB2F4E7AB
S315000029502DE9F84F0388002B3DD007464FF00008BD
S31500002960DFF8A4A040F202427B684FEAC805591975
S315000029708988002491424FF00109224E09D0013482
S31500002980032C23D07B6836F8022B5919898891428B
S31500002990F5D15B5909FA04F203F0B853B3F1807F1D
S315000029A05FFA82FB19D09AF8BB341A42E7D00120AD
S315000029B000F0E2FC9AF8BB34012023EA0B0B8AF8FC
S315000029C0BBB4013400F0A8FC032CDBD13B8808F132
S315000029D001084345C6D8BDE8F88F9AF8BB2409FA22
S315000029E004F313425FFA83FBC9D1012000F0C4FC53
S315000029F09AF8BB3401204BEA030B8AF8BBB400F00B
S31500002A008BFCBCE7268F000000E00140F8B50446C9
S31500002A10FFF79EFFEFF31082012383F31088284E01
S31500002A2033681BB92749CB704023CB703368013319
S31500002A30336082F3108823887BB3626803F1FF3E1C
S31500002A401FFA8EFE02F108011F4C01EBCE0E08E0C4
S31500002A50D2B21B0113448E450A4644F823001CD00B
S31500002A6008311068928810F4803F4FEA1223EFD0A5
S31500002A70130AD2B202EB031C54F82C701B01134448
S31500002A8020F480356FF310478E4544F82C700A46C3
S31500002A9044F82C5044F82300E2D1EFF310820123CE
S31500002AA083F31088336813B13368013B33603368AE
S31500002AB01BB980200349CB70C87082F31088F8BD1B
S31500002AC060050020000D08400008084008B5034BCB
S31500002AD003600846FFF79AFF002008BD54524F5086
S31500002AE0F0B50346002591F902C01B4C4FEA8C0253
S31500002AF002F1804280F804C002F5C042D1E90270BA
S31500002B00D2F80063C2F80053C3E9027091F800E0FE
S31500002B10BCF1000F83F805E004F80E500D79C87873
S31500002B2040EA05104D7940EAC510C0B204F80E001F
S31500002B30C2F800630BDB4A78084812010CF16041C9
S31500002B40D2B201F5614181F8002340F82C30044AE5
S31500002B5000201A60F0BD00BF006000406405002040
S31500002B605543490090F904200E4B02F1C00153F879
S31500002B7021006FF3104043F8210053F82130BFF3D2
S31500002B805F8F012153099B0002F01F0203F160438E
S31500002B9003F5614301FA02F2C3F880211A600020AE
S31500002BA0704700BF00600040012110B490F9043066
S31500002BB0084C5A0903F01F0301FA03F3203244F8C4
S31500002BC02230BFF34F8FBFF36F8F00205DF8044BA9
S31500002BD0704700BF00E100E003460020C3E902128F
S31500002BE0704700BF90F90430002B1ADB012110B4A6
S31500002BF05A090E4C03F01F03203201FA03F344F87E
S31500002C002230BFF34F8FBFF36F8F0021084B90F92F
S31500002C1004205DF8044B43F8221000230360184695
S31500002C207047002303601846704700BF00E100E0CC
S31500002C306405002010B582B0EFF30384184B103CF6
S31500002C4064B253F82410174A4879135C03F003035F
S31500002C50032B11D0C03452F824306FF3104342F8DE
S31500002C60243052F824308B6823B1CA68CDE900209D
S31500002C706846984702B010BD8B6823B1CA68CDE993
S31500002C80002068469847074BC03453F824206FF35A
S31500002C90104243F8242053F8243002B010BD00BF80
S31500002CA0640500200060004030B490F90400204D17
S31500002CB082B0019100F1C00C009255F82C201D4CF9
S31500002CC06FF3186245F82C2055F82C10C1F3080153
S31500002CD041F40041E28992B28A42FBD00822227472
S31500002CE0019A1AB3144A019C52F820104C600099BC
S31500002CF019B152F82010009C8C6052F82010CA7846
S31500002D0002F0C002802A0FD002B9CB811821002020
S31500002D10084B074A197452F82C3043F0807342F876
S31500002D202C3002B030BC70478B81EFE7024ADEE7F9
S31500002D30006000400054004000000020062070475C
S31500002D4006207047034693F904300549C03351F80D
S31500002D502320002042F0807241F82320704700BFF4
S31500002D6000600040034693F90430054AC03352F828
S31500002D70231000206FF3186142F82310704700BF3C
S31500002D800060004010B40024154B90F9042053F85D
S31500002D902220D378C1E9004413F0C0030BD04FF4CE
S31500002DA08074D089802BC0B2C1E902400DD00020CA
S31500002DB05DF8044B70474FF48030D3895DF8044BBF
S31500002DC09BB2C1E90203002070474FF4803093891B
S31500002DD05DF8044B9BB2C1E900030020704700BFB9
S31500002DE0000000200346002270B493F90410084C3A
S31500002DF001F1C00C54F82C50064E6FF3186544F8D8
S31500002E002C50104646F821201A6070BC704700BF4F
S31500002E100060004000000020274AF8B513780546F8
S31500002E200C463BB3636893F9000000283FDB234E52
S31500002E3056F82030002B3CD128712468B4B12346C3
S31500002E40DA78194612F0C00F04D0DA89D2B242EA13
S31500002E500222DA818A78103312F0C00FF0D10822EC
S31500002E60174B1A74182246F820401A74154B002086
S31500002E702B60F8BD01261670EFF3108086F31088DC
S31500002E80114A116821F480011160126880F31088DC
S31500002E900A4F19464FF4C072384600F0D2FE084B6E
S31500002EA05F611E73636893F900000028BFDA0B2088
S31500002EB0F8BD0820F8BD00BF1D0500200000002059
S31500002EC000540040004354440040084010B590F9B7
S31500002ED004E01A4B0EF1C00C53F82C20184C6FF37B
S31500002EE0186243F82C2053F82C20C2F3080242F44F
S31500002EF00042E3899BB29342FBD00B46DA78184630
S31500002F0012F0C00F04D0DA89D2B242EA0222DA8184
S31500002F108078103310F0C000F0D108221824084B36
S31500002F201A74084A42F82E10044A1C7452F82C30BF
S31500002F3043F0807342F82C3010BD00BF00600040A3
S31500002F40005400400000002010B582B0EFF3038368
S31500002F50103B0E4A5BB203F1C00152F821006FF339
S31500002F60104042F8210052F82120094A01A852F8DF
S31500002F70234063685B68D3E9033201929847A368EC
S31500002F80DA680AB101221A7702B010BD006000406B
S31500002F90640500202DE9F04184B0EFF30383103B74
S31500002FA0214A5BB203F1C00152F821006FF31040D1
S31500002FB042F8210052F821201C4A52F82340237B74
S31500002FC0A5686BB30C3562682B781278DBB2012AE0
S31500002FD004D1F42203F0F0032A702B70D4F8148085
S31500002FE0B8F1000F15D0A66901AFDEB196E807006B
S31500002FF087E807009B0644BF00233371E369304628
S315000030003360C047A3691BB197E8070083E8070050
S315000030102B78DBB203F00F032B7004B0BDE8F08110
S315000030200835D0E73E46E5E700600040640500202D
S31500003030064B074993F826001A6A51F82030C2F366
S3150000304002620449D3400B60704700BF00E00140B4
S31500003050E4030020F0060020F8B54AF203500123ED
S315000030603749384AA1F8FE03A2F80431B2F8043110
S315000030709BB2002BFAD101214FF400454FF0090C09
S31500003080314CDFF8DCE0314EC4F804E0DFF8D4E080
S315000030902B48C4F80CE02E4FA2F800112D4AB1605F
S315000030A031606261276090F82620A5602561056A77
S315000030B054F82220C5F30265EA40274D2A6080F8BD
S315000030C0133480F8A2C090F8803493B300231C49CF
S315000030D081F8813481F8803481F8323091F83C30BF
S315000030E01A07FBD543F202100023154A088581F81A
S315000030F02A3092F83C309B06FBD503200523114964
S3150000310081F81C0115490120116282F8263092F8D7
S315000031102630116A54F82330C1F30261CB402B608C
S315000031204FF4254382F8300082F85200A2F8FE33AD
S31500003130F8BD80F8801440F2C44000F04DF8C5E7B1
S3150000314000E0014000C00140E403002000700040A0
S31500003150002D310100C2EB0BF006002021120120E8
S3150000316000127A0000366E0138B50025134C012195
S31500003170C82084F8285000F02FF884F8245094F8DA
S315000031802430002BFBD194F824300C4A43F0020380
S3150000319084F8243092F82430C3F340049B07F9D412
S315000031A0012082F8224000F0E7F8054B012083F861
S315000031B0BB44BDE8384000F0AFB800BF003008405F
S315000031C000E00140704700BF00BEFEE7A0F101002D
S315000031D00028FBD1704700BF10B54FF47A72164C29
S315000031E0164B24684FF0000EB3FBF4FC4FF0FF3390
S315000031F000FB01F1A1FB020483427EEB040407D32A
S31500003200B0FBFCF0800880B1BDE81040FFF7DEBFE0
S315000032104FEA8C0CB1FBFCF1A1FB02128B427EEB58
S31500003220020203D308460028EED110BD1846BDE8B9
S315000032301040FFF7CBBF00BFF006002000CA9A3B44
S3150000324070B500240A4B0B4EB3F84051ADB225FAC7
S3150000325004F3DB07E0B203D556F8243003B19847F0
S315000032600134102CF3D1024BA3F8305170BD00BFCE
S31500003270006000402005002030B56FF0FF0585B0E6
S31500003280032000F079F84FF0FF311F4C1F4822460B
S31500003290856400230125CDE90111039104F1C00ED7
S315000032A032F8020F590960B104A800EB810151F808
S315000032B00C0C03F01F0C05FA0CFC20EA0C0041F87C
S315000032C00C0C724503F10103EAD10199104B0F4A28
S315000032D003201167C3F8801202995167C3F884125C
S315000032E003999167C3F8881200F016F8002309487D
S315000032F003F1C00234F8021F0133602B40F822109C
S31500003300F6D105B030BD00BF0E8E00000080004033
S3150000331000E100E000600040EFF31081012383F339
S315000033201088124B33F8102092B22AB133F81020CD
S31500003330013A92B223F8102033F810309BB293B9B9
S315000033400B4A10B4B2F8FE330A4C9BB234F81000A4
S3150000335043F4254323EA0003A2F8FE3381F31088E1
S315000033605DF8044B704781F310887047E40600202F
S3150000337000E00140648F000030B4EFF310810123B8
S3150000338083F310880E4A32F810309BB26BB90D4C9D
S315000033900D4DB4F8FE3335F810C09BB243EA0C036A
S315000033A043F425439BB2A4F8FE3332F810300133C0
S315000033B09BB222F8103081F3108830BC704700BFF2
S315000033C0E406002000E00140648F00000D4908B5C6
S315000033D00A6803464AB103330B4823F00303134438
S315000033E0834206D810460B6008BD084802460860AE
S315000033F0F1E700F013FC0C234FF0FF320360104698
S3150000340008BD00BFEC0600200827002008070020A2
S3150000341000BE704708B500F003F8FDF7D9FEFEE7D9
S315000034204FF4700270B5254B254CC3F88820002058
S315000034309C60FDF7C1FEFFF70FFE0120FDF7BCFE05
S315000034402368A3F5805383F30A881E481E4A002189
S31500003450121A00F0F6FB1D481D4A1E49121A00F00A
S31500003460E3FB1D4D1D4B5B1B002B07DD00249E104F
S3150000347055F8043B01349847A642F9DCFFF7D8FD1E
S31500003480FFF772FE0320FFF777FF00234FF6FF706A
S31500003490134903F108020133092B21F81200F8D170
S315000034A00320FFF739FF0220FDF786FEFFF7E4FE53
S315000034B0BDE870400020FFF785BE00BF00ED00E0CC
S315000034C00000000000040020040700208001002006
S315000034D0E40300204C940000DC030020E0030020FD
S315000034E0000D084081F0004102E000BF83F0004378
S315000034F030B54FEA41044FEA430594EA050F08BF89
S3150000350090EA020F1FBF54EA000C55EA020C7FEA4C
S31500003510645C7FEA655C00F0E2804FEA5454D4EBC9
S315000035205555B8BF6D420CDD2C4480EA020281EA93
S31500003530030382EA000083EA010180EA020281EACB
S315000035400303362D88BF30BD11F0004F4FEA01311D
S315000035504FF4801C4CEA113102D0404261EB41012C
S3150000356013F0004F4FEA03334CEA133302D05242B2
S3150000357063EB430394EA050F00F0A780A4F101046E
S31500003580D5F1200E0DDB02FA0EFC22FA05F28018A8
S3150000359041F1000103FA0EF2801843FA05F359418E
S315000035A00EE0A5F120050EF1200E012A03FA0EFC0D
S315000035B028BF4CF0020C43FA05F3C01851EBE37137
S315000035C001F0004507D54FF0000EDCF1000C7EEB54
S315000035D000006EEB0101B1F5801F1BD3B1F5001F92
S315000035E00CD349085FEA30004FEA3C0C04F10104B1
S315000035F04FEA445212F5800F80F09A80BCF1004FDA
S3150000360008BF5FEA500C50F1000041EB045141EA5B
S31500003610050130BD5FEA4C0C404141EB0101013C24
S3150000362028BFB1F5801FE9D291F0000F04BF014613
S315000036300020B1FA81F308BF2033A3F10B03B3F1E5
S3150000364020020CDA0C3208DD02F1140CC2F10C0275
S3150000365001FA0CF021FA02F10CE002F11402D8BFD3
S31500003660C2F1200C01FA02F120FA0CFCDCBF41EA9F
S315000036700C019040E41AA2BF01EB0451294330BD6E
S315000036806FEA04041F3C1CDA0C340EDC04F114044B
S31500003690C4F1200220FA04F001FA02F340EA030022
S315000036A021FA04F345EA030130BDC4F10C04C4F168
S315000036B0200220FA02F001FA04F340EA0300294648
S315000036C030BD21FA04F0294630BD94F0000F83F492
S315000036D0801306BF81F480110134013D4EE77FEA75
S315000036E0645C18BF7FEA655C29D094EA050F08BFC1
S315000036F090EA020F05D054EA000C04BF19461046A2
S3150000370030BD91EA030F1EBF0021002030BD5FEAE5
S31500003710545C05D14000494128BF41F0004130BD0D
S3150000372014F580043CBF01F5801130BD01F0004561
S3150000373045F0FE4141F470014FF0000030BD7FEAD4
S31500003740645C1ABF194610467FEA655C1CBF0B46CF
S31500003750024650EA013406BF52EA033591EA030FE6
S3150000376041F4002130BD00BF90F0000F04BF0021DE
S31500003770704730B54FF4806404F132044FF0000511
S315000037804FF0000150E700BF90F0000F04BF00218A
S31500003790704730B54FF4806404F1320410F00045F0
S315000037A048BF40424FF000013EE700BF42004FEAEB
S315000037B0E2014FEA31014FEA02701FBF12F07F4368
S315000037C093F07F4F81F06051704732F07F4208BF1F
S315000037D0704793F07F4F04BF41F40021704730B526
S315000037E04FF4607401F0004521F000411CE700BF72
S315000037F050EA010208BF704730B54FF000050AE0F5
S3150000380050EA010208BF704730B511F0004502D5F5
S31500003810404261EB41014FF4806404F132045FEAF7
S31500003820915C3FF4D8AE4FF003025FEADC0C18BFA0
S3150000383003325FEADC0C18BF033202EBDC02C2F192
S31500003840200300FA03FC20FA02F001FA03FE40EA24
S315000038500E0021FA02F11444BDE600BF4FEA410210
S31500003860B2F1E04324BFB3F5001CDCF1FE5C0DD9D8
S3150000387001F0004C4FEAC0024CEA5070B2F1004F22
S3150000388040EB830008BF20F00100704711F0804F25
S3150000389021D113F13872BCBF01F00040704741F4EA
S315000038A080114FEA5252C2F11802C2F1200C10FAEE
S315000038B00CF320FA02F018BF40F001004FEAC123D2
S315000038C04FEAD32303FA0CFC40EA0C0023FA02F376
S315000038D04FEA4303CCE77FEA625307D150EA01334C
S315000038E01EBF4FF0FE4040F44000704701F000401C
S315000038F040F0FE4040F40000704700BF53B94AB99B
S31500003900002908BF00281CBF4FF0FF314FF0FF30E1
S3150000391000F082B9ADF1080C6DE904CE00F006F8AE
S31500003920DDF804E0DDE9022304B070472DE9F04F2D
S31500003930099D04460F46002B48D18A42944661D918
S31500003940B2FA82F343B1C3F120019F4002FA03FCAD
S315000039509C4020FA01F10F434FEA1C411FFA8CFEEE
S31500003960220CB7FBF1F601FB167706FB0EF042EAD6
S315000039700742904208D91CEB020206F1FF3702D239
S31500003980904200F237813E46121AA4B2B2FBF1F021
S3150000399001FB102200FB0EFE44EA0244A64508D9AC
S315000039A01CEB040400F1FF3202D2A64500F21C8192
S315000039B0104640EA0640A4EB0E0400261DB1DC408A
S315000039C00023C5E900433146BDE8F08F8B4209D993
S315000039D0002D00F0FD800026C5E900013046314685
S315000039E0BDE8F08FB3FA83F6002E4BD18B42C0F0C0
S315000039F0F280824240F2EF803046002DE3D0C5E9E6
S31500003A000047E0E702B9FFDEB2FA82F3002B40F08E
S31500003A109D80891A4FEA124E97B20126200CB1FBFF
S31500003A20FEF20EFB121140EA014107FB02F088424A
S31500003A300FD91CEB010102F1FF382CBF4FF0010931
S31500003A404FF00009884203D9B9F1000F00F0CF808A
S31500003A504246091AA4B2B1FBFEF00EFB101100FBA0
S31500003A6007F744EA0144A74208D91CEB040400F115
S31500003A70FF3102D2A74200F2B4800846E41B40EAB6
S31500003A8002409BE7C6F12007B34001FA06F422FA8A
S31500003A9007FCF940B2404CEA030C20FA07F34FEA60
S31500003AA01C491C431FFA8CFE00FA06F3200CB1FBDE
S31500003AB0F9F809FB181140EA014108FB0EF08842AB
S31500003AC00FD91CEB010108F1FF3A2CBF4FF0010B97
S31500003AD04FF0000B884203D9BBF1000F00F08D8038
S31500003AE0D046091AA4B2B1FBF9F009FB101100FB8C
S31500003AF00EFE44EA01418E4507D91CEB010100F197
S31500003B00FF3401D28E457FD8204640EA0840A1EB1B
S31500003B100E01A0FB029841454C46C64602D306D18B
S31500003B204B4504D20138B9EB020468EB0C0E002DAC
S31500003B3070D01A1B61EB0E0122FA06F301FA07F7A1
S31500003B40F14000261F43C5E900713CE702FA03FC79
S31500003B50C3F1200001FA03F221FA00F64FEA1C4EE7
S31500003B6024FA00F11FFA8CF79C401143B6FBFEF0D5
S31500003B700A0C0EFB106642EA064200FB07F6964266
S31500003B800ED91CEB020200F1FF382CBF4FF00109E1
S31500003B904FF00009964202D9B9F1000F31D04046E4
S31500003BA0921B89B2B2FBFEF60EFB162241EA0241D7
S31500003BB006FB07F28A4207D91CEB010106F1FF3822
S31500003BC001D28A4223D84646891A46EA004625E7A4
S31500003BD02E462846F7E6841A61EB030301201F46AA
S31500003BE00BE76444023849E764440238E1E6023AE6
S31500003BF061442EE7023E6244C6E6A8F1020861442B
S31500003C006FE702386244CBE7023861447DE7023E43
S31500003C106144D9E72E46D6E6704700BF014B1868C7
S31500003C20704700BF080200200A44431E914200D19B
S31500003C30704710B511F8014B914203F8014FF9D1C5
S31500003C4010BD02440346934200D1704703F8011B9E
S31500003C50F9E72DE9FF4755EC104B002D0E461946A6
S31500003C602B46B4BF05F1004300239146BFBF224651
S31500003C701D462D231446DDF830A00B700D9B23F056
S31500003C802008B8F1460F05D0B8F1450F00D101362E
S31500003C90022100E0032103AB3246019302AB45EC5F
S31500003CA0104B0093534601F0D7FDB8F1470F074676
S31500003CB002D119F0010F22D0B8F1460F07EB060921
S31500003CC010D13B78302B0AD100220023204629460A
S31500003CD004F048FE18B9C6F10106CAF80060DAF821
S31500003CE000309944002200232046294604F03AFE7B
S31500003CF008B1CDF80C903022039B4B4507D3039BAC
S31500003D0038460E9ADB1B136004B0BDE8F087591CD9
S31500003D1003911A70F0E7F7B500290346B8BF494288
S31500003D2003F8022BB4BF2D222B22092942702ADD6B
S31500003D300DF107040A27A4460A46A646013C632A53
S31500003D4091FBF7F607FB1615314605F130050EF81F
S31500003D50015CF1DC3031AEF1020504F8011C441CB3
S31500003D60294661450AD30DF10902A2EB0E0265450B
S31500003D7088BF00221344181A03B0F0BD11F8012BB6
S31500003D8004F8012FEDE7302330318370031DC17035
S31500003D90F1E7FFFF2DE9F04F2DED028B8DB00C46BC
S31500003DA016461F46DDF86080054602F0A5FFD0F8EE
S31500003DB000A0504600F00AFE002394F818B008EE62
S31500003DC0100A0A9323680593D8F80030073323F0C6
S31500003DD0070303F10802C8F80020D3E90023C4E969
S31500003DE01223D4E912894FF0FF3229F00043CDF8AF
S31500003DF0188007939E4BDDE9060104F0E5FD88BBBC
S31500003E004FF0FF329A4BDDE9060104F0BFFD48BBD7
S31500003E10002200234046494604F0AEFD10B12D2392
S31500003E2084F84330934B9448BBF1470F94BF9846B0
S31500003E30804603234FF000092361059B23F004020B
S31500003E40226033460BAA21462846009700F0D8F98F
S31500003E50013040F090804FF0FF300DB0BDEC028B8A
S31500003E60BDE8F08F42464B464046494604F0ACFD5D
S31500003E7040B14B468148002BBCBF2D2384F843300C
S31500003E807F4BD1E70BF0DF02636806925A1C3FD1E5
S31500003E9006236360059B2846616843F4806200231D
S31500003EA003930AAB2260CDE901B309AB49EC108B51
S31500003EB000930DF12303FFF7CCFE069B804609997C
S31500003EC0472B08D1C81C02DB6368994241DDABF180
S31500003ED0020B5FFA8BFBBBF1650F20D801395A46FE
S31500003EE004F150000991FFF716FF0A9A814613184C
S31500003EF0012A236102DC2268D20701D5013323613E
S31500003F009DF82330002B9CD02D2384F8433098E76E
S31500003F10069A472ABED1002BBCD10123B9E7BBF1D3
S31500003F20660F18D1002963680BDD216113B9226879
S31500003F30D00702D501330B4423614FF00009A16578
S31500003F40DEE713B92268D20701D50233F4E701236D
S31500003F50F2E74FF0670B0A9B994205DB2368216164
S31500003F60D807EAD54B1CE7E70029D4BFC1F1020206
S31500003F7001221344E0E723685A0507D42369424621
S31500003F8031462846B84701302CD164E7BBF1650FAE
S31500003F9040F2E08000220023D4E9120104F0E2FCA2
S31500003FA0002834D00123374A31462846B847013025
S31500003FB03FF451AFDDE909239A4202DB2368D807B3
S31500003FC010D518EE103A524631462846B847013009
S31500003FD03FF441AF4FF0000804F11A090A9B013B78
S31500003FE0434509DC23689B0700F10581E0680B9BCC
S31500003FF09842B8BF184630E701234A46314628465C
S31500004000B84701303FF427AF08F10108E6E7099BFE
S31500004010002B39DC01231B4A31462846B8470130BC
S315000040203FF419AFDDE90923134302D12368D90709
S31500004030D8D518EE103A524631462846B8470130D0
S315000040403FF409AF4FF0000904F11A0A099B5B42DD
S315000040504B4501DC0A9B92E701235246314628462E
S31500004060B84701303FF4F7AE09F10109EEE700BFAA
S31500004070FFFFEF7F708F0000748F00007C8F0000C1
S31500004080788F0000808F00000A9AA36D9A42A8BF1D
S315000040901A46002A914637DC4FF0000B29EAE979E7
S315000040A004F11A02A36D0593A3EB09035B4533DC08
S315000040B0DDE909239A423BDB2368DA0738D40A9BF9
S315000040C0059A09999A1AA3EB01099145A8BF914649
S315000040D0B9F1000F35DC4FF0000829EAE97904F15F
S315000040E01A0ADDE909239B1AA3EB090343457FF767
S315000040F079AF0123524631462846B84701303FF48E
S31500004100AAAE08F10108ECE71346314642462846B6
S31500004110B8470130C0D19EE60123314628460592B4
S31500004120B84701303FF497AE0BF1010B059AB9E79A
S3150000413018EE103A524631462846B8470130BED1ED
S3150000414089E6059A4B46314628464244B84701302F
S31500004150C1D180E60A9A012A01DCDB0738D50123A2
S31500004160424631462846B84701303FF474AE18EE51
S31500004170103A524631462846B84701303FF46BAEF6
S3150000418000220023D4E9120104F0ECFBD8B90A9B03
S3150000419008F10102013B31462846B84701300ED1ED
S315000041A059E60123524631462846B84701303FF4C6
S315000041B052AE08F101080A9B013B4345F1DC4B4630
S315000041C004F15002DCE64FF0000804F11A0AF2E7A7
S315000041D001234246DFE701234A4631462846B847CF
S315000041E001303FF438AE08F10108E3680B995B1A19
S315000041F04345F0DCFAE64FF0000804F11909F4E74C
S315000042002DE9F047164699468A6807460B690C461B
S31500004210DDF820809342B8BF1346336091F84320FF
S315000042200AB1013333602368990642BF336802330B
S315000042303360256815F0060506D104F1190AE3680E
S3150000424032689B1AAB4229DC94F84320131E22687D
S3150000425018BF012392062ED404F14302494638467C
S31500004260C047013021D023681A3454F80E5C03F09D
S31500004270060332680026042B54F8123C08BFAD1A18
S3150000428054F80A2C14BF002525EAE5759342C4BFED
S315000042909B1AED18B5421AD1002008E001235246B8
S315000042A049463846C047013003D14FF0FF30BDE8DC
S315000042B0F0870135C3E7E1185A1C30200233224447
S315000042C081F8430094F8451082F84310C4E70123AF
S315000042D0224649463846C0470130E6D00136D9E77E
S315000042E02DE9FF470F7E914680460C46782F9A4669
S315000042F00C9D01F1430207D8622F0AD8002F00F067
S31500004300D880582F00F0A38004F1420584F842704B
S315000043103AE0A7F16303152BF6D801A151F823F073
S31500004320794300008D430000094300000943000063
S3150000433009430000094300008D43000009430000C3
S3150000434009430000094300000943000099440000A6
S31500004350BD4300007B440000094300000943000000
S31500004360BB44000009430000BD43000009430000B0
S3150000437009430000834400002B681A1D1B682A604D
S3150000438004F1420584F842300123A3E0206829683D
S31500004390060601F104030AD50E682B60002E03DA27
S315000043A02D23764284F843305E480A2319E00E68CE
S315000043B010F0400F2B6018BF36B2EFE72B6820686D
S315000043C0191D2960010601D51E6802E04606FBD5C7
S315000043D01E886F2F53480CBF08230A23002184F838
S315000043E043106568002DA560A2BF216821F0040175
S315000043F021600EB9002D4DD01546B6FBF3F103FB37
S315000044001167C75D05F8017D37460E46BB42F4D9F4
S31500004410082B0BD12368DE0708D52369616899420A
S31500004420DEBF302305F8013C05F1FF35521B226142
S315000044304B4603AA21464046CDF800A0FFF7E0FE12
S3150000444001304CD14FF0FF3004B0BDE8F08735485D
S3150000445081F845702968236851F8046B29601D06A8
S3150000446014D5DF0744BF43F0200323601EB9236839
S3150000447023F0200323601023B0E7236843F02003D2
S3150000448023607823284884F84530E3E7590648BF77
S31500004490B6B2E6E71546BBE72B682668181D6169C4
S315000044A0286035061B6801D5196002E07006FBD549
S315000044B01980002315462361BAE72B6800211A1DCF
S315000044C02A601D686268284602F038FC08B1401B65
S315000044D0606063682361002384F84330A8E723699A
S315000044E02A4649464046D0470130ABD023689B0751
S315000044F013D4E068039B9842B8BF1846A4E701238B
S31500004500324649464046D04701309BD00135E368E4
S3150000451003995B1AAB42F2DCEBE7002504F11906BE
S31500004520F5E700BF828F0000938F00002DE9F04F62
S3150000453087B017468B46804603930C468B685A1EF7
S31500004540B2F5AE7F8BBF6FF4AE7500235B19029395
S315000045504FF0000584BF029340F25D13AA46A946B8
S3150000456088BF8B600B68019543F4F0634BF81C3BE6
S315000045705E46CDE90455A26852B13B681B784E2BC6
S3150000458064D8402B3CD8A3F12B01C8B20E283AD9E7
S31500004590B9F1000F03D0236823F4807323600AF176
S315000045A0FF3ABAF1010F00F213815E4500F2058170
S315000045B00125284607B0BDE8F08FA3F161020D2A58
S315000045C0E6D801A151F822F0074700009145000006
S315000045D09145000091450000674700003F470000F5
S315000045E091450000914500001547000091450000E7
S315000045F0914500009145000091450000CD46000020
S31500004600A3F14102DBE70E29C2D801A050F821F040
S31500004610BF46000091450000BF460000534700001A
S31500004620914500006D460000A9460000A94600001D
S31500004630A9460000A9460000A9460000A9460000B8
S31500004640A9460000A9460000A94600006E2B09D81D
S31500004650602BB2D8542B77D0592B99D1072D97D1EF
S31500004660082529E0742B6FD0792BF6E72168C80559
S315000046701AD521F08001029B09F1010921601BB1C5
S31500004680013B01320293A260A368013BA360236948
S31500004690013323617B68013B002B7B6040F3848000
S315000046A03B6801333B6066E71AEB050F7FF470AF9A
S315000046B0226822F4C072226006F8013BE4E7226811
S315000046C010067FF565AF22F08002F4E7BAF1000F1D
S315000046D00ED1B9F1000F0ED1226802F4E061B1F5F6
S315000046E0E06F08D122F4F0624FF0010A2260E3E79E
S315000046F0BAF1020F55D0012D02D0042D7FF448AF38
S315000047000135EDB2D8E7BAF1010F7FF441AF4FF0B2
S31500004710020AD1E77DB9B9F1000F7FF43CAF2268F8
S3150000472002F4E061B1F5E06F7FF439AF22F4F06294
S3150000473001252260C0E7032DE2D0052DDEE7022D1C
S315000047407FF426AF0325B7E7062D7FF421AF0725B3
S31500004750B2E7226891057FF51BAF22F42072CDF8EF
S3150000476004902260A8E7226802F4A061B1F5806F88
S3150000477006D050057FF50CAFB9F1000F3FF40FAF2F
S31500004780910522F4F06258BF019942F4C07258BFF5
S31500004790A9EB010122604FF0000958BFCDE90416CC
S315000047A08AE74FF0030A87E7D4F880313946404656
S315000047B0984700283FF4DFAEEAE6D4F87C313A4663
S315000047C016F8011D404698472369013B2361ECE634
S315000047D06B1E062B25D8022D36D85E457FF6E8AE31
S315000047E0D4F87C313A4616F8011D404698472369AD
S315000047F0013B2361F1E702983A46D4F87C3110F880
S31500004800011D0290404698472369013B23610AF146
S31500004810FF3A5FFA8AFABAF1020FECD1033DEDB224
S31500004820761B2368DA052ED55B0510D55E457FF627
S31500004830BFAED4F87C313A4616F8011D404698477B
S315000048402369013B2361F1E7AA460296DFE716F8E2
S31500004850011C751E2369652903F1FF3323610CD002
S3150000486045290AD0D4F87C313A464046B51E9847C9
S31500004870236916F8021C013B23612E46D4F87C31CD
S315000048803A4640469847256815F0100559D13570C7
S31500004890236803F4C063B3F5806F1BD1019B4B45BE
S315000048A0A3EB090223D100225946404600F0B6FE8A
S315000048B02268039B12F0020F1B6857EC106B21D085
S315000048C01A1D03990A601B68C3E90067E368013390
S315000048D0E3606EE6049B002BE5D005990A232A4681
S315000048E04046013100F022FF049B059EC21A04F2E5
S315000048F06F1315499E4228BF04F5B776304600F07F
S3150000490045F8D0E7039912F0040F03F104020A6098
S31500004910D9D1D3F8008010EE102A3B4610EE100ACB
S31500004920394604F051F828B1084800F029F888ED16
S31500004930000ACBE730463946FEF790FFC8F800007C
S31500004940C4E7002535E600BFA48F000031940000BF
S315000049500FB40A4B13B51C6824B1A36913B92046DA
S3150000496001F0BEFD05AB049AA1682046019303F051
S3150000497035F902B0BDE8104004B0704708020020C7
S315000049809FED010A704700BF0000C07F0EB400B55E
S315000049909CB06FF000411DAB029006900791049108
S315000049A00848094953F8042B059102A900680193A8
S315000049B002F0EAFF029B00221A701CB05DF804EBBD
S315000049C003B07047080200200802FFFF034613F8F1
S315000049D0012B002AFBD1181A0138704770B504461E
S315000049E00D46164645EC104B02F02EFD51EC100B11
S315000049F07EB1C5F30A53C3F16B03002B09DD1B051A
S31500004A00002403F17F55224605F540152B4603F099
S31500004A1041FD70BDFFFFFFFF2DE9F04F1F4600234C
S31500004A20044688464FF0000A4FF0000B2DED028B2E
S31500004A309DB018939F4B13921B6818460593FFF77A
S31500004A40C5FF0546CDF85C80179B1A782B2A4ED0F9
S31500004A503BD80D2A34D8082A34D8002A3ED0002361
S31500004A600A93179E3378302B40F0B080737803F0AA
S31500004A70DF03582B68D10A9B17A90297204601939A
S31500004A8018AB8D4A009319AB01F02EFE10F0070704
S31500004A90054605D0062F2CD10136002317960A931A
S31500004AA0139B002B40F08E850A9BEBB152460BF10F
S31500004AB0004343EC102B1DB0BDEC028BBDE8F08F1C
S31500004AC0202ACCD101331793BEE72D2AC7D1012264
S31500004AD00A925A1C17925B78002BC2D1139BCDF811
S31500004AE05C80002B40F06C8552465B46E1E7002275
S31500004AF0EEE7189A3AB135211AA802F0AEFD1899D8
S31500004B00204602F069F9013F042F06D8DFE807F0D6
S31500004B100A0314170A00DDE91AAB2807C0D54BF0C3
S31500004B20004BBDE7DDE91AA3199A23F4801302F2BC
S31500004B30334243EA025BF0E7DFF880B1EDE76FF05E
S31500004B40004B4FF0FF3AE8E7179B5A1C17925B7829
S31500004B50302BF9D0002BA3D001234FF0000904938A
S31500004B600A22179B4F46CDF81C9008931798067893
S31500004B70A6F13003D9B209292AD92A46059903F0A4
S31500004B80BAF9A0B3002032463D4603460590652A91
S31500004B9001D0452A18D11DB9049A02439ED000259A
S31500004BA0DDF85C8008F10102179298F801202B2AA3
S31500004BB075D02D2A7BD04FF0000CA2F130010929C7
S31500004BC040F28280CDF85C8000269DE00023C4E799
S31500004BD0082F00F1010007F10107D4BF079902FB76
S31500004BE009391790DCBF02FB01330793BEE7179B19
S31500004BF05A1917925A5D002F36D03D460590A2F1FC
S31500004C003003092B12D90123C1E7179B01305A1C27
S31500004C1017925A78302AF8D0A2F13103082B00F205
S31500004C20D68405900020179B05460893303A00F17C
S31500004C30010313D0059900EB050E19442B46059187
S31500004C400A21734512D12B180135082B05441CDCAB
S31500004C5007990A2303FB012307930023179A184693
S31500004C60511C17915278CAE73846D3E7082B04DC63
S31500004C70079E4E4307960133E3E703F1010CBCF1AF
S31500004C80100FD8BF01FB09F9F5E7102DDCBF0A2389
S31500004C9003FB0929E1E70023059301237CE74FF095
S31500004CA0000C08F10202179298F8022085E74FF0EF
S31500004CB0010CF6E79C920000AC8F00000000F07F2C
S31500004CC0179A511C17915278302AF9D0A2F1310166
S31500004CD008293FF679AFA2F1300E179A0692179A75
S31500004CE0511C17915278A2F13006092E37D9069E2B
S31500004CF0891B44F61F66082902DC7645A8BF76465E
S31500004D00BCF1000F00D07642002D4DD1049901432D
S31500004D107FF4C6AE002B7FF4E1AE692A27D024DCEF
S31500004D20492A24D04E2A7FF4D9AE9F4917A801F00C
S31500004D3033FF00283FF4D2AE179B1B78282B2DD1CA
S31500004D401AAA9A4917A801F03BFF052826D11B9BF2
S31500004D50DDF868A043F0FF4B4BF4E00BA0E60A2118
S31500004D6001FB0E2EAEF1300EB9E76E2ADBE7904955
S31500004D7017A801F011FF00283FF4B0AE179B17A843
S31500004D808C49013B179301F007FF10B9179B0133BC
S31500004D901793DFF830B24FF0000A81E6864803F039
S31500004DA04FF85BEC10AB7BE6059B002F08BF2F4648
S31500004DB0102D0798A6EB0303A846A8BF4FF01008CE
S31500004DC00693FEF7D1FC092D82468B4613DD7B4BFD
S31500004DD003EBC80353E9122303F05CFB82468B46C0
S31500004DE04846FEF7C1FC02460B4650465946FEF7BA
S31500004DF07FFB82468B460F2D38DC069B002B3FF44B
S31500004E004FAE24DD162B0BDC6C49524601EBC30179
S31500004E105B46D1E9000103F03DFB82468B463FE647
S31500004E20C5F12503069A934220DBC5F10F05634CB5
S31500004E3052465B4604EBC501D1E9000103F02AFBAB
S31500004E40069B5D1B04EBC504D4E90023E3E7069B40
S31500004E5016330BDB059B504659469E1B574B03EBFF
S31500004E60C606D6E9002303F03FFCD6E7A5EB080803
S31500004E70069B9844B8F1000F74DD18F00F030AD0B2
S31500004E804E49524601EBC3015B46D1E9000103F0EE
S31500004E9001FB82468B4638F00F084FD0B8F59A7F53
S31500004EA022DD00252E46079505952223DFF814B14D
S31500004EB04FF0000A2360079B002B3FF4F1AD1899D1
S31500004EC0204601F089FF0599204601F085FF31460D
S31500004ED0204601F081FF0799204601F07DFF294613
S31500004EE0204601F079FFDBE5354B4FEA281850469E
S31500004EF05946049300239946B8F1010F21DC0BB102
S31500004F0082468B462E4BABF1547B524603EBC909C6
S31500004F105B46D9E9000103F0BDFA2A4B0A468246F0
S31500004F200B4029498B42BCD8A1F580118B4286BF24
S31500004F30DFF898B04FF0FF3A02F1547B0023049358
S31500004F4083E018F0010F05D0049BD3E9002303F09A
S31500004F50A1FA0123049A09F101094FEA6808083207
S31500004F600492C9E7EAD0C8F1000818F00F020AD087
S31500004F70124B5046594603EBC203D3E9002303F014
S31500004F80B3FB82468B465FEA2818D7D0B8F11F0FCD
S31500004F901EDD00252E460795059522234FF0000AB3
S31500004FA04FF0000B236086E77D8F0000C08F000066
S31500004FB0758F0000049100003194000058930000A2
S31500004FC0309300000000F07F0000A07CFFFFEF7F21
S31500004FD018F0100350465946DFF8A89318BF6A2305
S31500004FE00493002318F0010F04D0D9E9002303F03D
S31500004FF051FA01235FEA680809F10809F2D10BB1F9
S3150000500082468B46049BC3B1CBF30A525946C2F182
S315000050106B03002B11DD1F2B40F32181342B4FF046
S31500005020000ADBBFC2F14B024FF0FF334FF05C7B4F
S3150000503003FA02F2D8BF02EA010B0022002350460F
S31500005040594603F08FFC0028A3D1079B3A460899DE
S31500005050204600932B4601F029FF079000283FF4D5
S3150000506020AF059B00259E1B069B002BB4BF334635
S3150000507000232E460C93069B23EAE3731293079BA9
S315000050802046596801F068FE059000283FF40DAFF0
S31500005090079B0C301A6903F10C0102329200FEF7ED
S315000050A0C3FD1AAA19A920464BEC10AB02F046FA2A
S315000050B018904BEC18AB00283FF4F7AE01212046C0
S315000050C001F08EFF064600283FF4EFAE199B0499C7
S315000050D0002BA3EB0108A9BF0C9A129A03EB020955
S315000050E0129FB8BFD71A1A9AA14B9044B8BFDDF8E1
S315000050F03090C2F1360208F1FF38984580F2C3803D
S31500005100A3EB080301211F2BA2EB030200F3AE80E1
S3150000511001FA03F30D930023089309EB0208049B9D
S315000051201744C1451F444B46A8BF4346BB42A8BFD0
S315000051303B46002BC2BFA8EB0308FF1AA9EB0309E5
S315000051400C9B002B17DD31461A46204602F006F866
S31500005150064600283FF4A9AE0146189A204601F0FB
S3150000516055FF0B9000283FF4A0AE1899204601F099
S3150000517033FE0B9B1893B8F1000F00F38980069B52
S31500005180002B08DD129A2046059901F0E7FF0590ED
S3150000519000283FF48AAE002F08DD3A4605992046DE
S315000051A002F036F8059000283FF47FAEB9F1000F03
S315000051B008DD31464A46204602F02AF8064600280F
S315000051C03FF473AE059A2046189902F0ADF80546ED
S315000051D000283FF46AAEC36831460B930023C360D0
S315000051E002F086F800285DDA0B9B53EA0A037FD1AA
S315000051F0CBF31303002B7BD12BF000431B0D1B05B8
S31500005200B3F1D66F74D96B6913B92B69012B6FDDB6
S3150000521029460122204601F0FBFF3146054602F0F1
S3150000522067F8002864DD04995B46524A00297FD05E
S3150000523002EA0B01B1F1D66F7ADCB1F15C7F7FF740
S31500005240ACAE4D4B50465946002203F023F90B46AF
S3150000525082468B46034304BF222323602FE64FF08A
S31500005260FF3202FA03F303EA0A0AE6E6C8F17F48C8
S315000052700D9108F57F0808F57B4808F1E20801FA68
S3150000528008F3089349E70023089301230D9344E7A5
S3150000529042461899204601F0BBFF189000287FF47B
S315000052A06EAF02E65F466FD10B9ACBF3130342B3A0
S315000052B0324A934228D1049B5146EBB12D4B4FF015
S315000052C0FF323B40B3F1D46F19D81B0DC3F16B030A
S315000052D002FA03F3994217D1294B9F4202D10131B9
S315000052E03FF4E3AD234B4FF0000A3B4003F5801B30
S315000052F0049B002BA5D1E2E54FF0FF33EAE7134606
S31500005300E8E753EA0A038ED0089BDBB13B42EFD0B5
S315000053100B9B5046049A5946C3B1FFF75FFB024602
S315000053200B4651EC180BFEF7E3F882468B46DFE797
S3150000533013404FF0FF3AA3F580136FEA135B6FEA51
S315000053400B5BD5E70D9B13EA0A0FE0E7FFF746FB79
S3150000535002460B4651EC180BFEF7C8F80022002354
S3150000536082468B4603F0FEFA0028C1D015E600BF40
S3150000537002FCFFFF0000F07F00005039FFFF0F0026
S31500005380FFFFEF7FD88F00003146284602F032F942
S3150000539000224FF0804310EE100A59EC108B49465C
S315000053A003F0F4FA00287AD00B9B002B4AD0002297
S315000053B0934B4FF00008DFF84892CDE90823914B54
S315000053C03B400D930D9A904B9A4240F0B080A7F166
S315000053D0547BDDE908014BEC10ABCDE9080102F086
S315000053E033F8DDE9080153EC102B03F053F852466D
S315000053F05B46FEF77DF80B4682498246834A194092
S31500005400914260D918EE903A02F15472934204D157
S3150000541018EE103A01333FF448ADDFF8FCB14FF017
S31500005420FF3A1899204601F0D7FC0599204601F06D
S31500005430D3FC3146204601F0CFFC2946204601F038
S31500005440CBFC1CE6BAF1000F1BD1CBF31303F3B967
S3150000545000226B4B4046494603F08EFAD0B94046CF
S31500005460494600226A4B03F015F88046894609F141
S315000054700043CDF850801593DDE91423CDE90823C8
S315000054809DE7BAF1010F02D1002F3FF486AD00224D
S31500005490604B8EE74FF00008DFF87491E7E75C4B4E
S315000054A040464946002202F0F5FF0B9B804689469E
S315000054B033B901F100430E900F93DDE90E23DDE7CA
S315000054C0CDE90E89F9E703F1547B049B002BA8D1A3
S315000054D02BF000430D9A1B0D1B059A42A1D14046A5
S315000054E0494603F0CFFAFEF78BF902460B464046D3
S315000054F04946FDF7FBFFCBF313030B9A804643EABD
S315000055000A038946134355D035A3D3E9002303F094
