S00B0000494D552E737265632E
S31500000000D8340020192600004524000015260000DB
S3150000001015260000152600001526000015260000EE
S31500000020000000000000000000000000152600008F
S315000000301526000000000000152600001526000009
S31500000040851C0000F51B0000151D00005D1D00004D
S315000000504D21000021130000C5130000A914000063
S315000000608D150000D9200000992100000000000035
S31500000070000000000000000000000000000000007A
S31500000080000000000000000000000000000000006A
S31500000090000000000000000000000000000000005A
S315000000A0000000000000000000000000000000004A
S315000000B0000000000000000000000000000000003A
S315000000C0000000000000000000000000000000002A
S315000000D0000000000000000000000000000000001A
S315000000E0000000000000000000000000000000000A
S315000000F000000000000000000000000000000000FA
S3150000010000000000000000000000000000000000E9
S3150000011000000000000000000000000000000000D9
S3150000012000000000000000000000000000000000C9
S3150000013000000000000000000000000000000000B9
S3150000014000000000000000000000000000000000A9
S315000001500000000000000000000000000000000099
S315000001600000000000000000000000000000000089
S315000001700000000000000000000000000000000079
S315000001800000000000000000000000000000000069
S315000001900000000000000000000000000000000059
S315000001A00000000000000000000000000000000049
S315000001B00000000000000000000000000000000039
S315000001C0FFFFFFFFFFFFFFFFFFFFFFFFFFFFFFFF39
S315000001D0FFFFFFFFFFFFFFFFFFFFFFFFFFFFFFFF29
S315000001E0FFFFFFFFFFFFFFFFFFFFFFFFFFFFFFFF19
S315000001F0FFFFFFFFFFFFFFFFFFFFFFFFFFFFFFFF09
S3150000020010B5054C237833B9044B13B1044800E00C
S3150000021000BF0123237010BD200200200000000053
S315000002209877000008B5034B1BB10349034800E06B
S3150000023000BF08BD000000002402002098770000DF
S31500000240034A1368002BFCD000231360704700BFDD
S31500000250400200200379012B05D0022B05D1012293
S31500000260024B1A607047024A136070474002002032
S315000002703C02002070B5002284B006460D46204898
S3150000028040F2052101F0A6FD07234FF0000C009374
S315000002901C4B8DF80E601E681B4C012330460DF179
S315000002A00F020DF10E018DF80FC084F800C000F0AA
S315000002B09BFE164B01E0013B02D02278002AFAD0C1
S315000002C000238DF80E5007258DF80F302370304629
S315000002D001230DF10F020DF10E01009500F084FED1
S315000002E00A4B01E0013B02D02278002AFAD0012213
S315000002F040F20521024804B0BDE8704001F06ABD35
S3150000030084020020A870000048020020A186010097
S315000003100379012B04BF014A13707047480200207D
S3150000032030B53E4B85B0D3E90051284600F064FE57
S3150000033008B10E284ED100217620FFF79BFF012140
S315000003401120FFF797FF4FF47A710A2002F046F862
S31500000350002240F20521324801F03CFD0023F5223F
S315000003600721304C00918DF80E208DF80F30237048
S31500000370284601230DF10F020DF10E0100F034FEA7
S31500000380294B01E0013B02D02278002AFAD0284608
S315000003900725FF23009500258DF80E300DF10F027D
S315000003A001230DF10E0125708DF80F5000F01CFE93
S315000003B01D4B01E0013B02D02278002AFAD09DF8BD
S315000003C00F40012240F20521154801F003FD472C9C
S315000003D002D0222005B030BD30211420FFF74AFF9D
S315000003E008216520FFF746FF48215020FFF742FF0E
S315000003F028214F20FFF73EFF0C4D0D4A0D4B0E4CAA
S315000004002F214E201A602560FFF734FF4FF47A71D2
S315000004100A2001F0E3FF002005B030BDA8700000FF
S315000004208402002048020020A18601000000FA3D57
S315000004300000FA3C4C020020440200200B462DE945
S31500000440F04F002289B040F20521834635480393D8
S3150000045001F0C0FC0723009300239F22324C8DF845
S3150000046014302370314B8DF813201F6805AA012321
S3150000047038460DF1130100F0B7FD2D4B01E0013BAD
S3150000048002D02278002AFAD04FF0FF0900264FF05A
S31500000490070805AD0DF1200A012338460DF11302B8
S315000004A0CDF800800DF112018DF812908DF81360D1
S315000004B0267000F099FD1E4B01E0013B02D0227828
S315000004C0002AFAD09DF8133005F8013B5545E3D1D3
S315000004D0012240F20521134801F07CFCBBF1000F1C
S315000004E00ED0BDF81410BDF81620BDF8183049BA64
S315000004F052BA5BBAABF80010ABF80220ABF8043086
S31500000500039858B1BDF81A10BDF81C20BDF81E306E
S3150000051049BA52BA5BBA01804280838009B0BDE80D
S31500000520F08F00BF8402002048020020A87000005F
S31500000530A186010030B50023054685B00C46684605
S3150000054002A900930293ADF80430ADF80C30FFF722
S3150000055075FF45B32A4BBDF90020D3ED005A06EED0
S31500000560902ABDF90430BDF9022007EE903A07EE55
S31500000570102AF8EEE66AB8EEC77AF8EEE77A9FED4B
S31500000580216A27EE257A66EEA56A67EEA57AC6EE9B
S31500000590865AC7EE066A87EE867AC5ED005AC5ED1D
S315000005A0016A85ED027A44B3BDF90820164B06EEC2
S315000005B0902ABDF90A20D3ED005A07EE102ABDF99C
S315000005C00C20F8EEE66A07EE902AB8EEC77AF8EE47
S315000005D0E77A9FED0E6A66EEA56A27EE257A67EE44
S315000005E0A57A66EE866A27EE067A67EE867AC4ED07
S315000005F0006A84ED017AC4ED027A05B030BD00BF11
S315000006004402002000007A444C02002035FA8E3C59
S31500000610F8B5184D2B7843BB06460F4603F0FF048A
S3150000062001E0142C19D04FF47A71012001F0D6FEA6
S315000006302B78013403F0FF02002BF2D00023394659
S3150000064030462B70FFF776FF142C0DD0BDE8F8402E
S315000006504FF47A710A2001F0C1BE394630462A703D
S31500000660BDE8F840FFF766BFF8BD00232B70FFF723
S3150000067061FFEBE76402002010B14368082B00D04D
S3150000068070470122014B1A70704700BF64020020B8
S315000006902DE9F04F2DED0C8B084BA1B09A68186828
S315000006A00D92596812680DEE900A904740B10E28D7
S315000006B006D021B0BDEC0C8BBDE8F08FE4700000D5
S315000006C0FFF72EFE0028F4D1E04BD3E90041204687
S315000006D001F058FC08B10E28EBD1204601F094FC3D
S315000006E004460028E5D1DFEDDA7ADA4BDFF88CB381
S315000006F018704FF07E534FF4C875DFEDD79A9FED13
S31500000700D7AAF0EE67AACBED017ACBED027ACBED54
S31500000710037AF0EE678AB0EE679AB0EE678ACBF896
S315000007200030CF4BC3ED007AC3ED017AC3ED027AF8
S31500000730CC4B1880CC4B186014A911A88DED118AEA
S315000007408DED128A8DED138A8DED148A8DED158A45
S315000007508DED168AFFF75CFF9DED120ADDED117A2D
S3150000076060EE006A67EEA77A9DED130A20EE007A26
S3150000077037EEA60A30EE070AB5EE400AF1EE10FA99
S3150000078000F1A682F1EEC07AF4EEE97AF1EE10FA03
S3150000079011D4F4EECA7AF1EE10FA0CDCDDED146A2F
S315000007A09DED157ADDED167A39EE269A78EE878A72
S315000007B07AEEA7AA0134013D00F09982C82CBBD17C
S315000007C007EE904AF8EEE77A89EE276AC8EEA76A3E
S315000007D08AEEA77ADFF8A8A28AED006ACAED016A56
S315000007E08AED027A9FEDA19A9FEDA1AADFEDA19A6B
S315000007F0DFED978ADFF88C920DF17D0811A90EA81E
S31500000800CDED0E8ACDED0F8ACDED108ACDED118A94
S31500000810CDED128ACDED138AFFF7FAFE9DED0F0A94
S31500000820DDED0E7A60EE006A67EEA77A9DED100A9E
S3150000083020EE007A37EEA60A30EE070ADDED11AAA1
S315000008409DED12BA9DED138A9AED005ADAED015A22
S315000008509AED026AB5EE400A7AEEC5AA3BEE65BA93
S3150000086038EE468AF1EE10FACDED11AA8DED12BAE8
S315000008708DED138A00F13682F1EEC07AF4EEC97A74
S31500000880F1EE10FA80F28081DBED014ADBED035ACE
S315000008909BED004A9BED025A24EEEA6A6BEE050ACE
S315000008A06AEE846A28EE051A6BEE252A2BEE047A88
S315000008B028EE252A68EE241A36EE606A76EE816AFC
S315000008C0DFED6D3A2AEEA53A68EE047A2BEE24BAED
S315000008D037EE617A36EE426A76EEE26A6AEE85AA0B
S315000008E077EE8B7A37EE037A26EE236A66EEA36AF4
S315000008F036EE046A76EEA46A77EEEA7A27EE237A73
S3150000090026EE060A37EE057A67EEA37A8BED006AC5
S3150000091026EEA66A77EEA57ACBED016A30EE060AD8
S3150000092067EE076A8BED027A30EE260A27EEA77A83
S3150000093030EE070AB5EE400AF1EE10FACBED037A77
S3150000094000F1CB81F1EEC05AF5EEC05AF1EE10FA85
S3150000095040F22B81DBED006A9BED017ADBED027A3A
S315000009609BED035A86EEA56AC7EE256A87EEA57A41
S31500000970C5EE257A16EE901A17EE102A17EE904A53
S3150000098016EE105A8BED006ACBED016A8BED027AFA
S31500000990CBED037AC8B20190C1F307200290C1F3F0
S315000009A00740090E0491D1B20591C2F307210691C1
S315000009B0C2F30741120E0892E2B20992C4F307226B
S315000009C00A92C4F30742EBB2C5F30727C5F30746FD
S315000009D003902D0E07910B92240E2C22002115A8B0
S315000009E00C9302F0A0F80C9B5A218DF85A30019B0B
S315000009F001228DF85E30029B8DF851108DF85F3024
S31500000A00039B4FF6FF718DF86030049B41F2210085
S31500000A108DF86130059B8DF85C608DF86230069B21
S31500000A208DF852208DF86330079B8DF853208DF892
S31500000A306430089B0C4A8DF86530099B094E8DF889
S31500000A4066300A9B8DF85B701EE000BF8870000060
S31500000A5000000000640200209A99593F3333933F07
S31500000A606802002050020020540200203333333F36
S31500000A706666A63F0AD7A33D0AD7A33B000000201F
S31500000A8058020020100000208DF867300B9B8DF86F
S31500000A9069408DF86830A5238DF85D508DF850308B
S31500000AA015683688D9F800208DF85460360A8DF816
S31500000AB055602E0A8DF856508DF857602E0C2D0E67
S31500000AC08DF858608DF85950D9F80460150A8DF8DC
S31500000AD06B50150C370A8DF86C50D9F808508DF804
S31500000AE06A208DF86E60120E8DF86F70370C360E18
S31500000AF08DF86D208DF87160D9F80C202E0A8DF8CE
S31500000B0072508DF873602E0C2D0E8DF87550150AE7
S31500000B108DF876208DF87750150C120E14AC8DF8E2
S31500000B2070708DF874608DF878508DF879200822F1
S31500000B3081EA03214B0011F4004F08BF49009BB224
S31500000B4002F1FF3214BF83EA000189B212F0FF02FC
S31500000B50F0D1A04502D014F8013FE8E78DF87E10E9
S31500000B600D9B090A8DF87F1030221DEE900A9B68B6
S31500000B7014A99847B0B1644A138801331380634AB5
S31500000B8013680A33136039E6F4EECA7AF1EE10FA06
S31500000B90DBED014A24D9DBED035A9BED004A9BEDC0
S31500000BA0025A79E6FFF74CFBE5E700244FF07E5347
S31500000BB0CBED018ACBF80030CBED028ACBED038A70
S31500000BC03F25802627462346CDE90A44CDE9084439
S31500000BD0CDE90644CDE90444CDE902440194FCE69E
S31500000BE09BED004ADBED035A9BED025A9DED0E7A12
S31500000BF09DED0F6ADDED106A24EEA4DA24EE041AE8
S31500000C00C7EE270A86EEA70A86EE277A64EEA56A5D
S31500000C1064EE05CA64EE847A25EE85CA65EE05BAE9
S31500000C2031EE4D1A25EEA56A76EEEC6A77EE8C7AF1
S31500000C3031EE6B1A76EEA66A31EE061A77EEA77AD1
S31500000C4020EE266A67EE266A20EE270A27EE017A4C
S31500000C5060EEA77A20EE811A77EEE67A37EE407AD2
S31500000C6076EE416AF0EE041ADFED293A67EEA90A3C
S31500000C7027EE291A26EEA96A264B67EEA17AD3ED4E
S31500000C80002A93ED013A93ED022A27EE217A66EEC9
S31500000C90A16A60EEA30A61EE231A66EE233A30EEED
S31500000CA0822A71EEA22A33EE833A77EE827A37EE03
S31500000CB0227A76EE836A83ED022AC3ED002A83ED5B
S31500000CC0013A38EE278A7AEE87AA3BEE26BAE3E5A2
S31500000CD006F080F9F0EE407A56E506F07BF9F0EE84
S31500000CE0405A31E606F076F9F0EE407AC6E5002C79
S31500000CF07FF466AD0023DFF820A0CAF80030CAF8FA
S31500000D000430CAF808306DE5500200205402002075
S31500000D100AD7233C6802002058020020FFF7B8BC1F
S31500000D20022800D070470249024801F021B900BFED
S31500000D30247100008402002008B5FFF7EFFF0020B1
S31500000D4008BD00BF84460020CCE90A32CCF8241046
S31500000D50704700BF0022436810B502605A69044616
S31500000D6022B1936810681B6A984763681A6922B1B2
S31500000D70936810681B6A9847636893F90220002AF3
S31500000D800EDB01212448530902F01F02203301FA29
S31500000D9002F240F82320BFF34F8FBFF36F8F6368D3
S31500000DA093F90120002A0EDB01211B48530902F0AA
S31500000DB01F02203301FA02F240F82320BFF34F8FBF
S31500000DC0BFF36F8F6368012293F903301248590904
S31500000DD003F01F03203102FA03F340F82130BFF37A
S31500000DE04F8FBFF36F8F636893F90430590903F08F
S31500000DF01F039A4001F1200340F82320BFF34F8FD1
S31500000E00BFF36F8F0020A3681A786FF386121A70EB
S31500000E10DA78D87010BD00BF00E100E030B5836A13
S31500000E2085B004468C4601ADABB193E8070085E872
S31500000E30070062681846117883F804C0E26A1960F0
S31500000E409A60636A9847A36A1BB195E8070083E82E
S31500000E50070005B030BD2B46EBE700BFF8B5866846
S31500000E601D4633789DF818C013F0400340F0828089
S31500000E70C0E903120F46416880F820C00446C0E965
S31500000E800533C5614869F0B1BCF10F0FA5615DD9A5
S31500000E90022643681968CB7866F30513CB700226E1
S31500000EA08B7866F383038B70ABB2CB818A60002AA2
S31500000EB06ED0836800685B689847002845D16168F2
S31500000EC094F820C0A6680B6903B3BCF10F0F6561E7
S31500000ED046D902205A681168CA7860F30512CA70AA
S31500000EE00220CA78ADB260F38302CD81CA704F602A
S31500000EF0002F54D032789D686FF3451218686B68DE
S31500000F003270984708BBA66894F820C0F27A338AF4
S31500000F10BCF10F0FD2B29BB22ED90CF1010C22F00C
S31500000F2040024FEA9C0CACF1050C42F02002002076
S31500000F3023F4706343EA0C2C1FFA8CFCF272A6F8B9
S31500000F4010C0337843F060033370F8BDBCF1070F6F
S31500000F501AD841680968CE7863F30516CE709EE705
S31500000F60BCF1070F12D85A681168CA786FF30512D8
S31500000F70CA70B5E70820F8BDBCF1070F94BF42F070
S31500000F80400202F09F02D2E7012682E70120A1E794
S31500000F908B7862F383038B70044B8B6089E7D2B244
S31500000FA067F38302CA70024A4A60A3E7EC02002094
S31500000FB0F002002010B594468E461C4682B00021F1
S31500000FC0724663460094FFF749FF02B010BD00BFAA
S31500000FD010B594461C4682B0002263460094FFF783
S31500000FE03DFF02B010BD00BF10B49DF8044001944F
S31500000FF05DF8044BFFF732BF2DE9F04F0446087841
S315000010000F6900F5800303F58D531B020D4685B06D
S3150000101003F10408002F00F023814FF00062796885
S3150000102038680B681A60C3F80880BB681B68984765
S315000010300646002840F010816B6973B1D3E90112AE
S315000010404FF4002618680B6812681E60C3F8048007
S3150000105090470646002840F04B81287800F580032B
S3150000106003F58D531B020026AA6965606262EA6970
S31500001070A360E262A6626F7A002F40F00881B82171
S3150000108008264FF0100E6B7B95F80BC02A6A1B03DF
S31500001090AD7A43EA4C032B431578002D40F0FE80D1
S315000010A0012505FA00F0800740F02A8192F801C078
S315000010B0D5784FEA4C1646EA4C0621EACC11314364
S315000010C090781679A84023F070032D0101911EB186
S315000010D0022E14BF2026302692F805C0BCF1000F60
S315000010E006D0BCF1010F14BF4EF0010E4EF0030EF8
S315000010F092F808C00CF0030C45EA8C052B43957951
S315000011000295002F40F0C680917A92F80980D77A2E
S3150000111043F460430391EFF3108A012585F31088A9
S315000011206168DFF8F89191F800C0D9F804B0CCF105
S31500001130130C05FA0CFC2BEA0C0CC9F804C0D9F800
S3150000114004C08AF310884FF0000C4FF010091FFA04
S3150000115083FB9DF80410A3685FFA80FAD87860686C
S3150000116083F803C0197083F801A09E70D2795FFAE4
S315000011708EFE9A72039A83F80C805A73029A9F73B2
S3150000118083F80FE0A3F810B083F8202083F82190AD
S3150000119090F90230634580F284805C4A90F9013010
S315000011A0002B26DB417903F160400901C9B200F545
S315000011B0614080F80013564903F1C00042F823400D
S315000011C051F820506FF3104541F8205051F8201087
S315000011D0BFF35F8F01205909890003F01F0301F156
S315000011E0604101F5614100FA03F3C1F880310B60FB
S315000011F06068017A90F9043046480901444DC618E2
S31500001200C9B286F8001303F1C00142F8234055F82D
S3150000121021606FF3104645F8216055F82110BFF3A1
S315000012205F8F012103F01F055B099B0003F16043FB
S3150000123003F56143A940C3F880111960002663686D
S3150000124093F90310DB7908441B01DBB280F8003305
S31500001250314B42F821402360304605B0BDE8F08F9F
S315000012604A69002A3FF4FFAE4FF4002051680B682C
S315000012701860C3F80480936810681B689847064690
S3150000128000283FF4EAAE304605B0BDE8F08FB02145
S31500001290B646F8E60027B84603973CE746F0B101A4
S315000012A004E7817903F160400901184AC9B200F5E3
S315000012B0614080F80013164903F1C00042F823404C
S315000012C051F820606CF3104641F8206051F8201068
S315000012D0BFF35F8F03F01F015B099B0003F16043BF
S315000012E08D4003F56143C3F880511D60606855E782
S315000012F0BB6838681B6A9847304605B0BDE8F08F72
S31500001300002F7FF4D3AE43F08003CFE638030020EE
S315000013100060004000E100E04950535200400840A0
S3150000132010B4EFF30383103B234A5BB203F1C00111
S3150000133052F821006FF3104042F8210052F82120A4
S315000013401E4A52F82330D3E906218A421DD0186975
S3150000135048B393F820C0BCF10F0F0BD999684968C0
S3150000136040F82210D96901328A429A610DD05DF89F
S31500001370044B7047BCF1070F18D899680979815456
S31500001380D96901328A429A61F1D15B6893F90330D7
S31500001390012203F01F000A495B09824041F823201D
S315000013A05DF8044B704798684068DCE79C68B4F8C1
S315000013B004C020F812C0D6E70060004038030020C1
S315000013C000E100E010B5EFF30383103B33495BB255
S315000013D003F1C00251F822006FF3104041F82200D9
S315000013E051F822202E4A52F823305C68226A82B3D2
S315000013F092F801C0D869BCF1010F5A6918D0904221
S3150000140010D0D96841B393F820000F280BD80728CD
S3150000141098BF895C98688ABF31F812100171818083
S3150000142001325A6110BD986851F822104160F7E701
S3150000143000F1FF3E724512D021690029DFD094F9F0
S315000014400310184801F01F020CFA02F2490940F88D
S3150000145021205A69D869D2E798684160E0E794F993
S31500001460030000F1C00251F822406FF3104441F826
S31500001470224051F82220BFF35F8F4209920000F00C
S315000014801F0002F160420CFA00F002F56142C2F858
S31500001490800110605A69D869B1E700BF006000405A
S315000014A03803002000E100E0EFF30383103B344AE9
S315000014B05BB203F1C00152F821006FF3104042F80D
S315000014C0210052F821202F4A52F823008268D27850
S315000014D0920704D54268527A012A00D07047012249
S315000014E030B45909284C03F01F03203102FA03F3E4
S315000014F044F82130BFF34F8FBFF36F8F436893F9E2
S315000015000230002B32DB590903F01F0302FA03F302
S31500001510203144F82130BFF34F8FBFF36F8FD0E9EE
S315000015200114237891F902106FF3861300292370B2
S3150000153018DB134B01F1C00453F824506FF3104528
S3150000154043F8245053F82430BFF35F8F4B099B00B8
S3150000155001F01F0103F160438A4003F56143C3F8BC
S3150000156080211A60012130BCFFF758BC8268012136
S3150000157030BC13786FF386131370FFF74FBC00BFB0
S31500001580006000403803002000E100E070B5EFF392
S315000015900384354B103C64B253F82460736893F9A6
S315000015A00230002B48DB012030495A0903F01F03A3
S315000015B0203200FA03F341F82230BFF34F8FBFF316
S315000015C06F8FD6E9013293F902301178002B6FF351
S315000015D08611117019DB264A03F1C00152F8215019
S315000015E06FF3104542F8215052F82120BFF35F8F68
S315000015F003F01F025B099B0003F16043904003F573
S315000016006143C3F880011860B2680021D378D170B5
S315000016101A07DDB223D4EB0714D405F01405142DF4
S3150000162018D0134BC03453F824206FF3104243F8FC
S31500001630242053F8243070BDB26813786FF38613F4
S315000016401370E2E70421304605F01405FFF7E6FBC8
S31500001650142DE6D108213046FFF7E0FBE1E705212E
S315000016603046FFF7DBFBD6E73803002000E100E059
S315000016700060004010B400240122036A44609C709C
S31500001680C3692D4993F905304FEA531C03F01F0334
S3150000169002FA03F30CF1200C41F82C30BFF34F8F04
S315000016A0BFF36F8FC36993F90B304FEA531C03F0F6
S315000016B01F0302FA03F30CF1200C41F82C30BFF3A0
S315000016C04F8FBFF36F8FC36993F907304FEA531CEF
S315000016D003F01F0302FA03F30CF1200C41F82C303F
S315000016E0BFF34F8FBFF36F8FC36993F909304FEA8A
S315000016F0531C03F01F0302FA03F30CF1200C41F80C
S315000017002C30BFF34F8FBFF36F8FEFF3108182F34F
S315000017101088C369094A93F800C04FF00043506827
S3150000172023FA0CF303435360536881F31088204671
S315000017305DF8044B704700BF00E100E00040084040
S3150000174003460020C3E90512704700BF10B4046ABF
S31500001750A37803F07B03A370837803F00303D21A04
S315000017600B440261A278C360837842F0800203F0E2
S315000017700303022BA27005D00B780020E3705DF8FE
S31500001780044B70470B88002043F47E43E3815DF8E9
S31500001790044B704784460020CCE90A32CCF824106A
S315000017A0704700BF70B586460024DEF820304D78BD
S315000017B093F802C00A780CF00B069E70CEF80C4027
S315000017C020468C7802F05C025C7093F800E00CF026
S315000017D07B0C65F3010E83F800E0C9789974D9791A
S315000017E001F0A3010A43DA7183F802C070BD00BF9D
S315000017F04FF0FF330020C1E9003370478B0711D546
S31500001800002210B4046AC907A37803F07B03A3700F
S315000018101346026102D500221346826118465DF81E
S31500001820044B7047CA074FF0060302D50022134641
S3150000183082611846704700BF0346002210B49C69B7
S3150000184010460C605DF8044B9A617047F0B5846AE7
S3150000185085B005460F4694466E46B4B194E80F002F
S3150000186086E80F00EB6920461B7884F804C02360E5
S31500001870EB6AC4E902736B6A9847AC6A1CB196E8D6
S315000018800F0084E80F0005B0F0BD3446EAE700BF5C
S315000018900022F0B501240B78027003F5800303F5EE
S315000018A08C531B0203624B698D6943628378C16165
S315000018B064F301038262C56283704B7823B9022206
S315000018C0837862F301038370012491F90B50C44AB3
S315000018D06B0905F01F07203304FA07F78E7A42F8E2
S315000018E02370BFF34F8FBFF36F8FBE4B05F1C00759
S315000018F053F827C06FF3104C43F827C053F82770EE
S31500001900B94F360102EB050CF6B28CF8006347F8C6
S31500001910250091F905500E794FEA551C05F01F0E6A
S315000019200CF1200C04FA0EFE42F82CE0BFF34F8FA8
S31500001930BFF36F8F05F1C00C53F82CE06FF3104E18
S3150000194043F82CE053F82CC0360102EB050CF6B236
S315000019508CF8006347F8250091F907508E794FEA15
S31500001960551C05F01F0E0CF1200C04FA0EFE42F871
S315000019702CE0BFF34F8FBFF36F8F05F1C00C53F808
S315000019802CE06FF3104E43F82CE053F82CC03601D0
S3150000199002EB050CF6B28CF8006347F8250091F9C6
S315000019A009500E7A4FEA551C05F01F0E0CF1200C5B
S315000019B004FA0EFE42F82CE0BFF34F8FBFF36F8F91
S315000019C005F1C00C53F82CE06FF3104E43F82CE0F1
S315000019D053F82C303301DBB22A4482F8003347F83F
S315000019E02500EFF3108584F310884FF000447F4BF9
S315000019F00E785A68F44022EA04025A605B6885F35E
S31500001A001088002240F2F934036A40F2F9359A70E0
S31500001A101A715A729A72DA725A830A7824FA02F2A0
S31500001A20D60744BF4022DA740622CC691A770A78B0
S31500001A304E78D540ED078F78CA7848BF4FF4784185
S31500001A404FEAC20248BF9982032E42EA071200F00B
S31500001A50C280002E14BFF221E221D2B21A7099710F
S31500001A60227B082A0EBF0A22520002F002025A7393
S31500001A706278A178D201490101F02001D2B20A436D
S31500001A800021197294F800C0ACF10201012940F25C
S31500001A909880D2B2DA71626891785578597019785F
S31500001AA065F301011970D17812789974D97902F029
S31500001AB05C0201F0A3010A43DA710022C1690261E6
S31500001AC08261C260426191F90550464B05F1C00141
S31500001AD053F8216062F3104643F8216053F8211051
S31500001AE0BFF35F8F01266909890005F01F0501F123
S31500001AF0604101F5614106FA05F5C1F880510D60B6
S31500001B00C16991F90B5005F1C00153F8217062F3D8
S31500001B10104743F8217053F82110BFF35F8F69090E
S31500001B20890005F01F0501F1604106FA05F501F58A
S31500001B306141C1F880510D60C16991F907E00EF16C
S31500001B40C00153F8215062F3104543F8215053F871
S31500001B502110BFF35F8F4FEA5E1189000EF01F0E52
S31500001B6001F1604106FA0EF501F56141C1F88051B7
S31500001B700D60C16991F9091001F1C00553F825708E
S31500001B8062F3104743F8257053F82530BFF35F8F93
S31500001B904B099B0001F01F0103F160438E4003F5E2
S31500001BA06143C3F880611E60036A0CF0030C4CF0BD
S31500001BB0700C618983F802C00D4B018143601046A9
S31500001BC0F0BDFF21BCF1020F08BF42F01002D2B2F5
S31500001BD05970DA7171E7F22142F040023DE700BF29
S31500001BE000E100E0006000403803002000400840AB
S31500001BF05549435330B4EFF30383103B1F4A5BB29E
S31500001C0003F1C00152F821006FF3104042F82100A1
S31500001C1052F821201A4A52F82300C3691B691BB1E6
S31500001C2003691BB130BC704703697BB9D0E908244E
S31500001C300021937803F07F0343F004039370C1609F
S31500001C40002CEFD030BC8022FFF700BE827802F075
S31500001C5003010229C1680BD0046A91F800C084F818
S31500001C6003C002F003029B1A0A44C0E90323D8E723
S31500001C700C88056A44F47E44EC81F2E7006000407B
S31500001C803803002010B582B0EFF30383103B1F4AE0
S31500001C905BB203F1C00152F821006FF3104042F825
S31500001CA0210052F821201A4A52F82340A27802F065
S31500001CB00303022B236A0CBF198A5979A3690CBF47
S31500001CC0C1F30801C9B2019143B9636AB3B10422F1
S31500001CD0204602B0BDE81040FFF7B8BD02F003028F
S31500001CE001A9606900F012FFD4E90521A37803F089
S31500001CF003031A44C91AC4E9052109B102B010BD8B
S31500001D00636A002BFAD00122E2E700BF00600040C0
S31500001D103803002010B5EFF303830E4A103B5CB284
S31500001D2052F82400D0E90821937803F07B039370DE
S31500001D3019B102220021FFF789FD074A04F1C00309
S31500001D4052F823106FF3104142F8231052F8233053
S31500001D5010BD00BF380300200060004010B5EFF34F
S31500001D6003831A4A103B5CB252F82400837803F0CE
S31500001D700303022B036A0CBF198A597993F804C02E
S31500001D800CBFC1F30801C9B21CF0100F0CF03802E9
S31500001D9006D093F81CC01CF0010F08BF42F04002A9
S31500001DA093F804C00CF0C70C83F804C0436A0BB167
S31500001DB0FFF74CFD064A04F1C00352F823106FF3F7
S31500001DC0104142F8231052F8233010BD380300208A
S31500001DD0006000400123C8B283404AB91A040B0AC6
S31500001DE05B0103F1804303F5002300209A607047EE
S31500001DF09AB2F4E72DE9F84F0388002B3DD0074649
S31500001E004FF00008DFF8A4A040F202427B684FEAD8
S31500001E10C80559198988002491424FF00109224EBC
S31500001E2009D00134032C23D07B6836F8022B5919CC
S31500001E3089889142F5D15B5909FA04F203F0B85347
S31500001E40B3F1807F5FFA82FB19D09AF8BB341A424D
S31500001E50E7D0012000F092FB9AF8BB34012023EA78
S31500001E600B0B8AF8BBB4013400F058FB032CDBD112
S31500001E703B8808F101084345C6D8BDE8F88F9AF8B3
S31500001E80BB2409FA04F313425FFA83FBC9D101208C
S31500001E9000F074FB9AF8BB3401204BEA030B8AF876
S31500001EA0BBB400F03BFBBCE7AA72000000E00140B7
S31500001EB0F8B50446FFF79EFFEFF31082012383F384
S31500001EC01088284E33681BB92749CB704023CB7046
S31500001ED033680133336082F3108823887BB36268EA
S31500001EE003F1FF3E1FFA8EFE02F108011F4C01EBC3
S31500001EF0CE0E08E0D2B21B0113448E450A4644F8C2
S31500001F0023001CD008311068928810F4803F4FEAF5
S31500001F101223EFD0130AD2B202EB031C54F82C7032
S31500001F201B01134420F480356FF310478E4544F8A7
S31500001F302C700A4644F82C5044F82300E2D1EFF303
S31500001F401082012383F31088336813B13368013B91
S31500001F50336033681BB980200349CB70C87082F3A5
S31500001F601088F8BD34030020000D08400008084022
S31500001F7008B5034B03600846FFF79AFF002008BD2B
S31500001F8054524F50F0B50346002591F902C01B4C40
S31500001F904FEA8C0202F1804280F804C002F5C0428A
S31500001FA0D1E90270D2F80063C2F80053C3E90270A7
S31500001FB091F800E0BCF1000F83F805E004F80E503C
S31500001FC00D79C87840EA05104D7940EAC510C0B2CF
S31500001FD004F80E00C2F800630BDB4A7808481201C9
S31500001FE00CF16041D2B201F5614181F8002340F85D
S31500001FF02C30044A00201A60F0BD00BF006000408B
S31500002000380300205543490090F904200E4B02F195
S31500002010C00153F821006FF3104043F8210053F834
S315000020202130BFF35F8F012153099B0002F01F028D
S3150000203003F1604303F5614301FA02F2C3F880211C
S315000020401A600020704700BF00600040012110B4F4
S3150000205090F90430084C5A0903F01F0301FA03F300
S31500002060203244F82230BFF34F8FBFF36F8F00202A
S315000020705DF8044B704700BF00E100E00346002016
S31500002080C3E90212704700BF90F90430002B1ADB37
S31500002090012110B45A090E4C03F01F03203201FA35
S315000020A003F344F82230BFF34F8FBFF36F8F002145
S315000020B0084B90F904205DF8044B43F822100023E6
S315000020C0036018467047002303601846704700BF38
S315000020D000E100E03803002010B582B0EFF303847E
S315000020E0184B103C64B253F82410174A4879135C15
S315000020F003F00303032B11D0C03452F824306FF3DE
S31500002100104342F8243052F824308B6823B1CA6851
S31500002110CDE900206846984702B010BD8B6823B110
S31500002120CA68CDE9002068469847074BC03453F883
S3150000213024206FF3104243F8242053F8243002B0D1
S3150000214010BD00BF380300200060004010B582B00B
S31500002150EFF30383103B0E4A5BB203F1C00152F862
S3150000216021006FF3104042F8210052F82120094A5D
S3150000217001A852F8234063685B68D3E903320192F1
S315000021809847A368DA680AB101221A7702B010BD2F
S3150000219000600040380300202DE9F04184B0EFF3E1
S315000021A00383103B214A5BB203F1C00152F82100C0
S315000021B06FF3104042F8210052F821201C4A52F8D1
S315000021C02340237BA5686BB30C3562682B781278A5
S315000021D0DBB2012A04D1F42203F0F0032A702B703B
S315000021E0D4F81480B8F1000F15D0A66901AFDEB19E
S315000021F096E8070087E807009B0644BF0023337173
S31500002200E36930463360C047A3691BB197E807000E
S3150000221083E807002B78DBB203F00F032B7004B0C2
S31500002220BDE8F0810835D0E73E46E5E700600040AE
S3150000223038030020064B074993F826001A6A51F81E
S315000022402030C2F302620449D3400B60704700BFDE
S3150000225000E0014000020020C4040020F8B54AF264
S31500002260035001233749384AA1F8FE03A2F8043186
S31500002270B2F804319BB2002BFAD101214FF400458C
S315000022804FF0090C314CDFF8DCE0314EC4F804E0C5
S31500002290DFF8D4E02B48C4F80CE02E4FA2F800116A
S315000022A02D4AB16031606261276090F82620A560F2
S315000022B02561056A54F82220C5F30265EA40274DD8
S315000022C02A6080F8133480F8A2C090F8803493B363
S315000022D000231C4981F8813481F8803481F832303A
S315000022E091F83C301A07FBD543F202100023154A39
S315000022F0088581F82A3092F83C309B06FBD50320EE
S315000023000523114981F81C0115490120116282F843
S31500002310263092F82630116A54F82330C1F3026150
S31500002320CB402B604FF4254382F8300082F85200F0
S31500002330A2F8FE33F8BD80F8801440F2C44000F0E5
S315000023404DF8C5E700E0014000C001400002002052
S3150000235000700040002D310100C2EB0BC4040020C8
S315000023602112012000127A0000366E0138B50025D0
S31500002370134C0121C82084F8285000F02FF884F867
S31500002380245094F82430002BFBD194F824300C4AC6
S3150000239043F0020384F8243092F82430C3F3400457
S315000023A09B07F9D4012082F8224000F0E7F8054B9C
S315000023B0012083F8BB44BDE8384000F0AFB800BF49
S315000023C00030084000E00140704700BF00BEFEE755
S315000023D0A0F101000028FBD1704700BF10B54FF4F3
S315000023E07A72164C164B24684FF0000EB3FBF4FCC1
S315000023F04FF0FF3300FB01F1A1FB020483427EEBA9
S31500002400040407D3B0FBFCF0800880B1BDE810409F
S31500002410FFF7DEBF4FEA8C0CB1FBFCF1A1FB021209
S315000024208B427EEB020203D308460028EED110BD94
S315000024301846BDE81040FFF7CBBF00BFC40400201C
S3150000244000CA9A3B70B500240A4B0B4EB3F84051B4
S31500002450ADB225FA04F3DB07E0B203D556F8243013
S3150000246003B198470134102CF3D1024BA3F8305135
S3150000247070BD00BF00600040F402002030B56FF070
S31500002480FF0585B0032000F079F84FF0FF311F4CAF
S315000024901F482246856400230125CDE901110391D9
S315000024A004F1C00E32F8020F590960B104A800EB1E
S315000024B0810151F80C0C03F01F0C05FA0CFC20EA04
S315000024C00C0041F80C0C724503F10103EAD10199A5
S315000024D0104B0F4A03201167C3F880120299516707
S315000024E0C3F8841203999167C3F8881200F016F8AE
S315000024F00023094803F1C00234F8021F0133602BA0
S3150000250040F82210F6D105B030BD00BFAA71000018
S315000025100080004000E100E000600040EFF3108121
S31500002520012383F31088124B33F8102092B22AB19C
S3150000253033F81020013A92B223F8102033F8103005
S315000025409BB293B90B4A10B4B2F8FE330A4C9BB255
S3150000255034F8100043F4254323EA0003A2F8FE33BF
S3150000256081F310885DF8044B704781F3108870473B
S31500002570B804002000E00140C472000030B4EFF35C
S315000025801081012383F310880E4A32F810309BB273
S315000025906BB90D4C0D4DB4F8FE3335F810C09BB237
S315000025A043EA0C0343F425439BB2A4F8FE3332F806
S315000025B0103001339BB222F8103081F3108830BC02
S315000025C0704700BFB804002000E00140C47200005C
S315000025D00D4908B50A6803464AB103330B4823F090
S315000025E003031344834206D810460B6008BD08480F
S315000025F002460860F1E700F083FA0C234FF0FF3241
S315000026000360104608BD00BFC0040020D824002087
S31500002610D804002000BE704708B500F003F8FEF7A6
S315000026208BFBFEE74FF4700270B5254B254CC3F8C3
S31500002630882000209C60FEF773FBFFF70FFE012049
S31500002640FEF76EFB2368A3F5805383F30A881E48C2
S315000026501E4A0021121A00F066FA1D481D4A1E493C
S31500002660121A00F053FA1D4D1D4B5B1B002B07DDA4
S3150000267000249E1055F8043B01349847A642F9DC25
S31500002680FFF7D8FDFFF772FE0320FFF777FF002361
S315000026904FF6FF70134903F108020133092B21F8A5
S315000026A01200F8D10320FFF739FF0220FEF738FBAE
S315000026B0FFF7E4FEBDE870400020FFF785BE00BFCF
S315000026C000ED00E00000000020020020D8040020F9
S315000026D000000020000200209C770000F801002086
S315000026E0FC010020000D084081F0004102E000BF1F
S315000026F083F0004330B54FEA41044FEA430594EABC
S31500002700050F08BF90EA020F1FBF54EA000C55EAF6
S31500002710020C7FEA645C7FEA655C00F0E2804FEAC7
S315000027205454D4EB5555B8BF6D420CDD2C4480EAA9
S31500002730020281EA030382EA000083EA010180EAD9
S31500002740020281EA0303362D88BF30BD11F0004F27
S315000027504FEA01314FF4801C4CEA113102D040425D
S3150000276061EB410113F0004F4FEA03334CEA133398
S3150000277002D0524263EB430394EA050F00F0A780B0
S31500002780A4F10104D5F1200E0DDB02FA0EFC22FAAB
S3150000279005F2801841F1000103FA0EF2801843FA9F
S315000027A005F359410EE0A5F120050EF1200E012A90
S315000027B003FA0EFC28BF4CF0020C43FA05F3C018CE
S315000027C051EBE37101F0004507D54FF0000EDCF147
S315000027D0000C7EEB00006EEB0101B1F5801F1BD3F0
S315000027E0B1F5001F0CD349085FEA30004FEA3C0CF4
S315000027F004F101044FEA445212F5800F80F09A80EA
S31500002800BCF1004F08BF5FEA500C50F1000041EBED
S31500002810045141EA050130BD5FEA4C0C404141EBF1
S315000028200101013C28BFB1F5801FE9D291F0000FEC
S3150000283004BF01460020B1FA81F308BF2033A3F19B
S315000028400B03B3F120020CDA0C3208DD02F1140C92
S31500002850C2F10C0201FA0CF021FA02F10CE002F1CD
S315000028601402D8BFC2F1200C01FA02F120FA0CFCC6
S31500002870DCBF41EA0C019040E41AA2BF01EB04510F
S31500002880294330BD6FEA04041F3C1CDA0C340EDC0D
S3150000289004F11404C4F1200220FA04F001FA02F350
S315000028A040EA030021FA04F345EA030130BDC4F10E
S315000028B00C04C4F1200220FA02F001FA04F340EA03
S315000028C00300294630BD21FA04F0294630BD94F0B4
S315000028D0000F83F4801306BF81F480110134013D9B
S315000028E04EE77FEA645C18BF7FEA655C29D094EA0C
S315000028F0050F08BF90EA020F05D054EA000C04BF8A
S315000029001946104630BD91EA030F1EBF0021002074
S3150000291030BD5FEA545C05D14000494128BF41F013
S31500002920004130BD14F580043CBF01F5801130BD77
S3150000293001F0004545F0FE4141F470014FF0000002
S3150000294030BD7FEA645C1ABF194610467FEA655CB3
S315000029501CBF0B46024650EA013406BF52EA033555
S3150000296091EA030F41F4002130BD00BF90F0000F43
S3150000297004BF0021704730B54FF4806404F132047F
S315000029804FF000054FF0000150E700BF90F0000F38
S3150000299004BF0021704730B54FF4806404F132045F
S315000029A010F0004548BF40424FF000013EE700BF2F
S315000029B042004FEAE2014FEA31014FEA02701FBFBF
S315000029C012F07F4393F07F4F81F06051704732F0F1
S315000029D07F4208BF704793F07F4F04BF41F4002148
S315000029E0704730B54FF4607401F0004521F00041A6
S315000029F01CE700BF50EA010208BF704730B54FF030
S31500002A0000050AE050EA010208BF704730B511F030
S31500002A10004502D5404261EB41014FF4806404F168
S31500002A2032045FEA915C3FF4D8AE4FF003025FEAEE
S31500002A30DC0C18BF03325FEADC0C18BF033202EB72
S31500002A40DC02C2F1200300FA03FC20FA02F001FACC
S31500002A5003FE40EA0E0021FA02F11444BDE600BF6F
S31500002A604FEA4102B2F1E04324BFB3F5001CDCF1AA
S31500002A70FE5C0DD901F0004C4FEAC0024CEA5070E2
S31500002A80B2F1004F40EB830008BF20F00100704711
S31500002A9011F0804F21D113F13872BCBF01F0004014
S31500002AA0704741F480114FEA5252C2F11802C2F146
S31500002AB0200C10FA0CF320FA02F018BF40F00100C7
S31500002AC04FEAC1234FEAD32303FA0CFC40EA0C0079
S31500002AD023FA02F34FEA4303CCE77FEA625307D1B6
S31500002AE050EA01331EBF4FF0FE4040F440007047ED
S31500002AF001F0004040F0FE4040F40000704700BF87
S31500002B00014B1868704700BF240000200A44431E8A
S31500002B10914200D1704710B511F8014B914203F86C
S31500002B20014FF9D110BD02440346934200D17047CC
S31500002B3003F8011BF9E72DE9FF4755EC104B002D73
S31500002B400E4619462B46B4BF05F1004300239146B5
S31500002B50BFBF22461D462D231446DDF830A00B705C
S31500002B600D9B23F02008B8F1460F05D0B8F1450FAC
S31500002B7000D10136022100E0032103AB3246019366
S31500002B8002AB45EC104B0093534601F0BDFDB8F186
S31500002B90470F074602D119F0010F22D0B8F1460FB0
S31500002BA007EB060910D13B78302B0AD1002200230F
S31500002BB02046294604F048F918B9C6F10106CAF8B4
S31500002BC00060DAF8003099440022002320462946A6
S31500002BD004F03AF908B1CDF80C903022039B4B452E
S31500002BE007D3039B38460E9ADB1B136004B0BDE87F
S31500002BF0F087591C03911A70F0E7F7B500290346D0
S31500002C00B8BF494203F8022BB4BF2D222B22092953
S31500002C1042702ADD0DF107040A27A4460A46A64695
S31500002C20013C632A91FBF7F607FB1615314605F1C1
S31500002C3030050EF8015CF1DC3031AEF1020504F826
S31500002C40011C441C294661450AD30DF10902A2EB79
S31500002C500E02654588BF00221344181A03B0F0BD62
S31500002C6011F8012B04F8012FEDE730233031837082
S31500002C70031DC170F1E7FFFF2DE9F04F2DED028B2B
S31500002C808DB00C4616461F46DDF86080054602F0FC
S31500002C9095FED0F800A0504600F0F2FD002394F80F
S31500002CA018B008EE100A0A9323680593D8F8003086
S31500002CB0073323F0070303F10802C8F80020D3E91D
S31500002CC00023C4E91223D4E912894FF0FF3229F018
S31500002CD00043CDF8188007939E4BDDE9060104F00A
S31500002CE0E5F888BB4FF0FF329A4BDDE9060104F0A8
S31500002CF0BFF848BB002200234046494604F0AEF820
S31500002D0010B12D2384F84330934B9448BBF1470F01
S31500002D1094BF9846804603234FF000092361059B24
S31500002D2023F00402226033460BAA21462846009768
S31500002D3000F0D8F9013040F090804FF0FF300DB030
S31500002D40BDEC028BBDE8F08F42464B4640464946F5
S31500002D5004F0ACF840B14B468148002BBCBF2D2394
S31500002D6084F843307F4BD1E70BF0DF0263680692AD
S31500002D705A1C3FD106236360059B2846616843F4CD
S31500002D808062002303930AAB2260CDE901B309AB4D
S31500002D9049EC108B00930DF12303FFF7CCFE069B45
S31500002DA080460999472B08D1C81C02DB6368994203
S31500002DB041DDABF1020B5FFA8BFBBBF1650F20D84F
S31500002DC001395A4604F150000991FFF716FF0A9A95
S31500002DD081461318012A236102DC2268D20701D535
S31500002DE0013323619DF82330002B9CD02D2384F8DA
S31500002DF0433098E7069A472ABED1002BBCD101235F
S31500002E00B9E7BBF1660F18D1002963680BDD2161B4
S31500002E1013B92268D00702D501330B4423614FF062
S31500002E200009A165DEE713B92268D20701D502338E
S31500002E30F4E70123F2E74FF0670B0A9B994205DBA3
S31500002E4023682161D807EAD54B1CE7E70029D4BFE0
S31500002E50C1F1020201221344E0E723685A0507D4B0
S31500002E602369424631462846B84701302CD164E7EB
S31500002E70BBF1650F40F2E08000220023D4E9120185
S31500002E8003F0E2FF002834D00123374A31462846B2
S31500002E90B84701303FF451AFDDE909239A4202DB1E
S31500002EA02368D80710D518EE103A52463146284600
S31500002EB0B84701303FF441AF4FF0000804F11A095A
S31500002EC00A9B013B434509DC23689B0700F105810A
S31500002ED0E0680B9B9842B8BF184630E701234A4684
S31500002EE031462846B84701303FF427AF08F10108BC
S31500002EF0E6E7099B002B39DC01231B4A31462846AD
S31500002F00B84701303FF419AFDDE90923134302D175
S31500002F102368D907D8D518EE103A524631462846C6
S31500002F20B84701303FF409AF4FF0000904F11A0A1F
S31500002F30099B5B424B4501DC0A9B92E70123524603
S31500002F4031462846B84701303FF4F7AE09F101098A
S31500002F50EEE700BFFFFFEF7FCC720000D0720000EB
S31500002F60D8720000D4720000DC7200000A9AA36DC9
S31500002F709A42A8BF1A46002A914637DC4FF0000B4A
S31500002F8029EAE97904F11A02A36D0593A3EB090373
S31500002F905B4533DCDDE909239A423BDB2368DA072C
S31500002FA038D40A9B059A09999A1AA3EB0109914507
S31500002FB0A8BF9146B9F1000F35DC4FF0000829EAA9
S31500002FC0E97904F11A0ADDE909239B1AA3EB09033F
S31500002FD043457FF779AF0123524631462846B84725
S31500002FE001303FF4AAAE08F10108ECE7134631467A
S31500002FF042462846B8470130C0D19EE601233146F5
S3150000300028460592B84701303FF497AE0BF1010B05
S31500003010059AB9E718EE103A524631462846B8479F
S315000030200130BED189E6059A4B46314628464244D0
S31500003030B8470130C1D180E60A9A012A01DCDB07D4
S3150000304038D50123424631462846B84701303FF479
S3150000305074AE18EE103A524631462846B84701304B
S315000030603FF46BAE00220023D4E9120103F0ECFE1C
S31500003070D8B90A9B08F10102013B31462846B847F8
S3150000308001300ED159E60123524631462846B8474B
S3150000309001303FF452AE08F101080A9B013B43455B
S315000030A0F1DC4B4604F15002DCE64FF0000804F177
S315000030B01A0AF2E701234246DFE701234A46314670
S315000030C02846B84701303FF438AE08F10108E368F6
S315000030D00B995B1A4345F0DCFAE64FF0000804F161
S315000030E01909F4E72DE9F047164699468A68074616
S315000030F00B690C46DDF820809342B8BF1346336057
S3150000310091F843200AB1013333602368990642BF20
S31500003110336802333360256815F0060506D104F1DD
S31500003120190AE36832689B1AAB4229DC94F84320FB
S31500003130131E226818BF012392062ED404F14302FF
S3150000314049463846C047013021D023681A3454F81E
S315000031500E5C03F0060332680026042B54F8123C7A
S3150000316008BFAD1A54F80A2C14BF002525EAE575E8
S315000031709342C4BF9B1AED18B5421AD1002008E04D
S315000031800123524649463846C047013003D14FF025
S31500003190FF30BDE8F0870135C3E7E1185A1C30203F
S315000031A00233224481F8430094F8451082F8431014
S315000031B0C4E70123224649463846C0470130E6D0D7
S315000031C00136D9E72DE9FF470F7E914680460C462A
S315000031D0782F9A460C9D01F1430207D8622F0AD830
S315000031E0002F00F0D880582F00F0A38004F142058C
S315000031F084F842703AE0A7F16303152BF6D801A1D3
S3150000320051F823F05D32000071320000ED3100000C
S31500003210ED310000ED310000ED31000071320000AB
S31500003220ED310000ED310000ED310000ED31000020
S315000032307D330000A13200005F330000ED31000055
S31500003240ED3100009F330000ED310000A132000097
S31500003250ED310000ED310000673300002B681A1DC8
S315000032601B682A6004F1420584F842300123A3E07A
S3150000327020682968060601F104030AD50E682B604A
S31500003280002E03DA2D23764284F843305E480A2363
S3150000329019E00E6810F0400F2B6018BF36B2EFE74A
S315000032A02B682068191D2960010601D51E6802E0F9
S315000032B04606FBD51E886F2F53480CBF08230A23EA
S315000032C0002184F843106568002DA560A2BF21681F
S315000032D021F0040121600EB9002D4DD01546B6FB34
S315000032E0F3F103FB1167C75D05F8017D37460E460E
S315000032F0BB42F4D9082B0BD12368DE0708D5236916
S3150000330061689942DEBF302305F8013C05F1FF35BF
S31500003310521B22614B4603AA21464046CDF800A027
S31500003320FFF7E0FE01304CD14FF0FF3004B0BDE8AE
S31500003330F087354881F845702968236851F8046B91
S3150000334029601D0614D5DF0744BF43F02003236020
S315000033501EB9236823F0200323601023B0E72368F7
S3150000336043F0200323607823284884F84530E3E7B8
S31500003370590648BFB6B2E6E71546BBE72B6826688E
S31500003380181D6169286035061B6801D5196002E0C1
S315000033907006FBD51980002315462361BAE72B6812
S315000033A000211A1D2A601D686268284602F026FB65
S315000033B008B1401B606063682361002384F84330D2
S315000033C0A8E723692A4649464046D0470130ABD094
S315000033D023689B0713D4E068039B9842B8BF18463E
S315000033E0A4E70123324649464046D04701309BD0E8
S315000033F00135E36803995B1AAB42F2DCEBE7002583
S3150000340004F11906F5E700BFDE720000EF72000056
S315000034102DE9F04F87B017468B46804603930C463E
S315000034208B685A1EB2F5AE7F8BBF6FF4AE75002364
S315000034305B1902934FF0000584BF029340F25D13BF
S31500003440AA46A94688BF8B600B68019543F4F063D2
S315000034504BF81C3B5E46CDE90455A26852B13B6869
S315000034601B784E2B64D8402B3CD8A3F12B01C8B255
S315000034700E283AD9B9F1000F03D0236823F48073DC
S3150000348023600AF1FF3ABAF1010F00F213815E459B
S3150000349000F205810125284607B0BDE8F08FA3F1AB
S315000034A061020D2AE6D801A151F822F0EB350000A1
S315000034B07534000075340000753400004B3600008A
S315000034C0233600007534000075340000F93500001D
S315000034D07534000075340000753400007534000042
S315000034E0B1350000A3F14102DBE70E29C2D801A0E5
S315000034F050F821F0A335000075340000A335000014
S315000035003736000075340000513500008D35000057
S315000035108D3500008D3500008D3500008D3500009D
S315000035208D3500008D3500008D3500008D3500008D
S315000035306E2B09D8602BB2D8542B77D0592B99D142
S31500003540072D97D1082529E0742B6FD0792BF6E744
S315000035502168C8051AD521F08001029B09F10109ED
S3150000356021601BB1013B01320293A260A368013BBB
S31500003570A3602369013323617B68013B002B7B60D9
S3150000358040F384803B6801333B6066E71AEB050F26
S315000035907FF470AF226822F4C072226006F8013B05
S315000035A0E4E7226810067FF565AF22F08002F4E7B3
S315000035B0BAF1000F0ED1B9F1000F0ED1226802F454
S315000035C0E061B1F5E06F08D122F4F0624FF0010A34
S315000035D02260E3E7BAF1020F55D0012D02D0042D87
S315000035E07FF448AF0135EDB2D8E7BAF1010F7FF4A9
S315000035F041AF4FF0020AD1E77DB9B9F1000F7FF470
S315000036003CAF226802F4E061B1F5E06F7FF439AFB8
S3150000361022F4F06201252260C0E7032DE2D0052DD9
S31500003620DEE7022D7FF426AF0325B7E7062D7FF4EC
S3150000363021AF0725B2E7226891057FF51BAF22F47B
S315000036402072CDF804902260A8E7226802F4A061F7
S31500003650B1F5806F06D050057FF50CAFB9F1000FBC
S315000036603FF40FAF910522F4F06258BF019942F47E
S31500003670C07258BFA9EB010122604FF0000958BF84
S31500003680CDE904168AE74FF0030A87E7D4F88031BC
S3150000369039464046984700283FF4DFAEEAE6D4F8BC
S315000036A07C313A4616F8011D404698472369013B8E
S315000036B02361ECE66B1E062B25D8022D36D85E4517
S315000036C07FF6E8AED4F87C313A4616F8011D40463E
S315000036D098472369013B2361F1E702983A46D4F8FB
S315000036E07C3110F8011D0290404698472369013B42
S315000036F023610AF1FF3A5FFA8AFABAF1020FECD1B6
S31500003700033DEDB2761B2368DA052ED55B0510D591
S315000037105E457FF6BFAED4F87C313A4616F8011DF9
S31500003720404698472369013B2361F1E7AA46029682
S31500003730DFE716F8011C751E2369652903F1FF33BF
S3150000374023610CD045290AD0D4F87C313A4640464C
S31500003750B51E9847236916F8021C013B23612E46C5
S31500003760D4F87C313A4640469847256815F010054E
S3150000377059D13570236803F4C063B3F5806F1BD14C
S31500003780019B4B45A3EB090223D100225946404633
S3150000379000F09CFE2268039B12F0020F1B6857EC98
S315000037A0106B21D01A1D03990A601B68C3E90067D4
S315000037B0E3680133E3606EE6049B002BE5D00599D0
S315000037C00A232A464046013100F008FF049B059E65
S315000037D0C21A04F26F1315499E4228BF04F5B77644
S315000037E0304600F02DF8D0E7039912F0040F03F1EC
S315000037F004020A60D9D1D3F8008010EE102A3B46A5
S3150000380010EE100A394603F051FB28B1084800F0C3
S3150000381011F888ED000ACBE730463946FFF720F964
S31500003820C8F80000C4E7002535E600BF00730000B5
S31500003830897700009FED010A704700BF0000C07F36
S315000038400EB400B59CB06FF000411DAB029006901F
S31500003850079104910848094953F8042B059102A9D8
S315000038600068019302F0F0FE029B00221A701CB061
S315000038705DF804EB03B07047240000200802FFFF48
S31500003880034613F8012B002AFBD1181A013870479A
S3150000389070B504460D46164645EC104B02F034FC56
S315000038A051EC100B7EB1C5F30A53C3F16B03002B29
S315000038B009DD1B05002403F17F55224605F5401559
S315000038C02B4603F059F870BD2DE9F04F1F46002333
S315000038D0044688464FF0000A4FF0000B2DED028B90
S315000038E09DB018939F4B13921B6818460593FFF7DC
S315000038F0C7FF0546CDF85C80179B1A782B2A4ED059
S315000039003BD80D2A34D8082A34D8002A3ED00023C2
S315000039100A93179E3378302B40F0B080737803F00B
S31500003920DF03582B68D10A9B17A9029720460193FB
S3150000393018AB8D4A009319AB01F038FD10F007075C
S31500003940054605D0062F2CD10136002317960A937B
S31500003950139B002B40F08E850A9BEBB152460BF170
S31500003960004343EC102B1DB0BDEC028BBDE8F08F7D
S31500003970202ACCD101331793BEE72D2AC7D10122C5
S315000039800A925A1C17925B78002BC2D1139BCDF872
S315000039905C80002B40F06C8552465B46E1E70022D6
S315000039A0EEE7189A3AB135211AA802F0B6FC189932
S315000039B0204602F071F8013F042F06D8DFE807F031
S315000039C00A0314170A00DDE91AAB2807C0D54BF025
S315000039D0004BBDE7DDE91AA3199A23F4801302F21E
S315000039E0334243EA025BF0E7DFF880B1EDE76FF0C0
S315000039F0004B4FF0FF3AE8E7179B5A1C17925B788B
S31500003A00302BF9D0002BA3D001234FF000090493EB
S31500003A100A22179B4F46CDF81C90089317980678F4
S31500003A20A6F13003D9B209292AD92A46059902F006
S31500003A3023FFA0B3002032463D4603460590652A83
S31500003A4001D0452A18D11DB9049A02439ED00025FB
S31500003A50DDF85C8008F10102179298F801202B2A04
S31500003A6075D02D2A7BD04FF0000CA2F13001092928
S31500003A7040F28280CDF85C8000269DE00023C4E7FA
S31500003A80082F00F1010007F10107D4BF079902FBD7
S31500003A9009391790DCBF02FB01330793BEE7179B7A
S31500003AA05A1917925A5D002F36D03D460590A2F15D
S31500003AB03003092B12D90123C1E7179B01305A1C89
S31500003AC017925A78302AF8D0A2F13103082B00F267
S31500003AD0D68405900020179B05460893303A00F1DE
S31500003AE0010313D0059900EB050E19442B460591E9
S31500003AF00A21734512D12B180135082B05441CDC0D
S31500003B0007990A2303FB012307930023179A1846F4
S31500003B10511C17915278CAE73846D3E7082B04DCC4
S31500003B20079E4E4307960133E3E703F1010CBCF110
S31500003B30100FD8BF01FB09F9F5E7102DDCBF0A23EA
S31500003B4003FB0929E1E70023059301237CE74FF0F6
S31500003B50000C08F10202179298F8022085E74FF050
S31500003B60010CF6E7F4750000087300000000F07F12
S31500003B70179A511C17915278302AF9D0A2F13101C7
S31500003B8008293FF679AFA2F1300E179A0692179AD6
S31500003B90511C17915278A2F13006092E37D9069E8C
S31500003BA0891B44F61F66082902DC7645A8BF7646BF
S31500003BB0BCF1000F00D07642002D4DD1049901438F
S31500003BC07FF4C6AE002B7FF4E1AE692A27D024DC51
S31500003BD0492A24D04E2A7FF4D9AE9F4917A801F06E
S31500003BE03DFE00283FF4D2AE179B1B78282B2DD123
S31500003BF01AAA9A4917A801F045FE052826D11B9B4B
S31500003C00DDF868A043F0FF4B4BF4E00BA0E60A2179
S31500003C1001FB0E2EAEF1300EB9E76E2ADBE79049B6
S31500003C2017A801F01BFE00283FF4B0AE179B17A89B
S31500003C308C49013B179301F011FE10B9179B013314
S31500003C401793DFF830B24FF0000A81E6864802F09B
S31500003C50FBFD5BEC10AB7BE6059B002F08BF2F46F8
S31500003C60102D0798A6EB0303A846A8BF4FF010082F
S31500003C700693FEF77BFE092D82468B4613DD7B4BB2
S31500003C8003EBC80353E9122302F076FE82468B4605
S31500003C904846FEF76BFE02460B4650465946FEF76F
S31500003CA029FD82468B460F2D38DC069B002B3FF400
S31500003CB04FAE24DD162B0BDC6C49524601EBC301DB
S31500003CC05B46D1E9000102F057FE82468B463FE68D
S31500003CD0C5F12503069A934220DBC5F10F05634C17
S31500003CE052465B4604EBC501D1E9000102F044FEF1
S31500003CF0069B5D1B04EBC504D4E90023E3E7069BA2
S31500003D0016330BDB059B504659469E1B574B03EB60
S31500003D10C606D6E9002302F059FFD6E7A5EB080848
S31500003D20069B9844B8F1000F74DD18F00F030AD013
S31500003D304E49524601EBC3015B46D1E9000102F050
S31500003D401BFE82468B4638F00F084FD0B8F59A7F97
S31500003D5022DD00252E46079505952223DFF814B1AE
S31500003D604FF0000A2360079B002B3FF4F1AD189932
S31500003D70204601F091FE0599204601F08DFE314660
S31500003D80204601F089FE0799204601F085FE294666
S31500003D90204601F081FEDBE5354B4FEA28185046F8
S31500003DA05946049300239946B8F1010F21DC0BB163
S31500003DB082468B462E4BABF1547B524603EBC90928
S31500003DC05B46D9E9000102F0D7FD2A4B0A46824636
S31500003DD00B4029498B42BCD8A1F580118B4286BF86
S31500003DE0DFF898B04FF0FF3A02F1547B00230493BA
S31500003DF083E018F0010F05D0049BD3E9002302F0FD
S31500003E00BBFD0123049A09F101094FEA680808324B
S31500003E100492C9E7EAD0C8F1000818F00F020AD0E8
S31500003E20124B5046594603EBC203D3E9002302F076
S31500003E30CDFE82468B465FEA2818D7D0B8F11F0F11
S31500003E401EDD00252E460795059522234FF0000A14
S31500003E504FF0000B236086E7D97200001C73000048
S31500003E60D17200005C74000089770000B076000013
S31500003E70887600000000F07F0000A07CFFFFEF7F47
S31500003E8018F0100350465946DFF8A89318BF6A2366
S31500003E900493002318F0010F04D0D9E9002302F09F
S31500003EA06BFD01235FEA680809F10809F2D10BB13D
S31500003EB082468B46049BC3B1CBF30A525946C2F1E4
S31500003EC06B03002B11DD1F2B40F32181342B4FF0A8
S31500003ED0000ADBBFC2F14B024FF0FF334FF05C7BB1
S31500003EE003FA02F2D8BF02EA010B00220023504671
S31500003EF0594602F0A9FF0028A3D1079B3A46089924
S31500003F00204600932B4601F031FE079000283FF42F
S31500003F1020AF059B00259E1B069B002BB4BF334696
S31500003F2000232E460C93069B23EAE3731293079B0A
S31500003F302046596801F070FD059000283FF40DAF4A
S31500003F40079B0C301A6903F10C0102329200FEF74E
S31500003F50DDFD1AAA19A920464BEC10AB02F04EF96A
S31500003F6018904BEC18AB00283FF4F7AE0121204621
S31500003F7001F096FE064600283FF4EFAE199B049921
S31500003F80002BA3EB0108A9BF0C9A129A03EB0209B6
S31500003F90129FB8BFD71A1A9AA14B9044B8BFDDF842
S31500003FA03090C2F1360208F1FF38984580F2C3809E
S31500003FB0A3EB080301211F2BA2EB030200F3AE8043
S31500003FC001FA03F30D930023089309EB0208049BFF
S31500003FD01744C1451F444B46A8BF4346BB42A8BF32
S31500003FE03B46002BC2BFA8EB0308FF1AA9EB030947
S31500003FF00C9B002B17DD31461A46204601F00EFFBA
S31500004000064600283FF4A9AE0146189A204601F05C
S315000040105DFE0B9000283FF4A0AE1899204601F0F3
S315000040203BFD0B9B1893B8F1000F00F38980069BAC
S31500004030002B08DD129A2046059901F0EFFE059047
S3150000404000283FF48AAE002F08DD3A46059920463F
S3150000405001F03EFF059000283FF47FAEB9F1000F56
S3150000406008DD31464A46204601F032FF0646002862
S315000040703FF473AE059A2046189901F0B5FF054640
S3150000408000283FF46AAEC36831460B930023C36031
S3150000409001F08EFF00285DDA0B9B53EA0A037FD1FD
S315000040A0CBF31303002B7BD12BF000431B0D1B0519
S315000040B0B3F1D66F74D96B6913B92B69012B6FDD18
S315000040C029460122204601F003FF3146054601F04C
S315000040D06FFF002864DD04995B46524A00297FD0B1
S315000040E002EA0B01B1F1D66F7ADCB1F15C7F7FF7A2
S315000040F0ACAE4D4B50465946002202F03DFC0B46F5
S3150000410082468B46034304BF222323602FE64FF0EB
S31500004110FF3202FA03F303EA0A0AE6E6C8F17F4829
S315000041200D9108F57F0808F57B4808F1E20801FAC9
S3150000413008F3089349E70023089301230D9344E706
S3150000414042461899204601F0C3FE189000287FF4D5
S315000041506EAF02E65F466FD10B9ACBF3130342B301
S31500004160324A934228D1049B5146EBB12D4B4FF076
S31500004170FF323B40B3F1D46F19D81B0DC3F16B036B
S3150000418002FA03F3994217D1294B9F4202D101311A
S315000041903FF4E3AD234B4FF0000A3B4003F5801B91
S315000041A0049B002BA5D1E2E54FF0FF33EAE7134667
S315000041B0E8E753EA0A038ED0089BDBB13B42EFD017
S315000041C00B9B5046049A5946C3B1FFF761FB024662
S315000041D00B4651EC180BFEF78DFA82468B46DFE74D
S315000041E013404FF0FF3AA3F580136FEA135B6FEAB3
S315000041F00B5BD5E70D9B13EA0A0FE0E7FFF748FBD9
S3150000420002460B4651EC180BFEF772FA0022002309
S3150000421082468B4602F018FE0028C1D015E600BF84
S3150000422002FCFFFF0000F07F00005039FFFF0F0087
S31500004230FFFFEF7F307300003146284602F03AF860
S3150000424000224FF0804310EE100A59EC108B4946BD
S3150000425002F00EFE00287AD00B9B002B4AD00022DB
S31500004260934B4FF00008DFF84892CDE90823914BB5
S315000042703B400D930D9A904B9A4240F0B080A7F1C7
S31500004280547BDDE908014BEC10ABCDE9080101F0E8
S315000042903BFFDDE9080153EC102B02F06DFB5246A3
S315000042A05B46FEF727FA0B4682498246834A194047
S315000042B0914260D918EE903A02F15472934204D1B9
S315000042C018EE103A01333FF448ADDFF8FCB14FF079
S315000042D0FF3A1899204601F0DFFB0599204601F0C8
S315000042E0DBFB3146204601F0D7FB2946204601F08C
S315000042F0D3FB1CE6BAF1000F1BD1CBF31303F3B9C2
S3150000430000226B4B4046494602F0A8FDD0B9404614
S31500004310494600226A4B02F02FFB8046894609F186
S315000043200043CDF850801593DDE91423CDE9082329
S315000043309DE7BAF1010F02D1002F3FF486AD0022AE
S31500004340604B8EE74FF00008DFF87491E7E75C4BAF
S3150000435040464946002202F00FFB0B9B80468946E9
S3150000436033B901F100430E900F93DDE90E23DDE72B
S31500004370CDE90E89F9E703F1547B049B002BA8D104
S315000043802BF000430D9A1B0D1B059A42A1D1404606
S31500004390494602F0E9FDFEF735FB02460B4640466C
S315000043A04946FEF7A5F9CBF313030B9A804643EA79
S315000043B00A038946134355D035A3D3E9002302F0F7
S315000043C04DFD00287FF4D3AC4046494632A3D3E9DD
S315000043D0002302F061FD00283FF47BAFC7E4049B95
S315000043E033B30D9BB3F1D46F22D8404649462CA374
S315000043F0D3E9002302F03CFDA0B14946404602F055
S3150000440093FD012838BF0120FEF7B0FA0B9B8046CA
S31500004410894623BB01F1004310901193DDE9102377
S31500004420CDE90823099B0D9A03F1D6639B1A0993DC
S31500004430B0EE480AF0EE680ADDE90801CDE90801A8
S3150000444001F062FEDDE9080153EC102B02F094FA4C
S3150000445053EC182BFEF74EF982468B468DE7CDE9D5
S315000044601089DBE710A3D3E9002302F0F7FCB2E7DB
S3150000447000230A93179B139A1360FFF76DBA652AF8
S315000044803FF461AB452A3FF45EAB0123FFF796BBD1
S315000044909535A094FFFFDF3F35E5AF350000E03FDF
S315000044A00000C0FFFFFFDF419535A094FFFFCF3F1F
S315000044B00000F03F0000F07F0000E07FFFFF9F7CE0
S315000044C00000E03F0000F0BFFFFFEF7F014BFFF76A
S315000044D0FBB900BF8C000020012B2DE9F04701D06D
S315000044E0242B06D9FEF70CFB162303600020BDE83B
S315000044F0F0870D46DFF8E0C02E4615F8014B14F89C
S315000045000C7017F00807F7D12D2C32D12C78012723
S31500004510B51C002B5BD0102B09D1302C07D12C7881
S3150000452004F0DF04582C4DD16C781023023507F1C6
S3150000453000484FF0000C08F1FF386646B8FBF3F967
S3150000454003FB198AA4F1300EBEF1090F16D8744682
S31500004550A34224DDBCF1000F1EDBB1451CD301D103
S31500004560A24519DB06FB03464FF0010C15F8014B7B
S31500004570E8E72B2C04BF2C78B51CCAE7A4F1410E42
S31500004580BEF1190F01D8373CE2E7A4F1610EBEF186
S31500004590190F04D8573CDBE74FF0FF3CE6E7BCF1C8
S315000045A0000F05DA22234646036042B930469EE7ED
S315000045B007B17642002AF9D0BCF1000F00D0691E7F
S315000045C01160F3E73024002BB1D10823AFE7302C7C
S315000045D0A5D00A23ABE700BF59730000FFF77CBFE5
S315000045E02DE9F74F036907460C69A342C0F287809D
S315000045F0013C00F1140501F1140805EB840355F89C
S3150000460024204FEA840B019308EB840958F82430E0
S3150000461001339A42B2FBF3F635D34FF0000E404613
S31500004620AC46F24650F8042B93B281454FEA12424B
S3150000463006FB03E34FEA134E9BB206FB02E2AAEB2C
S315000046400303DCF800A04FEA124E1FFA8AFA92B270
S3150000465053440093DCF80030C2EB1342009B02EB9C
S315000046602342BDF8003043EA02434FEA224A4CF89F
S31500004670043BD7D255F80B302BB9019B043B9D4226
S315000046801A4630D33C61384601F092FC002826DBFE
S31500004690013628464FF0000C58F8041BD0F800E00D
S315000046A08BB2C1451FFA8EF2ACEB030313444FEAFB
S315000046B01142C2EB1E4202EB23429BB24FEA224C4E
S315000046C043EA024340F8043BE6D255F8242005EBC2
S315000046D0840322B9043B9D421A460AD33C61304604
S315000046E003B0BDE8F08F1268043B002ACAD1013C32
S315000046F0C5E71268043B002AF0D1013CEBE7002035
S31500004700EEE7FFFFFFFFFFFF2DE9F04F456A044686
S3150000471010EE10AA2DED048B93B057EC106BDDF85C
S315000047208080BB46069109920C9375B9102001F062
S315000047304BF90246606220B9A74BEA21A748FDF76C
S3150000474045FEC0E901550560C560636A196851B147
S315000047505A680123204693404A608B6001F09CF919
S31500004760636A00221A603B1EADBF0023012223F0BC
S31500004770004BC8F800309A4BB8BFC8F8002033EA9F
S315000047800B031BD142F20F730C9A1360CBF3130386
S31500004790334300F08F85219B63B9924B22E0924B05
S315000047A001930833219A1360019813B0BDEC048B72
S315000047B0BDE8F08F8B4B01930333F3E70022002310
S315000047C05046594602F040FB80464BEC19AB58B1B7
S315000047D001230C9A1360219B002B00F06885834807
S315000047E01860431E0193DFE7CBF30A5510AA11A9FF
S315000047F020464BEC10AB01F001FD08EE100A002D2F
S3150000480000F0828019EE903A5646A5F2FF35CDF8B3
S315000048103880C3F3130343F07F5747F44017002251
S31500004820734B30463946FDF763FF65A3D3E9002392
S3150000483002F0A2F864A3D3E90023FDF75BFF064666
S315000048400F462846FEF7A2F861A3D3E9002302F03B
S3150000485093F802460B4630463946FDF74BFF0646AF
S315000048600F4602F039FB00220090002330463946FD
S3150000487002F0F4FA50B10098FEF788F832463B464B
S3150000488002F0E2FA10B9009B013B0093009B162B45
S3150000489059D8009A574B03EBC20351EC190BD3E9D5
S315000048A0002302F0DBFA00284FD0009B013B009367
S315000048B000230B93109B5D1B6B1E059349BFC5F12F
S315000048C0010300230493002354BF04930593009B24
S315000048D0002B3CDB059B009A13440A9205930023A8
S315000048E00793069B092B00F28980052BC5BF043B65
S315000048F0002501250693069B023B032B00F28980C7
S31500004900DFE803F02E3B395ADDE910531D4405F26A
S315000049103243202BC6BFC3F1400305F21240C3F158
S31500004920200305F1FF35C5BF0BFA03F326FA00F0A5
S3150000493006FA03F01843FEF719F801230646A1F11B
S31500004940F8770E936BE70123B3E70B90B2E7049B6E
S31500004950009A9B1A04935342079300230A93C0E7D5
S3150000496000230893099B002B56DC01231A46CDE948
S31500004970023309920CE00123F3E70023099A089316
S31500004980009B134402930133012B0393B8BF012309
S315000049900022606A4260042202F1140641689E42C7
S315000049A03ED9204601F038F8019000283CD1124B40
S315000049B002464FF4D571C1E60123DFE7AFF300806D
S315000049C061436F63A787D23FB3C8608B288AC63F0F
S315000049D0FB799F501344D33F667400007D7400003A
S315000049E00000F07F6274000059740000DD72000060
S315000049F00000F83FB0760000FB740000012500239C
S31500004A00089506934FF0FF330022CDE902331223B7
S31500004A10AFE701230893F5E7099BCDE90233B7E732
S31500004A20013152004160B7E7636A019A1A60039B3D
S31500004A300E2B00F29D80002D00F09A80009B002B2B
S31500004A4032DD03F00F03B64A02EBC303D3E9008954
S31500004A50009BD8054FEA231716D5B24B07F00F0770
S31500004A600325D3E9082351EC190B02F0AFF882466F
S31500004A708B46AC4E57B942464B465046594602F015
S31500004A80A5F882468B4628E00225F2E7F90708D505
S31500004A90404649460135D6E9002301F06DFF8046C0
S31500004AA089467F100836E5E700F09B80009B0225CB
S31500004AB09C4F5E429A4B06F00F02361103EBC2037F
S31500004AC051EC190BD3E9002301F056FF002382466F
S31500004AD08B46002E7AD1002BD3D10B9B002B00F0F6
S31500004AE082800022904B5046594602F0B7F90028C2
S31500004AF079D0039B002B76D0029B002B36DD009BE2
S31500004B005046594600225F1E884B01F035FF01359D
S31500004B1082468B46029E2846D046FDF737FF524610
S31500004B205B46D94601F028FF0022814BFDF7E2FDE6
S31500004B308246A1F1507B002E58D100227D4B404683
S31500004B404946FDF7D5FD52465B468046894602F04A
S31500004B50A3F9002840F0938252460BF100434046E9
S31500004B60494602F07BF9002840F087825BEC19ABDE
S31500004B70119B002BC0F24881009A0E2A00F3448153
S31500004B80674B03EBC203D3E90089099B002B80F234
S31500004B90D580039B002B00F3D18040F06D8200226C
S31500004BA0644B4046494601F0E7FE52465B4602F03A
S31500004BB069F9039E3746002840F043823123019D60
S31500004BC005F8013B009B013300933EE2F20705D551
S31500004BD00135D7E9002301F0CFFE0123761008370F
S31500004BE077E7022579E7009F039E94E701994C4BEE
S31500004BF0314403EBC6030D91089953E902230029BA
S31500004C0043D000204C4901F0E1FF52465B46FDF7D8
S31500004C106FFD019D82468B464946404602F05CF98F
S31500004C200646FDF7B3FE024630360B464046494679
S31500004C30FDF75EFD52465B4605F8016B80468946E8
S31500004C4002F00CF9002863D142464B460020364953
S31500004C50FDF74EFD52465B4602F000F9002840F093
S31500004C60B5800D9B9D4281D00022304B504659465F
S31500004C7001F082FE002282468B46404649462B4B77
S31500004C8001F07AFE80468946C6E75046594601F04D
S31500004C9073FE0D9B82468B46019D0F934946404607
S31500004CA002F01AF90646FDF771FE02460B4640462B
S31500004CB049463036FDF71CFD0D9B05F8016B804615
S31500004CC09D4289464FF0000224D11B4B504659465F
S31500004CD0FDF710FD02460B464046494602F0DCF859
S31500004CE0002873D152465B4600201349FDF700FDAC
S31500004CF002460B464046494602F0B0F800283FF40B
S31500004D0035AF0F9D6B1E0F9315F8013C302BF8D075
S31500004D10009749E0054B01F02FFE80468946BDE726
S31500004D20B0760000887600000000F03F00002440C6
S31500004D3000001C40000014400000E03F56465F465D
S31500004D40019D42464B463046394601F03FFF02F090
S31500004D50C3F88246FDF71AFE42464B4601F00CFEAA
S31500004D60024630460AF130060B463946FDF7C0FCCE
S31500004D7005F8016B019E0246039F0B46AE1BB74228
S31500004D8035D1FDF7B7FC42464B4606460F4602F0C4
S31500004D9083F8D0B942464B463046394602F054F8BD
S31500004DA010B11AF0010F10D1204618EE101A00F0BB
S31500004DB073FE002300982B7001300C9B1860219B1A
S31500004DC0002B3FF4F1AC1D60EEE4009F2B461D4620
S31500004DD013F8012D392A06D1019A9A42F7D13022C9
S31500004DE0019901370A701A7801321A7090E7002289
S31500004DF0A44B01F0C1FD0022002306460F4602F037
S31500004E0023F800289DD0CFE7089A002A00F0D58025
S31500004E10069A012A00F3B9800E9A002A00F0B180A2
S31500004E2003F23343079E049D049A012120461A4447
S31500004E300492059A1A44059200F032FF0746002DA7
S31500004E400CDD059B002B09DDAB42049AA8BF2B465F
S31500004E50D21AED1A0492059AD31A0593079B1BB32F
S31500004E60089B002B00F0AD80002E13DD394632463C
S31500004E70204600F0D3FF18EE102A014607462046CA
S31500004E8000F024FF804618EE101A204608EE108A1D
S31500004E9000F002FE079B9A1B06D018EE101A204659
S31500004EA000F0BCFF08EE100A0121204600F0F8FED3
S31500004EB00A9B0646002B40F386801A46014620468A
S31500004EC000F0ACFF069B0646012B7FDD4FF0000885
S31500004ED0336906EB8303186900F092FEC0F12000E7
S31500004EE0059B184410F01F0000F09180C0F12003CC
S31500004EF0042B40F38980C0F11C00049B0544034445
S31500004F000493059B03440593049B002B07DD18EED1
S31500004F10101A1A46204600F0DBFF08EE100A059B21
S31500004F20002B05DD31461A46204600F0D1FF064625
S31500004F300B9B002B6DD0314618EE100A01F038F8A5
S31500004F40002866DA009B18EE101A0A222046013B5A
S31500004F500093002300F0C2FD089B08EE100A002B08
S31500004F6000F0AF81002339460A22204600F0B6FD44
S31500004F70029B0746002B00F38D80069B022B50DC1C
S31500004F8088E0109BC3F136034CE7039B5E1E079B2C
S31500004F90B342B7BF079B9E1B0796F21ABFBF0A9B79
S31500004FA000269B180A93039B002BB7BFDDE903235A
S31500004FB0DDE903359D1A002336E7079E049D089F09
S31500004FC03DE7079A69E7069B012B18DCBAF1000F4B
S31500004FD015D1CBF3130393B92BF000431B0D1B051F
S31500004FE083B1049B4FF0010801330493059B013301
S31500004FF005930A9B002B7FF46BAF012070E74FF0FF
S315000050000008F6E79846F4E73FF47EAF18461C30F2
S3150000501073E7039B002B37DC069B022B34DD039BD7
S315000050200293029B6BB931460522204600F056FDDD
S315000050300146064618EE100A00F0BAFF00283FF7B0
S31500005040BDAD099B019DDB4300934FF0000831463F
S31500005050204600F021FD002F3FF4A6AEB8F1000F68
S3150000506005D0B84503D04146204600F015FD394627
S31500005070204600F011FD97E600263746E1E7009747
S3150000508037469BE500002440089B002B00F0CA80B1
S31500005090039B0293002D05DD39462A46204600F083
S315000050A017FF0746B8F1000F5BD07968204600F07D
S315000050B0B3FC054628B9874B024640F2EA21FFF7C2
S315000050C03DBB3A6907F10C010C3002329200FDF744
S315000050D01DFD01222946204600F0FAFE019BB84636
S315000050E0074603F10109DDE90123134405930AF09C
S315000050F001030493314618EE100AFFF771FA414690
S31500005100029000F1300A18EE100A09F1FF3B00F098
S315000051104FFF3A4603903146204600F065FFC268CD
S31500005120054602BB014618EE100A00F041FF024692
S3150000513029462046079200F0AFFC4D46DDE90632CF
S3150000514043EA0201049B0B430FD1BAF1390F2AD06F
S31500005150039B002B02DD029B03F1310A8BF800A0B2
S3150000516075E73846BAE70122E2E7039B002B04DB2A
S3150000517006990B4304990B4322D1002AEEDD18EE63
S31500005180101A0122204600F0A3FE314608EE100A4E
S3150000519000F00EFF002803DCE0D11AF0010FDDD08D
S315000051A0BAF1390FD7D139238BF800302B461D467B
S315000051B0013B15F8012C392A70D001321A7046E7E6
S315000051C0002A07DDBAF1390FEDD00AF101038BF899
S315000051D000303CE7059B09F801AC994546D018EE2E
S315000051E0101A00230A22204600F078FCB84508EE83
S315000051F0100A4FF000034FF00A024146204606D13E
S3150000520000F06CFC8046074609F1010972E700F0E0
S3150000521065FC3946804600230A22204600F05EFCE3
S315000052200746F1E7039B0293019D314618EE100AEB
S31500005230FFF7D6F9019B00F1300A05F801ABEA1A2F
S31500005240029B934209DD18EE101A00230A2220461B
S3150000525000F044FC08EE100AE7E7029B4FF0000856
S31500005260002BCCBF1D460125019B1D4418EE101ACC
S315000052700122204600F02CFE314608EE100A00F00E
S3150000528097FE002892DC02D11AF0010F8ED12B4630
S315000052901D4613F8012D302AFAD0D8E6019A9A4213
S315000052A085D1009B0133009331231370CFE60A4B5F
S315000052B0FFF798BA219B002B7FF471AA074BFFF7E3
S315000052C091BA029B002BAFDC069B022B3FF7A9AEDF
S315000052D0AAE700BFFB740000DC72000059740000EE
S315000052E003694A11B3EB611F2DE9F04300F1140481
S315000052F045DD11F01F0104EB830604EB82050CD19A
S3150000530000F110072946B14234D39B1AEA1E9B00CE
S31500005310964238BF0023234415E054F82270C1F1A9
S31500005320200805F1040EA146CF407645F44615D86F
S315000053309A1A01359200043AAE4238BF0022A318E9
S31500005340A75007B104331A1BA3424FEAA20208BFB3
S315000053500023026108BF4361BDE8F083DCF800C0AA
S315000053600CFA08FC4CEA070749F8047B5EF8047B54
S31500005370CF40DAE751F804CB47F804CFC3E723461A
S31500005380E1E7A0F13003092B02D82038C0B27047FC
S31500005390A0F16103052B01D84738F7E7A0F14103D7
S315000053A0052B01D82738F1E7002070472DE9F04F8B
S315000053B02DED028B89B008EE100A8B4690460493B9
S315000053C0B24B1B6818460193FEF75AFA019BDBF8AD
S315000053D000208246034413F8013C0593931CC2F156
S315000053E0FF2202F57F02FE32D1181F4613F8010B89
S315000053F000913028F8D0FFF7C4FF0446002839D1C1
S3150000540052460199384601F037FA0546002867D119
S3150000541017F80A0007EB0A06FFF7B3FF002861D06A
S31500005420334618781F4601333028FAD0FFF7A9FF14
S31500005430B0FA80F401233546640900933A461646CD
S3150000544001323078FFF79DFF0028F8D152460199C6
S31500005450304601F011FA80B94DB906EB0A052A4625
S31500005460164601323078FFF78CFF0028F8D1AD1BC5
S31500005470AD0004E000242546E0E7002DF7D133789F
S3150000548003F0DF03502B3BD173782B2B2CD02D2B25
S315000054902ED0711C4FF000090878FFF772FF431EEB
S315000054A0DBB2182B2CD8A0F1100211F8010FFFF770
S315000054B068FF431EDBB2182B1DD9B9F1000F00D0CF
S315000054C052421544CBF80010E4B1009B002B14BFE8
S315000054D000270627384609B0BDEC028BBDE8F08FE1
S315000054E03E4625460124CAE74FF00009B11CD3E722
S315000054F04FF00109FAE70A2303FB0202103AD4E748
S315000055003146DFE7F31B2146013B072B0BDC18EE88
