S00B0000494D552E737265632E
S3150000000080380020F93F0000253E0000F53F000043
S31500000010F53F0000F53F0000F53F0000F53F00000A
S31500000020000000000000000000000000F53F000096
S31500000030F53F000000000000F53F0000F53F00001E
S31500000040DD2C00004D2C00006D2D0000B52D0000AC
S315000000502D3B0000792300001D240000012500002F
S31500000060E525000019380000793B0000193800002A
S31500000070ED3300007D33000065340000A534000038
S315000000801938000000000000000000000000000019
S31500000090000000000000000000000000000000005A
S315000000A0000000000000000000000000000000004A
S315000000B0000000000000000000000000000000003A
S315000000C0000000000000000000000000000000002A
S315000000D0000000000000000000000000000000001A
S315000000E0000000000000000000000000000000000A
S315000000F000000000000000000000000000000000FA
S3150000010000000000000000000000000000000000E9
S3150000011000000000000000000000000000000000D9
S3150000012000000000000000000000000000000000C9
S3150000013000000000000000000000000000000000B9
S3150000014000000000000000000000000000000000A9
S315000001500000000000000000000000000000000099
S315000001600000000000000000000000000000000089
S315000001700000000000000000000000000000000079
S315000001800000000000000000000000000000000069
S315000001900000000000000000000000000000000059
S315000001A00000000000000000000000000000000049
S315000001B00000000000000000000000000000000039
S315000001C0FFFFFFFFFFFFFFFFFFFFFFFFFFFFFFFF39
S315000001D0FFFFFFFFFFFFFFFFFFFFFFFFFFFFFFFF29
S315000001E0FFFFFFFFFFFFFFFFFFFFFFFFFFFFFFFF19
S315000001F0FFFFFFFFFFFFFFFFFFFFFFFFFFFFFFFF09
S3150000020010B5054C237833B9044B13B1044800E00C
S3150000021000BF0123237010BD000400200000000071
S3150000022028A8000008B5034B1BB10349034800E0AA
S3150000023000BF08BD000000000404002028A800003C
S3150000024070B5104D2B780BB1002070BD0E4903F030
S31500000250FF040E4B0C804FF4807221460C481C8024
S3150000026004F0E1FA0B4B0C489A680C490460566896
S31500000270186801220C70B0470028E6D101232B70C4
S3150000028070BD00BF28050020240400202A05002098
S3150000029028040020C0A00000200400201C04002028
S315000002A0F0B5064600283FD001293DD92A4A2B4CF5
S315000002B0138820889BB280B298420CD0284F06E063
S315000002C00D2808D02088EBB280B2984203D0F85CA3
S315000002D05D1C0A28F4D1208880B2984224D04FF0C1
S315000002E0010E1F4D701E0EF1FF3711E0B2F800C06F
S315000002F013881FFA8CFC15F80CC00133DBB2BCF175
S315000003000A0F13800CD0BCF10D0F14D071450DD817
S31500000310B2F800C023881FFA8CFC9BB29C45E5D13D
S315000003200023F3550120F0BD0020F0BD00F801CFF9
S315000003300EF1010ED7E71188238889B29BB2994244
S31500000340EED013889BB2EB5C0A2BE9D113880133FC
S31500000350DBB21380E4E700BF2A0500202404002056
S3150000036028040020034A1368002BFCD000231360E6
S31500000370704700BF2C0500200379012B06D0022B05
S3150000038003D10122124B1A607047704710B4114B0B
S315000003901148124C1978038822880133DBB292B2D5
S315000003A09342C9B203D122880132D2B22280028896
S315000003B00B4C92B2A15401220A4903800A4C8B6865
S315000003C0086822605B6803495DF8044B184700BF64
S315000003D02C0500201C040020240400202A050020EF
S315000003E028040020C0A000002004002010B50A4BFD
S315000003F082B0996801908C680122186801A9A0470B
S3150000040000B100BE054A1368002BFCD000230198FA
S31500000410136002B010BD00BFC0A000002C05002074
S3150000042070B5161E07DD0C468D1914F9010BFFF782
S31500000430DDFFA542F9D1304670BD00BFF0B50E46CE
S315000004404FF0000C072787B08DF80F60044606684A
S3150000045080688DF817C080F800C03068B6680097CD
S3150000046015460123F6680DF117020DF10F01B0478D
S3150000047070B9A46823783BB9084B00E053B12178E2
S31500000480013B0029FAD02BB115B19DF817302B701E
S3150000049007B0F0BD142007B0F0BD00BFA086010074
S315000004A070B504460D461646A18800220B4803F097
S315000004B031F8294600222046FFF7C0FF054630B135
S315000004C00122A188054803F025F8284670BD02469A
S315000004D031462046FFF7B2FF0546F1E7EC0500205E
S315000004E070B503680546D3E9011282B01268186830
S315000004F0904728B10E28044602D0204602B070BDAF
S31500000500002276212846FFF7CBFF04460028F4D1C7
S31500000510012211212846FFF7C3FF04460028ECD12B
S315000005204FF47A710A2003F049FC2246A988324822
S315000005308DF8074002F0EEFF2246F5212846FFF728
S315000005407DFF044628B10122A9882B4802F0E2FF6C
S31500000550D3E7FF210DF107022846FFF76FFF044698
S315000005600122A988244802F0D5FF002CC5D19DF8A8
S315000005700730472B3DD1032214212846FFF790FF71
S3150000058004460028B9D1024664212846FFF788FFB1
S3150000059004460028B1D1082265212846FFF780FFCE
S315000005A004460028A9D1482250212846FFF778FFA3
S315000005B004460028A1D128224F212846FFF770FFC4
S315000005C00446002899D1DFF840E00C4C0C4B0D4E48
S315000005D028462F224E211C60C6F800E0FFF760FF78
S315000005E00446002889D14FF47A710A2003F0E6FB0D
S315000005F083E7222481E700BFEC0500200000FA3CD7
S3150000060034050020300500200000FA3DF0B5002436
S31500000610054685B00E461746A98822462548CDE9E7
S315000006200244019402F076FF22469F212846FFF7F6
S3150000063005FF60B901AC02E004AB9C4218D022462B
S31500000640FF212846FFF7FAFE01340028F4D00122E4
S31500000650A988184802F05EFF1EB10023338073801C
S31500000660B3801FB100233B807B80BB8005B0F0BD0B
S315000006700122A9880F4802F04DFF5EB1BDF80410B3
S31500000680BDF80620BDF8083049BA52BA5BBA3180C7
S315000006907280B380002FE9D0BDF80A10BDF80C2097
S315000006A0BDF80E3049BA52BA5BBA39807A80BB803F
S315000006B005B0F0BDEC05002020B10379012B04BF85
S315000006C0014A1370704700BF3805002020B1037936
S315000006D0012B04BF014A1370704700BF3905002083
S315000006E00148FFF7FDBE00BF509E00000148FFF71E
S315000006F0F7BE00BF449E000030B50023054685B016
S315000007000C463048694602AA00930293ADF80430BD
S31500000710ADF80C30FFF77AFF45B32B4BBDF900203F
S31500000720D3ED005A06EE902ABDF90430BDF9022039
S3150000073007EE903A07EE102AF8EEE66AB8EEC77AA8
S31500000740F8EEE77A9FED216A27EE257A66EEA56A2E
S3150000075067EEA57AC6EE865AC7EE066A87EE867AF1
S31500000760C5ED005AC5ED016A85ED027A44B3BDF9BF
S315000007700820174B06EE902ABDF90A20D3ED005A41
S3150000078007EE102ABDF90C20F8EEE66A07EE902A6D
S31500000790B8EEC77AF8EEE77A9FED0E6A66EEA56ABE
S315000007A027EE257A67EEA57A66EE866A27EE067A42
S315000007B067EE867AC4ED006A84ED017AC4ED027AAA
S315000007C005B030BD509E00003005002000007A4480
S315000007D03405002035FA8E3C30B50023054685B039
S315000007E00C463048694602AA00930293ADF80430DD
S315000007F0ADF80C30FFF70AFF45B32B4BBDF90020CF
S31500000800D3ED005A06EE902ABDF90430BDF9022058
S3150000081007EE903A07EE102AF8EEE66AB8EEC77AC7
S31500000820F8EEE77A9FED216A27EE257A66EEA56A4D
S3150000083067EEA57AC6EE865AC7EE066A87EE867A10
S31500000840C5ED005AC5ED016A85ED027A44B3BDF9DE
S315000008500820174B06EE902ABDF90A20D3ED005A60
S3150000086007EE102ABDF90C20F8EEE66A07EE902A8C
S31500000870B8EEC77AF8EEE77A9FED0E6A66EEA56ADD
S3150000088027EE257A67EEA57A66EE866A27EE067A61
S3150000089067EE867AC4ED006A84ED017AC4ED027AC9
S315000008A005B030BD449E00003005002000007A44AB
S315000008B03405002035FA8E3C0A4B0B4A10B50B4C1A
S315000008C0526818682168101A40181A606168084A48
S315000008D041F1000100231268C4E9000103F000FEA3
S315000008E010BD00BFAC050020001000E0A0050020F0
S315000008F080010020094C0A4A08B50A4B20601160A5
S315000009001B782BB94FF47A71642003F057FAF9E794
S315000009100A460146044804F00DFEF3E7A805002048
S31500000920B0050020B40500205C9E0000D0ED007AE2
S3150000093090ED010AD0ED026A67EEA77A20EE000A72
S3150000094090ED037A66EEA66A37EE800A27EE077AFE
S3150000095030EE260A30EE070AB5EE400AF1EE10FA3E
S3150000096000B583B02CD4F1EEC07AF5EEC07AF1EE84
S3150000097010FA4FF000031AD990ED006AD0ED016A23
S3150000098090ED027A90ED035AC6EE275A86EEA76AD4
S31500000990C7EE276A85EE277AC0ED005A80ED016A18
S315000009A0C0ED026A80ED037A03B05DF804FB4FF0F8
S315000009B07E5243608360C360026003B05DF804FB4F
S315000009C0019008F02BFF0198F0EE407ACDE700BFCA
S315000009D091ED005A91ED017A00B525EE055A2DEDFF
S315000009E0068B27EE077AB0EE40AA91ED020A35EEA5
S315000009F0077A20EE000A37EE007AB5EE407AF1EE7D
S31500000A0010FA92ED008AD2ED018A92ED029A83B035
S31500000A1000F1E380B1EEC70A9FED747AB4EEC70A1F
S31500000A20F1EE10FA52DA90ED014A90ED035AD0ED4C
S31500000A30003AD0ED024A29EE043A29EE237A64EE12
S31500000A40485A68EEA41A28EE236A29EE242A68EE8C
S31500000A50A36A68EE842A76EEC36A77EE227A28EED7
S31500000A60053A29EE059A68EE858A75EEE15A36EE64
S31500000A70026A28EE248AB6EE000A36EE686A2AEE84
S31500000A80000A36EE837A75EEC95A77EEC87A66EEB4
S31500000A90006A65EE805A27EE007A67EE807A35EEB8
S31500000AA0A36A76EE846A37EE247A77EE857A80ED4D
S31500000AB0006AC0ED016A80ED027AC0ED037A03B0E8
S31500000AC0BDEC068B5DF804EBFFF730BF9FED487A6F
S31500000AD0B4EEC70AF1EE10FA90ED014A76D8D0EDE1
S31500000AE0003A90ED035AD0ED024A24EE047A23EE42
S31500000AF0A31AD1ED005A91ED016AD1ED029A31EEB9
S31500000B00471A64EE052A23EEA47AC5EE806A72EED1
S31500000B10C72AC6EE005A24EE237A89EE806A25EEAD
S31500000B20240A37EE007A24EEA40A31EE401A25EEA6
S31500000B30050A72EEA22A31EE001A37EE077A26EE81
S31500000B40070A26EE226A26EE877A65EEA22A66EE66
S31500000B50816A65EE815A9FED273A76EE666A37EE30
S31500000B60627A75EEC05A67EE032A25EE836A26EE90
S31500000B70833AF0EE040AD0ED071A90ED082AD0ED7C
S31500000B80097A62EE8A2A26EE0A6A23EE0A3A72EE9B
S31500000B90A72A76EE211A33EE023A27EE207A65EE80
S31500000BA0A05A66EEA06A37EE227A75EEA15A76EE64
S31500000BB0836AC0ED092A39EE079AC0ED071A80ED5F
S31500000BC0083A38EE258A78EEA68A34E790ED035A7D
S31500000BD0D0ED003AD0ED024A2DE7B0EE470ACDE956
S31500000BE0000108F01BFEDDE9000115E73333333F52
S31500000BF06666A63F0AD7A33D0346D1ED004AD3ED6C
S31500000C00007A93ED013AD1ED015A91ED025A91ED38
S31500000C10034A10B5D3ED032A2DED028BD3ED023A2C
S31500000C2024EE830A63EE040A23EE258A27EEA46ADD
S31500000C3023EE053A67EEA56A27EE857A67EE847A93
S31500000C4023EE851A64EEA31A22EE842A77EE837ABF
S31500000C5023EE844A76EE806A65EEA33A37EE607A32
S31500000C6036EE486A25EE225A65EEA25A64EEA24A8C
S31500000C7077EEE37A36EE416A76EE846A37EE217ACB
S31500000C8077EEA47A36EE426A76EEC56A37EE257AB4
S31500000C908CB004AC2046CDED077A8DED046ACDED1F
S31500000CA0056A8DED067AFFF741FE94E80F000CAC5D
S31500000CB004E90F00DDED090A9DED0A1ADDED0B1AB8
S31500000CC09DED080A0CB0BDEC028B10BD70B52DED84
S31500000CD00C8B90ED02BAD0ED039A90ED019A90ED4F
S31500000CE000CA2BEE298A69EE0C7A38EE678ABFEEC7
S31500000CF0000A38EE088AB4EEC08AF1EE10FA0E4603
S31500000D0015461C466BEE0B8A69EEA9BA29EE29AA8E
S31500000D106BEE0CCA5AD4F7EE007AB4EEE78AF1EE1F
S31500000D2010FA01DCB1EE480A08F04AFDB0EEC88AB6
S31500000D30DFED287AB4EEE78AF1EE10FAF0EE40AA7B
S31500000D402FD529EE098A78EE288AB7EE00DA78EEF2
S31500000D50A88A3AEE2C0A7DEE680A30EE000A08F000
S31500000D605BFD78EE2B8A29EE0B9A69EE8C9AB0EE33
S31500000D70408A78EEA88A39EE290A7DEE680A30EEB6
S31500000D80000A08F049FDF0EE407A0EB1C6ED00AA61
S31500000D900DB185ED008A0CB1C4ED007ABDEC0C8B6B
S31500000DA070BD78EEAB8A3AEE6CAAF7EE000A78EEE2
S31500000DB0A88A3AEE0AAA70EEE80AB1EE4A0A08F0E4
S31500000DC02BFDDFED057AB0EE408ADEE7B7EE000ACE
S31500000DD0AAE700BFFEFF7F3F00000000274B30B4AC
S31500000DE093F8601059B193F86120254D9C6D05FB71
S31500000DF002F2041B944226D3002283F8602093F863
S31500000E005F209ABB93F862301D4C03FB044303F545
S31500000E10F42101F59071B0FBF1FC01FB1C0083424B
S31500000E200BD9184A8309A2FB03239B0904FB130071
S31500000E30154A90428CBF0022012230BC4FF48061DB
S31500000E40124802F067BB0F4AA309A2FB03239B09C2
S31500000E5005FB13440C4A4FF48061944288BF00227C
S31500000E6030BC98BF0122094802F054BB012230BCB5
S31500000E704FF48061054802F04DBB00BF3C050020E1
S31500000E80400D0300632D3E059F860100EC05002002
S31500000E90837AFBB14378022B1CD8027801EB8301DD
S31500000EA0D2B191ED037ADFED107A27EE277AB0F909
S31500000EB00830D0ED016A07EE903A27EE267AF8EE72
S31500000EC0E77A77EE877AF8FE677AFDEEE77A17EE2D
S31500000ED0900A70470020704791ED007ADFED027AA4
S31500000EE027EE277AE3E700BFE12E65429FED2B7AD6
S31500000EF070B54FF0000C0546F0EE476A4FF0FF3034
S31500000F008E46BDF9106022FA0CF4E4070ED4DEED2D
S31500000F10007AF0EEE77AF4EEE67AF1EE10FA32DCD9
S31500000F20F4EE477AF1EE10FA37FE877A0CF1010CEF
S31500000F30BCF1030F0EF1040EE5D1421C2BD0F3EEEB
S31500000F40047AF4EEE76AF1EE10FA22D4B5EEC07A2E
S31500000F50F1EE10FA08DDF7EE087A27EE277AB4EEFE
S31500000F60E67AF1EE10FA16DC2B70687001EB800160
S31500000F7091ED007A0123C0EE077A0020C5ED017AD3
S31500000F802E81AB7270BDB0EE667A6046F0EE676A8F
S31500000F90CCE7012070BD022070BD00BF000000003C
S31500000FA010B5044604F042FB38B1064B0246986879
S31500000FB0214684681868A04700B110BDBDE81040FE
S31500000FC0FFF7D0B9C0A000000FB4002130B59BB028
S31500000FD01EAC54F8045B5C2203A8029103F023FCC8
S31500000FE023462A46602102A8019405F0FDF901383E
S31500000FF05E2805D8054B1B7813B102A8FFF7D0FF72
S315000010001BB0BDE8304004B0704700BFB4050020F7
S3150000101038B50F4C054660220021201D03F003FC65
S3150000102000214FF07E5240F201100A4B22601960F7
S31500001030A5F57433903B2261A4F860002365A5658D
S315000010400121BDE83840044A0448FFF7BDBF00BF90
S315000010503C050020B8050020809E0000889E000008
S315000010602DE9F04F2DED068BDFED528A4FF4C87750
S315000010704FF000089FED509ADFED50AAF0EE689A07
S3150000108005468A46B0EE68AAB0EE688ADFF838915F
S315000010904B4EDFF838B187B04A4BD9F800005C6890
S315000010A0D6E90031201AC01841F100010023DBF80F
S315000010B000208DED008A8DED018A8DED028A8DED81
S315000010C0038A8DED048A8DED058AC6E90001C9F80B
S315000010D0004003F005FAFFF781FE95F82C3063B95E
S315000010E0142401E0013C08D04FF47A71012002F08B
S315000010F065FE95F82C30002BF4D00023684603A932
S3150000110085F82C30D0479DED010ADDED007A60EEC2
S31500001110006A67EEA77A9DED020A20EE007A37EEA6
S31500001120A60A30EE070AB5EE400AF1EE10FA3BD4F5
S31500001130F1EEC07AF4EEC97AF1EE10FA12D4F4EEBA
S31500001140EA7AF1EE10FA0DDCDDED036A9DED047A24
S31500001150DDED057A3AEE26AA79EE879A78EEA78A29
S3150000116008F10108013F17D0B8F1C80F94D107EE76
S31500001170908AF8EEE77A8AEE276AC9EEA76A88EEC1
S31500001180A77A85ED046AC5ED056A85ED067A07B08E
S31500001190BDEC068BBDE8F08FB8F1000FE7D1002358
S315000011A02B616B61AB61F2E708F038FBF0EE407A39
S315000011B0C0E700BF000000009A99593F3333933FC0
S315000011C0A0050020001000E0AC05002080010020F2
S315000011D070B52E4E94B0054631462D48FFF70CFDEE
S315000011E006F110012B488DED000ACDED010A8DEDBB
S315000011F0021ACDED031AFFF7FFFCDDED016A9DED46
S31500001200027ADDED037AF1EE666AB1EE477AF1EE27
S31500001210677A009B0CAC20468DED040ACDED050ADD
S315000012208DED061ACDED071ACDED0D6A8DED0E7A10
S31500001230CDED0F7A0C93FFF779FB94E80F000DF1D3
S31500001240200E0DF1400C8CE80F008EE80F00704662
S3150000125004A9FFF7D1FC2946684605F108032A1DB3
S315000012608DED0C0ACDED0D0A8DED0E1ACDED0F1A92
S31500001270FFF72CFD204605F1140305F1100205F1D8
S315000012800C01FFF723FD012014B070BD3C050020C2
S31500001290B4010020840100202DE9F043B14C07463B
S315000012A094F85F3094F862509BB013B1062D00F0AD
S315000012B04C8100220023AC49CDE91533886ACDE97B
S315000012C017331493029203920492059206920792A0
S315000012D0199370B3DFF8E492D9F82830002B00F0A8
S315000012E02481002D37D014A8FFF772FF002800F0E4
S315000012F02381DFED9E6A14AB02A905AA17A8B3ECF9
S31500001300017AD3ED027A27EE267A67EEA67A98421C
S31500001310A1EC017AE2EC017AF1D194F862506B1EED
S31500001320032B00F21C81DFE813F0BC00AA00D600F4
S3150000133098008F4940F20143A765A4F86030062D56
S3150000134096BF8C4B8C4A53F825208C481BB0BDE8C1
S31500001350F043FFF739BED1ED016A91ED027AD1ED86
S31500001360037AF1EE666AB1EE477AF1EE677A0B68B8
S315000013700CAE3046CDED0D6A8DED0E7ACDED0F7AC1
S315000013800C93FFF7D3FAD9ED016A99ED027AD9EDFC
S31500001390037AF1EE666AB1EE477AF1EE677AD9F82A
S315000013A000300DF1400C0DF12008089396E80F006F
S315000013B08CE80F0084E80F004046CDED096A8DEDFC
S315000013C00A7ACDED0B7AFFF7B1FA6D4BDFF8F0C173
S315000013D01D6098E80F0086E80F008CE80F0084F87F
S315000013E02A5084F8365084F8425084F84E5084F8D7
S315000013F05F5094F8625040F20123062DA76505F16F
S315000014000106A4F860307BD85A4B314653F82520A4
S315000014105C48FFF7D9FD042D77D194F82A30002BCC
S3150000142063D094F83630002B5FD094F84230002B0E
S315000014305BD094F84E30002B57D0012106220025B0
S31500001440514B4F481B78056084F85F1084F8622082
S31500001450002B7ED11BB0BDE8F08394F8422022B168
S31500001460012294F839309A40D2B25A259FED470AA4
S31500001470012305A900954648FFF738FD1BE094F8BF
S315000014802A2022B1012294F821309A40D2B25A255C
S315000014909FED400A002302A900953F48FFF726FD6D
S315000014A009E05A22002300929FED380A1A463B486B
S315000014B002A9FFF71BFD94F8625000289BD040F26A
S315000014C001430328A4F8603096BF354B354953F8DD
S315000014D02010A76533E700229FED2C0A012305A9FA
S315000014E000923148FFF702FDE5E700232F4A304915
S315000014F0224884F85F301BB0BDE8F043FFF764BDB7
S3150000150031461D4A1F48FFF75FFDF3B2062B96BF13
S31500001510184A194A52F823202648591C84F8623082
S315000015201BB0BDE8F043FFF74FBD40F20143104941
S31500001530A765A4F8603002E740F2014394F86250D0
S315000015400B49A765A4F86030F9E60F4B1B78002B12
S3150000155080D019481BB0BDE8F043FFF721BD144900
S31500001560E8E600BF3C050020B4010020E12E6542FC
S315000015709C9E0000949F0000A89E0000C49E000050
S31500001580B8050020D49E0000B40500200000B44237
S31500001590800500200000B4C2680500205C0500201C
S315000015A0B09F0000A49E000074050020E49E000089
S315000015B0B09E0000889E0000B89E000084010020B6
S315000015C04C05002010B14368082B00D0704701225B
S315000015D0014B83F82C207047B401002010B14368FA
S315000015E0092B00D070470122014B83F82C2070474D
S315000015F08401002010B14368062B00D070470122F9
S31500001600014B83F85C2070473C0500202DE9F04F24
S315000016102DED028B694BA5B0D3E90112186812684B
S31500001620904708B10E2835D10124654B1C70FEF792
S3150000163007FE18B101460A20FFF75CF9614A624DC0
S31500001640D2F8FC3043F08073C2F8FC305F4B586030
S315000016501A6842F001021A605D4B002218600023EE
S31500001660C5E900235B4B1A6A5B4BC2F302621B6837
S315000016709340D340594A934210D90132B3FBF2F357
S31500001680574906910B60FFF72BF858B10146022027
S31500001690FFF730F901460120FFF72CF9504B06936E
S315000016A01C60F0E7FFF722F818B101460320FFF7A8
S315000016B021F94C4BD3E90041204602F003F808B16A
S315000016C00E2814D1204602F03FF860B9464BD3E904
S315000016D00041204601F0F6FF014660B10E280AD00F
S315000016E00620FFF707F901460520FFF703F9014633
S315000016F00420FFF7FFF8204602F026F8044618B14A
S3150000170001460720FFF7F6F800234FF07E52DFF878
S31500001710ECA0DFF8ECB0CAF81030CAF81430CAF8FA
S315000017201830CBF81030CBF81430CBF81830CAF894
S315000017300020CBF80020CAF80430CAF80830CAF8EE
S315000017400C30CAF81C30CAF82030CAF82430CBF85E
S315000017500430CBF80830CBF80C30CBF81C30CBF883
S315000017602030CBF824308AF82C00CAF828008BF8F1
S315000017702C00CBF82800FFF79FF8FFF749FCFFF78E
S315000017809BF8FFF72BFB50461849FFF769FC5846B4
S315000017901749FFF765FC174B8AF82C401C60164B5F
S315000017A08BF82C40D3E90041204601F08BFF01461F
S315000017B050B30E2828D00820FFF79CF8C0A00000E0
S315000017C0B405002000ED00E0A0050020001000E0B8
S315000017D0AC05002000E001406C0800203F420F00ED
S315000017E080010020E09F000000A00000F906000034
S315000017F0D9070000B8050020C09F0000B4010020F2
S315000018008401002000000000204601F09DFF0590A5
S31500001810002840F084821FED058A7D4E059B86F8E0
S315000018205C309AF82C308DED088A8DED098A8DEDA5
S315000018300A8A8DED0B8A8DED0C8A8DED0D8A8DED64
S315000018400E8A8DED0F8A8DED108A8DED118A8DED44
S31500001850128A8DED138A03F0FF08002B00F09181A8
S31500001860059B0BA908A88AF82C306A4CFEF744FFA2
S31500001870694A606813681060C01A2B686968069A1E
S31500001880C01841F10001002312682860696002F067
S3150000189027FE9BF82C30074603F0FF09002B00F0CB
S315000018A02382059B11A90EA88BF82C30FEF794FF16
S315000018B0594963680A6828680B609B1A6968069A22
S315000018C0181841F10001002312682860696002F0CF
S315000018D007FE0446DDED0B6A9DED0C7ADDED0D7A13
S315000018E09AED045ADAED055A9AED066A76EEC56A5D
S315000018F037EE657A77EEC67ADAF82830CDED0B6AE0
S315000019008DED0C7ACDED0D7A002B00F0E481FB1AFB
S3150000191007EE903ADFED416AF8EE677A9FED407A7E
S3150000192087EEA60AB4EEC70AF1EE10FA00F1F181CD
S315000019309FED3C7AB4EE470ADFED3B7AF1EE10FA02
S3150000194037FE800A39480BAA08A9CAF82870FFF79B
S315000019503FF8B9F1000F40F03781CDF81C903C46B6
S31500001960C14696F85C3043B1059B314A86F85C3037
S31500001970336DE31A934200F26D8196F85D30002BC9
S3150000198040F07E81059B3C22002115A8149302F0AD
S315000019904AFF284FDFF8B080402114A8FEF780FCEC
S315000019A000285CD09DF95030002BF5D014AADBB28C
S315000019B0A3F1610119299CBF203B137012F9013F65
S315000019C0002BF4D1394614A803F026FE00283DD09A
S315000019D0414614A803F020FE002800F0C9801649ED
S315000019E014A803F019FE88B3144914A803F014FED2
S315000019F00028D1D196F85F30002B00F07781104B8C
S31500001A001B78002BC8D00F48FFF7CAFAC4E700BFFF
S31500001A103C050020001000E0AC05002000247449BD
S31500001A206F12833A8FC2F53C0AD7233CB4010020DB
S31500001A308FD00300E89E0000009F00000C9F00006E
S31500001A40B4050020189F0000F49E00002046FFF712
S31500001A50DFFA402114A8FEF723FC0028A2D1204675
S31500001A60FFF7BCF9B9F1000F03D1079B002B00F07B
S31500001A70838096F85F30002B7ED0AB4B1B6823B17A
S31500001A8044F61F62E31A934276D9059BCDE91433D7
S31500001A90CDE91633CDE9183396F82A30002B3FF4FA
S31500001AA0C0AE96F83630002B3FF4BBAE96F8423007
S31500001AB0002B3FF4B6AE96F84E30002B3FF4B1AE95
S31500001AC0DAF82830002B3FF4ACAEDBF82830002BD8
S31500001AD03FF4A7AE14A8FFF77BFB00283FF4A1AEA6
S31500001AE014A99248FFF7D4F914A980469048FFF745
S31500001AF0CFF914A981468F48FFF7CAF914A90746FA
S31500001B008D48FFF7C5F94A46B42AA8BFB422B8F1F2
S31500001B10B40FA8BF4FF0B408B42FA8BFB427B42899
S31500001B20A8BFB420BC460746059B22EAE2722CEA0F
S31500001B30EC7C27EAE777CDE91433CDE91633CDE916
S31500001B401833CDE91A330393009228EAE87320216B
S31500001B507A4A14A8CDF804C0029703F009FD784B21
S31500001B601B7813B114A8FFF71BFA6F4B1C6058E6DD
S31500001B702046FFF791FB0FE70121C82002F01EF96E
S31500001B804FE69BF82C3003F0FF020792002B00F083
S31500001B90BA8011A90EA88BF82C80FEF71DFE6949A4
S31500001BA0694B0A685B6828680B609B1A6968069A25
S31500001BB0181841F10001434612682860696002F076
S31500001BC08FFCC14604464746DDED116A9DED127A4B
S31500001BD0DDED137A9BED045ADBED055A9BED066AA3
S31500001BE076EEC56A37EE657A77EEC67ADBF8283088
S31500001BF0CDED116A8DED127ACDED137A002B70D0F2
S31500001C00E31A07EE903ADFED516AF8EE677A9FED38
S31500001C10507A87EEA60AB4EEC70AF1EE10FA7BD424
S31500001C209FED4C7AB4EE470ADFED4B7AF1EE10FAEF
S31500001C3037FE800A494811AA0EA9CBF82840FEF7BC
S31500001C40C7FEB9F1000F49D0BC4238BF3C46CDF8BB
S31500001C501C9086E601270021414814AA8DF8507091
S31500001C6001F046FC00287FF488AE9DF85030002B2A
S31500001C707FF483AEC6E9144486F85D7086F85E305C
S31500001C8001270021364814AA8DF8507001F030FC67
S31500001C90A8B99DF8503093B996F85E30002B7FF4C2
S31500001CA071AE726D2F49A21A8A427FF66BAE20463C
S31500001CB086F85E7086F85D30FFF7AAF962E6059B46
S31500001CC086F85D3096F85E30002B7FF45BAE2046DA
S31500001CD0FFF7E2FA56E69FED200A33E60123079363
S31500001CE03FE69FED1D0AA5E74C46F3E596F8623000
S31500001CF01D48062B96BF1D4A1D4A52F82320591C23
S31500001D00FFF762F948E6FEF7D7FDDDF81C900446BA
S31500001D1027E6B0EE470A15E6B0EE470A8AE701461F
S31500001D200920FEF7E7FD00BFB80500205C0500208E
S31500001D30680500207405002080050020449F0000EF
S31500001D40B4050020AC050020001000E00024744912
S31500001D506F12833A8FC2F53C0AD7233C84010020D8
S31500001D60EC0500207F841E00309F0000949F000039
S31500001D70A89E0000FFF74ABC022800D0704702491F
S31500001D80024801F095BC00BF00A10000EC05002050
S31500001D9008B5FFF7EFFF002008BD00BF844600200E
S31500001DA0CCE90A32CCF82410704700BF0022436801
S31500001DB010B502605A69044622B1936810681B6A1E
S31500001DC0984763681A6922B1936810681B6A984736
S31500001DD0636893F90220002A0EDB01212448530987
S31500001DE002F01F02203301FA02F240F82320BFF36B
S31500001DF04F8FBFF36F8F636893F90120002A0EDBC4
S31500001E0001211B48530902F01F02203301FA02F296
S31500001E1040F82320BFF34F8FBFF36F8F6368012213
S31500001E2093F903301248590903F01F03203102FACF
S31500001E3003F340F82130BFF34F8FBFF36F8F636812
S31500001E4093F90430590903F01F039A4001F1200366
S31500001E5040F82320BFF34F8FBFF36F8F0020A36896
S31500001E601A786FF386121A70DA78D87010BD00BF30
S31500001E7000E100E030B5836A85B004468C4601ADCA
S31500001E80ABB193E8070085E8070062681846117849
S31500001E9083F804C0E26A19609A60636A9847A36A85
S31500001EA01BB195E8070083E8070005B030BD2B4657
S31500001EB0EBE700BFF8B586681D4633789DF818C075
S31500001EC013F0400340F08280C0E903120F464168D8
S31500001ED080F820C00446C0E90533C5614869F0B101
S31500001EE0BCF10F0FA5615DD9022643681968CB784E
S31500001EF066F30513CB7002268B7866F383038B702B
S31500001F00ABB2CB818A60002A6ED0836800685B68BA
S31500001F109847002845D1616894F820C0A6680B69E7
S31500001F2003B3BCF10F0F656146D902205A681168E8
S31500001F30CA7860F30512CA700220CA78ADB260F39F
S31500001F408302CD81CA704F60002F54D032789D68CD
S31500001F506FF3451218686B683270984708BBA6681D
S31500001F6094F820C0F27A338ABCF10F0FD2B29BB23A
S31500001F702ED90CF1010C22F040024FEA9C0CACF178
S31500001F80050C42F02002002023F4706343EA0C2C77
S31500001F901FFA8CFCF272A6F810C0337843F0600387
S31500001FA03370F8BDBCF1070F1AD841680968CE78BE
S31500001FB063F30516CE709EE7BCF1070F12D85A6878
S31500001FC01168CA786FF30512CA70B5E70820F8BD24
S31500001FD0BCF1070F94BF42F0400202F09F02D2E725
S31500001FE0012682E70120A1E78B7862F383038B70D9
S31500001FF0044B8B6089E7D2B267F38302CA70024A48
S315000020004A60A3E7900600209406002010B5944687
S315000020108E461C4682B00021724663460094FFF746
S3150000202049FF02B010BD00BF10B594461C4682B0F1
S31500002030002263460094FFF73DFF02B010BD00BFCB
S3150000204010B49DF8044001945DF8044BFFF732BFCD
S315000020502DE9F04F044608780F6900F5800303F573
S315000020608D531B020D4685B003F10408002F00F0C6
S3150000207023814FF00062796838680B681A60C3F8EC
S315000020800880BB681B6898470646002840F0108108
S315000020906B6973B1D3E901124FF4002618680B6817
S315000020A012681E60C3F8048090470646002840F078
S315000020B04B81287800F5800303F58D531B0200261B
S315000020C0AA6965606262EA69A360E262A6626F7AE3
S315000020D0002F40F00881B82108264FF0100E6B7BC8
S315000020E095F80BC02A6A1B03AD7A43EA4C032B43CF
S315000020F01578002D40F0FE80012505FA00F08007D6
S3150000210040F02A8192F801C0D5784FEA4C1646EA8B
S315000021104C0621EACC11314390781679A84023F079
S3150000212070032D0101911EB1022E14BF2026302608
S3150000213092F805C0BCF1000F06D0BCF1010F14BF28
S315000021404EF0010E4EF0030E92F808C00CF0030C90
S3150000215045EA8C052B4395790295002F40F0C68001
S31500002160917A92F80980D77A43F460430391EFF3AA
S31500002170108A012585F310886168DFF8F89191F8D7
S3150000218000C0D9F804B0CCF1130C05FA0CFC2BEA0C
S315000021900C0CC9F804C0D9F804C08AF310884FF0B3
S315000021A0000C4FF010091FFA83FB9DF80410A3687A
S315000021B05FFA80FAD878606883F803C0197083F8EC
S315000021C001A09E70D2795FFA8EFE9A72039A83F806
S315000021D00C805A73029A9F7383F80FE0A3F810B02D
S315000021E083F8202083F8219090F90230634580F22D
S315000021F084805C4A90F90130002B26DB417903F19B
S3150000220060400901C9B200F5614080F800135649E3
S3150000221003F1C00042F8234051F820506FF31045F7
S3150000222041F8205051F82010BFF35F8F0120590963
S31500002230890003F01F0301F1604101F5614100FAD5
S3150000224003F3C1F880310B606068017A90F90430BD
S3150000225046480901444DC618C9B286F8001303F171
S31500002260C00142F8234055F821606FF3104645F847
S31500002270216055F82110BFF35F8F012103F01F0580
S315000022805B099B0003F1604303F56143A940C3F872
S31500002290801119600026636893F90310DB790844FE
S315000022A01B01DBB280F80033314B42F8214023603A
S315000022B0304605B0BDE8F08F4A69002A3FF4FFAE0C
S315000022C04FF4002051680B681860C3F804809368C7
S315000022D010681B689847064600283FF4EAAE304669
S315000022E005B0BDE8F08FB021B646F8E60027B8463F
S315000022F003973CE746F0B10104E7817903F16040BA
S315000023000901184AC9B200F5614080F80013164960
S3150000231003F1C00042F8234051F820606CF31046E8
S3150000232041F8206051F82010BFF35F8F03F01F01C2
S315000023305B099B0003F160438D4003F56143C3F8DD
S3150000234080511D60606855E7BB6838681B6A98470E
S31500002350304605B0BDE8F08F002F7FF4D3AE43F0D2
S315000023608003CFE6E00600200060004000E100E0C8
S31500002370495053520040084010B4EFF30383103B1A
S31500002380234A5BB203F1C00152F821006FF31040FB
S3150000239042F8210052F821201E4A52F82330D3E990
S315000023A006218A421DD0186948B393F820C0BCF1B3
S315000023B00F0F0BD99968496840F82210D969013284
S315000023C08A429A610DD05DF8044B7047BCF1070F45
S315000023D018D8996809798154D96901328A429A6173
S315000023E0F1D15B6893F90330012203F01F000A491B
S315000023F05B09824041F823205DF8044B70479868DA
S315000024004068DCE79C68B4F804C020F812C0D6E740
S3150000241000600040E006002000E100E010B5EFF3A8
S315000024200383103B33495BB203F1C00251F822002B
S315000024306FF3104041F8220051F822202E4A52F83C
S3150000244023305C68226A82B392F801C0D869BCF175
S31500002450010F5A6918D0904210D0D96841B393F849
S3150000246020000F280BD8072898BF895C98688ABF78
S3150000247031F812100171818001325A6110BD9868DD
S3150000248051F822104160F7E700F1FF3E724512D085
S3150000249021690029DFD094F90310184801F01F02C2
S315000024A00CFA02F2490940F821205A69D869D2E7A4
S315000024B098684160E0E794F9030000F1C00251F822
S315000024C022406FF3104441F8224051F82220BFF316
S315000024D05F8F4209920000F01F0002F160420CFA81
S315000024E000F002F56142C2F8800110605A69D869AD
S315000024F0B1E700BF00600040E006002000E100E018
S31500002500EFF30383103B344A5BB203F1C00152F888
S3150000251021006FF3104042F8210052F821202F4A83
S3150000252052F823008268D278920704D54268527A1C
S31500002530012A00D07047012230B45909284C03F013
S315000025401F03203102FA03F344F82130BFF34F8F03
S31500002550BFF36F8F436893F90230002B32DB5909C2
S3150000256003F01F0302FA03F3203144F82130BFF3CE
S315000025704F8FBFF36F8FD0E90114237891F90210C2
S315000025806FF386130029237018DB134B01F1C00487
S3150000259053F824506FF3104543F8245053F8243071
S315000025A0BFF35F8F4B099B0001F01F0103F16043EE
S315000025B08A4003F56143C3F880211A60012130BCCB
S315000025C0FFF758BC8268012130BC13786FF386137D
S315000025D01370FFF74FBC00BF00600040E00600200C
S315000025E000E100E070B5EFF30384354B103C64B2B4
S315000025F053F82460736893F90230002B48DB0120FE
S3150000260030495A0903F01F03203200FA03F341F858
S315000026102230BFF34F8FBFF36F8FD6E9013293F9A4
S3150000262002301178002B6FF38611117019DB264AE0
S3150000263003F1C00152F821506FF3104542F82150C2
S3150000264052F82120BFF35F8F03F01F025B099B0046
S3150000265003F16043904003F56143C3F880011860BD
S31500002660B2680021D378D1701A07DDB223D4EB0704
S3150000267014D405F01405142D18D0134BC03453F898
S3150000268024206FF3104243F8242053F8243070BD01
S31500002690B26813786FF386131370E2E704213046AD
S315000026A005F01405FFF7E6FB142DE6D108213046A8
S315000026B0FFF7E0FBE1E705213046FFF7DBFBD6E756
S315000026C0E006002000E100E00060004010B40024B5
S315000026D00122036A44609C70C3692D4993F9053051
S315000026E04FEA531C03F01F0302FA03F30CF1200C0C
S315000026F041F82C30BFF34F8FBFF36F8FC36993F947
S315000027000B304FEA531C03F01F0302FA03F30CF1DC
S31500002710200C41F82C30BFF34F8FBFF36F8FC36986
S3150000272093F907304FEA531C03F01F0302FA03F331
S315000027300CF1200C41F82C30BFF34F8FBFF36F8F95
S31500002740C36993F909304FEA531C03F01F0302FAD9
S3150000275003F30CF1200C41F82C30BFF34F8FBFF37D
S315000027606F8FEFF3108182F31088C369094A93F8DB
S3150000277000C04FF00043506823FA0CF30343536044
S31500002780536881F3108820465DF8044B704700BFFC
S3150000279000E100E00040084003460020C3E90512BE
S315000027A0704700BF10B4046AA37803F07B03A370DC
S315000027B0837803F00303D21A0B440261A278C36044
S315000027C0837842F0800203F00303022BA27005D047
S315000027D00B780020E3705DF8044B70470B880020EF
S315000027E043F47E43E3815DF8044B70478446002042
S315000027F0CCE90A32CCF82410704700BF70B5864683
S315000028000024DEF820304D7893F802C00A780CF0E8
S315000028100B069E70CEF80C4020468C7802F05C02C7
S315000028205C7093F800E00CF07B0C65F3010E83F806
S3150000283000E0C9789974D97901F0A3010A43DA71E5
S3150000284083F802C070BD00BF4FF0FF330020C1E91E
S31500002850003370478B0711D5002210B4046AC907EC
S31500002860A37803F07B03A3701346026102D500220E
S315000028701346826118465DF8044B7047CA074FF04D
S31500002880060302D50022134682611846704700BF30
S315000028900346002210B49C6910460C605DF8044B98
S315000028A09A617047F0B5846A85B005460F4694462E
S315000028B06E46B4B194E80F0086E80F00EB69204637
S315000028C01B7884F804C02360EB6AC4E902736B6A60
S315000028D09847AC6A1CB196E80F0084E80F0005B073
S315000028E0F0BD3446EAE700BF0022F0B501240B78BC
S315000028F0027003F5800303F58C531B0203624B69D8
S315000029008D6943628378C16164F301038262C562A3
S3150000291083704B7823B90222837862F301038370B4
S31500002920012491F90B50C44A6B0905F01F072033A7
S3150000293004FA07F78E7A42F82370BFF34F8FBFF37E
S315000029406F8FBE4B05F1C00753F827C06FF3104CCD
S3150000295043F827C053F82770B94F360102EB050C30
S31500002960F6B28CF8006347F8250091F905500E7908
S315000029704FEA551C05F01F0E0CF1200C04FA0EFE52
S3150000298042F82CE0BFF34F8FBFF36F8F05F1C00CF9
S3150000299053F82CE06FF3104E43F82CE053F82CC09C
S315000029A0360102EB050CF6B28CF8006347F82500F9
S315000029B091F907508E794FEA551C05F01F0E0CF160
S315000029C0200C04FA0EFE42F82CE0BFF34F8FBFF343
S315000029D06F8F05F1C00C53F82CE06FF3104E43F8DF
S315000029E02CE053F82CC0360102EB050CF6B28CF83D
S315000029F0006347F8250091F909500E7A4FEA551CF5
S31500002A0005F01F0E0CF1200C04FA0EFE42F82CE025
S31500002A10BFF34F8FBFF36F8F05F1C00C53F82CE057
S31500002A206FF3104E43F82CE053F82C303301DBB231
S31500002A302A4482F8003347F82500EFF3108584F323
S31500002A4010884FF000447F4B0E785A68F44022EA13
S31500002A5004025A605B6885F31088002240F2F9345C
S31500002A60036A40F2F9359A701A715A729A72DA72DA
S31500002A705A830A7824FA02F2D60744BF4022DA744F
S31500002A800622CC691A770A784E78D540ED078F78FA
S31500002A90CA7848BF4FF478414FEAC20248BF9982CC
S31500002AA0032E42EA071200F0C280002E14BFF22164
S31500002AB0E221D2B21A709971227B082A0EBF0A222D
S31500002AC0520002F002025A736278A178D2014901DB
S31500002AD001F02001D2B20A430021197294F800C015
S31500002AE0ACF10201012940F29880D2B2DA71626833
S31500002AF0917855785970197865F301011970D17874
S31500002B0012789974D97902F05C0201F0A3010A43A4
S31500002B10DA710022C16902618261C260426191F983
S31500002B200550464B05F1C00153F8216062F310468B
S31500002B3043F8216053F82110BFF35F8F012669091E
S31500002B40890005F01F0501F1604101F5614106FAB2
S31500002B5005F5C1F880510D60C16991F90B5005F179
S31500002B60C00153F8217062F3104743F8217053F8FF
S31500002B702110BFF35F8F6909890005F01F0501F178
S31500002B80604106FA05F501F56141C1F880510D6015
S31500002B90C16991F907E00EF1C00153F8215062F3C3
S31500002BA0104543F8215053F82110BFF35F8F4FEAC9
S31500002BB05E1189000EF01F0E01F1604106FA0EF556
S31500002BC001F56141C1F880510D60C16991F90910A3
S31500002BD001F1C00553F8257062F3104743F82570DC
S31500002BE053F82530BFF35F8F4B099B0001F01F019F
S31500002BF003F160438E4003F56143C3F880611E60B4
S31500002C00036A0CF0030C4CF0700C618983F802C067
S31500002C100D4B018143601046F0BDFF21BCF1020F50
S31500002C2008BF42F01002D2B25970DA7171E7F22190
S31500002C3042F040023DE700BF00E100E000600040D6
S31500002C40E0060020004008405549435330B4EFF3F6
S31500002C500383103B1F4A5BB203F1C00152F8210007
S31500002C606FF3104042F8210052F821201A4A52F818
S31500002C702300C3691B691BB103691BB130BC7047D4
S31500002C8003697BB9D0E908240021937803F07F0318
S31500002C9043F004039370C160002CEFD030BC802257
S31500002CA0FFF700BE827802F003010229C1680BD04B
S31500002CB0046A91F800C084F803C002F003029B1A6C
S31500002CC00A44C0E90323D8E70C88056A44F47E4425
S31500002CD0EC81F2E700600040E006002010B582B00B
S31500002CE0EFF30383103B1F4A5BB203F1C00152F8B6
S31500002CF021006FF3104042F8210052F821201A4AB1
S31500002D0052F82340A27802F00303022B236A0CBF79
S31500002D10198A5979A3690CBFC1F30801C9B2019197
S31500002D2043B9636AB3B10422204602B0BDE810403D
S31500002D30FFF7B8BD02F0030201A9606901F066FD64
S31500002D40D4E90521A37803F003031A44C91AC4E998
S31500002D50052109B102B010BD636A002BFAD0012229
S31500002D60E2E700BF00600040E006002010B5EFF388
S31500002D7003830E4A103B5CB252F82400D0E90821C6
S31500002D80937803F07B03937019B102220021FFF7B9
S31500002D9089FD074A04F1C00352F823106FF310416E
S31500002DA042F8231052F8233010BD00BFE006002081
S31500002DB00060004010B5EFF303831A4A103B5CB283
S31500002DC052F82400837803F00303022B036A0CBF36
S31500002DD0198A597993F804C00CBFC1F30801C9B226
S31500002DE01CF0100F0CF0380206D093F81CC01CF033
S31500002DF0010F08BF42F0400293F804C00CF0C70C64
S31500002E0083F804C0436A0BB1FFF74CFD064A04F190
S31500002E10C00352F823106FF3104142F8231052F802
S31500002E20233010BDE00600200060004084460020EC
S31500002E30CCE90932CCF82010704700BF4FF0000CE7
S31500002E40012210B58368044683F802C043682E4900
S31500002E5093F90230580903F01F0302FA03F32030F6
S31500002E6041F82030BFF34F8FBFF36F8F636893F93C
S31500002E700130580903F01F0302FA03F3203041F82A
S31500002E802030BFF34F8FBFF36F8F636893F9043021
S31500002E90580903F01F0302FA03F3203041F82030EB
S31500002EA0BFF34F8FBFF36F8F636893F903305809F1
S31500002EB003F01F0302FA03F3203041F82030BFF37A
S31500002EC04F8FBFF36F8FEFF3108182F310884FF0AF
S31500002ED0004360680D4A0078C3405068034353605E
S31500002EE0536881F3108863685A6922B19368106841
S31500002EF01B6A984763681B691BB19A681868136A4E
S31500002F0098470020206010BD00E100E00040084026
S31500002F1030B5436A85B004468C4601ADABB193E843
S31500002F20070085E8070062681846117883F804C030
S31500002F30A26A19609A60236A9847636A1BB195E88A
S31500002F40070083E8070005B030BD2B46EBE700BF5E
S31500002F502DE9F04F00220C460B78896903F58003B2
S31500002F6003F58C530162E169426262691B02054600
S31500002F70C0E9014385B08162002A00F03C814FF42C
S31500002F8000265168053308684360936806601B682D
S31500002F90106898470646002840F0298122697AB1D0
S31500002FA0AB684FF000665168033308688360936826
S31500002FB006601B68106898470646002840F0218185
S31500002FC06B68D3F820C09CF902109CF802E0002937
S31500002FD0597AB2BF042000204FF0FF0E012918BF16
S31500002FE04FF00008997A9CF8012006BF4FF00208BE
S31500002FF00526464602F00302012942F08002D97AEC
S31500003000019000F00981012914BF46F0800646F0C0
S31500003010C006597B002914BFE221EA210391EFF390
S315000030201087012080F310884FF0004193F800903C
S315000030307C4B21FA09F9596821EA090159605B6854
S3150000304087F31088D3B21F46F3B202930023AA680F
S315000030504FF0840A937092F804904FF6000982F8B4
S3150000306004A0A2F814901770039F82F8028097714B
S315000030709CF800C0019F82F801C082F812E0D77167
S31500003080029F4FF0020B57734FF0400713725372B3
S315000030909372D3725383D77482F81CB094F805C028
S315000030A094F90120604E614F4FEA0C1C604906EB13
S315000030B0020E5FFA8CFC8EF800C302F1C00C47F8D2
S315000030C0225051F82CE063F3104E41F82CE051F8F1
S315000030D02CC0BFF35F8F4FEA521C0CFA0BFC02F0B8
S315000030E01F020CF1604C00FA02F20CF5614CCCF8B0
S315000030F08021CCF8002094F806C094F902204FEA0B
S315000031000C1C06EB020E5FFA8CFC8EF800C302F173
S31500003110C00C47F8225051F82CE063F3104E41F8EA
S315000031202CE051F82CC0BFF35F8F4FEA521C0CFA0B
S315000031300BFC02F01F020CF1604C00FA02F20CF5D7
S31500003140614CCCF88021CCF8002094F807C094F9A3
S3150000315003204FEA0C1C06EB020E5FFA8CFC8EF87D
S3150000316000C302F1C00C47F8225051F82CE063F37B
S31500003170104E41F82CE051F82CC0BFF35F8F4FEA98
S31500003180521C0CFA0BFC02F01F020CF1604C00FA08
S3150000319002F20CF5614CCCF88021CCF8002094F8B2
S315000031A008C094F904204FEA0C141644E4B286F8D9
S315000031B0004302F1C00447F8225051F8246063F33B
S315000031C0104641F8246051F82410BFF35F8F02F0D7
S315000031D01F01520902FA0BF202F16042884002F521
S315000031E06142C2F8800110601E46124B2B603046C9
S315000031F005B0BDE8F08F2269002A7FF4D2AE2346DF
S31500003200DFE66369002BF2D09A681868136A98475C
S31500003210304605B0BDE8F08F00297FF4FAAE46F0DF
S315000032204006F6E60040084000E100E0E006002027
S31500003230006000405349435370B51D4683689B7830
S3150000324013F0300334D1C0E9053343681646C0E9AC
S3150000325003121A690446C56192B1536845611B6839
S31500003260A8B2D88131B302205960D97860F38301BE
S31500003270D9701946936810685B689847B8B963684F
S31500003280596951B14EB18B680868324600219E6873
S31500003290A561ABB2B04750B96368206988B11869B7
S315000032A0A8B10020A268937843F0F003937070BD34
S315000032B0082070BDD87861F383002849D87059601A
S315000032C0D7E7A268937843F0A003937070BD5A695C
S315000032D0A168002A14BFF02570258A7842EA050203
S315000032E08A70E4D1012193F901301D485A0903F08F
S315000032F01F03203201FA03F340F82230BFF34F8F49
S31500003300BFF36F8F6369E269934206D2D4E9020183
S3150000331001B3C95CC170013363616368597A0129DD
S315000033200BD093F90130012203F01F000C495B0911
S31500003330824041F82320002070BD012AF1D961693D
S315000033408A42EED9D4E9020232B1525CC27001312E
S315000033506161E6E7C170DEE7C270F8E79806002013
S3150000336000E100E08C46134600216246FFF764BF89
S3150000337013460022FFF760BFFFF75EBF10B4EFF3FE
S315000033800383103B174A5BB203F1C00152F82100D8
S315000033906FF3104042F8210052F82120124A52F8E9
S315000033A023305A69D9698A4206D2D868B0B1805C9E
S315000033B09C68E07001325A618A4202D05DF8044B83
S315000033C070471A69002AF9D19A685DF8044B937818
S315000033D003F07B0343F00403937070479C68E0702E
S315000033E0E8E700BF00600040E006002010B4EFF3FD
S315000033F00383103B194A5BB203F1C00152F8210066
S315000034006FF3104042F8210052F82120144A52F876
S3150000341023305A69D9698A4206D2D3E90240D0B12B
S31500003420805CE07001325A619A698A4207D29868D4
S3150000343019694079541C9C618854D3E9062191424C
S3150000344006D19A68937803F03B0343F00403937024
S315000034505DF8044B7047E070E4E700BF0060004091
S31500003460E006002010B5EFF303830C4A103B5CB274
S3150000347052F8240001218268937803F003039370C5
S31500003480FFF746FD064A04F1C00352F823106FF316
S31500003490104142F8231052F8233010BDE0060020F8
S315000034A00060004010B5EFF303834FF0840C0E4A22
S315000034B0103B5CB252F82400042183689A7802F02B
S315000034C003029A701A7983F804C0FFF721FD074AB0
S315000034D004F1C00352F823106FF3104142F8231091
S315000034E052F8233010BD00BFE00600200060004007
S315000034F00B0A10B41B01064C53FA81F154F8213023
S315000035000020C3F340035DF8044B1370704700BFFF
S31500003510000808400123C8B283404AB91A040B0ABE
S315000035205B0103F1804303F5002300209A60704796
S315000035309AB2F4E72DE9F84F0388002B3DD00746F1
S315000035404FF00008DFF8A4A040F202427B684FEA81
S31500003550C80559198988002491424FF00109224E65
S3150000356009D00134032C23D07B6836F8022B591975
S3150000357089889142F5D15B5909FA04F203F0B853F0
S31500003580B3F1807F5FFA82FB19D09AF8BB341A42F6
S31500003590E7D0012000F0E2FC9AF8BB34012023EAD0
S315000035A00B0B8AF8BBB4013400F0A8FC032CDBD16A
S315000035B03B8808F101084345C6D8BDE8F88F9AF85C
S315000035C0BB2409FA04F313425FFA83FBC9D1012035
S315000035D000F0C4FC9AF8BB3401204BEA030B8AF8CE
S315000035E0BBB400F08BFCBCE7D6A2000000E00140B3
S315000035F0F8B50446FFF79EFFEFF31082012383F32D
S315000036001088284E33681BB92749CB704023CB70EE
S3150000361033680133336082F3108823887BB3626892
S3150000362003F1FF3E1FFA8EFE02F108011F4C01EB6B
S31500003630CE0E08E0D2B21B0113448E450A4644F86A
S3150000364023001CD008311068928810F4803F4FEA9E
S315000036501223EFD0130AD2B202EB031C54F82C70DB
S315000036601B01134420F480356FF310478E4544F850
S315000036702C700A4644F82C5044F82300E2D1EFF3AC
S315000036801082012383F31088336813B13368013B3A
S31500003690336033681BB980200349CB70C87082F34E
S315000036A01088F8BDDC060020000D08400008084020
S315000036B008B5034B03600846FFF79AFF002008BDD4
S315000036C054524F50F0B50346002591F902C01B4CE9
S315000036D04FEA8C0202F1804280F804C002F5C04233
S315000036E0D1E90270D2F80063C2F80053C3E9027050
S315000036F091F800E0BCF1000F83F805E004F80E50E5
S315000037000D79C87840EA05104D7940EAC510C0B277
S3150000371004F80E00C2F800630BDB4A780848120171
S315000037200CF16041D2B201F5614181F8002340F805
S315000037302C30044A00201A60F0BD00BF0060004033
S31500003740E00600205543490090F904200E4B02F193
S31500003750C00153F821006FF3104043F8210053F8DD
S315000037602130BFF35F8F012153099B0002F01F0236
S3150000377003F1604303F5614301FA02F2C3F88021C5
S315000037801A600020704700BF00600040012110B49D
S3150000379090F90430084C5A0903F01F0301FA03F3A9
S315000037A0203244F82230BFF34F8FBFF36F8F0020D3
S315000037B05DF8044B704700BF00E100E003460020BF
S315000037C0C3E90212704700BF90F90430002B1ADBE0
S315000037D0012110B45A090E4C03F01F03203201FADE
S315000037E003F344F82230BFF34F8FBFF36F8F0021EE
S315000037F0084B90F904205DF8044B43F8221000238F
S31500003800036018467047002303601846704700BFE0
S3150000381000E100E0E006002010B582B0EFF303847B
S31500003820184B103C64B253F82410174A4879135CBD
S3150000383003F00303032B11D0C03452F824306FF386
S31500003840104342F8243052F824308B6823B1CA68FA
S31500003850CDE900206846984702B010BD8B6823B1B9
S31500003860CA68CDE9002068469847074BC03453F82C
S3150000387024206FF3104243F8242053F8243002B07A
S3150000388010BD00BFE00600200060004030B490F993
S315000038900400204D82B0019100F1C00C009255F851
S315000038A02C201D4C6FF3186245F82C2055F82C106F
S315000038B0C1F3080141F40041E28992B28A42FBD089
S315000038C008222274019A1AB3144A019C52F8201055
S315000038D04C60009919B152F82010009C8C6052F887
S315000038E02010CA7802F0C002802A0FD002B9CB811C
S315000038F018210020084B074A197452F82C3043F05F
S31500003900807342F82C3002B030BC70478B81EFE7F1
S31500003910024ADEE70060004000540040000000203C
S315000039200620704706207047034693F90430054980
S31500003930C03351F82320002042F0807241F8232042
S31500003940704700BF00600040034693F90430054A03
S31500003950C03352F8231000206FF3186142F8231089
S31500003960704700BF0060004010B40024154B90F96A
S31500003970042053F82220D378C1E9004413F0C00391
S315000039800BD04FF48074D089802BC0B2C1E90240BD
S315000039900DD000205DF8044B70474FF48030D3897A
S315000039A05DF8044B9BB2C1E90203002070474FF457
S315000039B0803093895DF8044B9BB2C1E90003002077
S315000039C0704700BF000000200346002270B493F940
S315000039D00410084C01F1C00C54F82C50064E6FF33D
S315000039E0186544F82C50104646F821201A6070BC21
S315000039F0704700BF0060004000000020274AF8B56D
S31500003A00137805460C463BB3636893F9000000281B
S31500003A103FDB234E56F82030002B3CD1287124681A
S31500003A20B4B12346DA78194612F0C00F04D0DA8909
S31500003A30D2B242EA0222DA818A78103312F0C00F3B
S31500003A40F0D10822174B1A74182246F820401A742F
S31500003A50154B00202B60F8BD01261670EFF3108081
S31500003A6086F31088114A116821F4800111601268EA
S31500003A7080F310880A4F19464FF4C072384600F09A
S31500003A80D2FE084B5F611E73636893F9000000283D
S31500003A90BFDA0B20F8BD0820F8BD00BF990600204C
S31500003AA000000020005400400043544400400840F9
S31500003AB010B590F904E01A4B0EF1C00C53F82C2007
S31500003AC0184C6FF3186243F82C2053F82C20C2F3DD
S31500003AD0080242F40042E3899BB29342FBD00B46B4
S31500003AE0DA78184612F0C00F04D0DA89D2B242EA68
S31500003AF00222DA818078103310F0C000F0D108225B
S31500003B001824084B1A74084A42F82E10044A1C74EA
S31500003B1052F82C3043F0807342F82C3010BD00BFB1
S31500003B2000600040005400400000002010B582B044
S31500003B30EFF30383103B0E4A5BB203F1C00152F868
S31500003B4021006FF3104042F8210052F82120094A63
S31500003B5001A852F8234063685B68D3E903320192F7
S31500003B609847A368DA680AB101221A7702B010BD35
S31500003B7000600040E00600202DE9F04184B0EFF33C
S31500003B800383103B214A5BB203F1C00152F82100C6
S31500003B906FF3104042F8210052F821201C4A52F8D7
S31500003BA02340237BA5686BB30C3562682B781278AB
S31500003BB0DBB2012A04D1F42203F0F0032A702B7041
S31500003BC0D4F81480B8F1000F15D0A66901AFDEB1A4
S31500003BD096E8070087E807009B0644BF0023337179
S31500003BE0E36930463360C047A3691BB197E8070015
S31500003BF083E807002B78DBB203F00F032B7004B0C9
S31500003C00BDE8F0810835D0E73E46E5E700600040B4
S31500003C10E0060020064B074993F826001A6A51F879
S31500003C202030C2F302620449D3400B60704700BFE4
S31500003C3000E00140E40300206C080020F8B54AF2D9
S31500003C40035001233749384AA1F8FE03A2F804318C
S31500003C50B2F804319BB2002BFAD101214FF4004592
S31500003C604FF0090C314CDFF8DCE0314EC4F804E0CB
S31500003C70DFF8D4E02B48C4F80CE02E4FA2F8001170
S31500003C802D4AB16031606261276090F82620A560F8
S31500003C902561056A54F82220C5F30265EA40274DDE
S31500003CA02A6080F8133480F8A2C090F8803493B369
S31500003CB000231C4981F8813481F8803481F8323040
S31500003CC091F83C301A07FBD543F202100023154A3F
S31500003CD0088581F82A3092F83C309B06FBD50320F4
S31500003CE00523114981F81C0115490120116282F84A
S31500003CF0263092F82630116A54F82330C1F3026157
S31500003D00CB402B604FF4254382F8300082F85200F6
S31500003D10A2F8FE33F8BD80F8801440F2C44000F0EB
S31500003D204DF8C5E700E0014000C00140E403002073
S31500003D3000700040002D310100C2EB0B6C08002022
S31500003D402112012000127A0000366E0138B50025D6
S31500003D50134C0121C82084F8285000F02FF884F86D
S31500003D60245094F82430002BFBD194F824300C4ACC
S31500003D7043F0020384F8243092F82430C3F340045D
S31500003D809B07F9D4012082F8224000F0E7F8054BA2
S31500003D90012083F8BB44BDE8384000F0AFB800BF4F
S31500003DA00030084000E00140704700BF00BEFEE75B
S31500003DB0A0F101000028FBD1704700BF10B54FF4F9
S31500003DC07A72164C164B24684FF0000EB3FBF4FCC7
S31500003DD04FF0FF3300FB01F1A1FB020483427EEBAF
S31500003DE0040407D3B0FBFCF0800880B1BDE81040A6
S31500003DF0FFF7DEBF4FEA8C0CB1FBFCF1A1FB021210
S31500003E008B427EEB020203D308460028EED110BD9A
S31500003E101846BDE81040FFF7CBBF00BF6C08002076
S31500003E2000CA9A3B70B500240A4B0B4EB3F84051BA
S31500003E30ADB225FA04F3DB07E0B203D556F8243019
S31500003E4003B198470134102CF3D1024BA3F830513B
S31500003E5070BD00BF006000409C06002030B56FF0CA
S31500003E60FF0585B0032000F079F84FF0FF311F4CB5
S31500003E701F482246856400230125CDE901110391DF
S31500003E8004F1C00E32F8020F590960B104A800EB24
S31500003E90810151F80C0C03F01F0C05FA0CFC20EA0A
S31500003EA00C0041F80C0C724503F10103EAD10199AB
S31500003EB0104B0F4A03201167C3F88012029951670D
S31500003EC0C3F8841203999167C3F8881200F016F8B4
S31500003ED00023094803F1C00234F8021F0133602BA6
S31500003EE040F82210F6D105B030BD00BFBEA10000DB
S31500003EF00080004000E100E000600040EFF3108128
S31500003F00012383F31088124B33F8102092B22AB1A2
S31500003F1033F81020013A92B223F8102033F810300B
S31500003F209BB293B90B4A10B4B2F8FE330A4C9BB25B
S31500003F3034F8100043F4254323EA0003A2F8FE33C5
S31500003F4081F310885DF8044B704781F31088704741
S31500003F506008002000E0014014A3000030B4EFF335
S31500003F601081012383F310880E4A32F810309BB279
S31500003F706BB90D4C0D4DB4F8FE3335F810C09BB23D
S31500003F8043EA0C0343F425439BB2A4F8FE3332F80C
S31500003F90103001339BB222F8103081F3108830BC08
S31500003FA0704700BF6008002000E0014014A3000035
S31500003FB00D4908B50A6803464AB103330B4823F096
S31500003FC003031344834206D810460B6008BD084815
S31500003FD002460860F1E700F013FC0C234FF0FF32B5
S31500003FE00360104608BD00BF680800208028002036
S31500003FF08008002000BE704708B500F003F8FDF702
S31500004000C7FEFEE74FF4700270B5254B254CC3F88A
S31500004010882000209C60FDF7AFFEFFF70FFE012011
S31500004020FDF7AAFE2368A3F5805383F30A881E488A
S315000040301E4A0021121A00F0F6FB1D481D4A1E49B1
S31500004040121A00F0E3FB1D4D1D4B5B1B002B07DD19
S3150000405000249E1055F8043B01349847A642F9DC2B
S31500004060FFF7D8FDFFF772FE0320FFF777FF002367
S315000040704FF6FF70134903F108020133092B21F8AB
S315000040801200F8D10320FFF739FF0220FDF774FE76
S31500004090FFF7E4FEBDE870400020FFF785BE00BFD5
S315000040A000ED00E000000000000400208008002071
S315000040B080010020E403002034A80000DC03002077
S315000040C0E0030020000D084081F0004102E000BF3F
S315000040D083F0004330B54FEA41044FEA430594EAC2
S315000040E0050F08BF90EA020F1FBF54EA000C55EAFD
S315000040F0020C7FEA645C7FEA655C00F0E2804FEACE
S315000041005454D4EB5555B8BF6D420CDD2C4480EAAF
S31500004110020281EA030382EA000083EA010180EADF
S31500004120020281EA0303362D88BF30BD11F0004F2D
S315000041304FEA01314FF4801C4CEA113102D0404263
S3150000414061EB410113F0004F4FEA03334CEA13339E
S3150000415002D0524263EB430394EA050F00F0A780B6
S31500004160A4F10104D5F1200E0DDB02FA0EFC22FAB1
S3150000417005F2801841F1000103FA0EF2801843FAA5
S3150000418005F359410EE0A5F120050EF1200E012A96
S3150000419003FA0EFC28BF4CF0020C43FA05F3C018D4
S315000041A051EBE37101F0004507D54FF0000EDCF14D
S315000041B0000C7EEB00006EEB0101B1F5801F1BD3F6
S315000041C0B1F5001F0CD349085FEA30004FEA3C0CFA
S315000041D004F101044FEA445212F5800F80F09A80F0
S315000041E0BCF1004F08BF5FEA500C50F1000041EBF4
S315000041F0045141EA050130BD5FEA4C0C404141EBF8
S315000042000101013C28BFB1F5801FE9D291F0000FF2
S3150000421004BF01460020B1FA81F308BF2033A3F1A1
S315000042200B03B3F120020CDA0C3208DD02F1140C98
S31500004230C2F10C0201FA0CF021FA02F10CE002F1D3
S315000042401402D8BFC2F1200C01FA02F120FA0CFCCC
S31500004250DCBF41EA0C019040E41AA2BF01EB045115
S31500004260294330BD6FEA04041F3C1CDA0C340EDC13
S3150000427004F11404C4F1200220FA04F001FA02F356
S3150000428040EA030021FA04F345EA030130BDC4F114
S315000042900C04C4F1200220FA02F001FA04F340EA09
S315000042A00300294630BD21FA04F0294630BD94F0BA
S315000042B0000F83F4801306BF81F480110134013DA1
S315000042C04EE77FEA645C18BF7FEA655C29D094EA12
S315000042D0050F08BF90EA020F05D054EA000C04BF90
S315000042E01946104630BD91EA030F1EBF002100207B
S315000042F030BD5FEA545C05D14000494128BF41F01A
S31500004300004130BD14F580043CBF01F5801130BD7D
S3150000431001F0004545F0FE4141F470014FF0000008
S3150000432030BD7FEA645C1ABF194610467FEA655CB9
S315000043301CBF0B46024650EA013406BF52EA03355B
S3150000434091EA030F41F4002130BD00BF90F0000F49
S3150000435004BF0021704730B54FF4806404F1320485
S315000043604FF000054FF0000150E700BF90F0000F3E
S3150000437004BF0021704730B54FF4806404F1320465
S3150000438010F0004548BF40424FF000013EE700BF35
S3150000439042004FEAE2014FEA31014FEA02701FBFC5
S315000043A012F07F4393F07F4F81F06051704732F0F7
S315000043B07F4208BF704793F07F4F04BF41F400214E
S315000043C0704730B54FF4607401F0004521F00041AC
S315000043D01CE700BF50EA010208BF704730B54FF036
S315000043E000050AE050EA010208BF704730B511F037
S315000043F0004502D5404261EB41014FF4806404F16F
S3150000440032045FEA915C3FF4D8AE4FF003025FEAF4
S31500004410DC0C18BF03325FEADC0C18BF033202EB78
S31500004420DC02C2F1200300FA03FC20FA02F001FAD2
S3150000443003FE40EA0E0021FA02F11444BDE600BF75
S315000044404FEA4102B2F1E04324BFB3F5001CDCF1B0
S31500004450FE5C0DD901F0004C4FEAC0024CEA5070E8
S31500004460B2F1004F40EB830008BF20F00100704717
S3150000447011F0804F21D113F13872BCBF01F000401A
S31500004480704741F480114FEA5252C2F11802C2F14C
S31500004490200C10FA0CF320FA02F018BF40F00100CD
S315000044A04FEAC1234FEAD32303FA0CFC40EA0C007F
S315000044B023FA02F34FEA4303CCE77FEA625307D1BC
S315000044C050EA01331EBF4FF0FE4040F440007047F3
S315000044D001F0004040F0FE4040F40000704700BF8D
S315000044E053B94AB9002908BF00281CBF4FF0FF3155
S315000044F04FF0FF3000F082B9ADF1080C6DE904CE43
S3150000450000F006F8DDF804E0DDE9022304B07047A8
S315000045102DE9F04F099D04460F46002B48D18A42EB
S31500004520944661D9B2FA82F343B1C3F120019F40A8
S3150000453002FA03FC9C4020FA01F10F434FEA1C41AA
S315000045401FFA8CFE220CB7FBF1F601FB167706FB71
S315000045500EF042EA0742904208D91CEB020206F12D
S31500004560FF3702D2904200F237813E46121AA4B2B9
S31500004570B2FBF1F001FB102200FB0EFE44EA0244FE
S31500004580A64508D91CEB040400F1FF3202D2A64569
S3150000459000F21C81104640EA0640A4EB0E040026F9
S315000045A01DB1DC400023C5E900433146BDE8F08F6C
S315000045B08B4209D9002D00F0FD800026C5E90001D7
S315000045C030463146BDE8F08FB3FA83F6002E4BD164
S315000045D08B42C0F0F280824240F2EF803046002DDE
S315000045E0E3D0C5E90047E0E702B9FFDEB2FA82F39D
S315000045F0002B40F09D80891A4FEA124E97B2012691
S31500004600200CB1FBFEF20EFB121140EA014107FB42
S3150000461002F088420FD91CEB010102F1FF382CBFD2
S315000046204FF001094FF00009884203D9B9F1000F94
S3150000463000F0CF804246091AA4B2B1FBFEF00EFB91
S31500004640101100FB07F744EA0144A74208D91CEB06
S31500004650040400F1FF3102D2A74200F2B4800846FA
S31500004660E41B40EA02409BE7C6F12007B34001FA8B
S3150000467006F422FA07FCF940B2404CEA030C20FA91
S3150000468007F34FEA1C491C431FFA8CFE00FA06F397
S31500004690200CB1FBF9F809FB181140EA014108FBAF
S315000046A00EF088420FD91CEB010108F1FF3A2CBF2E
S315000046B04FF0010B4FF0000B884203D9BBF1000FFE
S315000046C000F08D80D046091AA4B2B1FBF9F009FBBF
S315000046D0101100FB0EFE44EA01418E4507D91CEB82
S315000046E0010100F1FF3401D28E457FD8204640EA11
S315000046F00840A1EB0E01A0FB029841454C46C64678
S3150000470002D306D14B4504D20138B9EB020468EB5B
S315000047100C0E002D70D01A1B61EB0E0122FA06F367
S3150000472001FA07F7F14000261F43C5E900713CE78F
S3150000473002FA03FCC3F1200001FA03F221FA00F6A3
S315000047404FEA1C4E24FA00F11FFA8CF79C401143E5
S31500004750B6FBFEF00A0C0EFB106642EA064200FBB0
S3150000476007F696420ED91CEB020200F1FF382CBF69
S315000047704FF001094FF00009964202D9B9F1000F36
S3150000478031D04046921B89B2B2FBFEF60EFB1622D2
S3150000479041EA024106FB07F28A4207D91CEB0101F6
S315000047A006F1FF3801D28A4223D84646891A46EADC
S315000047B0004625E72E462846F7E6841A61EB0303F2
S315000047C001201F460BE76444023849E76444023877
S315000047D0E1E6023A61442EE7023E6244C6E6A8F1EB
S315000047E0020861446FE702386244CBE7023861444D
S315000047F07DE7023E6144D9E72E46D6E6704700BF04
S31500004800014B1868704700BF080200200A44431E87
S31500004810914200D1704710B511F8014B914203F84F
S31500004820014FF9D110BD02440346934200D17047AF
S3150000483003F8011BF9E72DE9FF4755EC104B002D56
S315000048400E4619462B46B4BF05F100430023914698
S31500004850BFBF22461D462D231446DDF830A00B703F
S315000048600D9B23F02008B8F1460F05D0B8F1450F8F
S3150000487000D10136022100E0032103AB3246019349
S3150000488002AB45EC104B0093534601F04DFEB8F1D8
S31500004890470F074602D119F0010F22D0B8F1460F93
S315000048A007EB060910D13B78302B0AD100220023F2
S315000048B02046294604F0BEFE18B9C6F10106CAF81C
S315000048C00060DAF800309944002200232046294689
S315000048D004F0B0FE08B1CDF80C903022039B4B4596
S315000048E007D3039B38460E9ADB1B136004B0BDE862
S315000048F0F087591C03911A70F0E7F7B500290346B3
S31500004900B8BF494203F8022BB4BF2D222B22092936
S3150000491042702ADD0DF107040A27A4460A46A64678
S31500004920013C632A91FBF7F607FB1615314605F1A4
S3150000493030050EF8015CF1DC3031AEF1020504F809
S31500004940011C441C294661450AD30DF10902A2EB5C
S315000049500E02654588BF00221344181A03B0F0BD45
S3150000496011F8012B04F8012FEDE730233031837065
S31500004970031DC170F1E7FFFF2DE9F04F2DED028B0E
S315000049808DB00C4616461F46DDF86080054603F0DE
S315000049901BF8D0F800A0504600F048FE002394F81B
S315000049A018B008EE100A0A9323680593D8F8003069
S315000049B0073323F0070303F10802C8F80020D3E900
S315000049C00023C4E91223D4E912894FF0FF3229F0FB
S315000049D00043CDF8188007939E4BDDE9060104F0ED
S315000049E05BFE88BB4FF0FF329A4BDDE9060104F00F
S315000049F035FE48BB002200234046494604F024FE0B
S31500004A0010B12D2384F84330934B9448BBF1470FE4
S31500004A1094BF9846804603234FF000092361059B07
S31500004A2023F00402226033460BAA2146284600974B
S31500004A3000F0D8F9013040F090804FF0FF300DB013
S31500004A40BDEC028BBDE8F08F42464B4640464946D8
S31500004A5004F022FE40B14B468148002BBCBF2D23FB
S31500004A6084F843307F4BD1E70BF0DF026368069290
S31500004A705A1C3FD106236360059B2846616843F4B0
S31500004A808062002303930AAB2260CDE901B309AB30
S31500004A9049EC108B00930DF12303FFF7CCFE069B28
S31500004AA080460999472B08D1C81C02DB63689942E6
S31500004AB041DDABF1020B5FFA8BFBBBF1650F20D832
S31500004AC001395A4604F150000991FFF716FF0A9A78
S31500004AD081461318012A236102DC2268D20701D518
S31500004AE0013323619DF82330002B9CD02D2384F8BD
S31500004AF0433098E7069A472ABED1002BBCD1012342
S31500004B00B9E7BBF1660F18D1002963680BDD216197
S31500004B1013B92268D00702D501330B4423614FF045
S31500004B200009A165DEE713B92268D20701D5023371
S31500004B30F4E70123F2E74FF0670B0A9B994205DB86
S31500004B4023682161D807EAD54B1CE7E70029D4BFC3
S31500004B50C1F1020201221344E0E723685A0507D493
S31500004B602369424631462846B84701302CD164E7CE
S31500004B70BBF1650F40F2E08000220023D4E9120168
S31500004B8004F058FD002834D00123374A3146284620
S31500004B90B84701303FF451AFDDE909239A4202DB01
S31500004BA02368D80710D518EE103A524631462846E3
S31500004BB0B84701303FF441AF4FF0000804F11A093D
S31500004BC00A9B013B434509DC23689B0700F10581ED
S31500004BD0E0680B9B9842B8BF184630E701234A4667
S31500004BE031462846B84701303FF427AF08F101089F
S31500004BF0E6E7099B002B39DC01231B4A3146284690
S31500004C00B84701303FF419AFDDE90923134302D158
S31500004C102368D907D8D518EE103A524631462846A9
S31500004C20B84701303FF409AF4FF0000904F11A0A02
S31500004C30099B5B424B4501DC0A9B92E701235246E6
S31500004C4031462846B84701303FF4F7AE09F101096D
S31500004C50EEE700BFFFFFEF7F20A3000024A30000C4
S31500004C602CA3000028A3000030A300000A9AA36D1D
S31500004C709A42A8BF1A46002A914637DC4FF0000B2D
S31500004C8029EAE97904F11A02A36D0593A3EB090356
S31500004C905B4533DCDDE909239A423BDB2368DA070F
S31500004CA038D40A9B059A09999A1AA3EB01099145EA
S31500004CB0A8BF9146B9F1000F35DC4FF0000829EA8C
S31500004CC0E97904F11A0ADDE909239B1AA3EB090322
S31500004CD043457FF779AF0123524631462846B84708
S31500004CE001303FF4AAAE08F10108ECE7134631465D
S31500004CF042462846B8470130C0D19EE601233146D8
S31500004D0028460592B84701303FF497AE0BF1010BE8
S31500004D10059AB9E718EE103A524631462846B84782
S31500004D200130BED189E6059A4B46314628464244B3
S31500004D30B8470130C1D180E60A9A012A01DCDB07B7
S31500004D4038D50123424631462846B84701303FF45C
S31500004D5074AE18EE103A524631462846B84701302E
S31500004D603FF46BAE00220023D4E9120104F062FC8A
S31500004D70D8B90A9B08F10102013B31462846B847DB
S31500004D8001300ED159E60123524631462846B8472E
S31500004D9001303FF452AE08F101080A9B013B43453E
S31500004DA0F1DC4B4604F15002DCE64FF0000804F15A
S31500004DB01A0AF2E701234246DFE701234A46314653
S31500004DC02846B84701303FF438AE08F10108E368D9
S31500004DD00B995B1A4345F0DCFAE64FF0000804F144
S31500004DE01909F4E72DE9F047164699468A680746F9
S31500004DF00B690C46DDF820809342B8BF134633603A
S31500004E0091F843200AB1013333602368990642BF03
S31500004E10336802333360256815F0060506D104F1C0
S31500004E20190AE36832689B1AAB4229DC94F84320DE
S31500004E30131E226818BF012392062ED404F14302E2
S31500004E4049463846C047013021D023681A3454F801
S31500004E500E5C03F0060332680026042B54F8123C5D
S31500004E6008BFAD1A54F80A2C14BF002525EAE575CB
S31500004E709342C4BF9B1AED18B5421AD1002008E030
S31500004E800123524649463846C047013003D14FF008
S31500004E90FF30BDE8F0870135C3E7E1185A1C302022
S31500004EA00233224481F8430094F8451082F84310F7
S31500004EB0C4E70123224649463846C0470130E6D0BA
S31500004EC00136D9E72DE9FF470F7E914680460C460D
S31500004ED0782F9A460C9D01F1430207D8622F0AD813
S31500004EE0002F00F0D880582F00F0A38004F142056F
S31500004EF084F842703AE0A7F16303152BF6D801A1B6
S31500004F0051F823F05D4F0000714F0000ED4E000098
S31500004F10ED4E0000ED4E0000ED4E0000714F00001A
S31500004F20ED4E0000ED4E0000ED4E0000ED4E00008F
S31500004F307D500000A14F00005F500000ED4E0000C4
S31500004F40ED4E00009F500000ED4E0000A14F000006
S31500004F50ED4E0000ED4E0000675000002B681A1D54
S31500004F601B682A6004F1420584F842300123A3E05D
S31500004F7020682968060601F104030AD50E682B602D
S31500004F80002E03DA2D23764284F843305E480A2346
S31500004F9019E00E6810F0400F2B6018BF36B2EFE72D
S31500004FA02B682068191D2960010601D51E6802E0DC
S31500004FB04606FBD51E886F2F53480CBF08230A23CD
S31500004FC0002184F843106568002DA560A2BF216802
S31500004FD021F0040121600EB9002D4DD01546B6FB17
S31500004FE0F3F103FB1167C75D05F8017D37460E46F1
S31500004FF0BB42F4D9082B0BD12368DE0708D52369F9
S3150000500061689942DEBF302305F8013C05F1FF35A2
S31500005010521B22614B4603AA21464046CDF800A00A
S31500005020FFF7E0FE01304CD14FF0FF3004B0BDE891
S31500005030F087354881F845702968236851F8046B74
S3150000504029601D0614D5DF0744BF43F02003236003
S315000050501EB9236823F0200323601023B0E72368DA
S3150000506043F0200323607823284884F84530E3E79B
S31500005070590648BFB6B2E6E71546BBE72B68266871
S31500005080181D6169286035061B6801D5196002E0A4
S315000050907006FBD51980002315462361BAE72B68F5
S315000050A000211A1D2A601D686268284602F0AEFCBF
S315000050B008B1401B606063682361002384F84330B5
S315000050C0A8E723692A4649464046D0470130ABD077
S315000050D023689B0713D4E068039B9842B8BF184621
S315000050E0A4E70123324649464046D04701309BD0CB
S315000050F00135E36803995B1AAB42F2DCEBE7002566
S3150000510004F11906F5E700BF32A3000043A300002F
S315000051102DE9F04F87B017468B46804603930C4621
S315000051208B685A1EB2F5AE7F8BBF6FF4AE75002347
S315000051305B1902934FF0000584BF029340F25D13A2
S31500005140AA46A94688BF8B600B68019543F4F063B5
S315000051504BF81C3B5E46CDE90455A26852B13B684C
S315000051601B784E2B64D8402B3CD8A3F12B01C8B238
S315000051700E283AD9B9F1000F03D0236823F48073BF
S3150000518023600AF1FF3ABAF1010F00F213815E457E
S3150000519000F205810125284607B0BDE8F08FA3F18E
S315000051A061020D2AE6D801A151F822F0EB52000067
S315000051B07551000075510000755100004B530000F9
S315000051C0235300007551000075510000F95200008C
S315000051D075510000755100007551000075510000B1
S315000051E0B1520000A3F14102DBE70E29C2D801A0AB
S315000051F050F821F0A352000075510000A3520000A0
S315000052003753000075510000515200008D520000C6
S315000052108D5200008D5200008D5200008D5200000C
S315000052208D5200008D5200008D5200008D520000FC
S315000052306E2B09D8602BB2D8542B77D0592B99D125
S31500005240072D97D1082529E0742B6FD0792BF6E727
S315000052502168C8051AD521F08001029B09F10109D0
S3150000526021601BB1013B01320293A260A368013B9E
S31500005270A3602369013323617B68013B002B7B60BC
S3150000528040F384803B6801333B6066E71AEB050F09
S315000052907FF470AF226822F4C072226006F8013BE8
S315000052A0E4E7226810067FF565AF22F08002F4E796
S315000052B0BAF1000F0ED1B9F1000F0ED1226802F437
S315000052C0E061B1F5E06F08D122F4F0624FF0010A17
S315000052D02260E3E7BAF1020F55D0012D02D0042D6A
S315000052E07FF448AF0135EDB2D8E7BAF1010F7FF48C
S315000052F041AF4FF0020AD1E77DB9B9F1000F7FF453
S315000053003CAF226802F4E061B1F5E06F7FF439AF9B
S3150000531022F4F06201252260C0E7032DE2D0052DBC
S31500005320DEE7022D7FF426AF0325B7E7062D7FF4CF
S3150000533021AF0725B2E7226891057FF51BAF22F45E
S315000053402072CDF804902260A8E7226802F4A061DA
S31500005350B1F5806F06D050057FF50CAFB9F1000F9F
S315000053603FF40FAF910522F4F06258BF019942F461
S31500005370C07258BFA9EB010122604FF0000958BF67
S31500005380CDE904168AE74FF0030A87E7D4F880319F
S3150000539039464046984700283FF4DFAEEAE6D4F89F
S315000053A07C313A4616F8011D404698472369013B71
S315000053B02361ECE66B1E062B25D8022D36D85E45FA
S315000053C07FF6E8AED4F87C313A4616F8011D404621
S315000053D098472369013B2361F1E702983A46D4F8DE
S315000053E07C3110F8011D0290404698472369013B25
S315000053F023610AF1FF3A5FFA8AFABAF1020FECD199
S31500005400033DEDB2761B2368DA052ED55B0510D574
S315000054105E457FF6BFAED4F87C313A4616F8011DDC
S31500005420404698472369013B2361F1E7AA46029665
S31500005430DFE716F8011C751E2369652903F1FF33A2
S3150000544023610CD045290AD0D4F87C313A4640462F
S31500005450B51E9847236916F8021C013B23612E46A8
S31500005460D4F87C313A4640469847256815F0100531
S3150000547059D13570236803F4C063B3F5806F1BD12F
S31500005480019B4B45A3EB090223D100225946404616
S3150000549000F0F4FE2268039B12F0020F1B6857EC23
S315000054A0106B21D01A1D03990A601B68C3E90067B7
S315000054B0E3680133E3606EE6049B002BE5D00599B3
S315000054C00A232A464046013100F060FF049B059EF0
S315000054D0C21A04F26F1315499E4228BF04F5B77627
S315000054E0304600F079F8D0E7039912F0040F03F183
S315000054F004020A60D9D1D3F8008010EE102A3B4688
S3150000550010EE100A394604F0C7F828B1084800F032
