S00E0000494D555F56392E737265633D
S31500000000A83B0020396B000065690000356B0000D5
S31500000010356B0000356B0000356B0000356B00005A
S31500000020000000000000000000000000356B00002A
S31500000030356B000000000000356B0000356B0000DA
S315000000405D490000CD480000ED490000354A00003A
S31500000050ED610000F93F00009D4000008141000075
S315000000606542000099540000995400006D5000004C
S31500000070FD4F0000E5500000255100009954000096
S31500000080A95A0000A95A0000000000000000000064
S31500000090000000000000000000000000000000005A
S315000000A0000000000000000000000000000000004A
S315000000B0000000000000000000000000000000003A
S315000000C0000000000000000000000000000000002A
S315000000D0000000000000000000000000000000001A
S315000000E0000000000000000000000000000000000A
S315000000F000000000000000000000000000000000FA
S3150000010000000000000000000000000000000000E9
S3150000011000000000000000000000000000000000D9
S3150000012000000000000000000000000000000000C9
S3150000013000000000000000000000000000000000B9
S3150000014000000000000000000000000000000000A9
S315000001500000000000000000000000000000000099
S315000001600000000000000000000000000000000089
S315000001700000000000000000000000000000000079
S315000001800000000000000000000000000000000069
S315000001900000000000000000000000000000000059
S315000001A00000000000000000000000000000000049
S315000001B00000000000000000000000000000000039
S315000001C0FFFFFFFFFFFFFFFFFFFFFFFFFFFFFFFF39
S315000001D0FFFFFFFFFFFFFFFFFFFFFFFFFFFFFFFF29
S315000001E0FFFFFFFFFFFFFFFFFFFFFFFFFFFFFFFF19
S315000001F0FFFFFFFFFFFFFFFFFFFFFFFFFFFFFFFF09
S3150000020010B5054C237833B9044B13B1044800E00C
S3150000021000BF0123237010BD280400200000000049
S3150000022010D4000008B5034B1BB10349034800E096
S3150000023000BF08BD000000002C04002010D4000000
S3150000024010B52DED028B84B048B9F2EE047AB4EE07
S31500000250E70AF1EE10FA3AD5B0EE678A0CE0B5EE91
S31500000260C00AF1EE10FA3BD4DFED1F7AB4EE670A4E
S31500000270F1EE10FA37FE808A1C4C00EB800004EB8E
S315000002808004E36801A9186805F0BEF9DDED037A7C
S31500000290DFED155AB8EE677A9FED156AC8EE257A36
S315000002A0DFED146A67EE867A77EEA67A67EE877ACE
S315000002B0FCEEE77AE36817EE901A227C186805F0E0
S315000002C0F7F984ED008A04B0BDEC028B10BDDFEDBA
S315000002D00A7AB4EE670AF1EE10FA37FE808ACBE7A7
S315000002E09FED068AC8E700BF000034438001002066
S315000002F0CDCCCC3DCDCCCC3C0000B44200000000BF
S3150000030038B5154BD3E90041204605F063FA20467F
S3150000031005F002F9114BD3E90041204605F05AFADF
S31500000320204605F0F9F80E4B0024D3E90051284683
S3150000033005F050FA284605F0EFF80A4D2B46204600
S31500000340013493ED000AE4B2FFF77AFF062C05F1BB
S315000003501405F3D138BD00BFD8C9000034CA000067
S3150000036090CA000080010020052815D8B5EEC00A05
S31500000370F1EE10FA11D4DFED0A7AB4EE670AF1EE67
S3150000038010FA37FE800A074B00EB800003EB800073
S3150000039080ED010AC0ED020A70479FED030AF2E7FD
S315000003A000008743800100200000000038B50024CB
S315000003B01B4D0AE037EE870A2046FFF741FF01345E
S315000003C0E4B2062C05F1140528D0D5ED007A95ED9A
S315000003D0010AF4EE407AF1EE10FAF0D095ED027AC9
S315000003E070EE676AB1EE476AB4EEE66AF1EE10FAAD
S315000003F004D5B4EEE67AF1EE10FADDDCF5EEC06A6D
S31500000400F1EE10FAD6DC2046013437EEC70AE4B224
S31500000410FFF716FF062C05F11405D6D138BD00BF2F
S31500000420800100202DE9F041204C2378002B3AD1A1
S315000004301F4FFD683E682B6830467968984718B1AB
S315000004400E2801D0BDE8F08130466B68B968984740
S315000004500028F7D1174B9F68D3E900813B684046D7
S31500000460984708B10E28EDD140467B699847002889
S31500000470E8D1114B9A68D3E900011268904708B198
S315000004800E28DFD10D4B9A68D3E900011268904718
S3150000049008B10E28D6D13046AB6898470028D1D18E
S315000004A001232370CEE70020BDE8F081440400203C
S315000004B020C9000084C80000D4CB000048CB00004F
S315000004C0002837D0F8B51D4B1B78002B34D00024FC
S315000004D001231B491B4A1C4D2C7088609068CB81F8
S315000004E0446810688B81A04718BB184B1F689E682C
S315000004F03846B36898473846F3689847C8B93846C7
S3150000050073689847A8B92B785BB94FF4FA7401E081
S31500000510013C06D001210A2006F0F0F92B78002BC9
S31500000520F6D03846B368984718B92B78002B08BF21
S315000005301420F8BD012070470720F8BD44040020B0
S3150000054018020020D4CB00006C04002048CB000029
S315000005500122014B1A7070476C04002024220021EE
S31500000560014806F0F4BC00BF480400203D4B2DEDC9
S31500000570048B1A780AB901221A7093ED015A9FED7D
S315000005803A6AD3ED056AD3ED027A25EE066ADFED07
S31500000590371A9FED377AB8EE001ADFED362A26EEC7
S315000005A0879A93ED062A9FED344A67EEA22A83EDD9
S315000005B0025AC3ED066A25EE215A66EE811A76EED8
S315000005C0006AD3ED075A27EE848A76EEE26ADFEDFB
S315000005D02B7A93ED080A25EE811AC3ED085A65EECB
S315000005E0A75A66EE847AD3ED034A9FED253A77EE55
S315000005F0857AD3ED040A24EE833A77EE887ADFED26
S31500000600213A77EE837A60EEA33AC3ED044A77EE99
S31500000610E37A74EEA44A34EEA77ADFED1B8A37EE4E
S31500000620207A62EE288A37EE097A37EE687ABDECD0
S31500000630048BC3ED037A71EE877A9FED146A77EE29
S31500000640827A20EE066A77EEA57A77EEC67A31EEE2
S31500000650271AC3ED016A31EE000A83ED057AC3ED70
S31500000660077A704748040020D94C0D3F3B77923BF0
S31500000670FD51BF3E30C81A3F3B77123B31F8933FDE
S31500000680EC405C3F3297223F27FF4F3F5BFD583FD0
S3150000069070B5104D2B780BB1002070BD0E4903F0DC
S315000006A0FF040E4B0C804FF4807221460C481C80D0
S315000006B006F04DFC0B4B0C489A680C4904605668D2
S315000006C0186801220C70B0470028E6D101232B7070
S315000006D070BD00BF78050020740400207A05002054
S315000006E078040020FCCB0000700400206D0400207C
S315000006F0F0B5064600283FD001293DD92A4A2B4CA1
S31500000700138820889BB280B298420CD0284F06E00E
S315000007100D2808D02088EBB280B2984203D0F85C4E
S315000007205D1C0A28F4D1208880B2984224D04FF06C
S31500000730010E1F4D701E0EF1FF3711E0B2F800C01A
S3150000074013881FFA8CFC15F80CC00133DBB2BCF120
S315000007500A0F13800CD0BCF10D0F14D071450DD8C3
S31500000760B2F800C023881FFA8CFC9BB29C45E5D1E9
S315000007700023F3550120F0BD0020F0BD00F801CFA5
S315000007800EF1010ED7E71188238889B29BB29942F0
S31500000790EED013889BB2EB5C0A2BE9D113880133A8
S315000007A0DBB21380E4E700BF7A0500207404002062
S315000007B078040020034A1368002BFCD00023136042
S315000007C0704700BF7C0500200379012B06D0022B61
S315000007D003D10122124B1A607047704710B4114BB7
S315000007E01148124C1978038822880133DBB292B281
S315000007F09342C9B203D122880132D2B22280028842
S315000008000B4C92B2A15401220A4903800A4C8B6810
S31500000810086822605B6803495DF8044B184700BF0F
S315000008207C0500206D040020740400207A05002059
S3150000083078040020FCCB00007004002010B50A4BA1
S3150000084082B0996801908C680122186801A9A047B6
S3150000085000B100BE054A1368002BFCD000230198A6
S31500000860136002B010BD00BFFCCB00007C05002069
S3150000087070B5161E07DD0C468D1914F9010BFFF72E
S31500000880DDFFA542F9D1304670BD00BF20B1037926
S31500000890012B04BF014A1370704700BF8805002072
S315000008A020B10379012B04BF014A1370704700BFC2
S315000008B08905002008B5064800F05EF938B9DFF86A
S315000008C020C0044A0449054BC1F800C01A6008BD9F
S315000008D02CC700000000FA3C80050020840500209B
S315000008E00000FA3D08B5064800F046F938B9DFF8C9
S315000008F020C0044A0449054BC1F800C01A6008BD6F
S3150000090020C700000000FA3C800500208405002076
S315000009100000FA3DF0B50026054687B00C4617469E
S315000009203A4804AB02AA0DF10601ADF8146002962E
S315000009300496ADF80660ADF80C6000F037FA45B3E2
S31500000940334BBDF90820D3ED005ABDF90A3006EE47
S31500000950902A07EE103ABDF90C30F8EEE66A07EE7B
S31500000960903AB8EEC77AF8EEE77A9FED2A6A27EE54
S31500000970257A66EEA56A67EEA57AC6EE865AC7EEB2
S31500000980066A87EE867AC5ED005AC5ED016A85EDE1
S31500000990027A44B3204BBDF91020D3ED005A06EE7F
S315000009A0902ABDF91430BDF9122007EE903A07EEF1
S315000009B0102AF8EEE66AB8EEC77AF8EEE77A9FED07
S315000009C0176A66EEA56A27EE257A67EEA57A66EEC1
S315000009D0866A27EE067A67EE867AC4ED006A84EDAB
S315000009E0017AC4ED027A7FB1BDF906309FED0C6A3B
S315000009F007EE103AB8EEC77AF3EE096AC7EE067A42
S31500000A0077EEA67AC7ED007A07B0F0BD2CC70000D6
S31500000A108005002000007A448405002035FA8E3CCB
S31500000A20E17A0443F0B50026054687B00C46174622
S31500000A303A4804AB02AA0DF10601ADF8146002961D
S31500000A400496ADF80660ADF80C6000F0AFF945B35A
S31500000A50334BBDF90820D3ED005ABDF90A3006EE36
S31500000A60902A07EE103ABDF90C30F8EEE66A07EE6A
S31500000A70903AB8EEC77AF8EEE77A9FED2A6A27EE43
S31500000A80257A66EEA56A67EEA57AC6EE865AC7EEA1
S31500000A90066A87EE867AC5ED005AC5ED016A85EDD0
S31500000AA0027A44B3204BBDF91020D3ED005A06EE6E
S31500000AB0902ABDF91430BDF9122007EE903A07EEE0
S31500000AC0102AF8EEE66AB8EEC77AF8EEE77A9FEDF6
S31500000AD0176A66EEA56A27EE257A67EEA57A66EEB0
S31500000AE0866A27EE067A67EE867AC4ED006A84ED9A
S31500000AF0017AC4ED027A7FB1BDF906309FED0C6A2A
S31500000B0007EE103AB8EEC77AF3EE096AC7EE067A30
S31500000B1077EEA67AC7ED007A07B0F0BD20C70000D1
S31500000B208005002000007A448405002035FA8E3CBA
S31500000B30E17A044370B5002504460726806882B032
S31500000B40057025682868AD680096ED68A84760B905
S31500000B50A1680B784BB9074B00E043B10A78013B1B
S31500000B60002AFAD0002B08BF142002B070BD142052
S31500000B70FBE700BFA0860100F0B503680546D3E990
S31500000B80011283B012681868904728B10E280446EF
S31500000B9002D0204603B0F0BD00227623A988824801
S31500000BA08DF800308DF80120ADF8042004F0F2FA3B
S31500000BB0694601AA02232846FFF7BCFF0446012224
S31500000BC0A988794804F0E6FA002CE2D1112301261F
S31500000BD02246A9887448ADF804408DF800308DF897
S31500000BE0016004F0D7FA694601AA02232846FFF7F6
S31500000BF0A1FF04463246A9886B4804F0CBFA002CC4
S31500000C00C7D14FF47A710A2005F078FEF5238DF8E6
S31500000C100030FF232246A9886348ADF804408DF8CA
S31500000C20013004F0B7FA694601AA02232846FFF705
S31500000C3081FF04463246A9885B4804F0ABFA002CD3
S31500000C40A7D19DF80530472B40F0AB8014238DF8D3
S31500000C50003003232246A9885348ADF804408DF896
S31500000C60013004F097FA694601AA02232846FFF7E5
S31500000C7061FF04463246A9884B4804F08BFA002CE3
S31500000C8087D164232246A98847488DF80140ADF8EC
S31500000C9004408DF8003004F07DFA694601AA02236B
S31500000CA02846FFF747FF04463246A9883E4804F027
S31500000CB071FA002C7FF46DAF65238DF800300823A0
S31500000CC02246A9883848ADF804408DF8013004F072
S31500000CD061FA694601AA02232846FFF72BFF04465C
S31500000CE03246A988304804F055FA002C7FF451AFFB
S31500000CF050234F272246A9882B48ADF804408DF88B
S31500000D0000308DF8017004F045FA694601AA022305
S31500000D102846FFF70FFF04463246A988224804F00A
S31500000D2039FA002C7FF435AF2F232246A9881E48B6
S31500000D30ADF804408DF801308DF8007004F02AFA01
S31500000D40694601AA02232846FFF7F4FE0446324606
S31500000D50A988154804F01EFA002C7FF41AAF4E231A
S31500000D608DF800300F232246A9880F48ADF80440BD
S31500000D708DF8013004F00EFA694601AA02232846CE
S31500000D80FFF7D8FE04463246A988074804F002FA5F
S31500000D90002C7FF4FEAE4FF47A710A2005F0AEFD0A
S31500000DA0F7E62224F5E600BF400800202DE9F041D1
S31500000DB0002407469D254FF0FF3C94B08DF8105057
S31500000DC088461546B9882246354807941E46CDF80A
S31500000DD011C0CDF815C0CDF819C0ADF81DC0CDE9CC
S31500000DE00C44CDE90844CDE90A44CDE90E44CDE9E9
S31500000DF01044CDE9124404F0CDF90F23384604A976
S31500000E000CAAFFF797FE0346B9881F46012224481D
S31500000E1004F0C0F987BB6B46DDF83920DDF83100F8
S31500000E20DDF8351007C3BDF83D201A80B8F1000F74
S31500000E3004D0BDF800305BBAA8F800305DB1BDF84B
S31500000E400430BDF802205BBA6B80BDF8063052BA9A
S31500000E505BBA2A80AB805EB1BDF80810BDF80A20E7
S31500000E60BDF80C3049BA52BA5BBA31807280B38091
S31500000E70384614B0BDE8F081B8F1000F01D0A8F8EB
S31500000E8000401DB100232B806B80AB80002EEFD07D
S31500000E900023384633807380B38014B0BDE8F081F8
S31500000EA04008002010B5FFF72BFA054BD3E90041A7
S31500000EB0204604F08FFC2046BDE8104004F02CBB11
S31500000EC0ECCA0000DFED957AB4EEE70AF1EE10FA0F
S31500000ED008B52DED048B00F107819FED917AB4EEF4
S31500000EE0C70AF1EE10FA00F3B08030EE270AF5EEED
S31500000EF0C00AF1EE10FA00F1B080DFED897A9FEDBD
S31500000F00877AF4EE670AF1EE10FAB4EEC71A77FEA6
S31500000F10A00AF1EE10FA00F1AA80DFED817AB4EEB4
S31500000F20E71AF1EE10FA00F3E780DFED7E7A77EE4E
S31500000F30C18A78EE878A9FED799AF4EEC91AF1EEA6
S31500000F4010FA00F19E80DFED767AF4EEE71AF1EE04
S31500000F5010FA03DC77EEE11A31EE899AB5EEC00A93
S31500000F60F1EE10FA00F19580DFED6D7AB4EE670AC6
S31500000F70F1EE10FA37FE800ADFED687AF4EEE70A42
S31500000F80F1EE10FA00F18F809FED657AF4EEC70A54
S31500000F90F1EE10FA00F3AB80DFED636AF4EEE60AD9
S31500000FA0F1EE10FA40F2928070EEE60ADFED5D6A2D
S31500000FB070EEA60A70EEA79AF4EEE79AF1EE10FA32
S31500000FC040F1A480B2EE048AF0EE679AF5EEC08A8C
S31500000FD0F1EE10FA70D4DFED527AF4EE678AF1EE94
S31500000FE010FAB5EEC09A77FEA88AF1EE10FA6AD426
S31500000FF0DFED4B7AB4EE679AF1EE10FA37FE899A76
S31500001000F6EE000A0520FFF7AFF9B0EE480AF6EE55
S31500001010000A0420FFF7A8F9B0EE690AF6EE000A06
S315000010200320FFF7A1F9B0EE680AF6EE000A0220E7
S31500001030FFF79AF9B0EE490ABDEC048BBDE808400B
S31500001040F6EE000A0120FFF78FB9F5EEC00AF1EEC1
S3150000105010FAB0EE470A7FF550AF9FED307AB4EE46
S31500001060C71AF1EE10FADFED2D0A7FF556AF9FEDA8
S315000010702B9AF4EEC91AF1EE10FADFED2A8A7FF503
S3150000108062AFB5EEC00AF1EE10FA9FED259A7FF534
S315000010906BAFDFED227AF4EEE70AF1EE10FA9FED80
S315000010A01F0A7FF571AF9FED1F8AF5EEC08AF1EE3C
S315000010B010FADFED1C9A8ED5B5EEC09AF1EE10FA55
S315000010C0DFED168A94D59FED159A99E7DFED159A0F
S315000010D079EEE00A30EEA78AB5EEC08AF1EE10FA94
S315000010E00DD5B0EE678A71E7B0EE670AFFE6B2EE9D
S315000010F0048AF0EE479A69E7DFED0C8A1BE7B4EE47
S31500001100478AF1EE10FA37FE088ACEE7F4EEC79A60
S31500001110F1EE10FAB2EE048AEBDC57E700000000AD
S31500001120000034430000B4420000A0420000B4C2F4
S31500001130A8B1C38801EE903A8388F8EE611A01EEF1
S31500001140103A4388B8EE411A00EE903A0388F8EE5A
S31500001150600A00EE103AB8EE400AFFF7B3BE7047D9
S31500001160FFF724B908B50A4BC3F8FC01C3F800120F
S3150000117093F804322BB94FF47A71642005F0BEFB64
S31500001180F9E70A460146034806F068FDF3E700BFA3
S315000011909005002038C70000274B30B493F8E011C3
S315000011A061B193F8E121254DD3F8D84105FB02F250
S315000011B0041B944226D3002283F8E02193F8DF2112
S315000011C09ABB93F8E2311D4C03FB044303F5F4216B
S315000011D001F59071B0FBF1FC01FB1C0083420BD9B9
S315000011E0174A8309A2FB03239B0904FB1300154A34
S315000011F090428CBF0022012230BC4FF4806112481D
S3150000120003F0C8BF0E4AA309A2FB03239B0905FBF3
S3150000121013440C4A4FF48061944288BF002230BCCC
S3150000122098BF0122084803F0B5BF012230BC4FF435
S315000012308061054803F0AEBF90050020400D030015
S31500001240632D3E059F860100400800200846FFF7F3
S31500001250A3BF00BF10B14368082B00D070470249F6
S31500001260A1F5F47001F02CBF7807002010B1436897
S31500001270092B00D070470249A1F5CC7001F020BFC0
S315000012807807002010B14368062B00D07047012272
S31500001290014B83F8DC217047900500202DE9F04FC3
S315000012A02DED028BA34B9BB0D3E90112186812688F
S315000012B0904708B10E2819D101239F4C84F80432B7
S315000012C0FFF7E6F918B101460A20FFF74BFF04F5D0
S315000012D0F476304601F0A0FE00F0E0F950B9FFF7D1
S315000012E0E9FA58B101460220FFF73CFF014601200A
S315000012F0FFF738FF01460B20FFF734FFFFF7F2FA3E
S3150000130060B98E4BD3E90051284604F01BF848B16A
S315000013100E2807D001460420FFF724FF01460320CC
S31500001320FFF720FF284604F04FF818B101460520C4
S31500001330FFF718FF824BD3E90051284604F002F864
S3150000134028B10E2803D001460620FFF70BFF2846DA
S3150000135004F03AF8054618B101460720FFF702FFE8
S31500001360754801F037FE774801F034FE764801F003
S315000013708FFE0146704800F0E7FD734801F088FED5
S31500001380FFF70AFF704A714B7149A2F5F470009499
S3150000139001F0E2FF6C4A6D4B6E490094A2F5CC70E9
S315000013A001F0DAFF6C4BA4F84850D3E900713846D7
S315000013B0A4F89850C4F8F85103F0C4FF28B10E28D9
S315000013C003D001460820FFF7CDFE384603F0FCFFA8
S315000013D018B101460920FFF7C5FE84F8DC019FED30
S315000013E05F8AFFF75FFDDFF868B1DFF84C910027F1
S315000013F009AB029307AB019305AB0093A36B594668
S315000014000593D4F888300EAA0693484611AB039686
S315000014108DED0E8A8DED0F8A8DED108A8DED118A78
S315000014208DED128A8DED138A8DED148A8DED158A58
S315000014308DED168A8DED178A8DED188A8DED198A38
S31500001440CDE90777CDE9097702F0B2FA0AAB029344
S3150000145008AB019306AB009305463E49394803960F
S3150000146017AB14AA02F0A4FA8046002D7AD1B8F17F
S31500001470000F00F0F4800023009317AB1A469DED91
S31500001480060A304814A902F0EFF82E4817AA14A944
S3150000149002F024FA0546002840F0E1802948089920
S315000014A001F036FE274817AA14A901F05DFE089F31
S315000014B0384600F005F994F8DC314BB10021D4F838
S315000014C0D031274AFB1A934284F8DC1100F282805D
S315000014D094F8DD31002B40F093804846394601F000
S315000014E021FD3846FFF758FE15B9B8F1000F6CD04C
S315000014F094F8DF31002B68D0D4F8F83123B144F6E4
S315000015001F62FB1A934260D9002348460BA9CDE916
S315000015100B33ADF8343001F011F800283FF467AF13
S3150000152048460BA901F0D0FC0BA8FFF701FEC4F852
S31500001530F8715CE7FCCB000090050020B0C8000005
S31500001540D0C80000E0050020780700204D120000FA
S3150000155015090000250A000090C8000000000000E0
S315000015608FD0030011AB1A469DED050A48460EA919
S31500001570009702F079F8484611AA0EA902F0AEF9D2
S31500001580824600287FF473AF4846079901F0C0FDF4
S31500001590484611AA0EA901F0E7FD079FB8F1000F12
S315000015A086D017AB1A469DED060A384814A9CDF821
S315000015B000A002F059F8354817AA14A902F08EF9CE
S315000015C00546002852D0D04672E70121C82005F012
S315000015D095F90CE74FF0010A2D480BAA8DF82CA0BF
S315000015E003F0C6FD00287FF473AF9DF82C30002B66
S315000015F07FF46EAFC4E9747784F8DDA184F8DE3138
S315000016004FF0010A002122480BAA8DF82CA003F006
S31500001610AFFDB8B99DF82C30A3B994F8DE31002B94
S315000016207FF45BAFD4F8D4211A49BA1A8A427FF6FE
S3150000163054AF3946484684F8DEA184F8DD3100F01F
S3150000164083FC4AE7002384F8DD3194F8DE31002B71
S315000016507FF443AF3946484600F09CFC3DE70E4810
S3150000166001F016FD00250746A84621E70748089918
S3150000167001F04EFD054817AA14A901F075FD089B57
S3150000168045469F4238BF1F4612E700BFE0050020CF
S31500001690400800207F841E007807002010B5074C04
S315000016A070220021204605F052FCFEF757FFFEF798
S315000016B0B9FE08B90123237010BD00BF98070020AA
S315000016C0002270B57F4C84B02378ADF80E2063B14C
S315000016D0636805465BB960600DF10E00FEF7F0FE2B
S315000016E0064648B105F5FA65656004B070BDC31AD3
S315000016F0002BF1DA04B070BDBDF80E3000EE103AE2
S31500001700B8EE400AFEF732FF94F82C3094ED0A7AD0
S3150000171003F10C0204EB8202D2ED006A37EE667A20
S31500001720F0EEC06ADFED687A37EE267A67EE277A42
S31500001730013303F00F0384F82C30A368BDF80E10B4
S315000017400133202B84ED040AC2ED006A84ED0A7A87
S31500001750C4ED057AA360A18115D8B3EE027AC4ED73
S31500001760087A77EE877A0023C4ED097A2677A36193
S31500001770636803F5FA63EA1A002A6360B5DB05F5C8
S31500001780FA656560B1E7D4ED086AF4EEE67AF1EE43
S3150000179010FA37EEE67A4CBF9FED4C6A9FED4C6A25
S315000017A0D4ED095A27EE067AF4EEE57A77EE266A44
S315000017B0F1EE10FAC4ED086AB3EE027A67DC36EE93
S315000017C0877A9FED445A37EE656A26EE056A36EE4D
S315000017D0256AB4EEC76AF1EE10FA5ABFB0EE467A41
S315000017E084ED096A84ED097AB3EE026A37EE667A09
S315000017F0B4EE467AF1EE10FA77EEE67A48BFB0EE2E
S31500001800467AC7EE876AF5EEC06AF1EE10FA18D48A
S31500001810B7EE007AF4EEC76AF1EE10FA40DCDFEDBF
S315000018202B7AF4EEE76AF1EE10FA0AD976EEE76A59
S315000018309FED296AC6EE867AF5EEC07AF1EE10FAC9
S3150000184035D5DFED267A94ED067AF5EE006A77EE69
S31500001850C77A67EEA67A77EE877AF5EEC07AF1EE6A
S3150000186010FA19D49FED1E7AF4EEC77AF1EE10FA4B
S3150000187019DCB6EE007A37EE877ABCEEC77A8DEDC4
S31500001880017A9DF80430C4ED067A237770E7B0EE4E
S31500001890676A36EE877A9CE70023DFED107AF2E777
S315000018A0DFED0F7ACFE76423F0EE477AEBE7F4EE4D
S315000018B0C77AF1EE10FAF3DC9FED097A67EE877AC4
S315000018C0C1E700BF980700200000803DCDCCCC3D8D
S315000018D06F12033B6F12833B6666663F0000000093
S315000018E00000C842014B187F704700BF98070020D0
S315000018F02DE9F0432DED028B002585B00DF104088E
S315000019000446174608466A464146B0EE408A1E46D9
S31500001910BDF93890019502950395009501F036F9C9
S3150000192020B3B3EE047ADDED007AF4EEC77AF1EE79
S3150000193010FA21D498E8070066700026231D277048
S3150000194088EE277A83E807000127304684ED087A77
S31500001950E5616562A4F82890A4F82A90E76284F805
S31500001960306005B0BDEC028BBDE8F083022005B007
S31500001970BDEC028BBDE8F083012005B0BDEC028B07
S31500001980BDE8F08330B52DED028B002300248DB029
S31500001990CDE9093308930194029403940B9300282C
S315000019A07ED00C46002900F090800DF1100C1546F3
S315000019B00FC88CE80F00604600F0A8FFDDED047A42
S315000019C0F5EEC07AF1EE10FA9DED056ADDED066AD8
S315000019D09DED077A68D4214601A88DED016ACDED0B
S315000019E0026A8DED037A00F007FFD4ED006A94EDEC
S315000019F0017AD4ED027A66EE806A27EE007A67EE07
S31500001A00807A049B08A8B0EE408ACDED096A8DED78
S31500001A100A7ACDED0B7A089300F078FFDDED086ABF
S31500001A20F5EEC06AF1EE10FADDED097A9DED0A7A5F
S31500001A309DED0B0A0FD5F1EE666AF1EE677AB1EE0F
S31500001A40477AB1EE400ACDED086ACDED097A8DED03
S31500001A500A7A8DED0B0A67EEA77A27EE077A20EE53
S31500001A60000A77EE877A77EE807AF5EE407AF1EE25
S31500001A7010FA2FD4B1EEE70ADDED080A0AF040FCB1
S31500001A809FED177A70EE007AB5EEC08A67EE877A18
S31500001A90F1EE10FA48BFF1EE677A0120C5ED007A43
S31500001AA00DB0BDEC028B30BDF1EE677AB1EE466A41
S31500001AB0F1EE666AB1EE477ACDED047A8DED056AF0
S31500001AC0CDED066A8DED077A85E708460DB0BDECCB
S31500001AD0028B30BDB0EE670A0AF014FCCCE700BFFB
S31500001AE0E12E654270B52DED068B4FF0000C8CB0E3
S31500001AF00C46694615461E46CDF800C0CDF804C012
S31500001B00CDF808C0CDF80CC0CDF810C0CDF814C083
S31500001B10CDF818C0CDF81CC0CDF820C0CDF824C033
S31500001B20CDF828C0CDF82CC001F0A6F828B90024BD
S31500001B3020460CB0BDEC068B70BD204603A901F013
S31500001B409BF80028F3D0284606A901F095F804462C
S31500001B500028ECD003A9084600F04EFE06A903A80B
S31500001B60F0EE408A00F048FE06A90846B0EE408A2C
S31500001B7000F042FE28EE087A68EE809A79EEC79A5F
S31500001B80DFED2D7AB0EEE97AB4EEE77AF1EE10FAEF
S31500001B90B0EE409ACBD9684603A900F02DFE684600
S31500001BA006A9B0EE40AA00F027FE29EE0A9A68EED2
S31500001BB0808A28EE0AAA28EE008A78EECA8A39EECA
S31500001BC0488A88EEA96AC8EE297ADDED036ADDED5A
S31500001BD0063A9DED047A9DED074ADDED052A9DED59
S31500001BE0083A66EE233A26EE044A67EEA66A27EE20
S31500001BF0877A26EE036A67EEA27ADDED004A9DED4E
S31500001C00015ADDED025A76EEA36A37EE047A77EED4
S31500001C10867A74EEE66A35EE477A75EEE77A09A8B3
S31500001C20CDED096A8DED0A7ACDED0B7A00F0C8FD8F
S31500001C3086ED000A7CE700BF17B7D13870B50646B7
S31500001C4090B00C4600F1A00100F0BCFE6D4606F116
S31500001C50B00106F150008DED000ACDED010A8DEDC3
S31500001C60021ACDED031A00F0ADFE28468DED040AEA
S31500001C70CDED050A8DED061ACDED071A00F00CFF25
S31500001C8004A908A88DED080ACDED090A8DED0A1AFA
S31500001C90CDED0B1A00F096FE95E80F008DED0C0ABF
S31500001CA0CDED0D0A8DED0E1ACDED0F1A84E80F005D
S31500001CB0103410AB13E90F0084E80F00012010B0B8
S31500001CC070BD00BFF0B50D462DED048B11468DB0ED
S31500001CD0064628461446D2ED008A1F4695ED008A30
S31500001CE000F08AFD28EE800A38EE408A2146284612
S31500001CF095ED019AD4ED019A8DED008A00F07CFDF8
S31500001D0029EE800A39EE409A2846214695ED028A48
S31500001D10D4ED028A8DED019A00F06EFD28EE800A60
S31500001D2038EE408A68468DED028A00F09FFD28B99C
S31500001D30002528460DB0BDEC048BF0BD2946304683
S31500001D4000F0D4FE214603A8CDED040A8DED051A58
S31500001D50D4ED008AB0EE408A8DED030A00F04CFD0A
S31500001D6028EE800A38EE408A214603A8D4ED019A6F
S31500001D709DED049A8DED068A00F03EFD29EE800A5F
S31500001D8039EE409A214603A8D4ED028A9DED058AD4
S31500001D908DED079A00F030FD28EE800A38EE408A75
S31500001DA006A88DED088A00F061FD05460028BFD023
S31500001DB0684606A900F038FD204609A9CDED0A0AB5
S31500001DC08DED0B1A8DED090A00F016FD684606A981
S31500001DD0B0EE408A00F010FDB7EE001AFFEE000AE2
S31500001DE000F084FDF0EE400AB0EE480A0AF088FAE8
S31500001DF0DFED057A284620EE270A87ED000A0DB0AA
S31500001E00BDEC048BF0BD00BFE12E654290F82C308E
S31500001E1084468BB103788BB1012B0DD101F11000F3
S31500001E209CF801302BB1012B06D10CF10401FFF710
S31500001E30A9BD9CF82E301BB9002070470846EFE775
S31500001E4013460CF110010CF10402FFF73BBF00BF73
S31500001E5070B590F82C50C5B390F82F3004460E4656
S31500001E60ABBB012294F82D3084ED090A84F82F20AB
S31500001E704BB1D4ED077A9FED2E7A30EE670A20EE4D
S31500001E80070A37EE800AB4F9283084ED070A07EE10
S31500001E90903AF8EEE77A37EE800AB8FE400A012358
S31500001EA0FDEEC07A94F8302084F82D3017EE903A83
S31500001EB02AB1B4F92A20991A0131022936D91AB25F
S31500001EC06285012284F830203360284670BD90ED8B
S31500001ED0097ADFED187A30EE470AB4EEE70AF1EE3A
S31500001EE010FA08DD9FED147A30EE470AB4EEE70AE1
S31500001EF0F1EE10FAF8DCDFED117AB4EEE70AF1EE56
S31500001F0010FA08D59FED0C7A30EE070AB4EEE70A10
S31500001F10F1EE10FAF8D49FED0A1ADFED0A0A00F086
S31500001F20E5FCD4ED097A30EE270A9AE71346C7E7AF
S31500001F30CDCC4C3E000034430000B443000034C313
S31500001F409A9919409A9919C038B5044600F1A00328
S31500001F500D464FF4A2720021184604F0F8FF00F077
S31500001F6027FD04F1B00000F023FD002240F201112C
S31500001F70A5F57433903BA4F8E01184F8E2212046DD
S31500001F80C4F8D031C4F8D851C4F8F821BDE83840B7
S31500001F9000F030BF2DE9F04F2DED0E8B90F8DF31BC
S31500001FA004460D4690F8E2719DB013B1062F00F07D
S31500001FB0B0810DF1500820220021404604F0C7FFF1
S31500001FC0236CB3B1D4F890309BB117B34146204689
S31500001FD0FFF734FE002800F0B08194F8E2717B1E12
S31500001FE0032B00F29E82DFE813F06601790064009D
S31500001FF05100032140F201433A462046C4F8D85125
S31500002000A4F8E0311DB0BDEC0E8BBDE8F04F00F03A
S3150000201017BF204600F040FD04F1500084ED280A69
S31500002020C4ED290A84ED2A1AC4ED2B1A00F034FDFA
S3150000203084ED2C0AC4ED2D0A84ED2E1AC4ED2F1A58
S3150000204094F8E26184F82C7184F8607184F89471D4
S3150000205084F8C87184F8DF71C4F8F87140F201237E
S3150000206031462046C4F8D851A4F8E03100F0D6FE37
S31500002070042E00F038812046013684F8E2611DB056
S31500002080BDEC0E8BBDE8F04F00F0B4BE01235A2222
S3150000209018AF394600929FEDAD0A1A4604F5CE7088
S315000020A0FFF726FC0146002800F05A8194F8E271F9
S315000020B0A0E7002318AE31469FEDA40A012204F5DD
S315000020C0B4700093FFF714FC01460028EED196E8A1
S315000020D00F0004F1E00787E80F0001E15A22002310
S315000020E0414600929FED970A1A4604F59A70FFF74B
S315000020F0FFFB01460028D9D14FF0FF3304F1D0068B
S31500002100D4ED41CA94ED42CAD4ED43BA94ED4EBA29
S31500002110D4ED4FAA94ED50AA0290049603939FED36
S315000021208AEA98E80F00DFED89DA86E80F009FED6E
S3150000213085DA3E46DFED868A4FF0FF37A0460DF181
S3150000214038090DF12C0B0DF1440A07EE907AF8EEE2
S31500002150E77A4FF0FF346CEEA79A2CEE279A2BEE17
S31500002160A78A07EE904AF8EEE77A6BEE276A2AEE20
S31500002170A77A6AEE277A58464946CDED0B9A8DED39
S315000021800C9A8DED0D8ACDED0E6A8DED0F7ACDEDA3
S31500002190107A00F049FB5046CDED098ACDED0A8A4A
S315000021A08DED110ACDED120A8DED131A023400F0F1
S315000021B05DFB002871D05A46514609AB08F1C000B4
S315000021C0FFF780FD002868D04A46514604980AABBE
S315000021D0FFF778FD039000285FD09DED097AF3EEB6
S315000021E0047AF0EEC76AF4EEE76AF1EE10FA54D418
S315000021F09DED0A6AF0EEC66AF4EEE76AF1EE10FAB1
S3150000220008F58272134608F58872059208F59C72E5
S31500002210069208F5A27207923FD47DEEC77A7DEE4C
S31500002220466AF0EEE77AF0EEE66A029A77EEA67A6A
S3150000223022B1F4EECE7AF1EE10FA2CD59BE8070027
S315000022404FF0000CCDEE876A4FF0010E8DEE067A48
S31500002250B0EE67EA83E807009AE80700059B83E883
S31500002260070099E80700069BC8ED486A88F82DC163
S31500002270A8F82EE188F830C183E807009AE807003D
S31500002280079B83E8070088ED557AA8F862E188F88D
S3150000229061C188F864C1039B0293032C7FF461AF8C
S315000022A00237032F7FF451AF029B4446C3B9314630
S315000022B098F8E2719EE600235A22414600929FED6D
S315000022C0230A1A4604F58070FFF712FB0146002820
S315000022D07FF4ECAE98E80F0004F1C00686E80F0024
S315000022E094F8E261BAE694F82C31CBB194F86031F7
S315000022F0B3B194F894319BB194F8C83183B10121FC
S3150000230006220023204684F8DF1184F8E221C4F86F
S31500002310F8311DB0BDEC0E8BBDE8F04F00F0AABD44
S31500002320002304220221204684F8DF311DB0BDECD3
S315000023300E8BBDE8F04F00F083BD032194F8E271E7
S3150000234058E600BF0000B4C2286B6E4E0000B442CF
S3150000235000000000C2B8323D14AE873FD7A3703FDD
S315000023604FF0FF3B04F1F009D4ED5BCA94ED5CCA73
S31500002370D4ED5DBA94ED68BAD4ED69AA94ED6AAA73
S31500002380064697E80F00D84689E80F00CB465FED72
S3150000239012DA1FED12DA5FED128AA9460DF1440A30
S315000023A007EE908AF8EEE77A4FF0FF356CEEA79AC3
S315000023B02CEE279A2BEEA78A07EE905AF8EEE77ACC
S315000023C06BEE276A2AEEA77A6AEE277A5046CDED9B
S315000023D00E9A8DED0F9A8DED108ACDED0A8ACDED10
S315000023E00B8ACDED116A8DED127ACDED137A0EAF13
S315000023F0023500F03BFA002866D03A4651460AAB51
S3150000240004F1E000FFF75EFC00285DD05146584617
S315000024100BAAFFF7B7FA0346002855D09DED0A7AB6
S31500002420F3EE047AF0EEC76AF4EEE76AF1EE10FA1C
S315000024304AD49DED0B6AF0EEC66AF4EEE76AF1EE59
S3150000244010FA04F5D072029204F5D67204F5B67E3F
S3150000245004F5BC7C039237D47DEE477A7DEE466A5E
S31500002460F0EEE77AF0EEE66A77EEA67A26B1F4EEBB
S31500002470ED7AF1EE10FA26D597E8070000268EE8E9
S3150000248007009AE80700CDEE076A8CE807004FF0D0
S31500002490010C8DEE067A029FC4ED626A84F895619E
S315000024A0A4F896C184F8986187E80700039FF0EEC8
S315000024B067DA87E8070084ED6F7AA4F8CAC184F862
S315000024C0C96184F8CC611E46032D7FF475AF08F10F
S315000024D00208B8F1030F7FF463AF4D46EEB11FED6E
S315000024E0631A5FED630A1FED630A4FF4C873C822CF
S315000024F00D49204600F0FCFF9FED0C1ADFED0C0A9B
S315000025009FED0C0A4FF4C873C8220B4904F1500022
S3150000251000F0EEFF94F8E261A0E5022194F8E27182
S3150000252068E5022166E500BF15090000C2B8323D24
S3150000253014AE873FD7A3703F250A00002DE9F04768
S315000025400E4692B00446202200210AA804F0FFFCA1
S315000025509EB194F8DF3183B194F82C316BB194F8C5
S31500002560603153B194F894313BB194F8C83123B13A
S31500002570236C13B1D4F8903023B90025284612B045
S31500002580BDE8F08720460AA9FFF758FB0546002854
S31500002590F3D0002304F5807738460AA904AA0493E9
S315000025A005930693079308930993FFF72FFC0028DA
S315000025B040F0A88004F5B47840460AA906AAFFF7B9
S315000025C025FC00287DD00AA907AA04F5CE70FFF7DE
S315000025D01DFC002875D009AB04F1F00204F1E001FE
S315000025E00EA8FFF77FFA4FF0010A002869D0F3EE34
S315000025F0097A9DED097AB4EEE77AF1EE10FACCBFCE
S315000026004FF001094FF00009BAF1000F5BD194EDCC
S31500002610480ADDED047A3846694620EE270AFFF7B8
S3150000262017FC0028A9D094ED550ADDED057A01A91D
S3150000263020EE270A04F59A70FFF70AFC00289CD0C2
S31500002640B9F1000F40F08A8094ED620ADDED067A5A
S31500002650404620EE270A02A9FFF7FAFB00288CD095
S3150000266094ED6F0ADDED077A03A920EE270A04F53B
S31500002670CE70FFF7EDFB00283FF47FAFDDE90232B5
S315000026800098B42B0199A8BFB423B428A8BFB420DE
S31500002690B42AA8BFB422B429A8BFB42123EAE3739D
S315000026A020EAE07022EAE27221EAE171B38030802A
S315000026B07180F280FFF716F96428A8BF6420307293
S315000026C05CE74FF0010994F82C31002B3FF455AF2D
S315000026D0B4F92831B4F92A2194F83011002918BF29
S315000026E01346009394F86031002B3FF446AFB4F9DB
S315000026F05C31B4F95E2194F86411002918BF1346C1
S3150000270001939DE70AA905AA04F59A70FFF77EFBD7
S3150000271000283FF44FAF0AA808AB04F1D00204F139
S31500002720C001FFF7DFF900283FF444AFF3EE097A62
S315000027309DED087AB4EEE77AF1EE10FA04F5B47876
S3150000274040460AA906AACCBF4FF0010A4FF0000A7C
S31500002750FFF75CFB08BB4FF0010955E794F894318D
S31500002760002B3FF40AAFB4F99221B4F9903194F8F2
S315000027709811002918BF134694F8C8210293002A1D
S315000027803FF4FBAEB4F9C421B4F9C61194F8CC01F8
S31500002790002818BF0A46039272E70AA907AA04F599
S315000027A0CE70FFF733FB0028D5D009AB04F1F00259
S315000027B004F1E0010EA8FFF795F90028CBD016E743
S315000027C090ED000AD0ED017A90ED027A20EE000A33
S315000027D067EEA77A27EE077A70EE277A77EE877A82
S315000027E0F5EE407AF1EE10FA02D4B1EEE70A704740
S315000027F0B0EE670A09F086BDD0ED007AD1ED005A39
S3150000280090ED017A91ED016A90ED020AD1ED026A2E
S3150000281067EEA57A27EE067A20EE260A77EE877A05
S3150000282037EE800A704700BFD0ED017A91ED027A4B
S31500002830D0ED020A91ED011AD1ED006A90ED006A21
S3150000284060EE815A27EE870A60EEA60A27EE067A20
S3150000285021EE061A67EEA67A30EE650A70EEC70A12
S3150000286031EE671A88B008B0704700BFA8B3D0ED44
S31500002870007A90ED010A90ED027A67EEA77A20EED3
S31500002880000A27EE077A37EE800A30EE070AB5EE21
S31500002890400AF1EE10FA10B5044620D4F1EEC07AE3
S315000028A09FED117AF4EEC77AF1EE10FA13D9D4ED52
S315000028B0006A94ED017AD4ED025A86EEA76AC7EE55
S315000028C0276A85EEA77A012084ED006AC4ED016AC5
S315000028D084ED027A10BD002010BD0020704709F07B
S315000028E011FDF0EE407ADBE717B7D138B4EEE00A17
S315000028F0F1EE10FA06D4B4EEC10AF1EE10FA31FE8A
S31500002900000A7047B0EE600A704700BFD0ED007A4B
S3150000291090ED010AD0ED026A67EEA77A20EE000A72
S3150000292090ED037A66EEA66A37EE800A27EE077AFE
S3150000293030EE260A30EE070AB5EE400AF1EE10FA3E
S3150000294000B583B02CD4F1EEC07AF5EEC07AF1EE84
S3150000295010FA4FF000031AD990ED006AD0ED016A23
S3150000296090ED027A90ED035AC6EE275A86EEA76AD4
S31500002970C7EE276A85EE277AC0ED005A80ED016A18
S31500002980C0ED026A80ED037A03B05DF804FB4FF0F8
S315000029907E5243608360C360026003B05DF804FB4F
S315000029A0019009F0AFFC0198F0EE407ACDE700BF48
S315000029B030B100234FF07E52436002608360C360F3
S315000029C0704700BF0346D1ED004AD3ED007A93ED80
S315000029D0013AD1ED015A91ED025A91ED034A10B533
S315000029E0D3ED032A2DED028BD3ED023A24EE830AB2
S315000029F063EE040A23EE258A27EEA46A23EE053A3F
S31500002A0067EEA56A27EE857A67EE847A23EE851A45
S31500002A1064EEA31A22EE842A77EE837A23EE844AA2
S31500002A2076EE806A65EEA33A37EE607A36EE486A4D
S31500002A3025EE225A65EEA25A64EEA24A77EEE37AB2
S31500002A4036EE416A76EE846A37EE217A77EEA47A1C
S31500002A5036EE426A76EEC56A37EE257A8CB004AC5D
S31500002A602046CDED077A8DED046ACDED056A8DED34
S31500002A70067AFFF74BFF94E80F000CAC04E90F0051
S31500002A80DDED090A9DED0A1ADDED0B1A9DED080A2A
S31500002A900CB0BDEC028B10BD0346D3ED016A93ED7D
S31500002AA0027AD3ED037AF1EE666AB1EE477AF1EE79
S31500002AB0677A10B58CB004AC1B6820460493CDED44
S31500002AC0056A8DED067ACDED077AFFF71FFF94E8CC
S31500002AD00F000CAC04E90F00DDED090A9DED0A1AA2
S31500002AE0DDED0B1A9DED080A0CB010BDD0ED015AB4
S31500002AF0D0ED027A90ED035A91ED024AD1ED013AFA
S31500002B0091ED000A25EE233A25EE846A67EE806A87
S31500002B1027EE847A65EE000A65EEA34A37EE437A1D
S31500002B2074EEE64A70EEC60A90ED001A27EE873A72
S31500002B3031EE011A65EE076A25EEA06A25EE205AE7
S31500002B4067EEA47A65EEA45A21EE077A61EE200AB2
S31500002B5036EE436A21EE241A77EEC57A76EEE56AFA
S31500002B6037EE000A70EEA30A31EE041A36EE066A54
S31500002B7077EEA77A76EEA66A36EE011A37EE800A67
S31500002B8076EEA00A88B008B0704700BF002867D06C
S31500002B9030B52DED048B0C4685B000295BD015466B
S31500002BA0002A58D00FC8EC468CE80F006046FFF7A5
S31500002BB0ADFEDDED007AF5EEC07AF1EE10FA9DED90
S31500002BC0019ADDED028A9DED038A0FD5F1EE677A53
S31500002BD0B1EE499AF1EE688AB1EE488ACDED007AF7
S31500002BE08DED019ACDED028A8DED038A29EE090A53
S31500002BF068EEA86A68EE087A30EE260A70EE277A42
S31500002C00F5EE407AF1EE10FA2CD4B1EEE70ADFEDDC
S31500002C10187AB4EEE70AF1EE10FA1CD9C8EE007A7B
S31500002C20C9EE006A88EE807AC4ED027ADDED000A0C
S31500002C30C4ED006A84ED017A09F062FBDFED0D7ADE
S31500002C4030EE000A012020EE270A85ED000A05B0C5
S31500002C50BDEC048B30BD002005B0BDEC048B30BD4F
S31500002C6000207047B0EE670A09F04CFBCFE700BFC3
S31500002C7017B7D138E12E6542002871D010B52DED79
S31500002C80048B0C4686B0002965D00FC80DF1080CE0
S31500002C908CE80F006046FFF739FEDDED027AF5EEAF
S31500002CA0C07AF1EE10FADDED038A9DED048A9DED02
S31500002CB0059A3FD428EEA87A68EE087A29EE090A22
S31500002CC077EE277A37EE800AB5EE400AF1EE10FA73
S31500002CD047D4F1EEC09ADFED267AF4EEE79AF1EEEC
S31500002CE010FA08D80023012023606360A36006B0B1
S31500002CF0BDEC048B10BDDDED020AB0EE690A09F0E9
S31500002D00FFFADFED1C7A30EE000A20EE270AC0EE4D
S31500002D10297A012067EEA88A27EE888A67EE897AE3
S31500002D20C4ED008A84ED018AC4ED027A06B0BDECDA
S31500002D30048B10BDF1EE677AF1EE688AB1EE488A2F
S31500002D40B1EE499ACDED027ACDED038A8DED048A76
S31500002D508DED059AAEE7084606B0BDEC048B10BDB6
S31500002D60704709F0CFFA8DED010AF0EE409AB2E70E
S31500002D7017B7D138E12E654210B5044604F0EAFFD4
S31500002D8038B1064B02469868214684681868A04701
S31500002D9000B110BDBDE81040FDF70CBDFCCB000036
S31500002DA00EB4002130B59AB01D9D04465C2203A8DE
S31500002DB0029104F0CCF84DB11EAB2A46602102A860
S31500002DC0019305F0A5FE01385E2804D91AB0BDE8C6
S31500002DD0304003B07047002CF8D094F80432002B32
S31500002DE0F4D002A8FFF7C8FF1AB0BDE8304003B020
S31500002DF0704700BF90F8E231062B98BF044903F1F3
S31500002E00010294BF51F82330024B0349FFF7C8BFB4
S31500002E1058C800005CC7000064C70000062998BFB8
S31500002E20044B01F1010294BF53F82130024B0349D0
S31500002E30FFF7B6BF58C800005CC7000078C700009F
S31500002E401346032996BF064A064A52F82120062B46
S31500002E5096BF0549054B51F823300549FFF7A0BF3A
S31500002E6074C8000088C7000058C800005CC700008E
S31500002E708CC7000028B190F8043213B10148FFF75F
S31500002E807BBF70479CC7000090F8DF316BB990F8A4
S31500002E90E231062B98BF084903F1010294BF51F8AD
S31500002EA02330064B0649FFF77BBF90F8043213B177
S31500002EB00448FFF761BF704758C800005CC70000B0
S31500002EC0C0C70000A8C70000002310B58CB0CDE92C
S31500002ED00433CDE90633CDE90833CDE90A3389B1A8
S31500002EE00A7ACB8804468888CDE902324A880B885C
S31500002EF0CDE9002020210A4A04A804F0CDFE431E95
S31500002F001E2B01D90CB010BD002CFBD094F8043256
S31500002F10002BF7D004A8FFF72FFF0CB010BD00BFA1
S31500002F20D4C7000000232DE9F04190B004460D46B9
S31500002F303C22194601A8234E234FDFF894800093C4
S31500002F4004F005F840216846FDF7D2FB68B39DF909
S31500002F500030002BF6D06A46DBB2A3F161011929D5
S31500002F609CBF203B137012F9013F002BF4D1314670
S31500002F70684604F0E5FED8B13946684604F0E0FE3E
S31500002F80B0B14146684604F0DBFEB0B168460F4971
S31500002F9004F0D6FE0028D5D12046FFF775FF402164
S31500002FA06846FDF7A5FB0028D1D110B0BDE8F08139
S31500002FB029462046FEF7C8FFC4E729462046FEF705
S31500002FC0E9FFBFE7ECC70000F8C7000010C8000023
S31500002FD004C80000E0B110B50446FFF7E9FC002381
S31500002FE00022236162646361A361E3612362636219
S31500002FF0A362E36223636363A363E3632264A4F8C7
S315000030004820A4F84A20A4F84C2084F84E2010BD8D
S31500003010704700BFFFFFFFFF38B3002170B4164CA6
S31500003020164BD4F8FC20164E42F08072C4F8FC20F1
S3150000303059601A68134D42F001021A604160326A03
S315000030402B68C2F3026293400F4CD340A3429FED1C
S31500003050087B70BC94BF01230C4A80ED027B84BFC1
S31500003060A2FB03239B0C036070477047AFF30080FD
S31500003070000000000000000000ED00E0001000E08D
S3150000308000E00140900B00203F420F0083DE1B430F
S3150000309090B10A4A38B5D0E90241556843680268DA
S315000030A0EB1A1C1941F10001C0E901540023C1606B
S315000030B0204603F0A9FD38BD704700BF001000E0B0
S315000030C018B310B5044689B1104B48685B688A6826
S315000030D04B60181ACB68801843F10003C1E902035C
S315000030E00A681946002303F08FFD01464FF6FF726A
S315000030F06164B4F848309BB2934205D0B4F84830C6
S3150000310001339BB2A4F8483010BD7047001000E0B0
S31500003110036C9BB1CB1A07EE903ADFED0F6AF8EE1F
S31500003120677A9FED0E7A87EEA60AB4EEC70AF1EE2D
S3150000313010FA07D5B0EE470A016470479FED080AFA
S3150000314001647047DFED077AB4EE670AF1EE10FA14
S31500003150016437FE800A7047002474496F12033AEF
S315000031606F12033B0AD7233C38B504462DED068B78
S3150000317008460D46B0EE408AD2ED008A92ED019ADD
S31500003180D2ED029AFFF71CFBDFED707AB4EEE70A88
S31500003190F1EE10FA52DA94ED014A94ED035AD4EDA9
S315000031A0003AD4ED024A29EE843A29EEA37A64EE77
S315000031B0685A29EE242A28EEA36A69EEA42A69EE43
S315000031C0236A69EE047A76EEC36A69EE859A29EE79
S315000031D0059A28EE853A77EE277A68EEA48AB6EE47
S315000031E0000A75EEC25A36EE226A28EE000A36EE5C
S315000031F0496A75EEE95A36EE837A77EEE87ABDECDF
S31500003200068B66EE006A65EE805A27EE007A67EE58
S31500003210807A35EEA36A76EE846A37EE247A77EE04
S31500003220857A204684ED006AC4ED016A84ED027A4F
S31500003230C4ED037ABDE83840FFF768BBDFED447A9A
S31500003240B4EEE70AF1EE10FA94ED014A76D8D4ED21
S31500003250003A94ED035AD4ED024A64EE047A63EE22
S31500003260A31A95ED006AD5ED016A95ED02AA71EEF5
S31500003270E71A24EE053A63EEA47A86EE007A33EE78
S31500003280673A86EE806A64EE237ACAEE006A25EE15
S31500003290240A77EE807A24EEA40A33EE033A71EE1E
S315000032A0C01A77EEA77A25EE050A71EE801A26EE89
S315000032B0A70A66EE836A67EE277A26EE033ADFED03
S315000032C0255A77EEC37A27EE217A26EE216A36EE64
S315000032D0C77A67EEA56AD4ED0C0A36EE406A66EE4A
S315000032E0886A76EEA00A66EE256A67EE255AB0EE83
S315000032F0041A94ED0A2AD4ED0B2A66EE886A65EE66
S31500003300885A36EE822A75EEA25A67EE817A26EE42
S31500003310016A27EE017A77EEA07A36EE026A37EE78
S31500003320257AC4ED0C0A79EEA79A84ED0A2AC4ED33
S315000033300B5A78EE868A39EE079A34E794ED035AEB
S31500003340D4ED003AD4ED024A2DE700BF3333333FC4
S315000033506666A63F0AD7A33D2DE9F04F2DED088BF3
S31500003360DFED5F8A4FF000089FED5E9A9FED5EBA33
S315000033704FF4FA67F0EE689A05468A46164699466D
S31500003380B0EE68AAF0EE68AAB0EE688A89B0DDF8F9
S3150000339068B08DED028A8DED038A8DED048A8DED80
S315000033A0058A8DED068A8DED078A8DED018AB9F1C4
S315000033B0000F7AD0002E7ED04C4B70685B68F168A7
S315000033C0181A7360B3683268C01841F1000100230F
S315000033D0B060F16003F018FC01465846C847B5F8DE
S315000033E048309BB26BB9142401E0013C09D04FF47C
S315000033F07A71012003F082FAB5F848309BB2002BAF
S31500003400F3D0EFF31083012282F310880022A5F88F
S31500003410482083F3108801AA05A902A8D04702A86C
S31500003420FFF7CEF9B4EEC90AF1EE10FA16D4B4EEEF
S31500003430CB0AF1EE10FA11DC9DED056ADDED066AA8
S315000034409DED077ADDED017A78EE868A3AEE26AAB8
S3150000345079EE879A7AEEA7AA08F10108013F2CD0E7
S31500003460B8F57A7F95D107EE908AF8EEE77A40F2C2
S3150000347001138AEEA77AC8EEA75A8AEE276AC9EE22
S31500003480A76A404685ED0D7AC5ED045A85ED056AB5
S31500003490C5ED066A85ED0E7A85ED0F7AA5F84C30F6
S315000034A009B0BDEC088BBDE8F08FB5F848309BB28B
S315000034B0002B98D0A5E731468FE7B8F1000FD2D19F
S315000034C000234046A5F84C802B616B61AB616B63B2
S315000034D0AB63EB6309B0BDEC088BBDE8F08F00BFB2
S315000034E0000000009A99593F3333933F001000E0E3
S315000034F02DE9F04F2DED0A8B89B0002800F0AA8047
S315000035008846002900F0A6809146002A00F0A28095
S315000035109A46002B00F09E809FED52AA0027F0EEFF
S3150000352060AAB0EE409A0546F0EE419A4FF0010BC4
S31500003530B0EE4ABAF0EE4ABAB0EE4ACAB0EE4A8ADD
S315000035403E46B5F848308DED028A9BB28DED038A72
S315000035508DED048A8DED058A8DED068A8DED078A3F
S315000035608DED018A6BB9142401E0013C09D04FF4BA
S315000035707A71012003F0C2F9B5F848309BB2002BEE
S31500003580F3D0EFF310838BF310880022A5F84820C0
S3150000359083F3108801AA05A902A8C04702A8FFF76D
S315000035A00FF9F0EE408A05A8FFF70AF9F4EEC98A8A
S315000035B0F1EE10FA06F101061AD4F4EEEA8AF1EEFB
S315000035C010FA15DCB4EEE90AF1EE10FA10DC9DED06
S315000035D0056ADDED066A9DED077ADDED017A3AEEC4
S315000035E006AA7BEEA6BA3BEE07BA3CEE27CA01371F
S315000035F0B2452DD0B945A4D807EE907AF8EE677A91
S31500003600002200238CEE277A40F20111CAEE275AD7
S315000036108BEEA76ACBEE276A384685ED0D7AC5EDA7
S31500003620045A85ED056AC5ED066A85ED0E7A85EDC7
S315000036300F7AAA62EA622A632B64A5F84A30A5F8D3
S315000036404C1085F84E3009B0BDEC0A8BBDE8F08F02
S31500003650002FD1D10027384609B0BDEC0A8BBDE852
S31500003660F08F00BF00000000F8B52DED068B0C9F13
S31500003670002800F0D0801646002A00F0CC801D46B7
S31500003680002B00F0C88090F84D30F0EE408A0446DA
S3150000369080ED0E0A002B00F0C18090ED0F7A9FEDB1
S315000036A0870A78EEC77A67EE807A77EE878A94F88B
S315000036B04C30C0ED0F8A002B00F0BA80D4ED0D7AA5
S315000036C0D4ED079A94ED089A94ED098A78EEE7AA64
S315000036D0D4ED045A94ED056A94ED060A6AEEA99AA9
S315000036E02AEE899A2AEE888AD6ED006A96ED017A44
S315000036F0D6ED027A79EEA59A39EE069A38EE008A68
S3150000370076EEE96A37EE497A77EEC87AC5ED006A51
S3150000371085ED017AC5ED027A002975D00846FFF7D6
S315000037204FF82846B0EE40AAFFF74AF8DFED647A74
S31500003730B4EEE7AAF1EE10FA66DBDFED627AB4EEDC
S31500003740E7AAF1EE10FA5FD8DFED5F7AB4EEE70A8A
S31500003750F1EE10FA58D8B0EEEA7ADFED5C7AB4EE04
S31500003760E77AF1EE10FA6BDAD4ED0D7AD5ED009A20
S3150000377095ED019AD5ED026A9FED555A38EEE77A36
S31500003780D4ED045A94ED056A94ED068A69EE859A9D
S3150000379029EE059A66EE856A27EE057A79EEA55A30
S315000037A039EE066A76EE886A37EE277A94ED090ACC
S315000037B0C4ED045A84ED056AC4ED066A84ED0D7AFB
S315000037C0D4ED079A94ED089A78EEC77A67EEA99A2F
S315000037D027EE899A67EE807AD6ED004A96ED015A71
S315000037E096ED027A39EE069A37EEA68A79EEA59A12
S315000037F075EE496A34EEE96A77EE487A85ED006A35
S31500003800C5ED016AC5ED027A2FB1C7ED009A87EDC5
S31500003810019A87ED028ABDEC068BF8BD012380F87C
S315000038204D3094F84C3080ED0F0A002B7FF446AFF4
S315000038300123C4ED0D8AF0EE687A84F84C303FE738
S315000038409FED237AD5ED007A87EE2A8A94ED070A52
S3150000385068EE277A9FED1F1ADFED1F0A37EE800A02
S31500003860FFF744F8D5ED017A94ED087A68EE277AE9
S315000038709FED181ADFED180A84ED070A37EE870A5E
S31500003880FFF734F895ED027AD4ED097A28EE078A27
S3150000389084ED080A9FED0F1ADFED0F0A38EE270AAE
S315000038A0FFF724F894ED0D7AD4ED045A94ED056AE9
S315000038B0D4ED066A84ED090A82E700BFCDCCCC3D83
S315000038C09A99593F3333933F35FA8E3DCDCC4C3FD1
S315000038D00AD7A33C35FA8E3B35FA8EBB002859D061
S315000038E0002957D038B51446002A4AD0054608465E
S315000038F0FEF766FFD4ED007AD4ED016AF0EEE77AC2
S31500003900F0EEE66AF4EE667A94ED027AF1EE10FADB
S31500003910B0EEC77A48BFF0EE667A9FED216AB4EE44
S31500003920677AF1EE10FAB4EEC60A77FE277AF1EE60
S3150000393010FA28DB9FED1B7AB4EEC70AF1EE10FAF7
S3150000394021D895F84E0030B19FED177AF4EEC77A7C
S31500003950F1EE10FA20DA9FED157AF4EEC77AF1EE61
S3150000396010FA10D8B5F84A301D2B04D901230020CF
S3150000397085F84E3038BD01339BB21E2BA5F84A3070
S31500003980F4D0002038BD00231846A5F84A3085F843
S315000039904E3038BD002070471E23A5F84A3038BD8A
S315000039A01F856B3F713D8A3FC2B8323F5077563D07
S315000039B0F8B5079E0F461946EFF31083012484F3EA
S315000039C010884FF0000CB0F84840456CA4B2A0F83F
S315000039D048C083F310884CB11046069AB84706B122
S315000039E03560089B012003B11C60F8BD2046F8BD78
S315000039F008B5FDF753FCFEE7022800D070470249E0
S31500003A00024801F095BC00BF3CCC000040080020F5
S31500003A1008B5FFF7EDFF002008BD00BF8446002073
S31500003A20CCE90A32CCF82410704700BF0022436864
S31500003A3010B502605A69044622B1936810681B6A81
S31500003A40984763681A6922B1936810681B6A984799
S31500003A50636893F90220002A0EDB012124485309EA
S31500003A6002F01F02203301FA02F240F82320BFF3CE
S31500003A704F8FBFF36F8F636893F90120002A0EDB27
S31500003A8001211B48530902F01F02203301FA02F2FA
S31500003A9040F82320BFF34F8FBFF36F8F6368012277
S31500003AA093F903301248590903F01F03203102FA33
S31500003AB003F340F82130BFF34F8FBFF36F8F636876
S31500003AC093F90430590903F01F039A4001F12003CA
S31500003AD040F82320BFF34F8FBFF36F8F0020A368FA
S31500003AE01A786FF386121A70DA78D87010BD00BF94
S31500003AF000E100E030B5836A85B004468C4601AD2E
S31500003B00ABB193E8070085E80700626818461178AC
S31500003B1083F804C0E26A19609A60636A9847A36AE8
S31500003B201BB195E8070083E8070005B030BD2B46BA
S31500003B30EBE700BFF8B586681D4633789DF818C0D8
S31500003B4013F0400340F08280C0E903120F4641683B
S31500003B5080F820C00446C0E90533C5614869F0B164
S31500003B60BCF10F0FA5615DD9022643681968CB78B1
S31500003B7066F30513CB7002268B7866F383038B708E
S31500003B80ABB2CB818A60002A6ED0836800685B681E
S31500003B909847002845D1616894F820C0A6680B694B
S31500003BA003B3BCF10F0F656146D902205A6811684C
S31500003BB0CA7860F30512CA700220CA78ADB260F303
S31500003BC08302CD81CA704F60002F54D032789D6831
S31500003BD06FF3451218686B683270984708BBA66881
S31500003BE094F820C0F27A338ABCF10F0FD2B29BB29E
S31500003BF02ED90CF1010C22F040024FEA9C0CACF1DC
S31500003C00050C42F02002002023F4706343EA0C2CDA
S31500003C101FFA8CFCF272A6F810C0337843F06003EA
S31500003C203370F8BDBCF1070F1AD841680968CE7821
S31500003C3063F30516CE709EE7BCF1070F12D85A68DB
S31500003C401168CA786FF30512CA70B5E70820F8BD87
S31500003C50BCF1070F94BF42F0400202F09F02D2E788
S31500003C60012682E70120A1E78B7862F383038B703C
S31500003C70044B8B6089E7D2B267F38302CA70024AAB
S31500003C804A60A3E7B4090020B809002010B594469D
S31500003C908E461C4682B00021724663460094FFF7AA
S31500003CA049FF02B010BD00BF10B594461C4682B055
S31500003CB0002263460094FFF73DFF02B010BD00BF2F
S31500003CC010B49DF8044001945DF8044BFFF732BF31
S31500003CD02DE9F04F044608780F6900F5800303F5D7
S31500003CE08D531B020D4685B003F10408002F00F02A
S31500003CF023814FF00062796838680B681A60C3F850
S31500003D000880BB681B6898470646002840F010816B
S31500003D106B6973B1D3E901124FF4002618680B687A
S31500003D2012681E60C3F8048090470646002840F0DB
S31500003D304B81287800F5800303F58D531B0200267E
S31500003D40AA6965606262EA69A360E262A6626F7A46
S31500003D50002F40F00881B82108264FF0100E6B7B2B
S31500003D6095F80BC02A6A1B03AD7A43EA4C032B4332
S31500003D701578002D40F0FE80012505FA00F0800739
S31500003D8040F02A8192F801C0D5784FEA4C1646EAEF
S31500003D904C0621EACC11314390781679A84023F0DD
S31500003DA070032D0101911EB1022E14BF202630266C
S31500003DB092F805C0BCF1000F06D0BCF1010F14BF8C
S31500003DC04EF0010E4EF0030E92F808C00CF0030CF4
S31500003DD045EA8C052B4395790295002F40F0C68065
S31500003DE0917A92F80980D77A43F460430391EFF30E
S31500003DF0108A012585F310886168DFF8F89191F83B
S31500003E0000C0D9F804B0CCF1130C05FA0CFC2BEA6F
S31500003E100C0CC9F804C0D9F804C08AF310884FF016
S31500003E20000C4FF010091FFA83FB9DF80410A368DD
S31500003E305FFA80FAD878606883F803C0197083F84F
S31500003E4001A09E70D2795FFA8EFE9A72039A83F869
S31500003E500C805A73029A9F7383F80FE0A3F810B090
S31500003E6083F8202083F8219090F90230634580F290
S31500003E7084805C4A90F90130002B26DB417903F1FE
S31500003E8060400901C9B200F5614080F80013564947
S31500003E9003F1C00042F8234051F820506FF310455B
S31500003EA041F8205051F82010BFF35F8F01205909C7
S31500003EB0890003F01F0301F1604101F5614100FA39
S31500003EC003F3C1F880310B606068017A90F9043021
S31500003ED046480901444DC618C9B286F8001303F1D5
S31500003EE0C00142F8234055F821606FF3104645F8AB
S31500003EF0216055F82110BFF35F8F012103F01F05E4
S31500003F005B099B0003F1604303F56143A940C3F8D5
S31500003F10801119600026636893F90310DB79084461
S31500003F201B01DBB280F80033314B42F8214023609D
S31500003F30304605B0BDE8F08F4A69002A3FF4FFAE6F
S31500003F404FF4002051680B681860C3F8048093682A
S31500003F5010681B689847064600283FF4EAAE3046CC
S31500003F6005B0BDE8F08FB021B646F8E60027B846A2
S31500003F7003973CE746F0B10104E7817903F160401D
S31500003F800901184AC9B200F5614080F800131649C4
S31500003F9003F1C00042F8234051F820606CF310464C
S31500003FA041F8206051F82010BFF35F8F03F01F0126
S31500003FB05B099B0003F160438D4003F56143C3F841
S31500003FC080511D60606855E7BB6838681B6A984772
S31500003FD0304605B0BDE8F08F002F7FF4D3AE43F036
S31500003FE08003CFE6040A00200060004000E100E004
S31500003FF0495053520040084010B4EFF30383103B7E
S31500004000234A5BB203F1C00152F821006FF310405E
S3150000401042F8210052F821201E4A52F82330D3E9F3
S3150000402006218A421DD0186948B393F820C0BCF116
S315000040300F0F0BD99968496840F82210D9690132E7
S315000040408A429A610DD05DF8044B7047BCF1070FA8
S3150000405018D8996809798154D96901328A429A61D6
S31500004060F1D15B6893F90330012203F01F000A497E
S315000040705B09824041F823205DF8044B704798683D
S315000040804068DCE79C68B4F804C020F812C0D6E7A4
S3150000409000600040040A002000E100E010B5EFF3E4
S315000040A00383103B33495BB203F1C00251F822008F
S315000040B06FF3104041F8220051F822202E4A52F8A0
S315000040C023305C68226A82B392F801C0D869BCF1D9
S315000040D0010F5A6918D0904210D0D96841B393F8AD
S315000040E020000F280BD8072898BF895C98688ABFDC
S315000040F031F812100171818001325A6110BD986841
S3150000410051F822104160F7E700F1FF3E724512D0E8
S3150000411021690029DFD094F90310184801F01F0225
S315000041200CFA02F2490940F821205A69D869D2E707
S3150000413098684160E0E794F9030000F1C00251F885
S3150000414022406FF3104441F8224051F82220BFF379
S315000041505F8F4209920000F01F0002F160420CFAE4
S3150000416000F002F56142C2F8800110605A69D86910
S31500004170B1E700BF00600040040A002000E100E053
S31500004180EFF30383103B344A5BB203F1C00152F8EC
S3150000419021006FF3104042F8210052F821202F4AE7
S315000041A052F823008268D278920704D54268527A80
S315000041B0012A00D07047012230B45909284C03F077
S315000041C01F03203102FA03F344F82130BFF34F8F67
S315000041D0BFF36F8F436893F90230002B32DB590926
S315000041E003F01F0302FA03F3203144F82130BFF332
S315000041F04F8FBFF36F8FD0E90114237891F9021026
S315000042006FF386130029237018DB134B01F1C004EA
S3150000421053F824506FF3104543F8245053F82430D4
S31500004220BFF35F8F4B099B0001F01F0103F1604351
S315000042308A4003F56143C3F880211A60012130BC2E
S31500004240FFF758BC8268012130BC13786FF38613E0
S315000042501370FFF74FBC00BF00600040040A002047
S3150000426000E100E070B5EFF30384354B103C64B217
S3150000427053F82460736893F90230002B48DB012061
S3150000428030495A0903F01F03203200FA03F341F8BC
S315000042902230BFF34F8FBFF36F8FD6E9013293F908
S315000042A002301178002B6FF38611117019DB264A44
S315000042B003F1C00152F821506FF3104542F8215026
S315000042C052F82120BFF35F8F03F01F025B099B00AA
S315000042D003F16043904003F56143C3F88001186021
S315000042E0B2680021D378D1701A07DDB223D4EB0768
S315000042F014D405F01405142D18D0134BC03453F8FC
S3150000430024206FF3104243F8242053F8243070BD64
S31500004310B26813786FF386131370E2E70421304610
S3150000432005F01405FFF7E6FB142DE6D1082130460B
S31500004330FFF7E0FBE1E705213046FFF7DBFBD6E7B9
S31500004340040A002000E100E00060004010B40024F0
S315000043500122036A44609C70C3692D4993F90530B4
S315000043604FEA531C03F01F0302FA03F30CF1200C6F
S3150000437041F82C30BFF34F8FBFF36F8FC36993F9AA
S315000043800B304FEA531C03F01F0302FA03F30CF140
S31500004390200C41F82C30BFF34F8FBFF36F8FC369EA
S315000043A093F907304FEA531C03F01F0302FA03F395
S315000043B00CF1200C41F82C30BFF34F8FBFF36F8FF9
S315000043C0C36993F909304FEA531C03F01F0302FA3D
S315000043D003F30CF1200C41F82C30BFF34F8FBFF3E1
S315000043E06F8FEFF3108182F31088C369094A93F83F
S315000043F000C04FF00043506823FA0CF303435360A8
S31500004400536881F3108820465DF8044B704700BF5F
S3150000441000E100E00040084003460020C3E9051221
S31500004420704700BF10B4046AA37803F07B03A3703F
S31500004430837803F00303D21A0B440261A278C360A7
S31500004440837842F0800203F00303022BA27005D0AA
S315000044500B780020E3705DF8044B70470B88002052
S3150000446043F47E43E3815DF8044B704784460020A5
S31500004470CCE90A32CCF82410704700BF70B58646E6
S315000044800024DEF820304D7893F802C00A780CF04C
S315000044900B069E70CEF80C4020468C7802F05C022B
S315000044A05C7093F800E00CF07B0C65F3010E83F86A
S315000044B000E0C9789974D97901F0A3010A43DA7149
S315000044C083F802C070BD00BF4FF0FF330020C1E982
S315000044D0003370478B0711D5002210B4046AC90750
S315000044E0A37803F07B03A3701346026102D5002272
S315000044F01346826118465DF8044B7047CA074FF0B1
S31500004500060302D50022134682611846704700BF93
S315000045100346002210B49C6910460C605DF8044BFB
S315000045209A617047F0B5846A85B005460F46944691
S315000045306E46B4B194E80F0086E80F00EB6920469A
S315000045401B7884F804C02360EB6AC4E902736B6AC3
S315000045509847AC6A1CB196E80F0084E80F0005B0D6
S31500004560F0BD3446EAE700BF0022F0B501240B781F
S31500004570027003F5800303F58C531B0203624B693B
S315000045808D6943628378C16164F301038262C56207
S3150000459083704B7823B90222837862F30103837018
S315000045A0012491F90B50C44A6B0905F01F0720330B
S315000045B004FA07F78E7A42F82370BFF34F8FBFF3E2
S315000045C06F8FBE4B05F1C00753F827C06FF3104C31
S315000045D043F827C053F82770B94F360102EB050C94
S315000045E0F6B28CF8006347F8250091F905500E796C
S315000045F04FEA551C05F01F0E0CF1200C04FA0EFEB6
S3150000460042F82CE0BFF34F8FBFF36F8F05F1C00C5C
S3150000461053F82CE06FF3104E43F82CE053F82CC0FF
S31500004620360102EB050CF6B28CF8006347F825005C
S3150000463091F907508E794FEA551C05F01F0E0CF1C3
S31500004640200C04FA0EFE42F82CE0BFF34F8FBFF3A6
S315000046506F8F05F1C00C53F82CE06FF3104E43F842
S315000046602CE053F82CC0360102EB050CF6B28CF8A0
S31500004670006347F8250091F909500E7A4FEA551C58
S3150000468005F01F0E0CF1200C04FA0EFE42F82CE089
S31500004690BFF34F8FBFF36F8F05F1C00C53F82CE0BB
S315000046A06FF3104E43F82CE053F82C303301DBB295
S315000046B02A4482F8003347F82500EFF3108584F387
S315000046C010884FF000447F4B0E785A68F44022EA77
S315000046D004025A605B6885F31088002240F2F934C0
S315000046E0036A40F2F9359A701A715A729A72DA723E
S315000046F05A830A7824FA02F2D60744BF4022DA74B3
S315000047000622CC691A770A784E78D540ED078F785D
S31500004710CA7848BF4FF478414FEAC20248BF99822F
S31500004720032E42EA071200F0C280002E14BFF221C7
S31500004730E221D2B21A709971227B082A0EBF0A2290
S31500004740520002F002025A736278A178D20149013E
S3150000475001F02001D2B20A430021197294F800C078
S31500004760ACF10201012940F29880D2B2DA71626896
S31500004770917855785970197865F301011970D178D7
S3150000478012789974D97902F05C0201F0A3010A4308
S31500004790DA710022C16902618261C260426191F9E7
S315000047A00550464B05F1C00153F8216062F31046EF
S315000047B043F8216053F82110BFF35F8F0126690982
S315000047C0890005F01F0501F1604101F5614106FA16
S315000047D005F5C1F880510D60C16991F90B5005F1DD
S315000047E0C00153F8217062F3104743F8217053F863
S315000047F02110BFF35F8F6909890005F01F0501F1DC
S31500004800604106FA05F501F56141C1F880510D6078
S31500004810C16991F907E00EF1C00153F8215062F326
S31500004820104543F8215053F82110BFF35F8F4FEA2C
S315000048305E1189000EF01F0E01F1604106FA0EF5B9
S3150000484001F56141C1F880510D60C16991F9091006
S3150000485001F1C00553F8257062F3104743F825703F
S3150000486053F82530BFF35F8F4B099B0001F01F0102
S3150000487003F160438E4003F56143C3F880611E6017
S31500004880036A0CF0030C4CF0700C618983F802C0CB
S315000048900D4B018143601046F0BDFF21BCF1020FB4
S315000048A008BF42F01002D2B25970DA7171E7F221F4
S315000048B042F040023DE700BF00E100E0006000403A
S315000048C0040A0020004008405549435330B4EFF332
S315000048D00383103B1F4A5BB203F1C00152F821006B
S315000048E06FF3104042F8210052F821201A4A52F87C
S315000048F02300C3691B691BB103691BB130BC704738
S3150000490003697BB9D0E908240021937803F07F037B
S3150000491043F004039370C160002CEFD030BC8022BA
S31500004920FFF700BE827802F003010229C1680BD0AE
S31500004930046A91F800C084F803C002F003029B1ACF
S315000049400A44C0E90323D8E70C88056A44F47E4488
S31500004950EC81F2E700600040040A002010B582B046
S31500004960EFF30383103B1F4A5BB203F1C00152F819
S3150000497021006FF3104042F8210052F821201A4A14
S3150000498052F82340A27802F00303022B236A0CBFDD
S31500004990198A5979A3690CBFC1F30801C9B20191FB
S315000049A043B9636AB3B10422204602B0BDE81040A1
S315000049B0FFF7B8BD02F0030201A9606902F0BAFA76
S315000049C0D4E90521A37803F003031A44C91AC4E9FC
S315000049D0052109B102B010BD636A002BFAD001228D
S315000049E0E2E700BF00600040040A002010B5EFF3C4
S315000049F003830E4A103B5CB252F82400D0E908212A
S31500004A00937803F07B03937019B102220021FFF71C
S31500004A1089FD074A04F1C00352F823106FF31041D1
S31500004A2042F8231052F8233010BD00BF040A0020BC
S31500004A300060004010B5EFF303831A4A103B5CB2E6
S31500004A4052F82400837803F00303022B036A0CBF99
S31500004A50198A597993F804C00CBFC1F30801C9B289
S31500004A601CF0100F0CF0380206D093F81CC01CF096
S31500004A70010F08BF42F0400293F804C00CF0C70CC7
S31500004A8083F804C0436A0BB1FFF74CFD064A04F1F4
S31500004A90C00352F823106FF3104142F8231052F866
S31500004AA0233010BD040A0020006000408446002028
S31500004AB0CCE90932CCF82010704700BF4FF0000C4B
S31500004AC0012210B58368044683F802C043682E4964
S31500004AD093F90230580903F01F0302FA03F320305A
S31500004AE041F82030BFF34F8FBFF36F8F636893F9A0
S31500004AF00130580903F01F0302FA03F3203041F88E
S31500004B002030BFF34F8FBFF36F8F636893F9043084
S31500004B10580903F01F0302FA03F3203041F820304E
S31500004B20BFF34F8FBFF36F8F636893F90330580954
S31500004B3003F01F0302FA03F3203041F82030BFF3DD
S31500004B404F8FBFF36F8FEFF3108182F310884FF012
S31500004B50004360680D4A0078C340506803435360C1
S31500004B60536881F3108863685A6922B193681068A4
S31500004B701B6A984763681B691BB19A681868136AB1
S31500004B8098470020206010BD00E100E0004008408A
S31500004B9030B5436A85B004468C4601ADABB193E8A7
S31500004BA0070085E8070062681846117883F804C094
S31500004BB0A26A19609A60236A9847636A1BB195E8EE
S31500004BC0070083E8070005B030BD2B46EBE700BFC2
S31500004BD02DE9F04F00220C460B78896903F5800316
S31500004BE003F58C530162E169426262691B02054664
S31500004BF0C0E9014385B08162002A00F03C814FF490
S31500004C0000265168053308684360936806601B6890
S31500004C10106898470646002840F0298122697AB133
S31500004C20AB684FF000665168033308688360936889
S31500004C3006601B68106898470646002840F02181E8
S31500004C406B68D3F820C09CF902109CF802E000299A
S31500004C50597AB2BF042000204FF0FF0E012918BF79
S31500004C604FF00008997A9CF8012006BF4FF0020821
S31500004C700526464602F00302012942F08002D97A4F
S31500004C80019000F00981012914BF46F0800646F024
S31500004C90C006597B002914BFE221EA210391EFF3F4
S31500004CA01087012080F310884FF0004193F80090A0
S31500004CB07C4B21FA09F9596821EA090159605B68B8
S31500004CC087F31088D3B21F46F3B202930023AA6873
S31500004CD04FF0840A937092F804904FF6000982F818
S31500004CE004A0A2F814901770039F82F802809771AF
S31500004CF09CF800C0019F82F801C082F812E0D771CB
S31500004D00029F4FF0020B57734FF040071372537216
S31500004D109372D3725383D77482F81CB094F805C08B
S31500004D2094F90120604E614F4FEA0C1C604906EB76
S31500004D30020E5FFA8CFC8EF800C302F1C00C47F835
S31500004D40225051F82CE063F3104E41F82CE051F854
S31500004D502CC0BFF35F8F4FEA521C0CFA0BFC02F01B
S31500004D601F020CF1604C00FA02F20CF5614CCCF813
S31500004D708021CCF8002094F806C094F902204FEA6E
S31500004D800C1C06EB020E5FFA8CFC8EF800C302F1D7
S31500004D90C00C47F8225051F82CE063F3104E41F84E
S31500004DA02CE051F82CC0BFF35F8F4FEA521C0CFA6F
S31500004DB00BFC02F01F020CF1604C00FA02F20CF53B
S31500004DC0614CCCF88021CCF8002094F807C094F907
S31500004DD003204FEA0C1C06EB020E5FFA8CFC8EF8E1
S31500004DE000C302F1C00C47F8225051F82CE063F3DF
S31500004DF0104E41F82CE051F82CC0BFF35F8F4FEAFC
S31500004E00521C0CFA0BFC02F01F020CF1604C00FA6B
S31500004E1002F20CF5614CCCF88021CCF8002094F815
S31500004E2008C094F904204FEA0C141644E4B286F83C
S31500004E30004302F1C00447F8225051F8246063F39E
S31500004E40104641F8246051F82410BFF35F8F02F03A
S31500004E501F01520902FA0BF202F16042884002F584
S31500004E606142C2F8800110601E46124B2B6030462C
S31500004E7005B0BDE8F08F2269002A7FF4D2AE234642
S31500004E80DFE66369002BF2D09A681868136A9847C0
S31500004E90304605B0BDE8F08F00297FF4FAAE46F043
S31500004EA04006F6E60040084000E100E0040A002063
S31500004EB0006000405349435370B51D4683689B7894
S31500004EC013F0300334D1C0E9053343681646C0E910
S31500004ED003121A690446C56192B1536845611B689D
S31500004EE0A8B2D88131B302205960D97860F3830122
S31500004EF0D9701946936810685B689847B8B96368B3
S31500004F00596951B14EB18B680868324600219E68D6
S31500004F10A561ABB2B04750B96368206988B118691A
S31500004F20A8B10020A268937843F0F003937070BD97
S31500004F30082070BDD87861F383002849D87059607D
S31500004F40D7E7A268937843F0A003937070BD5A69BF
S31500004F50A168002A14BFF02570258A7842EA050266
S31500004F608A70E4D1012193F901301D485A0903F0F2
S31500004F701F03203201FA03F340F82230BFF34F8FAC
S31500004F80BFF36F8F6369E269934206D2D4E90201E7
S31500004F9001B3C95CC170013363616368597A012941
S31500004FA00BD093F90130012203F01F000C495B0975
S31500004FB0824041F82320002070BD012AF1D96169A1
S31500004FC08A42EED9D4E9020232B1525CC270013192
S31500004FD06161E6E7C170DEE7C270F8E7BC09002050
S31500004FE000E100E08C46134600216246FFF764BFED
S31500004FF013460022FFF760BFFFF75EBF10B4EFF362
S315000050000383103B174A5BB203F1C00152F821003B
S315000050106FF3104042F8210052F82120124A52F84C
S3150000502023305A69D9698A4206D2D868B0B1805C01
S315000050309C68E07001325A618A4202D05DF8044BE6
S3150000504070471A69002AF9D19A685DF8044B93787B
S3150000505003F07B0343F00403937070479C68E07091
S31500005060E8E700BF00600040040A002010B4EFF338
S315000050700383103B194A5BB203F1C00152F82100C9
S315000050806FF3104042F8210052F82120144A52F8DA
S3150000509023305A69D9698A4206D2D3E90240D0B18F
S315000050A0805CE07001325A619A698A4207D2986838
S315000050B019694079541C9C618854D3E906219142B0
S315000050C006D19A68937803F03B0343F00403937088
S315000050D05DF8044B7047E070E4E700BF00600040F5
S315000050E0040A002010B5EFF303830C4A103B5CB2B0
S315000050F052F8240001218268937803F00303937029
S31500005100FFF746FD064A04F1C00352F823106FF379
S31500005110104142F8231052F8233010BD040A002033
S315000051200060004010B5EFF303834FF0840C0E4A85
S31500005130103B5CB252F82400042183689A7802F08E
S3150000514003029A701A7983F804C0FFF721FD074A13
S3150000515004F1C00352F823106FF3104142F82310F4
S3150000516052F8233010BD00BF040A00200060004042
S315000051700B0A10B41B01064C53FA81F154F8213086
S315000051800020C3F340035DF8044B1370704700BF63
S31500005190000808400123C8B283404AB91A040B0A22
S315000051A05B0103F1804303F5002300209A607047FA
S315000051B09AB2F4E72DE9F84F0388002B3DD0074655
S315000051C04FF00008DFF8A4A040F202427B684FEAE5
S315000051D0C80559198988002491424FF00109224EC9
S315000051E009D00134032C23D07B6836F8022B5919D9
S315000051F089889142F5D15B5909FA04F203F0B85354
S31500005200B3F1807F5FFA82FB19D09AF8BB341A4259
S31500005210E7D0012001F042FC9AF8BB34012023EAD2
S315000052200B0B8AF8BBB4013401F008FC032CDBD16C
S315000052303B8808F101084345C6D8BDE8F88F9AF8BF
S31500005240BB2409FA04F313425FFA83FBC9D1012098
S3150000525001F024FC9AF8BB3401204BEA030B8AF8D0
S31500005260BBB401F0EBFBBCE712CE000000E001404E
S31500005270F8B50446FFF79EFFEFF31082012383F390
S315000052801088284E33681BB92749CB704023CB7052
S3150000529033680133336082F3108823887BB36268F6
S315000052A003F1FF3E1FFA8EFE02F108011F4C01EBCF
S315000052B0CE0E08E0D2B21B0113448E450A4644F8CE
S315000052C023001CD008311068928810F4803F4FEA02
S315000052D01223EFD0130AD2B202EB031C54F82C703F
S315000052E01B01134420F480356FF310478E4544F8B4
S315000052F02C700A4644F82C5044F82300E2D1EFF310
S315000053001082012383F31088336813B13368013B9D
S31500005310336033681BB980200349CB70C87082F3B1
S315000053201088F8BD000A0020000D0840000808405B
S3150000533008B5034B03600846FFF79AFF002008BD37
S3150000534054524F50F0B50346002591F902C01B4C4C
S315000053504FEA8C0202F1804280F804C002F5C04296
S31500005360D1E90270D2F80063C2F80053C3E90270B3
S3150000537091F800E0BCF1000F83F805E004F80E5048
S315000053800D79C87840EA05104D7940EAC510C0B2DB
S3150000539004F80E00C2F800630BDB4A7808481201D5
S315000053A00CF16041D2B201F5614181F8002340F869
S315000053B02C30044A00201A60F0BD00BF0060004097
S315000053C0040A00205543490090F904200E4B02F1CF
S315000053D0C00153F821006FF3104043F8210053F841
S315000053E02130BFF35F8F012153099B0002F01F029A
S315000053F003F1604303F5614301FA02F2C3F8802129
S315000054001A600020704700BF00600040012110B400
S3150000541090F90430084C5A0903F01F0301FA03F30C
S31500005420203244F82230BFF34F8FBFF36F8F002036
S315000054305DF8044B704700BF00E100E00346002022
S31500005440C3E90212704700BF90F90430002B1ADB43
S31500005450012110B45A090E4C03F01F03203201FA41
S3150000546003F344F82230BFF34F8FBFF36F8F002151
S31500005470084B90F904205DF8044B43F822100023F2
S31500005480036018467047002303601846704700BF44
S3150000549000E100E0040A002010B582B0EFF30384B7
S315000054A0184B103C64B253F82410174A4879135C21
S315000054B003F00303032B11D0C03452F824306FF3EA
S315000054C0104342F8243052F824308B6823B1CA685E
S315000054D0CDE900206846984702B010BD8B6823B11D
S315000054E0CA68CDE9002068469847074BC03453F890
S315000054F024206FF3104243F8242053F8243002B0DE
S3150000550010BD00BF040A00200060004003460020D2
