S01000007261366D355F64732E7372656333
S31500000000D0320020ED0F0000190E0000E90F0000AD
S31500000010E90F0000E90F0000E90F0000E90F0000FA
S31500000020000000000000000000000000E90F0000D2
S31500000030E90F000000000000E90F0000E90F0000D2
S315000000402D0900009D080000BD090000050A0000FA
S31500000050000000000000000000000000000000009A
S31500000060000000000000000000000000000000008A
S31500000070000000000000000000000000000000007A
S31500000080000000000000000000000000000000006A
S31500000090000000000000000000000000000000005A
S315000000A0000000000000000000000000000000004A
S315000000B0000000000000000000000000000000003A
S315000000C0000000000000000000000000000000002A
S315000000D0000000000000000000000000000000001A
S315000000E0000000000000000000000000000000000A
S315000000F000000000000000000000000000000000FA
S3150000010000000000000000000000000000000000E9
S3150000011000000000000000000000000000000000D9
S3150000012000000000000000000000000000000000C9
S3150000013000000000000000000000000000000000B9
S3150000014000000000000000000000000000000000A9
S315000001500000000000000000000000000000000099
S315000001600000000000000000000000000000000089
S315000001700000000000000000000000000000000079
S315000001800000000000000000000000000000000069
S315000001900000000000000000000000000000000059
S315000001A00000000000000000000000000000000049
S315000001B00000000000000000000000000000000039
S315000001C0FFFFFFFFFFFFFFFFFFFFFFFFFFFFFFFF39
S315000001D0FFFFFFFFFFFFFFFFFFFFFFFFFFFFFFFF29
S315000001E0FFFFFFFFFFFFFFFFFFFFFFFFFFFFFFFF19
S315000001F0FFFFFFFFFFFFFFFFFFFFFFFFFFFFFFFF09
S3150000020010B5054C237833B9044B13B1044800E00C
S3150000021000BF0123237010BD9000002000000000E5
S31500000220F822000008B5034B1BB10349034800E060
S3150000023000BF08BD0000000094000020F822000066
S3150000024008B5044BD3E9011218681268904700B14B
S3150000025000BE08BD042100000379012B05D0022B46
S3150000026005D10122024B1A607047024A136070479B
S31500000270B0000020AC00002010B50A4B82B099688F
S3150000028001908C680122186801A9A04700B100BE40
S31500000290054A1368002BFCD000230198136002B0B6
S315000002A010BD00BF04210000B000002070B5161E6E
S315000002B007DD0C468D1914F9010BFFF7DDFFA5428A
S315000002C0F9D1304670BD00BF38B5FFF7B9FF00B1B0
S315000002D000BE064D064C2946204600F00BFF4FF4A3
S315000002E07A71084600F064FDF5E700BFE4200000DF
S315000002F000210000FFF7E8BF022800D0704702493E
S31500000300024800F079BC00BF44210000B400002080
S3150000031008B5FFF7EFFF002008BD00BF10B40024AA
S315000003200122036A44609C70C3692D4993F9053024
S315000003304FEA531C03F01F0302FA03F30CF1200CDF
S3150000034041F82C30BFF34F8FBFF36F8FC36993F91A
S315000003500B304FEA531C03F01F0302FA03F30CF1B0
S31500000360200C41F82C30BFF34F8FBFF36F8FC3695A
S3150000037093F907304FEA531C03F01F0302FA03F305
S315000003800CF1200C41F82C30BFF34F8FBFF36F8F69
S31500000390C36993F909304FEA531C03F01F0302FAAD
S315000003A003F30CF1200C41F82C30BFF34F8FBFF351
S315000003B06F8FEFF3108182F31088C369094A93F8AF
S315000003C000C04FF00043506823FA0CF30343536018
S315000003D0536881F3108820465DF8044B704700BFD0
S315000003E000E100E00040084003460020C3E9051292
S315000003F0704700BF10B4046AA37803F07B03A370B0
S31500000400837803F00303D21A0B440261A278C36017
S31500000410837842F0800203F00303022BA27005D01A
S315000004200B780020E3705DF8044B70470B880020C2
S3150000043043F47E43E3815DF8044B70478446002015
S31500000440CCE90A32CCF82410704700BF70B5864656
S315000004500024DEF820304D7893F802C00A780CF0BC
S315000004600B069E70CEF80C4020468C7802F05C029B
S315000004705C7093F800E00CF07B0C65F3010E83F8DA
S3150000048000E0C9789974D97901F0A3010A43DA71B9
S3150000049083F802C070BD00BF4FF0FF330020C1E9F2
S315000004A0003370478B0711D5002210B4046AC907C0
S315000004B0A37803F07B03A3701346026102D50022E2
S315000004C01346826118465DF8044B7047CA074FF021
S315000004D0060302D50022134682611846704700BF04
S315000004E00346002210B49C6910460C605DF8044B6C
S315000004F09A617047F0B5846A85B005460F46944602
S315000005006E46B4B194E80F0086E80F00EB6920460A
S315000005101B7884F804C02360EB6AC4E902736B6A33
S315000005209847AC6A1CB196E80F0084E80F0005B046
S31500000530F0BD3446EAE700BF0022F0B501240B788F
S31500000540027003F5800303F58C531B0203624B69AB
S315000005508D6943628378C16164F301038262C56277
S3150000056083704B7823B90222837862F30103837088
S31500000570012491F90B50C44A6B0905F01F0720337B
S3150000058004FA07F78E7A42F82370BFF34F8FBFF352
S315000005906F8FBE4B05F1C00753F827C06FF3104CA1
S315000005A043F827C053F82770B94F360102EB050C04
S315000005B0F6B28CF8006347F8250091F905500E79DC
S315000005C04FEA551C05F01F0E0CF1200C04FA0EFE26
S315000005D042F82CE0BFF34F8FBFF36F8F05F1C00CCD
S315000005E053F82CE06FF3104E43F82CE053F82CC070
S315000005F0360102EB050CF6B28CF8006347F82500CD
S3150000060091F907508E794FEA551C05F01F0E0CF133
S31500000610200C04FA0EFE42F82CE0BFF34F8FBFF316
S315000006206F8F05F1C00C53F82CE06FF3104E43F8B2
S315000006302CE053F82CC0360102EB050CF6B28CF810
S31500000640006347F8250091F909500E7A4FEA551CC8
S3150000065005F01F0E0CF1200C04FA0EFE42F82CE0F9
S31500000660BFF34F8FBFF36F8F05F1C00C53F82CE02B
S315000006706FF3104E43F82CE053F82C303301DBB205
S315000006802A4482F8003347F82500EFF3108584F3F7
S3150000069010884FF000447F4B0E785A68F44022EAE7
S315000006A004025A605B6885F31088002240F2F93430
S315000006B0036A40F2F9359A701A715A729A72DA72AE
S315000006C05A830A7824FA02F2D60744BF4022DA7423
S315000006D00622CC691A770A784E78D540ED078F78CE
S315000006E0CA7848BF4FF478414FEAC20248BF9982A0
S315000006F0032E42EA071200F0C280002E14BFF22138
S31500000700E221D2B21A709971227B082A0EBF0A2200
S31500000710520002F002025A736278A178D2014901AE
S3150000072001F02001D2B20A430021197294F800C0E8
S31500000730ACF10201012940F29880D2B2DA71626806
S31500000740917855785970197865F301011970D17847
S3150000075012789974D97902F05C0201F0A3010A4378
S31500000760DA710022C16902618261C260426191F957
S315000007700550464B05F1C00153F8216062F310465F
S3150000078043F8216053F82110BFF35F8F01266909F2
S31500000790890005F01F0501F1604101F5614106FA86
S315000007A005F5C1F880510D60C16991F90B5005F14D
S315000007B0C00153F8217062F3104743F8217053F8D3
S315000007C02110BFF35F8F6909890005F01F0501F14C
S315000007D0604106FA05F501F56141C1F880510D60E9
S315000007E0C16991F907E00EF1C00153F8215062F397
S315000007F0104543F8215053F82110BFF35F8F4FEA9D
S315000008005E1189000EF01F0E01F1604106FA0EF529
S3150000081001F56141C1F880510D60C16991F9091076
S3150000082001F1C00553F8257062F3104743F82570AF
S3150000083053F82530BFF35F8F4B099B0001F01F0172
S3150000084003F160438E4003F56143C3F880611E6087
S31500000850036A0CF0030C4CF0700C618983F802C03B
S315000008600D4B018143601046F0BDFF21BCF1020F24
S3150000087008BF42F01002D2B25970DA7171E7F22164
S3150000088042F040023DE700BF00E100E000600040AA
S3150000089030010020004008405549435330B4EFF37F
S315000008A00383103B1F4A5BB203F1C00152F82100DB
S315000008B06FF3104042F8210052F821201A4A52F8EC
S315000008C02300C3691B691BB103691BB130BC7047A8
S315000008D003697BB9D0E908240021937803F07F03EC
S315000008E043F004039370C160002CEFD030BC80222B
S315000008F0FFF700BE827802F003010229C1680BD01F
S31500000900046A91F800C084F803C002F003029B1A3F
S315000009100A44C0E90323D8E70C88056A44F47E44F8
S31500000920EC81F2E7006000403001002010B582B093
S31500000930EFF30383103B1F4A5BB203F1C00152F889
S3150000094021006FF3104042F8210052F821201A4A84
S3150000095052F82340A27802F00303022B236A0CBF4D
S31500000960198A5979A3690CBFC1F30801C9B201916B
S3150000097043B9636AB3B10422204602B0BDE8104011
S31500000980FFF7B8BD02F0030201A9606900F09CFB05
S31500000990D4E90521A37803F003031A44C91AC4E96C
S315000009A0052109B102B010BD636A002BFAD00122FD
S315000009B0E2E700BF006000403001002010B5EFF311
S315000009C003830E4A103B5CB252F82400D0E908219A
S315000009D0937803F07B03937019B102220021FFF78D
S315000009E089FD074A04F1C00352F823106FF3104142
S315000009F042F8231052F8233010BD00BF300100200A
S31500000A000060004010B5EFF303831A4A103B5CB256
S31500000A1052F82400837803F00303022B036A0CBF09
S31500000A20198A597993F804C00CBFC1F30801C9B2F9
S31500000A301CF0100F0CF0380206D093F81CC01CF006
S31500000A40010F08BF42F0400293F804C00CF0C70C37
S31500000A5083F804C0436A0BB1FFF74CFD064A04F164
S31500000A60C00352F823106FF3104142F8231052F8D6
S31500000A70233010BD30010020006000402DE9F84F02
S31500000A800388002B3DD007464FF00008DFF8A4A0EE
S31500000A9040F202427B684FEAC8055919898800244A
S31500000AA091424FF00109224E09D00134032C23D084
S31500000AB07B6836F8022B591989889142F5D15B5922
S31500000AC009FA04F203F0B853B3F1807F5FFA82FBB0
S31500000AD019D09AF8BB341A42E7D0012000F038FA50
S31500000AE09AF8BB34012023EA0B0B8AF8BBB4013415
S31500000AF000F0FEF9032CDBD13B8808F101084345E1
S31500000B00C6D8BDE8F88F9AF8BB2409FA04F3134255
S31500000B105FFA83FBC9D1012000F01AFA9AF8BB34B8
S31500000B2001204BEA030B8AF8BBB400F0E1F9BCE7FD
S31500000B305222000000E00140F8B50446FFF79EFF90
S31500000B40EFF31082012383F31088284E33681BB914
S31500000B502749CB704023CB7033680133336082F36F
S31500000B60108823887BB3626803F1FF3E1FFA8EFE6E
S31500000B7002F108011F4C01EBCE0E08E0D2B21B01B8
S31500000B8013448E450A4644F823001CD008311068E9
S31500000B90928810F4803F4FEA1223EFD0130AD2B2A4
S31500000BA002EB031C54F82C701B01134420F480350F
S31500000BB06FF310478E4544F82C700A4644F82C50C3
S31500000BC044F82300E2D1EFF31082012383F3108867
S31500000BD0336813B13368013B336033681BB9802037
S31500000BE00349CB70C87082F31088F8BD2C01002031
S31500000BF0000D08400008084008B5034B036008468E
S31500000C00FFF79AFF002008BD54524F50064B074984
S31500000C1093F826001A6A51F82030C2F3026204499A
S31500000C20D3400B60704700BF00E001407000002019
S31500000C30BC020020F8B54AF2035001233749384A6E
S31500000C40A1F8FE03A2F80431B2F804319BB2002BDE
S31500000C50FAD101214FF400454FF0090C314CDFF871
S31500000C60DCE0314EC4F804E0DFF8D4E02B48C4F8E9
S31500000C700CE02E4FA2F800112D4AB160316062617E
S31500000C80276090F82620A5602561056A54F8222081
S31500000C90C5F30265EA40274D2A6080F8133480F8D0
S31500000CA0A2C090F8803493B300231C4981F88134A4
S31500000CB081F8803481F8323091F83C301A07FBD540
S31500000CC043F202100023154A088581F82A3092F86B
S31500000CD03C309B06FBD503200523114981F81C01F6
S31500000CE015490120116282F8263092F82630116AE1
S31500000CF054F82330C1F30261CB402B604FF42543F7
S31500000D0082F8300082F85200A2F8FE33F8BD80F86F
S31500000D10801440F2C44000F04BF8C5E700E0014003
S31500000D2000C001407000002000700040002D31011D
S31500000D3000C2EB0BBC0200202112012000127A0037
S31500000D4000366E0138B50025134C0121C82084F801
S31500000D50285000F02DF884F8245094F82430002B05
S31500000D60FBD194F824300C4A43F0020384F8243073
S31500000D7092F82430C3F340049B07F9D4012082F88B
S31500000D80224000F0E5F8054B012083F8BB44BDE89E
S31500000D90384000F0ADB800BF0030084000E0014028
S31500000DA0704700BFA0F101000028FBD1704700BFCB
S31500000DB010B54FF47A72164C164B24684FF0000E9D
S31500000DC0B3FBF4FC4FF0FF3300FB01F1A1FB02047F
S31500000DD083427EEB040407D3B0FBFCF0800880B1AD
S31500000DE0BDE81040FFF7DEBF4FEA8C0CB1FBFCF10B
S31500000DF0A1FB02128B427EEB020203D308460028B7
S31500000E00EED110BD1846BDE81040FFF7CBBF00BFBE
S31500000E10BC02002000CA9A3B70B500240A4B0B4E58
S31500000E20B3F84051ADB225FA04F3DB07E0B203D5BF
S31500000E3056F8243003B198470134102CF3D1024BF5
S31500000E40A3F8305170BD00BF00600040EC000020E8
S31500000E5030B56FF0FF0585B0032000F079F84FF04C
S31500000E60FF311F4C1F482246856400230125CDE92A
S31500000E700111039104F1C00E32F8020F590960B155
S31500000E8004A800EB810151F80C0C03F01F0C05FAC5
S31500000E900CFC20EA0C0041F80C0C724503F101032E
S31500000EA0EAD10199104B0F4A03201167C3F880124B
S31500000EB002995167C3F8841203999167C3F888129F
S31500000EC000F016F80023094803F1C00234F8021FA7
S31500000ED00133602B40F82210F6D105B030BD00BFBB
S31500000EE06A2100000080004000E100E00060004050
S31500000EF0EFF31081012383F31088124B33F810208F
S31500000F0092B22AB133F81020013A92B223F8102097
S31500000F1033F810309BB293B90B4A10B4B2F8FE33D3
S31500000F200A4C9BB234F8100043F4254323EA00032D
S31500000F30A2F8FE3381F310885DF8044B704781F305
S31500000F4010887047B002002000E0014058220000DF
S31500000F5030B4EFF31081012383F310880E4A32F880
S31500000F6010309BB26BB90D4C0D4DB4F8FE3335F80D
S31500000F7010C09BB243EA0C0343F425439BB2A4F88A
S31500000F80FE3332F8103001339BB222F8103081F371
S31500000F90108830BC704700BFB002002000E001405E
S31500000FA0582200000D4908B50A6803464AB10333C2
S31500000FB00B4823F003031344834206D810460B6004
S31500000FC008BD084802460860F1E700F077F80C23F0
S31500000FD04FF0FF320360104608BD00BFB802002084
S31500000FE0D0220020D002002000BE704708B500F0D5
S31500000FF003F8FFF78DF9FEE74FF4700270B5254B45
S31500001000254CC3F8882000209C60FFF775F9FFF790
S3150000101011FE0120FFF770F92368A3F5805383F3CF
S315000010200A881E481E4A0021121A00F05AF81D4866
S315000010301D4A1E49121A00F047F81D4D1D4B5B1B39
S31500001040002B07DD00249E1055F8043B0134984719
S31500001050A642F9DCFFF7DAFDFFF774FE0320FFF77F
S3150000106077FF00234FF6FF70134903F1080201339F
S31500001070092B21F81200F8D10320FFF739FF0220CF
S31500001080FFF73AF9FFF7E4FEBDE870400020FFF7EE
S3150000109087BE00BF00ED00E00000000090000020C9
S315000010A0D00200200000002070000020FC2200007A
S315000010B0680000206C000020000D0840014B1868F5
S315000010C0704700BF040000200A44431E914200D12D
S315000010D0704710B511F8014B914203F8014FF9D151
S315000010E010BD02440346934200D1704703F8011B2A
S315000010F0F9E7FFFF0FB40A4B13B51C6824B1A369C7
S3150000110013B9204600F066F805AB049AA16820469C
S31500001110019300F0BDF902B0BDE8104004B070477D
S3150000112004000020002310B504468360818119461F
S315000011304366C28108228361C0E90033C0E90433F3
S315000011405C30FFF7CEFF054B24626362044BA3625B
S31500001150044BE362044B236310BD00BF3D1A00003D
S315000011605F1A0000971A0000BB1A0000014900F040
S31500001170AFB800BF911D000070B568224D1E0E4627
S31500001180554305F1740100F0E5F8044640B100212D
S3150000119005F16802C0E900160C30A060FFF7A1FF58
S315000011A0204670BD014800F0B3B800BFC102002060
S315000011B0014800F0AEB800BFC1020020014800F0AF
S315000011C0A7B800BFC2020020014800F0A2B800BFC5
S315000011D0C202002010B50446FFF7F0FFA3691BB159
S315000011E0BDE81040FFF7F0BFC4E91233236520467F
S315000011F0124B134A1B68A262A34204BF0123A361D8
S3150000120000F020F86060204600F01CF8A060204640
S3150000121000F018F800220421E0606068FFF782FF02
S3150000122001220921A068FFF77DFF02221221E06852
S31500001230FFF778FF0123A361D2E700BF6022000019
S315000012406D110000F8B50746FFF7ACFF1E4B1E6890
S31500001250B36913B93046FFF7BDFF4836D6E9013406
S31500001260013B03D533680BB33668F7E7B4F90C5086
S31500001270D5B9164B04F158006566E36000F047F8EF
S31500001280FFF796FF0822294604F15C002560A56158
S31500001290C4E90155C4E90455FFF723FFC4E90D5518
S315000012A0C4E912552046F8BD6834D9E7042138460A
S315000012B0FFF762FF044630600028D5D1FFF778FFBC
S315000012C00C233B60EEE700BF602200000100FFFF39
S315000012D02DE9F8430646884600F148040027D4E97C
S315000012E00195B9F1010905D52468002CF7D13846D6
S315000012F0BDE8F883AB89012B07D9B5F90E30013368
S3150000130003D029463046C04707436835E9E77047AA
S315000013107047704770B50E4E0C460546316811B9D8
S3150000132000F07CFB30602146284600F077FB431C2A
S315000013300AD0C41C24F00304A04207D0211A284670
S3150000134000F06CFB013001D14FF0FF34204670BD38
S31500001350C80200202DE9F041CD1C074625F0030503
S3150000136008350C2D38BF0C25002D01DBA94205D907
S315000013700C2300263B603046BDE8F0812E4E00F07F
S31500001380C9FD33681C4634BB29463846FFF7C2FF01
S31500001390431C04464DD134682646002E40D12368AE
S315000013A03146384604EB030800F038FB80453AD155
S315000013B02168033538466D1A25F0030508350C2DCE
S315000013C038BF0C252946FFF7A5FF01302BD023682F
S315000013D02B4423600EE02268521B1ED40B2A16D91A
S315000013E06119A342256018BF5960636808BF316060
S315000013F062514B6004F10B06384600F091FD231D47
S3150000140026F00706F21AB6D09B1BA350B3E7626814
S31500001410A3420CBF32605A60ECE723466468B2E729
S3150000142034467668B9E70C2338463B6000F078FD11
S31500001430A1E72560DEE700BFC40200209368013BF8
S31500001440002B936010B408DA9469A34201DB0A29E1
S3150000145003D15DF8044B00F035BB1368581C1060CF
S31500001460084619705DF8044B7047F8B506460F46F6
S315000014701446D518AC4201D1002007E03A4614F8CC
S31500001480011B3046FFF7DAFF431CF3D1F8BDFFFF1F
S315000014902DE9F04F0D469DB014469846064618B104
S315000014A083690BB9FFF796FE894B9D421BD1756880
S315000014B06B6ED90705D4AB899A0502D4A86DFFF7E0
S315000014C027FFAB891B0701D52B69EBB929463046A7
S315000014D000F05CFBC0B16B6EDC070ED54FF0FF3041
S315000014E01DB0BDE8F08F7B4B9D4201D1B568DFE7AB
S315000014F0794B9D4208BFF568DAE7AB899805EDD4CC
S31500001500A86DFFF706FFE9E70023CDF80C804FF042
S315000015100109DFF8C881099320238DF8293030238B
S315000015208DF82A3023469A4613F8012B0AB1252A4C
S31500001530F9D1BAEB040B0BD05B462246294630465E
S31500001540FFF793FF013000F0AA80099A5A440992E6
S315000015509AF80030002B00F0A28000234FF0FF32F3
S315000015600AF1010A049307938DF853301A93CDE9D3
S31500001570052354460522594814F8011B00F0BCFC0B
S31500001580049AD8B9D10644BF20238DF853301307E7
S3150000159044BF2B238DF853309AF800302A2B15D0F0
S315000015A0079A544600204FF00A0C214611F8013BD9
S315000015B0303B092B4ED9B0B1079214E0A0EB0803DB
S315000015C0A24609FA03F313430493D2E7039B191DBA
S315000015D01B68002B0391BBBF5B4242F002020793DC
S315000015E00793B8BF049223782E2B0CD163782A2B4D
S315000015F035D1039B02341A1D1B68002B0392B8BF1A
S315000016004FF0FF330593DFF8E4A00322217850461C
S3150000161000F072FC40B14023A0EB0A00013403FA4B
S3150000162000F0049B0343049314F8011B06222C4884
S315000016308DF8281000F060FC00283FD0294B1BBB1A
S31500001640039B073323F0070308330393099B3B44AB
S31500001650099367E70CFB02320C460120A5E700233D
S3150000166001344FF00A0C19460593204610F8012B59
S31500001670303A092A03D9002BC5D00591C3E70CFBE4
S31500001680012104460123F0E703AB2A4604A93046AC
S315000016900093154B00E000BF0746781CD6D16B6E51
S315000016A0D90705D4AB899A0502D4A86DFFF731FE98
S315000016B0AB895B063FF512AF099811E703AB2A46E3
S315000016C004A930460093084B00F082F8E4E700BF17
S315000016D084220000A422000064220000C42200002C
S315000016E0CE220000000000006B140000CA22000099
S315000016F02DE9F047164699468A6807460B690C4657
S31500001700DDF820809342B8BF1346336091F843203A
S315000017100AB1013333602368990642BF3368023346
S315000017203360256815F0060506D104F1190AE36849
S3150000173032689B1AAB4229DC94F84320131E2268B8
S3150000174018BF012392062ED404F1430249463846B7
S31500001750C047013021D023681A3454F80E5C03F0D8
S31500001760060332680026042B54F8123C08BFAD1A53
S3150000177054F80A2C14BF002525EAE5759342C4BF28
S315000017809B1AED18B5421AD1002008E001235246F3
S3150000179049463846C047013003D14FF0FF30BDE817
S315000017A0F0870135C3E7E1185A1C30200233224482
S315000017B081F8430094F8451082F84310C4E70123EA
S315000017C0224649463846C0470130E6D00136D9E7B9
S315000017D02DE9FF470F7E914680460C46782F9A46A4
S315000017E00C9D01F1430207D8622F0AD8002F00F0A2
S315000017F0D880582F00F0A38004F1420584F8427087
S315000018003AE0A7F16303152BF6D801A151F823F0AE
S31500001810691800007D180000F9170000F91700008C
S31500001820F9170000F91700007D180000F9170000ED
S31500001830F9170000F9170000F917000089190000D0
S31500001840AD1800006B190000F9170000F917000029
S31500001850AB190000F9170000AD180000F9170000D9
S31500001860F9170000731900002B681A1D1B682A60FF
S3150000187004F1420584F842300123A3E02068296878
S31500001880060601F104030AD50E682B60002E03DA62
S315000018902D23764284F843305E480A2319E00E6809
S315000018A010F0400F2B6018BF36B2EFE72B682068A8
S315000018B0191D2960010601D51E6802E04606FBD502
S315000018C01E886F2F53480CBF08230A23002184F873
S315000018D043106568002DA560A2BF216821F00401B0
S315000018E021600EB9002D4DD01546B6FBF3F103FB72
S315000018F01167C75D05F8017D37460E46BB42F4D930
S31500001900082B0BD12368DE0708D523696168994245
S31500001910DEBF302305F8013C05F1FF35521B22617D
S315000019204B4603AA21464046CDF800A0FFF7E0FE4D
S3150000193001304CD14FF0FF3004B0BDE8F087354898
S3150000194081F845702968236851F8046B29601D06E3
S3150000195014D5DF0744BF43F0200323601EB9236874
S3150000196023F0200323601023B0E7236843F020030D
S3150000197023607823284884F84530E3E7590648BFB2
S31500001980B6B2E6E71546BBE72B682668181D6169FF
S31500001990286035061B6801D5196002E07006FBD584
S315000019A01980002315462361BAE72B6800211A1D0A
S315000019B02A601D686268284600F09EFA08B1401B3E
S315000019C0606063682361002384F84330A8E72369D5
S315000019D02A4649464046D0470130ABD023689B078C
S315000019E013D4E068039B9842B8BF1846A4E70123C6
S315000019F0324649464046D04701309BD00135E36820
S31500001A0003995B1AAB42F2DCEBE7002504F11906F9
S31500001A10F5E700BFD5220000E622000038B5002316
S31500001A20054D044608462B60FFF7BCFA431C02D15D
S31500001A302B6803B1236038BDCC02002010B50C46DC
S31500001A40B1F90E1000F0BEFA0028ABBF636DA38992
S31500001A501B1823F48053ACBF6365A38110BD2DE929
S31500001A60F0411F468B8905460C46DB05164605D513
S31500001A7002230022B1F90E1000F0C6F9A3893246FE
S31500001A80B4F90E10284623F48053A3813B46BDE8E3
S31500001A90F04100F069B810B50C46B1F90E1000F02F
S31500001AA0B3F9431CA38915BF606523F4805343F43F
S31500001AB08053A38118BFA38110BDB1F90E1000F0A9
S31500001AC0D3B8FFFFF8B50E461446054618B183692C
S31500001AD00BB9FFF77FFB214B9C422BD16C68A369A6
S31500001AE0A360A3891A072FD523696BB32369F6B2BE
S31500001AF020683746C01A6369834204DC21462846BB
S31500001B0000F046F930BBA3680130013BA3602368AF
S31500001B105A1C22601E706369834204D0A389DB07C6
S31500001B2006D50A2E04D12146284600F031F988B997
S31500001B303846F8BD0A4B9C4201D1AC68CFE7094B49
S31500001B409C4208BFEC68CAE72146284600F01EF80A
S31500001B500028CBD04FF0FF37EAE700BF8422000011
S31500001B60A42200006422000038B50446064D08464B
S31500001B70114600222A601A46FEF798FB431C02D142
S31500001B802B6803B1236038BDCC020020324B70B500
S31500001B901D6806460C4625B1AB6913B92846FFF702
S31500001BA019FB2E4B9C420FD16C68A389B4F90C200B
S31500001BB019072CD4DD0611D40923336042F0400303
S31500001BC04FF0FF30A3813EE0254B9C4201D1AC682B
S31500001BD0EBE7244B9C4208BFEC68E6E7580712D5B2
S31500001BE0616B41B104F14403994202D0304600F0E2
S31500001BF09DF900236363A38923F02403A3810023B3
S31500001C00636023692360A38943F00803A3812369E2
S31500001C104BB9A38903F42073B3F5007F03D02146A3
S31500001C20304600F029F9A089B4F90C2010F0010320
S31500001C300AD00023A36063695B42A361236943B9A9
S31500001C4010F08000BAD170BD810758BF6369A360E8
S31500001C50F4E70020F7E700BF04000020842200001C
S31500001C60A42200006422000038B50023054D044676
S31500001C7008462B6000F0DAF9431C02D12B6803B149
S31500001C80236038BDCC0200208A892DE9F041054643
S31500001C9010070C4658D44B68002B05DC0B6C002B48
S31500001CA002DC0020BDE8F081E66A002EF9D00023B0
S31500001CB012F480522F682B6032D0606DA3895A07C8
S31500001CC005D56368C01A636B0BB1236CC01A002379
S31500001CD00246E66A2846216AB047431CA38906D114
S31500001CE029681D292CD8294ACA40D60728D500229A
S31500001CF0D90462602269226004D5421C01D12B6896
S31500001D0003B96065616B2F600029CAD004F14403F2
S31500001D10994202D0284600F009F900206063C1E725
S31500001D20216A01232846B047411CC7D12B68002BE6
S31500001D30C4D01D2B01D0162B01D12F60B1E7A3898A
S31500001D4043F04003A381ADE70F69002FA9D09307A5
S31500001D500E680F600CBF4B690023A6EB07088B606B
S31500001D60B8F1000F9DDD43463A46216A2846A66A29
S31500001D70B047002806DCA3894FF0FF3043F040034C
S31500001D80A3818FE70744A8EB0008E9E7010040209C
S31500001D9038B50B6905460C4613B90025284638BDEB
S31500001DA018B183690BB9FFF715FA144B9C421BD186
S31500001DB06C68B4F90C30002BEFD0626ED00704D4F7
S31500001DC0990502D4A06DFFF7A3FA28462146FFF72E
S31500001DD05BFF636E0546DA07E0D4A3899B05DDD475
S31500001DE0A06DFFF796FAD9E7054B9C4201D1AC6886
S31500001DF0DFE7044B9C4208BFEC68DAE78422000068
S31500001E00A42200006422000038B50446064D0846A8
S31500001E10114600222A601A4600F020F9431C02D11E
S31500001E202B6803B1236038BDCC02002070B50E4686
S31500001E30B1F90E1096B0144600291D4608DAB6F917
S31500001E400C3000222A601A0610D44FF480630EE08C
S31500001E506A4600F0C9F80028F1DB019A02F47042E4
S31500001E60A2F500535A425A412A60EEE74023002069
S31500001E70236016B070BDFFFF8B8973B59D070646BC
S31500001E800C4607D504F147032360236101236361F0
S31500001E9002B070BD01AB6A46FFF7C8FF0099054660
S31500001EA03046FFF757FA48B9B4F90C309A05EFD423
S31500001EB023F0030343F00203A381E3E70D4BB36270
S31500001EC0A389206043F080032061A381009B6361A6
S31500001ED0019B5BB1B4F90E10304600F097F828B1BB
S31500001EE0A38923F0030343F00103A381A0890543DB
S31500001EF0A581CDE76D110000C9B2024410B590422C
S31500001F00034601D1002303E01C7801308C42F6D150
S31500001F10184610BD0148FFF7FBB900BFC0020020FC
S31500001F200148FFF7F6B900BFC002002037B5002907
S31500001F3043D051F8043C0C1F0190002BB8BFE418A5
S31500001F40FFF7E8FF1E4A0198136833B9636014600F
S31500001F5003B0BDE83040FFF7E3BFA34208D92568C8
S31500001F6061198B4201BF19685B6849192160EDE769
S31500001F701A465B680BB1A342FAD911685518A542F7
S31500001F800BD12468214454181160A342E0D11C6887
S31500001F905B68214453601160DAE702D90C230360C1
S31500001FA0D6E7256861198B4202BF19685B68491933
S31500001FB0636008BF21605460CAE703B030BD00BF4C
S31500001FC0C402002038B50446064D084611460022D4
S31500001FD02A601A4600F04AF8431C02D12B6803B166
S31500001FE0236038BDCC02002038B50023064D0446D8
S31500001FF0084611462B6000F021F8431C02D12B68DD
S3150000200003B1236038BD00BFCC02002038B50023E1
S31500002010054D044608462B6000F018F8431C02D113
S315000020202B6803B1236038BDCC020020024B582236
S315000020304FF0FF301A607047CC020020024B582246
S315000020404FF0FF301A607047CC020020024B582236
S3150000205000201A60704700BFCC020020024B5822B5
S315000020604FF0FF301A607047CC020020024B582216
S315000020704FF0FF301A607047CC0200204275696C41
S315000020807420776974682052656E657361732041A8
S315000020906476616E63656420466C657869626C651A
S315000020A020536F667477617265205061636B616758
S315000020B0652076657273696F6E20342E352E30007A
S315000020C0342E352E3000000000000504F8B500BFA0
S315000020D0F8BC08BC9E467047F8B500BFF8BC08BC03
S315000020E09E46704748656C6C6F2C20445368616E41
S315000020F04D43552D5241364D35210D0A0000000045
S3150000210020257300BC000020102100002C220000B6
S31500002110070200000C000C010C020C03000000007A
S3150000212000000000590200000000000030210000FD
S3150000213000010000000000200F00FFFF000000006B
S31500002140FFFF0000040000004C2100000000010019
S315000021500801000000000100000300000000010566
S315000021600D060000000001050E060000AA01AB01E5
S31500002170AC01AD01000000000000000000000000FE
S315000021800000000000000000000000000000000049
S315000021900000000000000000000000000000000039
S315000021A00000000000000000000000000000000029
S315000021B00000000000000000000000000000000019
S315000021C00000000000000000000000000000000009
S315000021D000000000000000000000000000000000F9
S315000021E000000000000000000000000000000000E9
S315000021F000000000000000000000000000000000D9
S3150000220000000000000000000000000000000000C8
S3150000221000000000000000000000000000000000B8
S31500002220000000000000000000000000390500006A
S31500002230E9030000F50300004D04000099040000C6
S31500002240A50400003D0400001D030000E104000099
S31500002250020403040404FFFF01000200080010004A
S315000022600800002000000000000000000000000040
S315000022700000000000000000000000000000000058
S315000022800000000000000000000000000000000048
S315000022900000000000000000000000000000000038
S315000022A00000000000000000000000000000000028
S315000022B00000000000000000000000000000000018
S315000022C000000000232D302B2000686C4C00656652
S315000022D06745464700303132333435363738394171
S315000022E04243444546003031323334353637383987
S311000022F061626364656600FF0000000088
S315000022FC4000350008000020000000008422000089
S3150000230CA42200006422000000000000000000006F
S3150000231C00000000000000000000000000000000AB
S3150000232C000000000000000000000000000000009B
S3150000233C000000000000000000000000000000008B
S3150000234C000000000000000000000000000000007B
S3150000235C0000000000000000250200000102000041
S3150100A100FFFFFFFFFFFFFFFFFFFFFFFFFFFFFFFF58
S3090100A110FFFFFFFF48
S3090100A134FFFFFFFF24
S3150100A200FFFDFFFFFFFFFFFFFFFFFFFFFFFFFFFF59
S3150100A210FFFFFFFFFFFFFFFFFFFFFFFFFFFFFFFF47
S3150100A220FFFFFFFFFFFFFFFFFFFFFFFFFFFFFFFF37
S3150100A230FFFFFFFFFFFFFFFFFFFFFFFFFFFFFFFF27
S3150100A240FFFFFFFFFFFFFFFFFFFFFFFFFFFFFFFF17
S3150100A250FFFFFFFFFFFFFFFFFFFFFFFFFFFFFFFF07
S3150100A260FFFFFFFFFFFFFFFFFFFFFFFFFFFFFFFFF7
S3150100A270FFFFFFFFFFFFFFFFFFFFFFFFFFFFFFFFE7
S3150100A280F8F8FFFFFFFFFFFFFFFFFFFFFFFFFFFFE5
S3150100A290FFFFFFFFFFFFFFFFFFFFFFFFFFFFFFFFC7
S3150100A2A0FFFFFFFFFFFFFFFFFFFFFFFFFFFFFFFFB7
S3150100A2B0FFFFFFFFFFFFFFFFFFFFFFFFFFFFFFFFA7
S3150100A2C0FFFFFFFFFFFFFFFFFFFFFFFFFFFFFFFF97
S70500000FEDFE
