S01400007261366D355F64735F6969632E737265639B
S3150000000020330020791A0000A5180000751A000098
S31500000010751A0000751A0000751A0000751A00009E
S31500000020000000000000000000000000751A00003B
S31500000030751A000000000000751A0000751A00000D
S31500000040290A000099090000B90A0000010B000006
S315000000508D160000000000000000000000000000F7
S31500000060000000000000000000000000000000008A
S31500000070000000000000000000000000000000007A
S31500000080000000000000000000000000000000006A
S31500000090000000000000000000000000000000005A
S315000000A0000000000000000000000000000000004A
S315000000B0000000000000000000000000000000003A
S315000000C0000000000000000000000000000000002A
S315000000D0000000000000000000000000000000001A
S315000000E0000000000000000000000000000000000A
S315000000F000000000000000000000000000000000FA
S3150000010000000000000000000000000000000000E9
S3150000011000000000000000000000000000000000D9
S3150000012000000000000000000000000000000000C9
S3150000013000000000000000000000000000000000B9
S3150000014000000000000000000000000000000000A9
S315000001500000000000000000000000000000000099
S315000001600000000000000000000000000000000089
S315000001700000000000000000000000000000000079
S315000001800000000000000000000000000000000069
S315000001900000000000000000000000000000000059
S315000001A00000000000000000000000000000000049
S315000001B00000000000000000000000000000000039
S315000001C0FFFFFFFFFFFFFFFFFFFFFFFFFFFFFFFF39
S315000001D0FFFFFFFFFFFFFFFFFFFFFFFFFFFFFFFF29
S315000001E0FFFFFFFFFFFFFFFFFFFFFFFFFFFFFFFF19
S315000001F0FFFFFFFFFFFFFFFFFFFFFFFFFFFFFFFF09
S3150000020010B5054C237833B9044B13B1044800E00C
S3150000021000BF0123237010BD9000002000000000E5
S315000002202C2F000008B5034B1BB10349034800E01F
S3150000023000BF08BD00000000940000202C2F000025
S315000002400379012B05D0022B05D10122024B1A603E
S315000002507047024A13607047B0000020AC000020CF
S3150000026010B50A4B82B0996801908C680122186813
S3150000027001A9A04700B100BE054A1368002BFCD0B7
S3150000028000230198136002B010BD00BFA42C00002B
S31500000290B000002070B5161E07DD0C468D1914F946
S315000002A0010BFFF7DDFFA542F9D1304670BD00BF57
S315000002B008B5837803B108BD044A0221044800F05A
S315000002C01DFF0122034B1A8008BD00BFB6000020A7
S315000002D0C8000020B4000020F8B53B4BD3E901125A
S315000002E0186812689047002843D1384CE56826689C
S315000002F02B68304661689847002834D130466B68D1
S31500000300A1689847002840D1314B9C68D3E9007119
S3150000031023683846984700283DD138466369984790
S3150000032000282CD12B4B9C68D3E9007123683846F2
S31500000330984700283BD138466368984700283CD147
S31500000340AB6830469847054600282AD1224C234FF1
S31500000350234E23889BB2012BFBD13046398801F00E
S315000003600FFC2580F5E746211E4B1F4A1F4801F06A
S315000003705DFA44211B4B1C4A1C4801F057FA4F21D9
S31500000380184B194A194801F051FA4921154B164ADA
S31500000390164801F04BFA4C21124B134A134801F050
S315000003A045FA57210F4B104A104801F03FFA5221E7
S315000003B00C4B0D4A0D4801F039FA5421094B0A4AF3
S315000003C00A4801F033FA00BFA42C0000002C0000FC
S315000003D0C42B0000482C0000B4000020B60000200A
S315000003E0A82B0000702B0000B82B0000842B000007
S315000003F0FFF772BF022800D070470249024800F09A
S3150000040079BC00BFE42C0000C000002008B5FFF74F
S31500000410EFFF002008BD00BF10B400240122036ACC
S3150000042044609C70C3692D4993F905304FEA531C0B
S3150000043003F01F0302FA03F30CF1200C41F82C30F1
S31500000440BFF34F8FBFF36F8FC36993F90B304FEA3A
S31500000450531C03F01F0302FA03F30CF1200C41F8BE
S315000004602C30BFF34F8FBFF36F8FC36993F90730FB
S315000004704FEA531C03F01F0302FA03F30CF1200C9E
S3150000048041F82C30BFF34F8FBFF36F8FC36993F9D9
S3150000049009304FEA531C03F01F0302FA03F30CF171
S315000004A0200C41F82C30BFF34F8FBFF36F8FEFF363
S315000004B0108182F31088C369094A93F800C04FF08F
S315000004C00043506823FA0CF303435360536881F3E7
S315000004D0108820465DF8044B704700BF00E100E03D
S315000004E00040084003460020C3E90512704700BFDC
S315000004F010B4046AA37803F07B03A370837803F037
S315000005000303D21A0B440261A278C360837842F0D7
S31500000510800203F00303022BA27005D00B780020A3
S31500000520E3705DF8044B70470B88002043F47E436C
S31500000530E3815DF8044B704784460020CCE90A321B
S31500000540CCF82410704700BF70B586460024DEF84C
S3150000055020304D7893F802C00A780CF00B069E7096
S31500000560CEF80C4020468C7802F05C025C7093F862
S3150000057000E00CF07B0C65F3010E83F800E0C9780F
S315000005809974D97901F0A3010A43DA7183F802C09C
S3150000059070BD00BF4FF0FF330020C1E90033704744
S315000005A08B0711D5002210B4046AC907A37803F09B
S315000005B07B03A3701346026102D5002213468261B3
S315000005C018465DF8044B7047CA074FF0060302D57C
S315000005D00022134682611846704700BF0346002278
S315000005E010B49C6910460C605DF8044B9A61704724
S315000005F0F0B5846A85B005460F4694466E46B4B19A
S3150000060094E80F0086E80F00EB6920461B7884F813
S3150000061004C02360EB6AC4E902736B6A9847AC6A4C
S315000006201CB196E80F0084E80F0005B0F0BD344613
S31500000630EAE700BF0022F0B501240B78027003F54B
S31500000640800303F58C531B0203624B698D69436279
S315000006508378C16164F301038262C56283704B785B
S3150000066023B90222837862F301038370012491F98E
S315000006700B50C44A6B0905F01F07203304FA07F72D
S315000006808E7A42F82370BFF34F8FBFF36F8FBE4B46
S3150000069005F1C00753F827C06FF3104C43F827C085
S315000006A053F82770B94F360102EB050CF6B28CF8F9
S315000006B0006347F8250091F905500E794FEA551C5D
S315000006C005F01F0E0CF1200C04FA0EFE42F82CE089
S315000006D0BFF34F8FBFF36F8F05F1C00C53F82CE0BB
S315000006E06FF3104E43F82CE053F82CC0360102EBA2
S315000006F0050CF6B28CF8006347F8250091F907500F
S315000007008E794FEA551C05F01F0E0CF1200C04FAE9
S315000007100EFE42F82CE0BFF34F8FBFF36F8F05F14B
S31500000720C00C53F82CE06FF3104E43F82CE053F84E
S315000007302CC0360102EB050CF6B28CF8006347F8C4
S31500000740250091F909500E7A4FEA551C05F01F0E47
S315000007500CF1200C04FA0EFE42F82CE0BFF34F8F8A
S31500000760BFF36F8F05F1C00C53F82CE06FF3104EFA
S3150000077043F82CE053F82C303301DBB22A4482F8DC
S31500000780003347F82500EFF3108584F310884FF007
S3150000079000447F4B0E785A68F44022EA04025A60FD
S315000007A05B6885F31088002240F2F934036A40F250
S315000007B0F9359A701A715A729A72DA725A830A78ED
S315000007C024FA02F2D60744BF4022DA740622CC6924
S315000007D01A770A784E78D540ED078F78CA7848BFE1
S315000007E04FF478414FEAC20248BF9982032E42EA8B
S315000007F0071200F0C280002E14BFF221E221D2B20D
S315000008001A709971227B082A0EBF0A22520002F042
S3150000081002025A736278A178D201490101F02001DF
S31500000820D2B20A430021197294F800C0ACF1020159
S31500000830012940F29880D2B2DA71626891785578CF
S315000008405970197865F301011970D1781278997485
S31500000850D97902F05C0201F0A3010A43DA710022A1
S31500000860C16902618261C260426191F90550464BDD
S3150000087005F1C00153F8216062F3104643F8216088
S3150000088053F82110BFF35F8F01266909890005F02F
S315000008901F0501F1604101F5614106FA05F5C1F850
S315000008A080510D60C16991F90B5005F1C00153F8F3
S315000008B0217062F3104743F8217053F82110BFF3FB
S315000008C05F8F6909890005F01F0501F1604106FA8D
S315000008D005F501F56141C1F880510D60C16991F9D5
S315000008E007E00EF1C00153F8215062F3104543F8BA
S315000008F0215053F82110BFF35F8F4FEA5E11890034
S315000009000EF01F0E01F1604106FA0EF501F5614188
S31500000910C1F880510D60C16991F9091001F1C00556
S3150000092053F8257062F3104743F8257053F82530C5
S31500000930BFF35F8F4B099B0001F01F0103F160437A
S315000009408E4003F56143C3F880611E60036A0CF0B4
S31500000950030C4CF0700C618983F802C00D4B0181C9
S3150000096043601046F0BDFF21BCF1020F08BF42F004
S315000009701002D2B25970DA7171E7F22142F04002E8
S315000009803DE700BF00E100E000600040800100207C
S31500000990004008405549435330B4EFF30383103BFE
S315000009A01F4A5BB203F1C00152F821006FF31040F9
S315000009B042F8210052F821201A4A52F82300C3694E
S315000009C01B691BB103691BB130BC704703697BB956
S315000009D0D0E908240021937803F07F0343F0040351
S315000009E09370C160002CEFD030BC8022FFF700BEB0
S315000009F0827802F003010229C1680BD0046A91F8DB
S31500000A0000C084F803C002F003029B1A0A44C0E93E
S31500000A100323D8E70C88056A44F47E44EC81F2E7A8
S31500000A20006000408001002010B582B0EFF3038320
S31500000A30103B1F4A5BB203F1C00152F821006FF36D
S31500000A40104042F8210052F821201A4A52F8234059
S31500000A50A27802F00303022B236A0CBF198A597984
S31500000A60A3690CBFC1F30801C9B2019143B9636A16
S31500000A70B3B10422204602B0BDE81040FFF7B8BD6E
S31500000A8002F0030201A9606901F064F8D4E90521C6
S31500000A90A37803F003031A44C91AC4E9052109B16E
S31500000AA002B010BD636A002BFAD00122E2E700BF54
S31500000AB0006000408001002010B5EFF303830E4A6A
S31500000AC0103B5CB252F82400D0E90821937803F079
S31500000AD07B03937019B102220021FFF789FD074AB3
S31500000AE004F1C00352F823106FF3104142F82310AB
S31500000AF052F8233010BD00BF800100200060004086
S31500000B0010B5EFF303831A4A103B5CB252F8240087
S31500000B10837803F00303022B036A0CBF198A597901
S31500000B2093F804C00CBFC1F30801C9B21CF0100F42
S31500000B300CF0380206D093F81CC01CF0010F08BF59
S31500000B4042F0400293F804C00CF0C70C83F804C0CE
S31500000B50436A0BB1FFF74CFD064A04F1C00352F895
S31500000B6023106FF3104142F8231052F8233010BDC2
S31500000B7080010020006000402DE9F84F0388002B1B
S31500000B803DD007464FF00008DFF8A4A040F202422D
S31500000B907B684FEAC80559198988002491424FF0AD
S31500000BA00109224E09D00134032C23D07B6836F884
S31500000BB0022B591989889142F5D15B5909FA04F239
S31500000BC003F0B853B3F1807F5FFA82FB19D09AF82D
S31500000BD0BB341A42E7D0012000F000FF9AF8BB347C
S31500000BE0012023EA0B0B8AF8BBB4013400F0C6FEE1
S31500000BF0032CDBD13B8808F101084345C6D8BDE884
S31500000C00F88F9AF8BB2409FA04F313425FFA83FBC0
S31500000C10C9D1012000F0E2FE9AF8BB3401204BEA6C
S31500000C20030B8AF8BBB400F0A9FEBCE7FA2D00005E
S31500000C3000E00140F8B50446FFF79EFFEFF310828F
S31500000C40012383F31088284E33681BB92749CB70DC
S31500000C504023CB7033680133336082F310882388D6
S31500000C607BB3626803F1FF3E1FFA8EFE02F10801B4
S31500000C701F4C01EBCE0E08E0D2B21B0113448E4589
S31500000C800A4644F823001CD008311068928810F4F4
S31500000C90803F4FEA1223EFD0130AD2B202EB031CB5
S31500000CA054F82C701B01134420F480356FF3104761
S31500000CB08E4544F82C700A4644F82C5044F823001C
S31500000CC0E2D1EFF31082012383F31088336813B166
S31500000CD03368013B336033681BB980200349CB700E
S31500000CE0C87082F31088F8BD7C010020000D084012
S31500000CF00008084008B5034B03600846FFF79AFF53
S31500000D00002008BD54524F5003460020D3E9022369
S31500000D109360704703460020D3E90223536070476F
S31500000D2003460020D3E90223D3607047034630B45C
S31500000D30D3E90123D2690020D2E9011444F0004529
S31500000D40D46841F0004144F000445D619C61D2E901
S31500000D50044219615C629A6230BC70474FF00041F0
S31500000D600022836810461961596199615A629A6234
S31500000D70704700BF836801399966DA6AD20702D4E0
S31500000D80C2685966DA600020704700BF06207047C7
S31500000D9003469A680020D36AC3F300030B71936C71
S31500000DA00B60704784460020CCE90632CCF814105C
S31500000DB0704700BF02464FF0010C30B494680C4DEA
S31500000DC0626E0C4B62448A60E46A2A6A1B6881F888
S31500000DD000C0C4F3C35CC2F30264A34002F007027E
S31500000DE0D34023FA0CF3002030BC4B60704700BFA1
S31500000DF000E001400C030020002800DA704710B420
S31500000E0000F160430901134CC9B203F5614383F84D
S31500000E100013114B00F1C00144F8202053F82120A3
S31500000E206FF3104243F8212053F82130BFF35F8F50
S31500000E30012243099B0000F01F0003F1604303F504
S31500000E40614302FA00F0C3F8800118605DF8044BB4
S31500000E50704700BF8001002000600040F8B5012502
S31500000E600446087C0A4605FA00F3E3601B0718BF30
S31500000E70002361604FF0000118BF2374374B08BF91
S31500000E802574034450691B02A3606061D2E90635EC
S31500000E90C4E90613EFF31087012383F310884FF09C
S31500000EA000402F4B167C20FA06F6186920EA060049
S31500000EB018611B6987F310884FF42540D5E906ECC5
S31500000EC0A3684FF000471860D962D9639964107817
S31500000ED0117A03284FF000004FEAC151566808BF47
S31500000EE041F48031D962E96A013E1F615F619F6109
S31500000EF058629862C3F81CE0C3F820C09E665E661E
S31500000F009863C3F8880031B995F8211095F8200048
S31500000F10490741EA40314FF4AA000326186401202C
S31500000F20E768DF6059631E631863517C92F912000B
S31500000F302246FFF761FF224695F8221095F9240014
S31500000F40FFF75AFF95F92500224695F82310FFF77B
S31500000F5053FF044B00202360F8BD00BF90164000ED
S31500000F60004008405450470030B4426892F91230AD
S31500000F70D269002B10DB012403F01F05AC40590990
S31500000F801F4D203145F82140BFF34F8FBFF36F8FC0
S31500000F9000241C4941F8234092F92430002B10DB31
S31500000FA0012403F01F05AC405909154D203145F8C1
S31500000FB02140BFF34F8FBFF36F8F0024114941F8D3
S31500000FC0234092F92530002B11DB01210C4C5A09E4
S31500000FD003F01F0C203201FA0CF144F82210BFF383
S31500000FE04F8FBFF36F8F0021064A42F8231000236C
S31500000FF0D0E9022130BC0360184691605363704704
S3150000100000E100E08001002030B58646EFF3108451
S31500001010012282F310880D4B986820F48040986076
S315000010209B6884F310880023094DC2F31204520012
S3150000103024B131F813C01C1D25F824C00133172B29
S31500001040F3D1044B0020CEF8003030BD00400840FC
S3150000105000200840434C4500002302460249136025
S3150000106018460B70704700BF002008400020402241
S315000010704123490001F1804101F5022188708A70FF
S315000010808B707047024B0431002023F821207047F3
S31500001090002008400020024B043123F8210070474D
S315000010A0002008408022024B00201A70704700BFC3
S315000010B0002008400020014B1870704700200840AF
S315000010C084460020CCE90732CCF81810704700BFE0
S315000010D003461A689B8A00201380704706207047D3
S315000010E00023026818461380704700BF03461B683A
S315000010F000201B88C3F3C0330B70704703461B6880
S31500001100103133F811300020138070471031D0E9C8
S31500001110003033F8113001799BB2012908BF1B0456
S3150000112000201360704700BF0620704706207047F6
S31500001130002800DA704710B400F160430901134C2F
S31500001140C9B203F5614383F80013114B00F1C001E6
S3150000115044F8202053F821206FF3104243F8212051
S3150000116053F82130BFF35F8F012243099B0000F043
S315000011701F0003F1604303F5614302FA00F0C3F870
S31500001180800118605DF8044B704700BF80010020A5
S31500001190006000402DE9F0410027CA680B884E69BF
S315000011A082610A695B02C0E9077203F1804303F5B5
S315000011B0B81303604160054648790C46F278897891
S315000011C0030243EA4133002A58D043F4307302281D
S315000011D014BF00202F499BB208BF31F82200AB8212
S315000011E02279E178D20342EA4102717896F800C08A
S315000011F042EA4112EFF31088012181F31088B4F816
S3150000120000E0254FCEF1100E01FA0EF1D7F80CE0F2
S315000012102EEA0101F960F96888F3108847F6FF5154
S315000012200B40296892B20B800882CA8181F80CC0F3
S3150000123073792A46A3F10103B3FA83F35B0981F8B4
S31500001240D030217A94F90600FFF772FF2A46617AB8
S3150000125094F90700FFF76CFF2A46317A96F90600E3
S31500001260FFF766FF96F907002A46717AFFF760FFD7
S3150000127000200A4B2861AB60BDE8F08130B943F429
S31500001280004343F040039BB2AB82A9E743F040031F
S315000012909DE700BF4C2E00000040084043444152E9
S315000012A0F0B5C769054689B017B3BE466C468C468D
S315000012B0BEE80F003E460FC49EE80F0084E80F000C
S315000012C0BCE80F000FC69CE80F008EE80F00AB6964
S315000012D038469847EB694BB19C46EE46BEE80F0090
S315000012E0ACE80F009EE80F008CE80F0009B0F0BDD7
S315000012F00F46ECE710B588B0EFF30383124A103BB4
S315000013005BB252F82320EFF30383103B0F495BB225
S31500001310C03351F823406FF3104441F8234051F88D
S315000013202330002153688DF802001C88106A9369E7
S31500001330ADF8004001908DF808101BB110466946C3
S31500001340FFF7AEFF08B010BD80010020006000402E
S31500001350026930B504467AB34FF0FF3301204FEAF5
S3150000136072729E46013300FA03FC1CEA020FF8D0A3
S31500001370B2FA82F2C3F120039B1A22680EF10E0E16
S3150000138002EB4E024B600A6001234FF47A6C0B723B
S3150000139063680A4D1B8800201A1D52004A72D5F850
S315000013A07C2103EB43035B0003F5B07392B24B81E0
S315000013B0CA60A1F810C030BD4A60E5E700B07F40C2
S315000013C043682DE9F0430C684A685E6903688D68D6
S315000013D01FFA84F8A3F804801FFA82F8A3F8148091
S315000013E022F0C04C1FFA85F824F0C04E25F0C04705
S315000013F02243A3F808804FEA1C4C3F0C4FEA1E48D4
S3150000140012F0C04FA3F80680A3F816C05F8153D12F
S31500001410CF68002F00F0AF80B7F808C01CF4006F4B
S3150000142020D0D7E90052B7F80A80A3F890C0A3F8F5
S315000014309C80B7F80C80A3F89E801FFA85F8A3F865
S315000014409480C5F30B486D0FA3F8968083F89250ED
S3150000145095B2A3F89850C2F30B45520FA3F89A50D1
S3150000146083F893201CF4007F1AD10A8AA3F890C04F
S31500001470A3F88020F2786AB1BEFA8EFE1A88818AB5
S3150000148092B222F01F021F32A2EB0E0292B2114359
S315000014901A808182394BC0E903340020BDE8F0830D
S315000014A0BA7CFD7C2A4383F8A620FA89A3F8A820F3
S315000014B03A8AA3F8AA20D8E741F23608304FD7F87F
S315000014C02090304FC9F3026C3F68C9F3021907FA3E
S315000014D00CFC2D4F2CFA09FCA7FB0C7C4FEA9C1C3C
S315000014E008FB0CFC294FA7FB0C7C4FEA9C4C0CF12B
S315000014F0010CBCF1070F38BF4FF0070C12F0005774
S3150000150022D0EFF31085012383F31088204BDC688B
S3150000151024F48004DC60DB6885F3108890251D4B7D
S315000015200C681D7003685FFA8CF714F0005F8D6815
S3150000153083F8DE7014BF4FF480774FF4806715F0A0
S31500001540005F18BF47F0010752000ED5620048BF82
S3150000155047F400775FFA8CFC58BF47F400676A00CF
S3150000156083F8DFC048BF47F00207BFB25F82CF688B
S31500001570002F7FF451AFBC4677E700BF434441528A
S3150000158000E001400C030020D34D621083DE1B43B4
S315000015900040084000300F40002170B4C0E902113D
S315000015A0436893F906205C698A4211DB0125344EB3
S315000015B0530902F01F0C203305FA0CF546F82350A8
S315000015C0BFF34F8FBFF36F8F2E4B43F82210436844
S315000015D093F90730002B10DB012103F01F05A9400A
S315000015E05A09274D203245F82210BFF34F8FBFF31B
S315000015F06F8F0021234A42F8231094F90630002BFE
S3150000160010DB012103F01F05A9405A091C4D2032A9
S3150000161045F82210BFF34F8FBFF36F8F0021194A91
S3150000162042F8231094F90730002B10DB0121144CEB
S315000016305A0903F01F052032A94044F82210BFF3CF
S315000016404F8FBFF36F8F00210E4A42F823100022FE
S3150000165003681A821A80EFF31084012383F310883B
S31500001660406809490088C0F110008340C8680343F8
S31500001670CB60CB6884F31088104670BC704700BFFF
S3150000168000E100E080010020004008400020FFF754
S3150000169031BE00BF064B074993F826001A6A51F877
S315000016A02030C2F302620449D3400B60704700BF8A
S315000016B000E00140700000200C030020F8B54AF25B
S315000016C0035001233749384AA1F8FE03A2F8043132
S315000016D0B2F804319BB2002BFAD101214FF4004538
S315000016E04FF0090C314CDFF8DCE0314EC4F804E071
S315000016F0DFF8D4E02B48C4F80CE02E4FA2F8001116
S315000017002D4AB16031606261276090F82620A5609D
S315000017102561056A54F82220C5F30265EA40274D83
S315000017202A6080F8133480F8A2C090F8803493B30E
S3150000173000231C4981F8813481F8803481F83230E5
S3150000174091F83C301A07FBD543F202100023154AE4
S31500001750088581F82A3092F83C309B06FBD5032099
S315000017600523114981F81C0115490120116282F8EF
S31500001770263092F82630116A54F82330C1F30261FC
S31500001780CB402B604FF4254382F8300082F852009C
S31500001790A2F8FE33F8BD80F8801440F2C44000F091
S315000017A04DF8C5E700E0014000C001407000002090
S315000017B000700040002D310100C2EB0B0C0300202D
S315000017C02112012000127A0000366E0138B500257C
S315000017D0134C0121C82084F8285000F02FF884F813
S315000017E0245094F82430002BFBD194F824300C4A72
S315000017F043F0020384F8243092F82430C3F3400403
S315000018009B07F9D4012082F8224000F0E7F8054B47
S31500001810012083F8BB44BDE8384000F0AFB800BFF4
S315000018200030084000E00140704700BF00BEFEE700
S31500001830A0F101000028FBD1704700BF10B54FF49E
S315000018407A72164C164B24684FF0000EB3FBF4FC6C
S315000018504FF0FF3300FB01F1A1FB020483427EEB54
S31500001860040407D3B0FBFCF0800880B1BDE810404B
S31500001870FFF7DEBF4FEA8C0CB1FBFCF1A1FB0212B5
S315000018808B427EEB020203D308460028EED110BD40
S315000018901846BDE81040FFF7CBBF00BF0C03002081
S315000018A000CA9A3B70B500240A4B0B4EB3F8405160
S315000018B0ADB225FA04F3DB07E0B203D556F82430BF
S315000018C003B198470134102CF3D1024BA3F83051E1
S315000018D070BD00BF006000403C01002030B56FF0D5
S315000018E0FF0585B0032000F079F84FF0FF311F4C5B
S315000018F01F482246856400230125CDE90111039185
S3150000190004F1C00E32F8020F590960B104A800EBC9
S31500001910810151F80C0C03F01F0C05FA0CFC20EAAF
S315000019200C0041F80C0C724503F10103EAD1019950
S31500001930104B0F4A03201167C3F8801202995167B2
S31500001940C3F8841203999167C3F8881200F016F859
S315000019500023094803F1C00234F8021F0133602B4B
S3150000196040F82210F6D105B030BD00BF122D0000A0
S315000019700080004000E100E000600040EFF31081CD
S31500001980012383F31088124B33F8102092B22AB148
S3150000199033F81020013A92B223F8102033F81030B1
S315000019A09BB293B90B4A10B4B2F8FE330A4C9BB201
S315000019B034F8100043F4254323EA0003A2F8FE336B
S315000019C081F310885DF8044B704781F310887047E7
S315000019D00003002000E001408C2E000030B4EFF33D
S315000019E01081012383F310880E4A32F810309BB21F
S315000019F06BB90D4C0D4DB4F8FE3335F810C09BB2E3
S31500001A0043EA0C0343F425439BB2A4F8FE3332F8B1
S31500001A10103001339BB222F8103081F3108830BCAD
S31500001A20704700BF0003002000E001408C2E00003C
S31500001A300D4908B50A6803464AB103330B4823F03B
S31500001A4003031344834206D810460B6008BD0848BA
S31500001A5002460860F1E700F077F80C234FF0FF32FA
S31500001A600360104608BD00BF0803002020230020A5
S31500001A702003002000BE704708B500F003F8FEF70B
S31500001A80C5FCFEE74FF4700270B5254B254CC3F834
S31500001A90882000209C60FEF7ADFCFFF70FFE0120BA
S31500001AA0FEF7A8FC2368A3F5805383F30A881E4833
S31500001AB01E4A0021121A00F05AF81D481D4A1E49F6
S31500001AC0121A00F047F81D4D1D4B5B1B002B07DD5E
S31500001AD000249E1055F8043B01349847A642F9DCD1
S31500001AE0FFF7D8FDFFF772FE0320FFF777FF00230D
S31500001AF04FF6FF70134903F108020133092B21F851
S31500001B001200F8D10320FFF739FF0220FEF772FC1E
S31500001B10FFF7E4FEBDE870400020FFF785BE00BF7A
S31500001B2000ED00E0000000009000002020030020EF
S31500001B300000002070000020302F00006800002008
S31500001B406C000020000D0840014B1868704700BF6C
S31500001B50040000200A44431E914200D1704710B58C
S31500001B6011F8014B914203F8014FF9D110BD02441F
S31500001B700346934200D1704703F8011BF9E7FFFFC4
S31500001B800FB40A4B13B51C6824B1A36913B92046D8
S31500001B9000F066F805AB049AA1682046019300F0B0
S31500001BA0BDF902B0BDE8104004B070470400002043
S31500001BB0002310B504468360818119464366C281BD
S31500001BC008228361C0E90033C0E904335C30FFF7C3
S31500001BD0CEFF054B24626362044BA362044BE362AF
S31500001BE0044B236310BD00BFC9240000EB24000092
S31500001BF02325000047250000014900F0AFB800BFCB
S31500001C001D28000070B568224D1E0E46554305F18D
S31500001C10740100F0E5F8044640B1002105F16802C0
S31500001C20C0E900160C30A060FFF7A1FF204670BD8A
S31500001C30014800F0B3B800BF11030020014800F0CE
S31500001C40AEB800BF11030020014800F0A7B800BFDE
S31500001C5012030020014800F0A2B800BF12030020C2
S31500001C6010B50446FFF7F0FFA3691BB1BDE81040AD
S31500001C70FFF7F0BFC4E9123323652046124B134A1F
S31500001C801B68A262A34204BF0123A36100F020F8EF
S31500001C906060204600F01CF8A060204600F018F8AE
S31500001CA000220421E0606068FFF782FF012209211B
S31500001CB0A068FFF77DFF02221221E068FFF778FF98
S31500001CC00123A361D2E700BF942E0000F91B000098
S31500001CD0F8B50746FFF7ACFF1E4B1E68B36913B98C
S31500001CE03046FFF7BDFF4836D6E90134013B03D540
S31500001CF033680BB33668F7E7B4F90C50D5B9164B11
S31500001D0004F158006566E36000F047F8FFF796FFB8
S31500001D100822294604F15C002560A561C4E9015545
S31500001D20C4E90455FFF723FFC4E90D55C4E912556C
S31500001D302046F8BD6834D9E704213846FFF762FF2C
S31500001D40044630600028D5D1FFF778FF0C233B60AE
S31500001D50EEE700BF942E00000100FFFF2DE9F843D7
S31500001D600646884600F148040027D4E90195B9F1F2
S31500001D70010905D52468002CF7D13846BDE8F8835B
S31500001D80AB89012B07D9B5F90E30013303D02946AB
S31500001D903046C04707436835E9E7704770477047E4
S31500001DA070B50E4E0C460546316811B900F07CFB45
S31500001DB030602146284600F077FB431C0AD0C41C3D
S31500001DC024F00304A04207D0211A284600F06CFB39
S31500001DD0013001D14FF0FF34204670BD18030020BA
S31500001DE02DE9F041CD1C074625F0030508350C2DDD
S31500001DF038BF0C25002D01DBA94205D90C2300268E
S31500001E003B603046BDE8F0812E4E00F0C9FD3368D8
S31500001E101C4634BB29463846FFF7C2FF431C04461E
S31500001E204DD134682646002E40D1236831463846C7
S31500001E3004EB030800F038FB80453AD121680335EE
S31500001E4038466D1A25F0030508350C2D38BF0C25CC
S31500001E502946FFF7A5FF01302BD023682B442360CA
S31500001E600EE02268521B1ED40B2A16D96119A34212
S31500001E70256018BF5960636808BF316062514B60C6
S31500001E8004F10B06384600F091FD231D26F00706E7
S31500001E90F21AB6D09B1BA350B3E76268A3420CBFED
S31500001EA032605A60ECE723466468B2E734467668E7
S31500001EB0B9E70C2338463B6000F078FDA1E72560C2
S31500001EC0DEE700BF140300209368013B002B9360FC
S31500001ED010B408DA9469A34201DB0A2903D15DF83C
S31500001EE0044B00F035BB1368581C10600846197087
S31500001EF05DF8044B7047F8B506460F461446D518EC
S31500001F00AC4201D1002007E03A4614F8011B3046E6
S31500001F10FFF7DAFF431CF3D1F8BDFFFF2DE9F04FC1
S31500001F200D469DB014469846064618B183690BB90E
S31500001F30FFF796FE894B9D421BD175686B6ED907DC
S31500001F4005D4AB899A0502D4A86DFFF727FFAB89A4
S31500001F501B0701D52B69EBB92946304600F05CFB1F
S31500001F60C0B16B6EDC070ED54FF0FF301DB0BDE87B
S31500001F70F08F7B4B9D4201D1B568DFE7794B9D42DF
S31500001F8008BFF568DAE7AB899805EDD4A86DFFF7C9
S31500001F9006FFE9E70023CDF80C804FF00109DFF8D2
S31500001FA0C881099320238DF8293030238DF82A30F3
S31500001FB023469A4613F8012B0AB1252AF9D1BAEB22
S31500001FC0040B0BD05B46224629463046FFF793FFAB
S31500001FD0013000F0AA80099A5A4409929AF8003012
S31500001FE0002B00F0A28000234FF0FF320AF1010A15
S31500001FF0049307938DF853301A93CDE9052354467D
S315000020000522594814F8011B00F0BCFC049AD8B903
S31500002010D10644BF20238DF85330130744BF2B232A
S315000020208DF853309AF800302A2B15D0079A54466B
S3150000203000204FF00A0C214611F8013B303B092BDA
S315000020404ED9B0B1079214E0A0EB0803A24609FAF4
S3150000205003F313430493D2E7039B191D1B68002B5C
S315000020600391BBBF5B4242F0020207930793B8BFDE
S31500002070049223782E2B0CD163782A2B35D1039B1F
S3150000208002341A1D1B68002B0392B8BF4FF0FF33B2
S315000020900593DFF8E4A003222178504600F072FC95
S315000020A040B14023A0EB0A00013403FA00F0049B80
S315000020B00343049314F8011B06222C488DF82810BC
S315000020C000F060FC00283FD0294B1BBB039B073365
S315000020D023F0070308330393099B3B44099367E7FF
S315000020E00CFB02320C460120A5E7002301344FF019
S315000020F00A0C19460593204610F8012B303A092A96
S3150000210003D9002BC5D00591C3E70CFB012104467A
S315000021100123F0E703AB2A4604A930460093154B8A
S3150000212000E000BF0746781CD6D16B6ED90705D4F0
S31500002130AB899A0502D4A86DFFF731FEAB895B0621
S315000021403FF512AF099811E703AB2A4604A93046BA
S315000021500093084B00F082F8E4E700BFB82E0000B9
S31500002160D82E0000982E0000F82E0000022F000046
S3150000217000000000F71E0000FE2E00002DE9F047CB
S31500002180164699468A6807460B690C46DDF8208094
S315000021909342B8BF1346336091F843200AB1013326
S315000021A033602368990642BF33680233336025687B
S315000021B015F0060506D104F1190AE36832689B1A80
S315000021C0AB4229DC94F84320131E226818BF012372
S315000021D092062ED404F1430249463846C0470130E0
S315000021E021D023681A3454F80E5C03F006033268D3
S315000021F00026042B54F8123C08BFAD1A54F80A2CDA
S3150000220014BF002525EAE5759342C4BF9B1AED1855
S31500002210B5421AD1002008E0012352464946384605
S31500002220C047013003D14FF0FF30BDE8F0870135DC
S31500002230C3E7E1185A1C30200233224481F84300D8
S3150000224094F8451082F84310C4E701232246494614
S315000022503846C0470130E6D00136D9E72DE9FF47B9
S315000022600F7E914680460C46782F9A460C9D01F1CA
S31500002270430207D8622F0AD8002F00F0D880582FC3
S3150000228000F0A38004F1420584F842703AE0A7F119
S315000022906303152BF6D801A151F823F0F5220000AF
S315000022A00923000085220000852200008522000007
S315000022B085220000092300008522000085220000F7
S315000022C08522000085220000152400003923000025
S315000022D0F723000085220000852200003724000035
S315000022E08522000039230000852200008522000097
S315000022F0FF2300002B681A1D1B682A6004F14205A3
S3150000230084F842300123A3E020682968060601F11B
S3150000231004030AD50E682B60002E03DA2D237642BD
S3150000232084F843305E480A2319E00E6810F0400F27
S315000023302B6018BF36B2EFE72B682068191D29609D
S31500002340010601D51E6802E04606FBD51E886F2FE2
S3150000235053480CBF08230A23002184F843106568FC
S31500002360002DA560A2BF216821F0040121600EB9ED
S31500002370002D4DD01546B6FBF3F103FB1167C75D83
S3150000238005F8017D37460E46BB42F4D9082B0BD122
S315000023902368DE0708D5236961689942DEBF3023CA
S315000023A005F8013C05F1FF35521B22614B4603AA95
S315000023B021464046CDF800A0FFF7E0FE01304CD1A3
S315000023C04FF0FF3004B0BDE8F087354881F845701E
S315000023D02968236851F8046B29601D0614D5DF07A8
S315000023E044BF43F0200323601EB9236823F0200373
S315000023F023601023B0E7236843F02003236078238B
S31500002400284884F84530E3E7590648BFB6B2E6E700
S315000024101546BBE72B682668181D616928603506D6
S315000024201B6801D5196002E07006FBD519800023F0
S3150000243015462361BAE72B6800211A1D2A601D681C
S315000024406268284600F09EFA08B1401B6060636827
S315000024502361002384F84330A8E723692A464946C6
S315000024604046D0470130ABD023689B0713D4E068C1
S31500002470039B9842B8BF1846A4E701233246494653
S315000024804046D04701309BD00135E36803995B1A7B
S31500002490AB42F2DCEBE7002504F11906F5E700BFD5
S315000024A0092F00001A2F000038B50023054D0446F9
S315000024B008462B60FFF7BCFA431C02D12B6803B118
S315000024C0236038BD1C03002010B50C46B1F90E1070
S315000024D000F0BEFA0028ABBF636DA3891B1823F476
S315000024E08053ACBF6365A38110BD2DE9F0411F4643
S315000024F08B8905460C46DB05164605D502230022C8
S31500002500B1F90E1000F0C6F9A3893246B4F90E10DF
S31500002510284623F48053A3813B46BDE8F04100F0F2
S3150000252069B810B50C46B1F90E1000F0B3F9431CAA
S31500002530A38915BF606523F4805343F48053A381B8
S3150000254018BFA38110BDB1F90E1000F0D3B8FFFF7C
S31500002550F8B50E461446054618B183690BB9FFF760
S315000025607FFB214B9C422BD16C68A369A360A38996
S315000025701A072FD523696BB32369F6B2206837464D
S31500002580C01A6369834204DC2146284600F046F9F6
S3150000259030BBA3680130013BA36023685A1C22604C
S315000025A01E706369834204D0A389DB0706D50A2E11
S315000025B004D12146284600F031F988B93846F8BDDD
S315000025C00A4B9C4201D1AC68CFE7094B9C4208BF3D
S315000025D0EC68CAE72146284600F01EF80028CBD052
S315000025E04FF0FF37EAE700BFB82E0000D82E0000F4
S315000025F0982E000038B50446064D084611460022BE
S315000026002A601A46FDF746FE431C02D12B6803B129
S31500002610236038BD1C030020324B70B51D6806468A
S315000026200C4625B1AB6913B92846FFF719FB2E4BAB
S315000026309C420FD16C68A389B4F90C2019072CD4DD
S31500002640DD0611D40923336042F040034FF0FF301A
S31500002650A3813EE0254B9C4201D1AC68EBE7244BBD
S315000026609C4208BFEC68E6E7580712D5616B41B19A
S3150000267004F14403994202D0304600F09DF900234C
S315000026806363A38923F02403A38100236360236982
S315000026902360A38943F00803A38123694BB9A38967
S315000026A003F42073B3F5007F03D02146304600F0D3
S315000026B029F9A089B4F90C2010F001030AD00023EF
S315000026C0A36063695B42A361236943B910F080008C
S315000026D0BAD170BD810758BF6369A360F4E70020D3
S315000026E0F7E700BF04000020B82E0000D82E000037
S315000026F0982E000038B50023054D044608462B6089
S3150000270000F0DAF9431C02D12B6803B1236038BD0F
S315000027101C0300208A892DE9F041054610070C4666
S3150000272058D44B68002B05DC0B6C002B02DC002018
S31500002730BDE8F081E66A002EF9D0002312F480523B
S315000027402F682B6032D0606DA3895A0705D5636860
S31500002750C01A636B0BB1236CC01A00230246E66AEB
S315000027602846216AB047431CA38906D129681D293A
S315000027702CD8294ACA40D60728D50022D904626037
S315000027802269226004D5421C01D12B6803B9606519
S31500002790616B2F600029CAD004F14403994202D02C
S315000027A0284600F009F900206063C1E7216A012389
S315000027B02846B047411CC7D12B68002BC4D01D2B1F
S315000027C001D0162B01D12F60B1E7A38943F0400356
S315000027D0A381ADE70F69002FA9D093070E680F609C
S315000027E00CBF4B690023A6EB07088B60B8F1000FFE
S315000027F09DDD43463A46216A2846A66AB047002828
S3150000280006DCA3894FF0FF3043F04003A3818FE736
S315000028100744A8EB0008E9E70100402038B50B693A
S3150000282005460C4613B90025284638BD18B18369FC
S315000028300BB9FFF715FA144B9C421BD16C68B4F91F
S315000028400C30002BEFD0626ED00704D4990502D469
S31500002850A06DFFF7A3FA28462146FFF75BFF636EDC
S315000028600546DA07E0D4A3899B05DDD4A06DFFF702
S3150000287096FAD9E7054B9C4201D1AC68DFE7044BD9
S315000028809C4208BFEC68DAE7B82E0000D82E00009C
S31500002890982E000038B50446064D0846114600221B
S315000028A02A601A4600F020F9431C02D12B6803B1B6
S315000028B0236038BD1C03002070B50E46B1F90E101A
S315000028C096B0144600291D4608DAB6F90C300022E7
S315000028D02A601A0610D44FF480630EE06A4600F0B0
S315000028E0C9F80028F1DB019A02F47042A2F5005300
S315000028F05A425A412A60EEE740230020236016B070
S3150000290070BDFFFF8B8973B59D0706460C4607D53C
S3150000291004F14703236023610123636102B070BDA4
S3150000292001AB6A46FFF7C8FF009905463046FFF738
S3150000293057FA48B9B4F90C309A05EFD423F00303DB
S3150000294043F00203A381E3E70D4BB362A389206042
S3150000295043F080032061A381009B6361019B5BB10F
S31500002960B4F90E10304600F097F828B1A38923F089
S31500002970030343F00103A381A0890543A581CDE7A5
S31500002980F91B0000C9B2024410B59042034601D1BA
S31500002990002303E01C7801308C42F6D1184610BDA6
S315000029A00148FFF7FBB900BF100300200148FFF7FD
S315000029B0F6B900BF1003002037B5002943D051F8FF
S315000029C0043C0C1F0190002BB8BFE418FFF7E8FF8A
S315000029D01E4A0198136833B96360146003B0BDE8FA
S315000029E03040FFF7E3BFA34208D9256861198B423F
S315000029F001BF19685B6849192160EDE71A465B68F3
S31500002A000BB1A342FAD911685518A5420BD1246817
S31500002A10214454181160A342E0D11C685B6821442C
S31500002A2053601160DAE702D90C230360D6E7256804
S31500002A3061198B4202BF19685B684919636008BF58
S31500002A4021605460CAE703B030BD00BF1403002004
S31500002A5038B50446064D0846114600222A601A4635
S31500002A6000F04AF8431C02D12B6803B1236038BD3D
S31500002A701C03002038B50023064D044608461146BF
S31500002A802B6000F021F8431C02D12B6803B12360B0
S31500002A9038BD00BF1C03002038B50023054D044691
S31500002AA008462B6000F018F8431C02D12B6803B1CE
S31500002AB0236038BD1C030020024B58224FF0FF3024
S31500002AC01A6070471C030020024B58224FF0FF305B
S31500002AD01A6070471C030020024B582200201A601F
S31500002AE0704700BF1C030020024B58224FF0FF30F6
S31500002AF01A6070471C030020024B58224FF0FF302B
S31500002B001A6070471C0300204275696C742077694F
S31500002B1074682052656E6573617320416476616ED8
S31500002B2063656420466C657869626C6520536F66E0
S31500002B307477617265205061636B616765207665A5
S31500002B407273696F6E20342E352E3000342E352E7A
S31500002B503000000000000504F8B500BFF8BC08BC52
S31500002B609E467047F8B500BFF8BC08BC9E46704745
S31500002B704653505F53554343455353203D3D2065CF
S31500002B80727200002E2E2F7A65642F6170706C6948
S31500002B90636174696F6E732F6170705F75617274B3
S31500002BA05F746573742E63004144432056616C75EF
S31500002BB0653A2025640D0A006170705F7465737450
S31500002BC000FFFFFFB8000020D02B0000302E0000D1
S31500002BD000000000000000000000000000000000EF
S31500002BE0C600000000000000000000000000000019
S31500002BF00000000000000000000000000000FFFFD1
S31500002C00C8000020102C0000342C0000582E0000B4
S31500002C1000000000000204DF03FF0000B102000014
S31500002C2000000000282C0000000102000000DFDF89
S31500002C30FFFFFFFF0400000000000000000000008E
S31500002C400000000000000018EC000020542C0000DA
S31500002C50002E000000000000400D030000000000F0
S31500002C60A086010000FFDF00000000000000000059
S31500002C70742C0000000000000000000000000000AE
S31500002C80000000000000000000000000000000003E
S31500002C90000000000000FFFFDFDF00000000000072
S31500002CA0000000000C010020B02C0000D42D000014
S31500002CB0070200000C000C010C020C0300000000CF
S31500002CC0000000004102000000000000D02C0000BF
S31500002CD000010000000000200F00FFFF00000000C0
S31500002CE0FFFF000005000000EC2C00000080000043
S31500002CF002000000000001000801000000000100C1
S31500002D0000030000000001050D060000000001059B
S31500002D100E060000AA01AB01AC01AD016001000086
S31500002D20000000000000000000000000000000009D
S31500002D30000000000000000000000000000000008D
S31500002D40000000000000000000000000000000007D
S31500002D50000000000000000000000000000000006D
S31500002D60000000000000000000000000000000005D
S31500002D70000000000000000000000000000000004D
S31500002D80000000000000000000000000000000003D
S31500002D90000000000000000000000000000000002D
S31500002DA0000000000000000000000000000000001D
S31500002DB0000000000000000000000000000000000D
S31500002DC000000000000000000000000000000000FD
S31500002DD00000000035060000E5040000F1040000D4
S31500002DE04905000095050000A10500003905000011
S31500002DF019040000DD050000020403040404FFFFBB
S31500002E005D0E0000150D0000090D0000210D0000EB
S31500002E102D0D00005D0D0000750D00008D0D0000EC
S31500002E20B50D0000910D0000A50D0000690F000012
S31500002E3009100000591000006D10000085100000F8
S31500002E4095100000A5100000B51000000A0900004A
S31500002E500A0900003F0B000095110000C113000095
S31500002E60D1100000DD100000E1100000ED100000A0
S31500002E70FD1000000D110000291100002D110000A9
S31500002E80C110000099150000511300000100020056
S31500002E9008001000080000200000000000000000EC
S31500002EA0000000000000000000000000000000001C
S31500002EB0000000000000000000000000000000000C
S31500002EC000000000000000000000000000000000FC
S31500002ED000000000000000000000000000000000EC
S31500002EE000000000000000000000000000000000DC
S31500002EF00000000000000000232D302B2000686C2D
S31500002F004C00656667454647003031323334353606
S31500002F10373839414243444546003031323334353F
S31500002F203637383961626364656600FF0000000069
S31500002F30400035000800002000000000B82E000008
S31500002F40D82E0000982E00000000000000000000AF
S31500002F50000000000000000000000000000000006B
S31500002F60000000000000000000000000000000005B
S31500002F70000000000000000000000000000000004B
S31500002F80000000000000000000000000000000003B
S31500002F900000000000000000250200000102000001
S3150100A100FFFFFFFFFFFFFFFFFFFFFFFFFFFFFFFF58
S3090100A110FFFFFFFF48
S3090100A134FFFFFFFF24
S3150100A200FFFDFFFFFFFFFFFFFFFFFFFFFFFFFFFF59
S3150100A210FFFFFFFFFFFFFFFFFFFFFFFFFFFFFFFF47
S3150100A220FFFFFFFFFFFFFFFFFFFFFFFFFFFFFFFF37
S3150100A230FFFFFFFFFFFFFFFFFFFFFFFFFFFFFFFF27
S3150100A240FFFFFFFFFFFFFFFFFFFFFFFFFFFFFFFF17
S3150100A250FFFFFFFFFFFFFFFFFFFFFFFFFFFFFFFF07
S3150100A260FFFFFFFFFFFFFFFFFFFFFFFFFFFFFFFFF7
S3150100A270FFFFFFFFFFFFFFFFFFFFFFFFFFFFFFFFE7
S3150100A280F8F8FFFFFFFFFFFFFFFFFFFFFFFFFFFFE5
S3150100A290FFFFFFFFFFFFFFFFFFFFFFFFFFFFFFFFC7
S3150100A2A0FFFFFFFFFFFFFFFFFFFFFFFFFFFFFFFFB7
S3150100A2B0FFFFFFFFFFFFFFFFFFFFFFFFFFFFFFFFA7
S3150100A2C0FFFFFFFFFFFFFFFFFFFFFFFFFFFFFFFF97
S70500001A7967
