S01600007261366D355F64735F6D75736C652E73726563A8
S315000000001035002099210000C51F00009521000031
S315000000109521000095210000952100009521000002
S315000000200000000000000000000000009521000014
S315000000309521000000000000952100009521000098
S31500000040590E0000C90D0000E90E0000310F000036
S315000000504D18000000000000000000000000000035
S31500000060000000000000000000000000000000008A
S31500000070000000000000000000000000000000007A
S31500000080000000000000000000000000000000006A
S31500000090000000000000000000000000000000005A
S315000000A0000000000000000000000000000000004A
S315000000B0000000000000000000000000000000003A
S315000000C0000000000000000000000000000000002A
S315000000D0000000000000000000000000000000001A
S315000000E0000000000000000000000000000000000A
S315000000F000000000000000000000000000000000FA
S3150000010000000000000000000000000000000000E9
S3150000011000000000000000000000000000000000D9
S3150000012000000000000000000000000000000000C9
S3150000013000000000000000000000000000000000B9
S3150000014000000000000000000000000000000000A9
S315000001500000000000000000000000000000000099
S315000001600000000000000000000000000000000089
S315000001700000000000000000000000000000000079
S315000001800000000000000000000000000000000069
S315000001900000000000000000000000000000000059
S315000001A00000000000000000000000000000000049
S315000001B00000000000000000000000000000000039
S315000001C0FFFFFFFFFFFFFFFFFFFFFFFFFFFFFFFF39
S315000001D0FFFFFFFFFFFFFFFFFFFFFFFFFFFFFFFF29
S315000001E0FFFFFFFFFFFFFFFFFFFFFFFFFFFFFFFF19
S315000001F0FFFFFFFFFFFFFFFFFFFFFFFFFFFFFFFF09
S3150000020010B5054C237833B9044B13B1044800E00C
S3150000021000BF0123237010BD08020020000000006B
S31500000220105E000008B5034B1BB10349034800E00C
S3150000023000BF08BD000000000C020020105E000098
S31500000240F8B5394BD3E901121868126890470028AF
S3150000025034D1364CE56826682B6830466168984785
S3150000026000285BD130466B68A168984700284FD1BB
S315000002702F4B9C68D3E900712368384698470028BD
S3150000028040D1384663699847002835D1294BD3E9D0
S31500000290011218681268904740BB274B9C68D3E947
S315000002A00071236838469847D0B93846636898473E
S315000002B080B93046AB68984730B9F8BD22211F4B4C
S315000002C01F4A204801F042FE38211C4B1C4A1D489B
S315000002D001F03CFE3521194B194A1A4801F036FE49
S315000002E03321164B164A174801F030FE3021134BC6
S315000002F0134A144801F02AFE2D21104B104A1148CA
S3150000030001F024FE2A210D4B0D4A0E4801F01EFE77
S3150000031027210A4B0A4A0B4801F018FE2421074BF5
S31500000320074A084801F012FE185800004C57000012
S3150000033010570000F057000094570000B056000018
S31500000340EC560000C45600000122014B1A7070479B
S315000003502402002038B50A4604461749D1E901307F
S315000003601B68456808689C601946DA81A84788B901
S31500000370124B1D689C68284663689847B0B9104AB6
S315000003801378002BFCD000212846A36811709847EB
S3150000039030B938BD4C210B4B0B4A0C4801F0D6FD49
S315000003A05321084B084A094801F0D0FD4F21054B5F
S315000003B0054A064801F0CAFDF057000094570000B0
S315000003C024020020B0560000E0560000C45600008B
S315000003D02DE9F84FC24E2DED068BD6F8008010EEB3
S315000003E0105A404602F0A4F8BE4F824638688B4643
S315000003F002F09EF8A6A3D3E9002341EC1A0B50465F
S31500000400594604F021FE0246284614460D4602F0DF
S315000004108FF802460B462046294601F02BFF9EA385
S31500000420D3E9002304460D4651EC1A0B04F00CFEEA
S3150000043002460B462046294601F01AFF02F0D0F884
S31500000440A94BC7F800801F6804463060384602F0A2
S315000004506FF802460B46DFF8A49243EC192BD9F845
S31500000460000002F065F802460B46204643EC182BC6
S3150000047002F05EF88AA3D3E9002304F0E5FD8AA31F
S31500000480D3E9002304460D465046594604F0DCFDE8
S3150000049002460B462046294601F0ECFE80A3D3E92E
S315000004A0002304460D4651EC1A0B04F0CDFD02461E
S315000004B00B462046294601F0DDFE02F091F802F0D7
S315000004C037F87BA3D3E9002304460D4651EC190BFC
S315000004D004F0BAFD02460B462046294601F0CAFE44
S315000004E075A3D3E900235BEC18AB04460D4618EE62
S315000004F0100A594604F0A8FD02460B462046294636
S3150000050001F0B6FE02F06CF87849774BD1F800801E
S315000005100546C9F800701860404602F009F8744BA9
S31500000520064618680F4602F003F853EC192B41EC07
S31500000530180B194619EE100A01F09CFE02462846D1
S3150000054014460D4601F0F4FF02460B4620462946A6
S3150000055001F090FE52465B4601F08CFE02F040F838
S3150000056001F0E6FF56A3D3E9002304460D463046C4
S31500000570394604F069FD02460B462046294601F03D
S3150000058079FE51A3D3E9002304460D4651EC180B1E
S3150000059004F05AFD02460B462046294601F068FE45
S315000005A002F01EF8524B5149C3F80080514B814668
S315000005B0D3F800800860404601F0BAFF0D464E4968
S315000005C00446086801F0B4FF002282468B464FF0CD
S315000005D040433046394604F037FD064648460F4646
S315000005E001F0A6FF02460B463046394601F042FEB0
S315000005F053EC182B01F03EFE01F0F2FF01F098FFDC
S3150000060033A3D3E9002306460F462046294604F0C5
S315000006101BFD02460B463046394601F02BFE2EA343
S31500000620D3E9002306460F465046594604F00CFD12
S3150000063002460B463046394601F01AFE01F0D0FF5D
S31500000640034620461C462C492A4B00221C60C1F852
S3150000065000804FF04043294604F0F6FC024620464F
S315000006600D46144601F064FF02460B462046294615
S3150000067001F000FE52465B4601F0FCFD01F0B0FFC2
S31500000680BDEC068B00EE100ABDE8F88FAFF30080D4
S315000006905DD7D41E9BA9E13F6ED55C0B0659E33F9F
S315000006A0189CB96EE74E623F189CB96EE74E723FD2
S315000006B0A416107B1D88EB3FD237AB36E652E43FDB
S315000006C0BCBD5AA43FEAD73F9DB8A0E7E4FFE93F87
S315000006D0EBAA402D067FF23F7FD6E35BAB1FEB3FD5
S315000006E03402002044020020300200202C020020A8
S315000006F03C02002028020020380200204002002090
S315000007000379012B05D0022B05D10122024B1A6079
S315000007107047024A136070474C02002048020020CE
S3150000072010B50A4B82B0996801908C68012218684E
S3150000073001A9A04700B100BE054A1368002BFCD0F2
S3150000074000230198136002B010BD00BF18580000C6
S315000007504C02002070B5161E07DD0C468D1914F9E3
S31500000760010BFFF7DDFFA542F9D1304670BD00BF92
S315000007702DE9F04D2DED028B84B0FFF761FDDFED25
S31500000780228A224E224D234CDFF89080224F30469B
S315000007900121FFF7DFFD338800EE103AB8EE400A7C
S315000007A0FFF716FE2B6894ED008A08EB8301D1ED66
S315000007B0007A38EE678AF0EEC07A38EE278A01337F
S315000007C05A4202F00F0203F00F0310EE100A58BF50
S315000007D05342C1ED007A2B6084ED008A01F0A8FE39
S315000007E068EE287A02460B4617EE900ACDE90223F8
S315000007F001F09EFEDDE9022382468B463846CDE9AE
S3150000080000AB02F0C5FBC2E70000803D9802002065
S315000008109002002094020020F856000050020020AA
S31500000820FFF7A6BF022800D070470249024800F031
S3150000083079BC00BF58580000A402002008B5FFF795
S31500000840EFFF002008BD00BF10B400240122036A98
S3150000085044609C70C3692D4993F905304FEA531CD7
S3150000086003F01F0302FA03F30CF1200C41F82C30BD
S31500000870BFF34F8FBFF36F8FC36993F90B304FEA06
S31500000880531C03F01F0302FA03F30CF1200C41F88A
S315000008902C30BFF34F8FBFF36F8FC36993F90730C7
S315000008A04FEA531C03F01F0302FA03F30CF1200C6A
S315000008B041F82C30BFF34F8FBFF36F8FC36993F9A5
S315000008C009304FEA531C03F01F0302FA03F30CF13D
S315000008D0200C41F82C30BFF34F8FBFF36F8FEFF32F
S315000008E0108182F31088C369094A93F800C04FF05B
S315000008F00043506823FA0CF303435360536881F3B3
S31500000900108820465DF8044B704700BF00E100E008
S315000009100040084003460020C3E90512704700BFA7
S3150000092010B4046AA37803F07B03A370837803F002
S315000009300303D21A0B440261A278C360837842F0A3
S31500000940800203F00303022BA27005D00B7800206F
S31500000950E3705DF8044B70470B88002043F47E4338
S31500000960E3815DF8044B704784460020CCE90A32E7
S31500000970CCF82410704700BF70B586460024DEF818
S3150000098020304D7893F802C00A780CF00B069E7062
S31500000990CEF80C4020468C7802F05C025C7093F82E
S315000009A000E00CF07B0C65F3010E83F800E0C978DB
S315000009B09974D97901F0A3010A43DA7183F802C068
S315000009C070BD00BF4FF0FF330020C1E90033704710
S315000009D08B0711D5002210B4046AC907A37803F067
S315000009E07B03A3701346026102D50022134682617F
S315000009F018465DF8044B7047CA074FF0060302D548
S31500000A000022134682611846704700BF0346002243
S31500000A1010B49C6910460C605DF8044B9A617047EF
S31500000A20F0B5846A85B005460F4694466E46B4B165
S31500000A3094E80F0086E80F00EB6920461B7884F8DF
S31500000A4004C02360EB6AC4E902736B6A9847AC6A18
S31500000A501CB196E80F0084E80F0005B0F0BD3446DF
S31500000A60EAE700BF0022F0B501240B78027003F517
S31500000A70800303F58C531B0203624B698D69436245
S31500000A808378C16164F301038262C56283704B7827
S31500000A9023B90222837862F301038370012491F95A
S31500000AA00B50C44A6B0905F01F07203304FA07F7F9
S31500000AB08E7A42F82370BFF34F8FBFF36F8FBE4B12
S31500000AC005F1C00753F827C06FF3104C43F827C051
S31500000AD053F82770B94F360102EB050CF6B28CF8C5
S31500000AE0006347F8250091F905500E794FEA551C29
S31500000AF005F01F0E0CF1200C04FA0EFE42F82CE055
S31500000B00BFF34F8FBFF36F8F05F1C00C53F82CE086
S31500000B106FF3104E43F82CE053F82CC0360102EB6D
S31500000B20050CF6B28CF8006347F8250091F90750DA
S31500000B308E794FEA551C05F01F0E0CF1200C04FAB5
S31500000B400EFE42F82CE0BFF34F8FBFF36F8F05F117
S31500000B50C00C53F82CE06FF3104E43F82CE053F81A
S31500000B602CC0360102EB050CF6B28CF8006347F890
S31500000B70250091F909500E7A4FEA551C05F01F0E13
S31500000B800CF1200C04FA0EFE42F82CE0BFF34F8F56
S31500000B90BFF36F8F05F1C00C53F82CE06FF3104EC6
S31500000BA043F82CE053F82C303301DBB22A4482F8A8
S31500000BB0003347F82500EFF3108584F310884FF0D3
S31500000BC000447F4B0E785A68F44022EA04025A60C9
S31500000BD05B6885F31088002240F2F934036A40F21C
S31500000BE0F9359A701A715A729A72DA725A830A78B9
S31500000BF024FA02F2D60744BF4022DA740622CC69F0
S31500000C001A770A784E78D540ED078F78CA7848BFAC
S31500000C104FF478414FEAC20248BF9982032E42EA56
S31500000C20071200F0C280002E14BFF221E221D2B2D8
S31500000C301A709971227B082A0EBF0A22520002F00E
S31500000C4002025A736278A178D201490101F02001AB
S31500000C50D2B20A430021197294F800C0ACF1020125
S31500000C60012940F29880D2B2DA716268917855789B
S31500000C705970197865F301011970D1781278997451
S31500000C80D97902F05C0201F0A3010A43DA7100226D
S31500000C90C16902618261C260426191F90550464BA9
S31500000CA005F1C00153F8216062F3104643F8216054
S31500000CB053F82110BFF35F8F01266909890005F0FB
S31500000CC01F0501F1604101F5614106FA05F5C1F81C
S31500000CD080510D60C16991F90B5005F1C00153F8BF
S31500000CE0217062F3104743F8217053F82110BFF3C7
S31500000CF05F8F6909890005F01F0501F1604106FA59
S31500000D0005F501F56141C1F880510D60C16991F9A0
S31500000D1007E00EF1C00153F8215062F3104543F885
S31500000D20215053F82110BFF35F8F4FEA5E118900FF
S31500000D300EF01F0E01F1604106FA0EF501F5614154
S31500000D40C1F880510D60C16991F9091001F1C00522
S31500000D5053F8257062F3104743F8257053F8253091
S31500000D60BFF35F8F4B099B0001F01F0103F1604346
S31500000D708E4003F56143C3F880611E60036A0CF080
S31500000D80030C4CF0700C618983F802C00D4B018195
S31500000D9043601046F0BDFF21BCF1020F08BF42F0D0
S31500000DA01002D2B25970DA7171E7F22142F04002B4
S31500000DB03DE700BF00E100E0006000407003002056
S31500000DC0004008405549435330B4EFF30383103BCA
S31500000DD01F4A5BB203F1C00152F821006FF31040C5
S31500000DE042F8210052F821201A4A52F82300C3691A
S31500000DF01B691BB103691BB130BC704703697BB922
S31500000E00D0E908240021937803F07F0343F004031C
S31500000E109370C160002CEFD030BC8022FFF700BE7B
S31500000E20827802F003010229C1680BD0046A91F8A6
S31500000E3000C084F803C002F003029B1A0A44C0E90A
S31500000E400323D8E70C88056A44F47E44EC81F2E774
S31500000E50006000407003002010B582B0EFF30383FA
S31500000E60103B1F4A5BB203F1C00152F821006FF339
S31500000E70104042F8210052F821201A4A52F8234025
S31500000E80A27802F00303022B236A0CBF198A597950
S31500000E90A3690CBFC1F30801C9B2019143B9636AE2
S31500000EA0B3B10422204602B0BDE81040FFF7B8BD3A
S31500000EB002F0030201A9606901F0E8FBD4E905210B
S31500000EC0A37803F003031A44C91AC4E9052109B13A
S31500000ED002B010BD636A002BFAD00122E2E700BF20
S31500000EE0006000407003002010B5EFF303830E4A44
S31500000EF0103B5CB252F82400D0E90821937803F045
S31500000F007B03937019B102220021FFF789FD074A7E
S31500000F1004F1C00352F823106FF3104142F8231076
S31500000F2052F8233010BD00BF70030020006000405F
S31500000F3010B5EFF303831A4A103B5CB252F8240053
S31500000F40837803F00303022B036A0CBF198A5979CD
S31500000F5093F804C00CBFC1F30801C9B21CF0100F0E
S31500000F600CF0380206D093F81CC01CF0010F08BF25
S31500000F7042F0400293F804C00CF0C70C83F804C09A
S31500000F80436A0BB1FFF74CFD064A04F1C00352F861
S31500000F9023106FF3104142F8231052F8233010BD8E
S31500000FA070030020006000402DE9F84F0388002BF5
S31500000FB03DD007464FF00008DFF8A4A040F20242F9
S31500000FC07B684FEAC80559198988002491424FF079
S31500000FD00109224E09D00134032C23D07B6836F850
S31500000FE0022B591989889142F5D15B5909FA04F205
S31500000FF003F0B853B3F1807F5FFA82FB19D09AF8F9
S31500001000BB341A42E7D0012001F078F89AF8BB34D5
S31500001010012023EA0B0B8AF8BBB4013401F03EF839
S31500001020032CDBD13B8808F101084345C6D8BDE84F
S31500001030F88F9AF8BB2409FA04F313425FFA83FB8C
S31500001040C9D1012001F05AF89AF8BB3401204BEAC5
S31500001050030B8AF8BBB401F021F8BCE76E59000017
S3150000106000E00140F8B50446FFF79EFFEFF310825B
S31500001070012383F31088284E33681BB92749CB70A8
S315000010804023CB7033680133336082F310882388A2
S315000010907BB3626803F1FF3E1FFA8EFE02F1080180
S315000010A01F4C01EBCE0E08E0D2B21B0113448E4555
S315000010B00A4644F823001CD008311068928810F4C0
S315000010C0803F4FEA1223EFD0130AD2B202EB031C81
S315000010D054F82C701B01134420F480356FF310472D
S315000010E08E4544F82C700A4644F82C5044F82300E8
S315000010F0E2D1EFF31082012383F31088336813B132
S315000011003368013B336033681BB980200349CB70D9
S31500001110C87082F31088F8BD6C030020000D0840EB
S315000011200008084008B5034B03600846FFF79AFF1E
S31500001130002008BD54524F5003460020D3E9022335
S315000011409360704703460020D3E90223536070473B
S3150000115003460020D3E90223D3607047034630B428
S31500001160D3E90123D2690020D2E9011444F00045F5
S31500001170D46841F0004144F000445D619C61D2E9CD
S31500001180044219615C629A6230BC70474FF00041BC
S315000011900022836810461961596199615A629A6200
S315000011A0704700BF836801399966DA6AD20702D4AC
S315000011B0C2685966DA600020704700BF0620704793
S315000011C003469A680020D36AC3F300030B71936C3D
S315000011D00B60704784460020CCE90632CCF8141028
S315000011E0704700BF02464FF0010C30B494680C4DB6
S315000011F0626E0C4B62448A60E46A2A6A1B6881F854
S3150000120000C0C4F3C35CC2F30264A34002F0070249
S31500001210D34023FA0CF3002030BC4B60704700BF6C
S3150000122000E00140FC040020002800DA704710B4FA
S3150000123000F160430901134CC9B203F5614383F819
S315000012400013114B00F1C00144F8202053F821206F
S315000012506FF3104243F8212053F82130BFF35F8F1C
S31500001260012243099B0000F01F0003F1604303F5D0
S31500001270614302FA00F0C3F8800118605DF8044B80
S31500001280704700BF7003002000600040F8B50125DC
S315000012900446087C0A4605FA00F3E3601B0718BFFC
S315000012A0002361604FF0000118BF2374374B08BF5D
S315000012B02574034450691B02A3606061D2E90635B8
S315000012C0C4E90613EFF31087012383F310884FF068
S315000012D000402F4B167C20FA06F6186920EA060015
S315000012E018611B6987F310884FF42540D5E906EC91
S315000012F0A3684FF000471860D962D96399641078E3
S31500001300117A03284FF000004FEAC151566808BF12
S3150000131041F48031D962E96A013E1F615F619F61D4
S3150000132058629862C3F81CE0C3F820C09E665E66E9
S315000013309863C3F8880031B995F8211095F8200014
S31500001340490741EA40314FF4AA00032618640120F8
S31500001350E768DF6059631E631863517C92F91200D7
S315000013602246FFF761FF224695F8221095F92400E0
S31500001370FFF75AFF95F92500224695F82310FFF747
S3150000138053FF044B00202360F8BD00BF90164000B9
S31500001390004008405450470030B4426892F9123079
S315000013A0D269002B10DB012403F01F05AC4059095C
S315000013B01F4D203145F82140BFF34F8FBFF36F8F8C
S315000013C000241C4941F8234092F92430002B10DBFD
S315000013D0012403F01F05AC405909154D203145F88D
S315000013E02140BFF34F8FBFF36F8F0024114941F89F
S315000013F0234092F92530002B11DB01210C4C5A09B0
S3150000140003F01F0C203201FA0CF144F82210BFF34E
S315000014104F8FBFF36F8F0021064A42F82310002337
S31500001420D0E9022130BC03601846916053637047CF
S3150000143000E100E07003002030B58646EFF310842B
S31500001440012282F310880D4B986820F48040986042
S315000014509B6884F310880023094DC2F312045200DE
S3150000146024B131F813C01C1D25F824C00133172BF5
S31500001470F3D1044B0020CEF8003030BD00400840C8
S3150000148000200840434C45000023024602491360F1
S3150000149018460B70704700BF00200840002040220D
S315000014A04123490001F1804101F5022188708A70CB
S315000014B08B707047024B0431002023F821207047BF
S315000014C0002008400020024B043123F82100704719
S315000014D0002008408022024B00201A70704700BF8F
S315000014E0002008400020014B18707047002008407B
S315000014F0034609019B6841F00101C9B200205977F2
S31500001500704700BF0023826818465377704700BFB4
S31500001510034601229B6800201A77704710B44FF4E7
S3150000152080324FF4806483688C600A601A8AD868B7
S3150000153012F4404F48609B684FF000009BB2CB60AE
S3150000154008BF4FF6FF735DF8044B08BF8B6070470A
S31500001550002110B54368134C5B681A78A03244F832
S315000015602210DA6884682177BAB14FF0010E93F938
S3150000157001200D4C4FEA521C02F01F020CF1200C08
S315000015800EFA02F244F82C20BFF34F8FBFF36F8F91
S31500001590064A93F9013042F82310002303601846E7
S315000015A010BD00BF0060004000E100E070030020B5
S315000015B02DE9F04791F803E00024774643684FEAA7
S315000015C09E125E68836896F800C0B6F80A804FEAF5
S315000015D08C0C0CF1804C0CF5C04C91F80290CCF8B8
S315000015E08042CEF3810A1C77CEF3011ECCF88082AE
S315000015F092035C77CD89C9F3810C42EA0E2207F08B
S31500001600C00E4FEA8C1CBEF1800FADB24CEA8A3C8C
S3150000161064D0BEF1400F61D0BEF1C00F00F09780DC
S3150000162042F40052B8F1000F01D042F00102D6F8A0
S315000016300C80B8F1000F38D019F0200F59D0BEF148
S31500001640C00F14BF4FF01C084FF0100896F901E0C8
S31500001650B3780EF160471B01DFF80491DBB207F5A2
S31500001660614787F800333D4B0EF1C00749F82E005D
S3150000167053F827906FF3104943F8279053F8273013
S31500001680BFF35F8F01274FEA5E139B000EF01F0E1C
S3150000169003F1604303F5614307FA0EF7C3F880715F
S315000016A01F60CF78836807F0C00EBEF1C00F23D04D
S315000016B00020074692B21FFA8CFC9F62D862A3F8FC
S315000016C014C01A82486872681860896859609D60FB
S315000016D0DC609A6183F81380BDE8F0878C8945EA5F
S315000016E00545C9F3001A25F0FC25A4B242EA0A32E0
S315000016F098E74FF01008A9E7888907F00C07042F30
S3150000170080B208BF074691F80290B1F80EE009F0E2
S315000017100C0918BF37891FFA8EFE08BF4CF4005C0F
S31500001720B9F1040F18BF10FB0EF0D1F804E018BF92
S3150000173080B2C3F820E0D1F808E008BF4CF0200CD6
S3150000174047EA074740EA0040C3F824E0B2E78C893D
S3150000175045EA054525F0FC25A4B263E70060004094
S315000017607003002010B54B6841601B78044603F1F6
S31500001770012340339B018360EFF3108E4FF0010C81
S315000017808CF31088084B1A6822F480021A601B68D2
S315000017908EF31088054B096883F800C0FFF708FF31
S315000017A0034B0020236010BD00400840005200405B
S315000017B043414D4410B50446FFF7FAFE0122A368E3
S315000017C000201A7710BD00BF0346002210B4D3E9EB
S315000017D0014164681046237864899B0003F18043C5
S315000017E003F5C043C3F880220A77C3F880425DF848
S315000017F0044B4A77704700BF10B4002483B00191B0
S315000018000092D0E90121506802784089920002F1E5
S31500001810804202F5C042C2F880420C77C2F88002CC
S315000018204C77019A0AB1019A0A60009A0AB1009AA5
S315000018304A600A8A002012F4404F14BFCB608B60C6
S3150000184001230B7703B05DF8044B704710B582B0E7
S31500001850EFF30383103B0E4A5BB203F1C00152F86B
S3150000186021006FF3104042F8210052F82120094A66
S3150000187001A852F8234063685B68D3E903320192FA
S315000018809847A368DA680AB101221A7702B010BD38
S31500001890006000407003002084460020CCE9073237
S315000018A0CCF81810704700BF03461A689B8A0020C0
S315000018B0138070470620704700230268184613807D
S315000018C0704700BF03461B6800201B88C3F3C03364
S315000018D00B70704703461B68103133F81130002037
S315000018E0138070471031D0E9003033F81130017998
S315000018F09BB2012908BF1B0400201360704700BF7C
S315000019000620704706207047002800DA704710B49A
S3150000191000F160430901134CC9B203F5614383F832
S315000019200013114B00F1C00144F8202053F8212088
S315000019306FF3104243F8212053F82130BFF35F8F35
S31500001940012243099B0000F01F0003F1604303F5E9
S31500001950614302FA00F0C3F8800118605DF8044B99
S31500001960704700BF70030020006000402DE9F04181
S315000019700027CA680B884E6982610A695B02C0E962
S31500001980077203F1804303F5B8130360416005460F
S3150000199048790C46F2788978030243EA4133002AF3
S315000019A058D043F43073022814BF00202F499BB24D
S315000019B008BF31F82200AB822279E178D20342EAED
S315000019C04102717896F800C042EA4112EFF310889E
S315000019D0012181F31088B4F800E0254FCEF1100EF6
S315000019E001FA0EF1D7F80CE02EEA0101F960F96868
S315000019F088F3108847F6FF510B40296892B20B8096
S31500001A000882CA8181F80CC073792A46A3F10103C2
S31500001A10B3FA83F35B0981F8D030217A94F9060092
S31500001A20FFF772FF2A46617A94F90700FFF76CFF09
S31500001A302A46317A96F90600FFF766FF96F90700FF
S31500001A402A46717AFFF760FF00200A4B2861AB60D7
S31500001A50BDE8F08130B943F4004343F040039BB244
S31500001A60AB82A9E743F040039DE700BFE4590000BD
S31500001A700040084043444152026930B504467AB3F7
S31500001A804FF0FF3301204FEA72729E46013300FA8F
S31500001A9003FC1CEA020FF8D0B2FA82F2C3F120036B
S31500001AA09B1A22680EF10E0E02EB4E024B600A6084
S31500001AB001234FF47A6C0B7263680A4D1B88002071
S31500001AC01A1D52004A72D5F87C2103EB43035B00D2
S31500001AD003F5B07392B24B81CA60A1F810C030BD55
S31500001AE04A60E5E700B07F4043682DE9F0430C68A3
S31500001AF04A685E6903688D681FFA84F8A3F8048053
S31500001B001FFA82F8A3F8148022F0C04C1FFA85F859
S31500001B1024F0C04E25F0C0472243A3F808804FEAC0
S31500001B201C4C3F0C4FEA1E4812F0C04FA3F806802B
S31500001B30A3F816C05F8153D1CF68002F00F0AF80A5
S31500001B40B7F808C01CF4006F20D0D7E90052B7F8E8
S31500001B500A80A3F890C0A3F89C80B7F80C80A3F87D
S31500001B609E801FFA85F8A3F89480C5F30B486D0F85
S31500001B70A3F8968083F8925095B2A3F89850C2F3D2
S31500001B800B45520FA3F89A5083F893201CF4007F5C
S31500001B901AD10A8AA3F890C0A3F88020F2786AB115
S31500001BA0BEFA8EFE1A88818A92B222F01F021F3276
S31500001BB0A2EB0E0292B211431A808182394BC0E920
S31500001BC003340020BDE8F083BA7CFD7C2A4383F809
S31500001BD0A620FA89A3F8A8203A8AA3F8AA20D8E76B
S31500001BE041F23608304FD7F82090304FC9F3026CD7
S31500001BF03F68C9F3021907FA0CFC2D4F2CFA09FCB1
S31500001C00A7FB0C7C4FEA9C1C08FB0CFC294FA7FB8E
S31500001C100C7C4FEA9C4C0CF1010CBCF1070F38BF51
S31500001C204FF0070C12F0005722D0EFF31085012376
S31500001C3083F31088204BDC6824F48004DC60DB68C6
S31500001C4085F3108890251D4B0C681D7003685FFA9C
S31500001C508CF714F0005F8D6883F8DE7014BF4FF4C4
S31500001C6080774FF4806715F0005F18BF47F00107D3
S31500001C7052000ED5620048BF47F400775FFA8CFC2D
S31500001C8058BF47F400676A0083F8DFC048BF47F0D3
S31500001C900207BFB25F82CF68002F7FF451AFBC4608
S31500001CA077E700BF4344415200E00140FC040020B6
S31500001CB0D34D621083DE1B430040084000300F40C6
S31500001CC0002170B4C0E90211436893F906205C69EB
S31500001CD08A4211DB0125344E530902F01F0C2033D2
S31500001CE005FA0CF546F82350BFF34F8FBFF36F8FFD
S31500001CF02E4B43F82210436893F90730002B10DB74
S31500001D00012103F01F05A9405A09274D203245F845
S31500001D102210BFF34F8FBFF36F8F0021234A42F883
S31500001D20231094F90630002B10DB012103F01F0568
S31500001D30A9405A091C4D203245F82210BFF34F8F97
S31500001D40BFF36F8F0021194A42F8231094F9073028
S31500001D50002B10DB0121144C5A0903F01F05203219
S31500001D60A94044F82210BFF34F8FBFF36F8F0021B5
S31500001D700E4A42F82310002203681A821A80EFF3F3
S31500001D801084012383F31088406809490088C0F154
S31500001D9010008340C8680343CB60CB6884F3108887
S31500001DA0104670BC704700BF00E100E070030020E1
S31500001DB000400840064B074993F826001A6A51F876
S31500001DC02030C2F302620449D3400B60704700BF63
S31500001DD000E00140EC010020FC040020F8B54AF2C6
S31500001DE0035001233749384AA1F8FE03A2F804310B
S31500001DF0B2F804319BB2002BFAD101214FF4004511
S31500001E004FF0090C314CDFF8DCE0314EC4F804E049
S31500001E10DFF8D4E02B48C4F80CE02E4FA2F80011EE
S31500001E202D4AB16031606261276090F82620A56076
S31500001E302561056A54F82220C5F30265EA40274D5C
S31500001E402A6080F8133480F8A2C090F8803493B3E7
S31500001E5000231C4981F8813481F8803481F83230BE
S31500001E6091F83C301A07FBD543F202100023154ABD
S31500001E70088581F82A3092F83C309B06FBD5032072
S31500001E800523114981F81C0115490120116282F8C8
S31500001E90263092F82630116A54F82330C1F30261D5
S31500001EA0CB402B604FF4254382F8300082F8520075
S31500001EB0A2F8FE33F8BD80F8801440F2C44000F06A
S31500001EC04DF8C5E700E0014000C00140EC010020EC
S31500001ED000700040002D310100C2EB0BFC04002015
S31500001EE02112012000127A0000366E0138B5002555
S31500001EF0134C0121C82084F8285000F02FF884F8EC
S31500001F00245094F82430002BFBD194F824300C4A4A
S31500001F1043F0020384F8243092F82430C3F34004DB
S31500001F209B07F9D4012082F8224000F0E7F8054B20
S31500001F30012083F8BB44BDE8384000F0AFB800BFCD
S31500001F400030084000E00140704700BF00BEFEE7D9
S31500001F50A0F101000028FBD1704700BF10B54FF477
S31500001F607A72164C164B24684FF0000EB3FBF4FC45
S31500001F704FF0FF3300FB01F1A1FB020483427EEB2D
S31500001F80040407D3B0FBFCF0800880B1BDE8104024
S31500001F90FFF7DEBF4FEA8C0CB1FBFCF1A1FB02128E
S31500001FA08B427EEB020203D308460028EED110BD19
S31500001FB01846BDE81040FFF7CBBF00BFFC04002069
S31500001FC000CA9A3B70B500240A4B0B4EB3F8405139
S31500001FD0ADB225FA04F3DB07E0B203D556F8243098
S31500001FE003B198470134102CF3D1024BA3F83051BA
S31500001FF070BD00BF006000402C03002030B56FF0BC
S31500002000FF0585B0032000F079F84FF0FF311F4C33
S315000020101F482246856400230125CDE9011103915D
S3150000202004F1C00E32F8020F590960B104A800EBA2
S31500002030810151F80C0C03F01F0C05FA0CFC20EA88
S315000020400C0041F80C0C724503F10103EAD1019929
S31500002050104B0F4A03201167C3F88012029951678B
S31500002060C3F8841203999167C3F8881200F016F832
S315000020700023094803F1C00234F8021F0133602B24
S3150000208040F82210F6D105B030BD00BF86580000DA
S315000020900080004000E100E000600040EFF31081A6
S315000020A0012383F31088124B33F8102092B22AB121
S315000020B033F81020013A92B223F8102033F810308A
S315000020C09BB293B90B4A10B4B2F8FE330A4C9BB2DA
S315000020D034F8100043F4254323EA0003A2F8FE3344
S315000020E081F310885DF8044B704781F310887047C0
S315000020F0F004002000E00140245A000030B4EFF361
S315000021001081012383F310880E4A32F810309BB2F7
S315000021106BB90D4C0D4DB4F8FE3335F810C09BB2BB
S3150000212043EA0C0343F425439BB2A4F8FE3332F88A
S31500002130103001339BB222F8103081F3108830BC86
S31500002140704700BFF004002000E00140245A000060
S315000021500D4908B50A6803464AB103330B4823F014
S3150000216003031344834206D810460B6008BD084893
S3150000217002460860F1E700F083FA0C234FF0FF32C5
S315000021800360104608BD00BFF8040020102500209B
S315000021901005002000BE704708B500F003F8FEF7F2
S315000021A04DFBFEE74FF4700270B5254B254CC3F886
S315000021B0882000209C60FEF735FBFFF70FFE01200C
S315000021C0FEF730FB2368A3F5805383F30A881E4885
S315000021D01E4A0021121A00F066FA1D481D4A1E49C1
S315000021E0121A00F053FA1D4D1D4B5B1B002B07DD29
S315000021F000249E1055F8043B01349847A642F9DCAA
S31500002200FFF7D8FDFFF772FE0320FFF777FF0023E5
S315000022104FF6FF70134903F108020133092B21F829
S315000022201200F8D10320FFF739FF0220FEF7FAFA71
S31500002230FFF7E4FEBDE870400020FFF785BE00BF53
S3150000224000ED00E00000000008020020100500205C
S3150000225000000020EC010020145E0000E4010020D4
S31500002260E8010020000D084081F0004102E000BFB7
S3150000227083F0004330B54FEA41044FEA430594EA40
S31500002280050F08BF90EA020F1FBF54EA000C55EA7B
S31500002290020C7FEA645C7FEA655C00F0E2804FEA4C
S315000022A05454D4EB5555B8BF6D420CDD2C4480EA2E
S315000022B0020281EA030382EA000083EA010180EA5E
S315000022C0020281EA0303362D88BF30BD11F0004FAC
S315000022D04FEA01314FF4801C4CEA113102D04042E2
S315000022E061EB410113F0004F4FEA03334CEA13331D
S315000022F002D0524263EB430394EA050F00F0A78035
S31500002300A4F10104D5F1200E0DDB02FA0EFC22FA2F
S3150000231005F2801841F1000103FA0EF2801843FA23
S3150000232005F359410EE0A5F120050EF1200E012A14
S3150000233003FA0EFC28BF4CF0020C43FA05F3C01852
S3150000234051EBE37101F0004507D54FF0000EDCF1CB
S31500002350000C7EEB00006EEB0101B1F5801F1BD374
S31500002360B1F5001F0CD349085FEA30004FEA3C0C78
S3150000237004F101044FEA445212F5800F80F09A806E
S31500002380BCF1004F08BF5FEA500C50F1000041EB72
S31500002390045141EA050130BD5FEA4C0C404141EB76
S315000023A00101013C28BFB1F5801FE9D291F0000F71
S315000023B004BF01460020B1FA81F308BF2033A3F120
S315000023C00B03B3F120020CDA0C3208DD02F1140C17
S315000023D0C2F10C0201FA0CF021FA02F10CE002F152
S315000023E01402D8BFC2F1200C01FA02F120FA0CFC4B
S315000023F0DCBF41EA0C019040E41AA2BF01EB045194
S31500002400294330BD6FEA04041F3C1CDA0C340EDC91
S3150000241004F11404C4F1200220FA04F001FA02F3D4
S3150000242040EA030021FA04F345EA030130BDC4F192
S315000024300C04C4F1200220FA02F001FA04F340EA87
S315000024400300294630BD21FA04F0294630BD94F038
S31500002450000F83F4801306BF81F480110134013D1F
S315000024604EE77FEA645C18BF7FEA655C29D094EA90
S31500002470050F08BF90EA020F05D054EA000C04BF0E
S315000024801946104630BD91EA030F1EBF00210020F9
S3150000249030BD5FEA545C05D14000494128BF41F098
S315000024A0004130BD14F580043CBF01F5801130BDFC
S315000024B001F0004545F0FE4141F470014FF0000087
S315000024C030BD7FEA645C1ABF194610467FEA655C38
S315000024D01CBF0B46024650EA013406BF52EA0335DA
S315000024E091EA030F41F4002130BD00BF90F0000FC8
S315000024F004BF0021704730B54FF4806404F1320404
S315000025004FF000054FF0000150E700BF90F0000FBC
S3150000251004BF0021704730B54FF4806404F13204E3
S3150000252010F0004548BF40424FF000013EE700BFB3
S3150000253042004FEAE2014FEA31014FEA02701FBF43
S3150000254012F07F4393F07F4F81F06051704732F075
S315000025507F4208BF704793F07F4F04BF41F40021CC
S31500002560704730B54FF4607401F0004521F000412A
S315000025701CE700BF50EA010208BF704730B54FF0B4
S3150000258000050AE050EA010208BF704730B511F0B5
S31500002590004502D5404261EB41014FF4806404F1ED
S315000025A032045FEA915C3FF4D8AE4FF003025FEA73
S315000025B0DC0C18BF03325FEADC0C18BF033202EBF7
S315000025C0DC02C2F1200300FA03FC20FA02F001FA51
S315000025D003FE40EA0E0021FA02F11444BDE600BFF4
S315000025E04FEA4102B2F1E04324BFB3F5001CDCF12F
S315000025F0FE5C0DD901F0004C4FEAC0024CEA507067
S31500002600B2F1004F40EB830008BF20F00100704795
S3150000261011F0804F21D113F13872BCBF01F0004098
S31500002620704741F480114FEA5252C2F11802C2F1CA
S31500002630200C10FA0CF320FA02F018BF40F001004B
S315000026404FEAC1234FEAD32303FA0CFC40EA0C00FD
S3150000265023FA02F34FEA4303CCE77FEA625307D13A
S3150000266050EA01331EBF4FF0FE4040F44000704771
S3150000267001F0004040F0FE4040F40000704700BF0B
S31500002680014B1868704700BF140000200A44431E1F
S31500002690914200D1704710B511F8014B914203F8F1
S315000026A0014FF9D110BD02440346934200D1704751
S315000026B003F8011BF9E72DE9FF4755EC104B002DF8
S315000026C00E4619462B46B4BF05F10043002391463A
S315000026D0BFBF22461D462D231446DDF830A00B70E1
S315000026E00D9B23F02008B8F1460F05D0B8F1450F31
S315000026F000D10136022100E0032103AB32460193EB
S3150000270002AB45EC104B0093534600F0F5FCB8F1D4
S31500002710470F074602D119F0010F22D0B8F1460F34
S3150000272007EB060910D13B78302B0AD10022002393
S315000027302046294602F0F0FE18B9C6F10106CAF88D
S315000027400060DAF80030994400220023204629462A
S3150000275002F0E2FE08B1CDF80C903022039B4B4507
S3150000276007D3039B38460E9ADB1B136004B0BDE803
S31500002770F087591C03911A70F0E7F7B50029034654
S31500002780B8BF494203F8022BB4BF2D222B220929D8
S3150000279042702ADD0DF107040A27A4460A46A6461A
S315000027A0013C632A91FBF7F607FB1615314605F146
S315000027B030050EF8015CF1DC3031AEF1020504F8AB
S315000027C0011C441C294661450AD30DF10902A2EBFE
S315000027D00E02654588BF00221344181A03B0F0BDE7
S315000027E011F8012B04F8012FEDE730233031837007
S315000027F0031DC170F1E7FFFF2DE9F04F2DED028BB0
S315000028008DB00C4616461F46DDF86080054601F081
S3150000281055FBD0F800A0504600F0D2FB002394F8F8
S3150000282018B008EE100A0A9323680593D8F800300A
S31500002830073323F0070303F10802C8F80020D3E9A1
S315000028400023C4E91223D4E912894FF0FF3229F09C
S315000028500043CDF8188007939E4BDDE9060102F090
S315000028608DFE88BB4FF0FF329A4BDDE9060102F080
S3150000287067FE48BB002200234046494602F056FE4A
S3150000288010B12D2384F84330934B9448BBF1470F86
S3150000289094BF9846804603234FF000092361059BA9
S315000028A023F00402226033460BAA214628460097ED
S315000028B000F0D8F9013040F090804FF0FF300DB0B5
S315000028C0BDEC028BBDE8F08F42464B46404649467A
S315000028D002F054FE40B14B468148002BBCBF2D236D
S315000028E084F843307F4BD1E70BF0DF026368069232
S315000028F05A1C3FD106236360059B2846616843F452
S315000029008062002303930AAB2260CDE901B309ABD1
S3150000291049EC108B00930DF12303FFF7CCFE069BC9
S3150000292080460999472B08D1C81C02DB6368994287
S3150000293041DDABF1020B5FFA8BFBBBF1650F20D8D3
S3150000294001395A4604F150000991FFF716FF0A9A19
S3150000295081461318012A236102DC2268D20701D5B9
S31500002960013323619DF82330002B9CD02D2384F85E
S31500002970433098E7069A472ABED1002BBCD10123E3
S31500002980B9E7BBF1660F18D1002963680BDD216139
S3150000299013B92268D00702D501330B4423614FF0E7
S315000029A00009A165DEE713B92268D20701D5023313
S315000029B0F4E70123F2E74FF0670B0A9B994205DB28
S315000029C023682161D807EAD54B1CE7E70029D4BF65
S315000029D0C1F1020201221344E0E723685A0507D435
S315000029E02369424631462846B84701302CD164E770
S315000029F0BBF1650F40F2E08000220023D4E912010A
S31500002A0002F08AFD002834D00123374A3146284691
S31500002A10B84701303FF451AFDDE909239A4202DBA2
S31500002A202368D80710D518EE103A52463146284684
S31500002A30B84701303FF441AF4FF0000804F11A09DE
S31500002A400A9B013B434509DC23689B0700F105818E
S31500002A50E0680B9B9842B8BF184630E701234A4608
S31500002A6031462846B84701303FF427AF08F1010840
S31500002A70E6E7099B002B39DC01231B4A3146284631
S31500002A80B84701303FF419AFDDE90923134302D1FA
S31500002A902368D907D8D518EE103A5246314628464B
S31500002AA0B84701303FF409AF4FF0000904F11A0AA4
S31500002AB0099B5B424B4501DC0A9B92E70123524688
S31500002AC031462846B84701303FF4F7AE09F101090F
S31500002AD0EEE700BFFFFFEF7F305A0000345A0000D8
S31500002AE03C5A0000385A0000405A00000A9AA36D6A
S31500002AF09A42A8BF1A46002A914637DC4FF0000BCF
S31500002B0029EAE97904F11A02A36D0593A3EB0903F7
S31500002B105B4533DCDDE909239A423BDB2368DA07B0
S31500002B2038D40A9B059A09999A1AA3EB010991458B
S31500002B30A8BF9146B9F1000F35DC4FF0000829EA2D
S31500002B40E97904F11A0ADDE909239B1AA3EB0903C3
S31500002B5043457FF779AF0123524631462846B847A9
S31500002B6001303FF4AAAE08F10108ECE713463146FE
S31500002B7042462846B8470130C0D19EE60123314679
S31500002B8028460592B84701303FF497AE0BF1010B8A
S31500002B90059AB9E718EE103A524631462846B84724
S31500002BA00130BED189E6059A4B4631462846424455
S31500002BB0B8470130C1D180E60A9A012A01DCDB0759
S31500002BC038D50123424631462846B84701303FF4FE
S31500002BD074AE18EE103A524631462846B8470130D0
S31500002BE03FF46BAE00220023D4E9120102F094FCFC
S31500002BF0D8B90A9B08F10102013B31462846B8477D
S31500002C0001300ED159E60123524631462846B847CF
S31500002C1001303FF452AE08F101080A9B013B4345DF
S31500002C20F1DC4B4604F15002DCE64FF0000804F1FB
S31500002C301A0AF2E701234246DFE701234A463146F4
S31500002C402846B84701303FF438AE08F10108E3687A
S31500002C500B995B1A4345F0DCFAE64FF0000804F1E5
S31500002C601909F4E72DE9F047164699468A6807469A
S31500002C700B690C46DDF820809342B8BF13463360DB
S31500002C8091F843200AB1013333602368990642BFA5
S31500002C90336802333360256815F0060506D104F162
S31500002CA0190AE36832689B1AAB4229DC94F8432080
S31500002CB0131E226818BF012392062ED404F1430284
S31500002CC049463846C047013021D023681A3454F8A3
S31500002CD00E5C03F0060332680026042B54F8123CFF
S31500002CE008BFAD1A54F80A2C14BF002525EAE5756D
S31500002CF09342C4BF9B1AED18B5421AD1002008E0D2
S31500002D000123524649463846C047013003D14FF0A9
S31500002D10FF30BDE8F0870135C3E7E1185A1C3020C3
S31500002D200233224481F8430094F8451082F8431098
S31500002D30C4E70123224649463846C0470130E6D05B
S31500002D400136D9E72DE9FF470F7E914680460C46AE
S31500002D50782F9A460C9D01F1430207D8622F0AD8B4
S31500002D60002F00F0D880582F00F0A38004F1420510
S31500002D7084F842703AE0A7F16303152BF6D801A157
S31500002D8051F823F0DD2D0000F12D00006D2D00001F
S31500002D906D2D00006D2D00006D2D0000F12D000041
S31500002DA06D2D00006D2D00006D2D00006D2D0000B5
S31500002DB0FD2E0000212E0000DF2E00006D2D0000EC
S31500002DC06D2D00001F2F00006D2D0000212E00002C
S31500002DD06D2D00006D2D0000E72E00002B681A1DDA
S31500002DE01B682A6004F1420584F842300123A3E0FF
S31500002DF020682968060601F104030AD50E682B60CF
S31500002E00002E03DA2D23764284F843305E480A23E7
S31500002E1019E00E6810F0400F2B6018BF36B2EFE7CE
S31500002E202B682068191D2960010601D51E6802E07D
S31500002E304606FBD51E886F2F53480CBF08230A236E
S31500002E40002184F843106568002DA560A2BF2168A3
S31500002E5021F0040121600EB9002D4DD01546B6FBB8
S31500002E60F3F103FB1167C75D05F8017D37460E4692
S31500002E70BB42F4D9082B0BD12368DE0708D523699A
S31500002E8061689942DEBF302305F8013C05F1FF3544
S31500002E90521B22614B4603AA21464046CDF800A0AC
S31500002EA0FFF7E0FE01304CD14FF0FF3004B0BDE833
S31500002EB0F087354881F845702968236851F8046B16
S31500002EC029601D0614D5DF0744BF43F020032360A5
S31500002ED01EB9236823F0200323601023B0E723687C
S31500002EE043F0200323607823284884F84530E3E73D
S31500002EF0590648BFB6B2E6E71546BBE72B68266813
S31500002F00181D6169286035061B6801D5196002E045
S31500002F107006FBD51980002315462361BAE72B6896
S31500002F2000211A1D2A601D686268284600F0D6FF37
S31500002F3008B1401B606063682361002384F8433056
S31500002F40A8E723692A4649464046D0470130ABD018
S31500002F5023689B0713D4E068039B9842B8BF1846C2
S31500002F60A4E70123324649464046D04701309BD06C
S31500002F700135E36803995B1AAB42F2DCEBE7002507
S31500002F8004F11906F5E700BF425A0000535A000043
S31500002F900FB40A4B13B51C6824B1A36913B92046B4
S31500002FA000F0EEFE05AB049AA1682046019301F0FD
S31500002FB04DFC02B0BDE8104004B07047140000207C
S31500002FC0034613F8012B002AFBD1181A0138704763
S31500002FD02DE9F74F036907460C69A342C0F28780C3
S31500002FE0013C00F1140501F1140805EB840355F8C2
S31500002FF024204FEA840B019308EB840958F8243007
S3150000300001339A42B2FBF3F635D34FF0000E404639
S31500003010AC46F24650F8042B93B281454FEA124271
S3150000302006FB03E34FEA134E9BB206FB02E2AAEB52
S315000030300303DCF800A04FEA124E1FFA8AFA92B296
S3150000304053440093DCF80030C2EB1342009B02EBC2
S315000030502342BDF8003043EA02434FEA224A4CF8C5
S31500003060043BD7D255F80B302BB9019B043B9D424C
S315000030701A4630D33C61384601F0C0F9002826DBF9
S31500003080013628464FF0000C58F8041BD0F800E033
S315000030908BB2C1451FFA8EF2ACEB030313444FEA21
S315000030A01142C2EB1E4202EB23429BB24FEA224C74
S315000030B043EA024340F8043BE6D255F8242005EBE8
S315000030C0840322B9043B9D421A460AD33C6130462A
S315000030D003B0BDE8F08F1268043B002ACAD1013C58
S315000030E0C5E71268043B002AF0D1013CEBE700205B
S315000030F0EEE7FFFFFFFFFFFF2DE9F04F456A0446AD
S3150000310010EE10AA2DED048B93B057EC106BDDF882
S315000031108080BB46069109920C9375B9102000F089
S31500003120D5FE0246606220B9A74BEA21A748FEF702
S315000031300DFFC0E901550560C560636A196851B1A4
S315000031405A680123204693404A608B6000F014FFC2
S31500003150636A00221A603B1EADBF0023012223F0E2
S31500003160004BC8F800309A4BB8BFC8F8002033EAC5
S315000031700B031BD142F20F730C9A1360CBF31303AC
S31500003180334300F08F85219B63B9924B22E0924B2B
S3150000319001930833219A1360019813B0BDEC048B98
S315000031A0BDE8F08F8B4B01930333F3E70022002336
S315000031B05046594602F0B0F980464BEC19AB58B16F
S315000031C001230C9A1360219B002B00F0688583482D
S315000031D01860431E0193DFE7CBF30A5510AA11A925
S315000031E020464BEC10AB01F0B5F908EE100A002DA5
S315000031F000F0828019EE903A5646A5F2FF35CDF8DA
S315000032003880C3F3130343F07F5747F44017002277
S31500003210734B30463946FFF72BF865A3D3E90023F5
S3150000322001F012FF64A3D3E90023FFF723F8064653
S315000032300F462846FFF76AF961A3D3E9002301F098
S3150000324003FF02460B4630463946FFF713F806469B
S315000032500F4602F0A9F900220090002330463946B5
S3150000326002F064F950B10098FFF750F932463B4638
S3150000327002F052F910B9009B013B0093009B162BFC
S3150000328059D8009A574B03EBC20351EC190BD3E9FB
S31500003290002302F04BF900284FD0009B013B00931E
S315000032A000230B93109B5D1B6B1E059349BFC5F155
S315000032B0010300230493002354BF04930593009B4A
S315000032C0002B3CDB059B009A13440A9205930023CE
S315000032D00793069B092B00F28980052BC5BF043B8B
S315000032E0002501250693069B023B032B00F28980ED
S315000032F0DFE803F02E3B395ADDE910531D4405F291
S315000033003243202BC6BFC3F1400305F21240C3F17E
S31500003310200305F1FF35C5BF0BFA03F326FA00F0CB
S3150000332006FA03F01843FFF7E1F801230646A1F178
S31500003330F8770E936BE70123B3E70B90B2E7049B94
S31500003340009A9B1A04935342079300230A93C0E7FB
S3150000335000230893099B002B56DC01231A46CDE96E
S31500003360023309920CE00123F3E70023099A08933C
S31500003370009B134402930133012B0393B8BF01232F
S315000033800022606A4260042202F1140641689E42ED
S315000033903ED9204600F0B0FD019000283CD1124BEA
S315000033A002464FF4D571C1E60123DFE7AFF3008093
S315000033B061436F63A787D23FB3C8608B288AC63F35
S315000033C0FB799F501344D33F715A0000885A00007E
S315000033D00000F07F6D5A0000645A0000415A000058
S315000033E00000F83F205C0000065B0000012500237A
S315000033F0089506934FF0FF330022CDE902331223DE
S31500003400AFE701230893F5E7099BCDE90233B7E758
S31500003410013152004160B7E7636A019A1A60039B63
S315000034200E2B00F29D80002D00F09A80009B002B51
S3150000343032DD03F00F03B64A02EBC303D3E900897A
S31500003440009BD8054FEA231716D5B24B07F00F0796
S315000034500325D3E9082351EC190B01F01FFF82461F
S315000034608B46AC4E57B942464B465046594601F03C
S3150000347015FF82468B4628E00225F2E7F90708D5B4
S31500003480404649460135D6E9002301F0DDFD804678
S3150000349089467F100836E5E700F09B80009B0225F1
S315000034A09C4F5E429A4B06F00F02361103EBC203A5
S315000034B051EC190BD3E9002301F0C6FD0023824627
S315000034C08B46002E7AD1002BD3D10B9B002B00F01C
S315000034D082800022904B5046594602F027F8002879
S315000034E079D0039B002B76D0029B002B36DD009B08
S315000034F05046594600225F1E884B01F0A5FD013556
S3150000350082468B46029E2846D046FEF7FFFF52466D
S315000035105B46D94601F098FD0022814BFEF7AAFED4
S315000035208246A1F1507B002E58D100227D4B4046A9
S315000035304946FEF79DFE52465B468046894602F0A6
S3150000354013F8002840F0938252460BF100434046A0
S31500003550494601F0EBFF002840F087825BEC19AB8F
S31500003560119B002BC0F24881009A0E2A00F3448179
S31500003570674B03EBC203D3E90089099B002B80F25A
S31500003580D580039B002B00F3D18040F06D82002292
S31500003590644B4046494601F057FD52465B4601F0F2
S315000035A0D9FF039E3746002840F043823123019D10
S315000035B005F8013B009B013300933EE2F20705D577
S315000035C00135D7E9002301F03FFD012376100837C6
S315000035D077E7022579E7009F039E94E701994C4B14
S315000035E0314403EBC6030D91089953E902230029E0
S315000035F043D000204C4901F051FE52465B46FEF78F
S3150000360037FE019D82468B464946404601F0CCFF77
S315000036100646FEF77BFF024630360B4640464946D5
S31500003620FEF726FE52465B4605F8016B8046894644
S3150000363001F07CFF002863D142464B460020364904
S31500003640FEF716FE52465B4601F070FF002840F07A
S31500003650B5800D9B9D4281D00022304B5046594685
S3150000366001F0F2FC002282468B46404649462B4B2F
S3150000367001F0EAFC80468946C6E75046594601F005
S31500003680E3FC0D9B82468B46019D0F9349464046BF
S3150000369001F08AFF0646FEF739FF02460B46404612
S315000036A049463036FEF7E4FD0D9B05F8016B804672
S315000036B09D4289464FF0000224D11B4B5046594685
S315000036C0FEF7D8FD02460B464046494601F04CFF40
S315000036D0002873D152465B4600201349FEF7C8FD09
S315000036E002460B464046494601F020FF00283FF4BB
S315000036F035AF0F9D6B1E0F9315F8013C302BF8D09C
S31500003700009749E0054B01F09FFC80468946BDE7DE
S31500003710205C0000F85B00000000F03F0000244041
S3150000372000001C40000014400000E03F56465F4683
S31500003730019D42464B463046394601F0AFFD01F049
S3150000374033FF8246FEF7E2FE42464B4601F07CFC22
S31500003750024630460AF130060B463946FEF788FD2A
S3150000376005F8016B019E0246039F0B46AE1BB7424E
S3150000377035D1FEF77FFD42464B4606460F4601F021
S31500003780F3FED0B942464B463046394601F0C4FEF8
S3150000379010B11AF0010F10D1204618EE101A00F0E1
S315000037A0EBFB002300982B7001300C9B1860219BCB
S315000037B0002B3FF4F1AC1D60EEE4009F2B461D4646
S315000037C013F8012D392A06D1019A9A42F7D13022EF
S315000037D0019901370A701A7801321A7090E70022AF
S315000037E0A44B01F031FC0022002306460F4601F0EF
S315000037F093FE00289DD0CFE7089A002A00F0D580D6
S31500003800069A012A00F3B9800E9A002A00F0B180C8
S3150000381003F23343079E049D049A012120461A446D
S315000038200492059A1A44059200F060FC0746002DA2
S315000038300CDD059B002B09DDAB42049AA8BF2B4685
S31500003840D21AED1A0492059AD31A0593079B1BB355
S31500003850089B002B00F0AD80002E13DD3946324662
S31500003860204600F001FD18EE102A014607462046C4
S3150000387000F052FC804618EE101A204608EE108A18
S3150000388000F07AFB079B9A1B06D018EE101A20460A
S3150000389000F0EAFC08EE100A0121204600F026FCA2
S315000038A00A9B0646002B40F386801A4601462046B0
S315000038B000F0DAFC069B0646012B7FDD4FF0000880
S315000038C0336906EB8303186900F0C0FBC0F12000E2
S315000038D0059B184410F01F0000F09180C0F12003F2
S315000038E0042B40F38980C0F11C00049B054403446B
S315000038F00493059B03440593049B002B07DD18EEF8
S31500003900101A1A46204600F009FD08EE100A059B1B
S31500003910002B05DD31461A46204600F0FFFC064620
S315000039200B9B002B6DD0314618EE100A00F066FD99
S31500003930002866DA009B18EE101A0A222046013B80
S315000039400093002300F03AFB089B08EE100A002BB8
S3150000395000F0AF81002339460A22204600F02EFBF4
S31500003960029B0746002B00F38D80069B022B50DC42
S3150000397088E0109BC3F136034CE7039B5E1E079B52
S31500003980B342B7BF079B9E1B0796F21ABFBF0A9B9F
S3150000399000269B180A93039B002BB7BFDDE9032380
S315000039A0DDE903359D1A002336E7079E049D089F2F
S315000039B03DE7079A69E7069B012B18DCBAF1000F71
S315000039C015D1CBF3130393B92BF000431B0D1B0545
S315000039D083B1049B4FF0010801330493059B013327
S315000039E005930A9B002B7FF46BAF012070E74FF025
S315000039F00008F6E79846F4E73FF47EAF18461C3019
S31500003A0073E7039B002B37DC069B022B34DD039BFD
S31500003A100293029B6BB931460522204600F0CEFA8E
S31500003A200146064618EE100A00F0E8FC00283FF7AB
S31500003A30BDAD099B019DDB4300934FF00008314665
S31500003A40204600F099FA002F3FF4A6AEB8F1000F19
S31500003A5005D0B84503D04146204600F08DFA3946D8
S31500003A60204600F089FA97E600263746E1E70097F8
S31500003A7037469BE500002440089B002B00F0CA80D7
S31500003A80039B0293002D05DD39462A46204600F0A9
S31500003A9045FC0746B8F1000F5BD07968204600F078
S31500003AA02BFA054628B9874B024640F2EA21FFF772
S31500003AB03DBB3A6907F10C010C3002329200FEF769
S31500003AC0E5FD01222946204600F028FC019BB84668
S31500003AD0074603F10109DDE90123134405930AF0C2
S31500003AE001030493314618EE100AFFF771FA4146B6
S31500003AF0029000F1300A18EE100A09F1FF3B00F0BF
S31500003B007DFC3A4603903146204600F093FCC2689D
S31500003B10054602BB014618EE100A00F06FFC02468D
S31500003B2029462046079200F027FA4D46DDE906327F
S31500003B3043EA0201049B0B430FD1BAF1390F2AD095
S31500003B40039B002B02DD029B03F1310A8BF800A0D8
S31500003B5075E73846BAE70122E2E7039B002B04DB50
S31500003B6006990B4304990B4322D1002AEEDD18EE89
S31500003B70101A0122204600F0D1FB314608EE100A49
S31500003B8000F03CFC002803DCE0D11AF0010FDDD088
S31500003B90BAF1390FD7D139238BF800302B461D46A1
S31500003BA0013B15F8012C392A70D001321A7046E70C
S31500003BB0002A07DDBAF1390FEDD00AF101038BF8BF
S31500003BC000303CE7059B09F801AC994546D018EE54
S31500003BD0101A00230A22204600F0F0F9B84508EE34
S31500003BE0100A4FF000034FF00A024146204606D164
S31500003BF000F0E4F98046074609F1010972E700F092
S31500003C00DDF93946804600230A22204600F0D6F91F
S31500003C100746F1E7039B0293019D314618EE100A11
S31500003C20FFF7D6F9019B00F1300A05F801ABEA1A55
S31500003C30029B934209DD18EE101A00230A22204641
S31500003C4000F0BCF908EE100AE7E7029B4FF0000807
S31500003C50002BCCBF1D460125019B1D4418EE101AF2
S31500003C600122204600F05AFB314608EE100A00F009
S31500003C70C5FB002892DC02D11AF0010F8ED12B462B
S31500003C801D4613F8012D302AFAD0D8E6019A9A4239
S31500003C9085D1009B0133009331231370CFE60A4B85
S31500003CA0FFF798BA219B002B7FF471AA074BFFF709
S31500003CB091BA029B002BAFDC069B022B3FF7A9AE05
S31500003CC0AAE700BF065B0000405A0000645A0000E5
S31500003CD0002310B504468360818119464366C2817C
S31500003CE008228361C0E90033C0E904335C30FEF783
S31500003CF0DAFC054B24626362044BA362044BE36265
S31500003D00044B236310BD00BFCD4A0000EF4A0000FC
S31500003D10274B00004B4B0000014900F0AFB800BF35
S31500003D20214E000070B568224D1E0E46554305F122
S31500003D30740100F0EDFC044640B1002105F1680273
S31500003D40C0E900160C30A060FEF7ADFC204670BD41
S31500003D50014800F0B8B800BF01050020014800F096
S31500003D60B3B800BF01050020014800F0ACB800BFA1
S31500003D7002050020014800F0A7B800BF0205002098
S31500003D8010B50446FFF7F0FFA3691BB1BDE810406C
S31500003D90FFF7F0BFC4E9123323652046124B134ADE
S31500003DA01B68A262A34204BF0123A36100F020F8AE
S31500003DB06060204600F01CF8A060204600F018F86D
S31500003DC000220421E0606068FFF782FF01220921DA
S31500003DD0A068FFF77DFF02221221E068FFF778FF57
S31500003DE00123A361D2E700BF2C5A0000193D000051
S31500003DF0F8B50746FFF7ACFF1E4B1E68B36913B94B
S31500003E003046FFF7BDFF4836D6E90134013B03D5FE
S31500003E1033680BB33668F7E7B4F90C50D5B9164BCF
S31500003E2004F158006566E36000F04CF8FFF796FF72
S31500003E300822294604F15C002560A561C4E9015504
S31500003E40C4E90455FEF72FFCC4E90D55C4E9125523
S31500003E502046F8BD6834D9E704213846FFF762FFEB
S31500003E60044630600028D5D1FFF778FF0C233B606D
S31500003E70EEE700BF2C5A00000100FFFF2DE9F843D2
S31500003E800646884600F148040027D4E90195B9F1B1
S31500003E90010905D52468002CF7D13846BDE8F8831A
S31500003EA0AB89012B07D9B5F90E30013303D029466A
S31500003EB03046C04707436835E9E7FFFF00487047CB
S31500003EC068010020704770477047FFFF024B0146AC
S31500003ED0186800F01DBC00BF14000020C9B20244DF
S31500003EE010B59042034601D1002303E01C7801304F
S31500003EF08C42F6D1184610BD70B5466A04460D468A
S31500003F0076B91020FFF7E2FF0246606220B9184B2F
S31500003F1066211848FEF71AF8C0E901660660C66011
S31500003F20666AF36883B1636ADB6853F82500B8B93B
S31500003F300121204601FA05F6721D920000F066FB8B
S31500003F4060B1C0E901560EE021220421204600F0AE
S31500003F505DFB636AF060DB68002BE4D1002070BD76
S31500003F60026843F825200023C0E90333F7E700BFC2
S31500003F70715A0000785B000070B5466A05460C462B
S31500003F8076B91020FFF7A2FF0246686220B9094BF6
S31500003F908A210948FDF7DAFFC0E901660660C660B6
S31500003FA03CB16B6A6268DB6853F82210216043F803
S31500003FB0224070BD715A0000785B00002DE9F04187
S31500003FC001F1140C07460C461E460D690020DCF86C
S31500003FD00030013099B2854202FB01614FEA134677
S31500003FE04FEA114389B202FB063301EB03414FEA64
S31500003FF013464CF8041BEADC0EB3A368AB4219DC8B
S31500004000616838460131FFF777FF804628B90246D6
S315000040100C4BB5210C48FDF799FF226904F10C0100
S315000040200C3002329200FEF731FB214644463846F8
S31500004030FFF7A2FF04EB850301355E61256120468B
S31500004040BDE8F081065B0000785B0000030C1B04F2
S31500004050D3B90004102310F07F4F04BF00020833C9
S3150000406010F0704F04BF0001043310F0404F04BF3E
S3150000407080000233002805DB10F0804F03F10103B6
S3150000408008BF2023184670470023E4E7036801466B
S3150000409013F007020BD0DA0723D4980747BF5B0853
S315000040A001209B0802204CBF0B600B60704798B242
S315000040B0A8B91B0C1020DAB20AB908301B0A1A0775
S315000040C004BF1B0904309A0704BF9B080230DA07B5
S315000040D003D45B0800F1010005D00B607047104661
S315000040E0E9E70020704720207047FFFF10B50C4617
S315000040F00121FFF701FF024628B9054B4FF4A071D5
S315000041000448FDF723FF01234461036110BD00BF8E
S31500004110065B0000785B00002DE9F04F91460A69C6
S315000041200C4685B0D9F810309A42BEBF0B464C46B5
S3150000413099462769A368D9F810A0616807EB0A06B3
S31500004140B342B8BF0131FFF7D7FE30B90246444B40
S3150000415040F25D114348FDF7F9FE00F11405002217
S3150000416005EB86082B46434521D304F1140304F1DD
S31500004170150103EB870709F1140303EB8A02029288
S315000041803A1B153A22F0030204328F4238BF04224A
S315000041900192029A03939A420CD8002E03DD58F836
S315000041A0043D002B5AD0066105B0BDE8F08F43F8F8
S315000041B0042BD8E7B3F800A0BAF1000F24D004F11D
S315000041C0140EA9464FF0000C5EF8042BD9F8001027
S315000041D01FFA82FB774589B20AFB0B114FEA124B95
S315000041E0D9F8002061444FEA124C0AFB0BC202EBDD
S315000041F0114289B24FEA124C41EA024149F8041BC6
S31500004200E2D8019A45F802C0039A0433B2F8029044
S31500004210B9F1000F20D0296804F1140CAE464FF016
S31500004220000ABCF800B089B2BEF8022009FB0B22D6
S31500004230924441EA0A414EF8041B5CF8042BBEF88E
S315000042400010120C674509FB021101EB1A414FEAF7
S31500004250114AE6D8019AA95004359AE7013E9CE72F
S31500004260065B0000785B00002DE9F843154612F066
S31500004270030206460F4607D0013A254C002354F8A0
S315000042802220FFF79BFE0746AD103DD0746A7CB92D
S315000042901020FFF71BFE0246706228B91D4B4FF433
S315000042A0D7711D48FDF752FEC0E901440460C460A1
S315000042B0D6F82480D8F808404CB940F2712130462F
S315000042C0FFF714FF00230446C8F8080003604FF008
S315000042D00009EB070AD5394622463046FFF71CFF90
S315000042E08046394630464746FFF746FE6D100BD0EE
S315000042F0206838B9224621463046FFF70DFF206078
S31500004300C0F800900446E4E73846BDE8F88300BFED
S31500004310E85C0000715A0000785B00002DE9F04768
S315000043200C46074691464FEA621A2369496803EB31
S315000043306218A36808F10106B3420BDB3846FFF7A3
S31500004340DBFD054648B902462A4B40F2D9112A48F8
S31500004350FDF7FCFD01315B00EEE7002300F11401DF
S3150000436000F110021846534537DB2AEAEA7A04F1CF
S315000043701403206919F01F0901EB8A0103EB800081
S315000043802FD0C9F1200E8A464FF0000C1A6802FAA7
S3150000439009F242EA0C024AF8042B53F8042B98421D
S315000043A022FA0EFCF2D8031B04F11502153B23F08A
S315000043B003030433904238BF042341F803C0BCF121
S315000043C0000F01D008F10206013E384621462E6153
S315000043D0FFF7D2FD2846BDE8F087013342F8040F07
S315000043E0C1E7043953F8042B984241F8042FF9D851
S315000043F0EAE700BF065B0000785B0000026930B5A3
S315000044000C69121B0ED100F11403143103EB840066
S3150000441001EB840150F8045D51F8044DA54203D028
S3150000442005D30122104630BD8342F3D3FAE74FF09D
S31500004430FF32F7E72DE9F84F0C460646114692463D
S315000044402046FFF7DBFF051E10D129463046FFF751
S3150000445053FD30B93D4B024640F232213C48FDF750
S3150000446075FD0123C0E90435BDE8F88FA4BF5346A6
S31500004470A2463046A8BF0025DAF80410ACBF1C4699
S315000044800125FFF739FD20B9304B02464FF4107174
S31500004490E4E7DAF8107004F11409266900F114084B
S315000044A0C5600AF114050AF1100209EB860605EB50
S315000044B0870EC2464FF0000C52F804BF59F8043B71
S315000044C01FFA8BF14E458C4499B24FEA1343ACEB7D
S315000044D00101C3EB1B4303EB214389B24FEA234C93
S315000044E041EA03434AF8043BE6D8331B1534153B2F
S315000044F023F003030433A64238BF04231D44434478
S315000045002C461E4674450ED30EF10302521B033D84
S3150000451022F00302AE4538BF00221A4452F8043D89
S315000045208BB10761A0E754F8048B1FFA88F2624446
S31500004530111492B201EB184142EA01424FEA214CB2
S3150000454046F8042BDEE7013FE8E700BF065B000004
S31500004550785B00002DE9F74389460121904657EC28
S31500004560106BFFF7C9FC044630B90246254B40F2F2
S315000045700A312548FDF7EAFCC7F30A55C7F31303CA
S3150000458035BB002E019328D068460096FFF77EFDC6
S31500004590009900B3019AC0F1200302FA03F3C24066
S315000045A00B4301926361019B002BA36114BF02229E
S315000045B001222261D5B1A5F233450544C0F135008B
S315000045C0C9F80050C8F80000204603B0BDE8F083E3
S315000045D043F48013D5E76161E5E701A8FFF756FDCF
S315000045E0019B0122203063612261E3E7A0F23240A1
S315000045F004EB8203C9F800001869FFF727FDC0EB3A
S315000046004210DFE7065B0000785B000037B5A1FBD0
S3150000461002244CB91146019200F07AF8019A054637
S3150000462030B9284603B030BD0C2200250260F8E7F9
S315000046302146FEF738F8F4E737B5002943D051F89C
S31500004640043C0C1F0190002BB8BFE41800F0AEFC30
S315000046501E4A0198136833B96360146003B0BDE85D
S31500004660304000F0A9BCA34208D9256861198B42E5
S3150000467001BF19685B6849192160EDE71A465B6856
S315000046800BB1A342FAD911685518A5420BD124687B
S31500004690214454181160A342E0D11C685B68214490
S315000046A053601160DAE702D90C230360D6E7256868
S315000046B061198B4202BF19685B684919636008BFBC
S315000046C021605460CAE703B030BD00BF0405002076
S315000046D070B50E4E0C460546316811B900F0E6F984
S315000046E030602146284600F0E1F9431C0AD0C41C7C
S315000046F024F00304A04207D0211A284600F0D6F978
S31500004700013001D14FF0FF34204670BD080500206E
S315000047102DE9F041CD1C074625F0030508350C2D83
S3150000472038BF0C25002D01DBA94205D90C23002634
S315000047303B603046BDE8F0812E4E00F037FC336812
S315000047401C4634BB29463846FFF7C2FF431C0446C5
S315000047504DD134682646002E40D12368314638466E
S3150000476004EB030800F0A2F980453AD1216803352D
S3150000477038466D1A25F0030508350C2D38BF0C2573
S315000047802946FFF7A5FF01302BD023682B44236071
S315000047900EE02268521B1ED40B2A16D96119A342B9
S315000047A0256018BF5960636808BF316062514B606D
S315000047B004F10B06384600F0FFFB231D26F0070622
S315000047C0F21AB6D09B1BA350B3E76268A3420CBF94
S315000047D032605A60ECE723466468B2E7344676688E
S315000047E0B9E70C2338463B6000F0E6FBA1E72560FD
S315000047F0DEE700BF040500209368013B002B9360B1
S3150000480010B408DA9469A34201DB0A2903D15DF8E2
S31500004810044B00F09FB91368581C106008461970C5
S315000048205DF8044B7047F8B506460F461446D51892
S31500004830AC4201D1002007E03A4614F8011B30468D
S31500004840FFF7DAFF431CF3D1F8BDFFFF2DE9F04F68
S315000048500D469DB014469846064618B183690BB9B5
S31500004860FFF78EFA894B9D421BD175686B6ED9078F
S3150000487005D4AB899A0502D4A86DFFF724FBAB8952
S315000048801B0701D52B69EBB92946304600F0C6F95E
S31500004890C0B16B6EDC070ED54FF0FF301DB0BDE822
S315000048A0F08F7B4B9D4201D1B568DFE7794B9D4286
S315000048B008BFF568DAE7AB899805EDD4A86DFFF770
S315000048C003FBE9E70023CDF80C804FF00109DFF880
S315000048D0C881099320238DF8293030238DF82A309A
S315000048E023469A4613F8012B0AB1252AF9D1BAEBC9
S315000048F0040B0BD05B46224629463046FFF793FF52
S31500004900013000F0AA80099A5A4409929AF80030B8
S31500004910002B00F0A28000234FF0FF320AF1010ABB
S31500004920049307938DF853301A93CDE90523544623
S315000049300522594814F8011BFFF7D0FA049AD8B992
S31500004940D10644BF20238DF85330130744BF2B23D1
S315000049508DF853309AF800302A2B15D0079A544612
S3150000496000204FF00A0C214611F8013B303B092B81
S315000049704ED9B0B1079214E0A0EB0803A24609FA9B
S3150000498003F313430493D2E7039B191D1B68002B03
S315000049900391BBBF5B4242F0020207930793B8BF85
S315000049A0049223782E2B0CD163782A2B35D1039BC6
S315000049B002341A1D1B68002B0392B8BF4FF0FF3359
S315000049C00593DFF8E4A0032221785046FFF786FA24
S315000049D040B14023A0EB0A00013403FA00F0049B27
S315000049E00343049314F8011B06222C488DF8281063
S315000049F0FFF774FA00283FD0294B1BBB039B0733F4
S31500004A0023F0070308330393099B3B44099367E7A5
S31500004A100CFB02320C460120A5E7002301344FF0BF
S31500004A200A0C19460593204610F8012B303A092A3C
S31500004A3003D9002BC5D00591C3E70CFB0121044621
S31500004A400123F0E703AB2A4604A930460093154B31
S31500004A50FDF7D2FE0746781CD6D16B6ED90705D472
S31500004A60AB899A0502D4A86DFFF72EFAAB895B06CF
S31500004A703FF512AF099811E703AB2A4604A9304661
S31500004A800093084BFEF75EF9E4E700BF385B0000D1
S31500004A90585B0000185B0000F45C0000FE5C000040
S31500004AA0F927000027480000FA5C000038B500230B
S31500004AB0054D044608462B60FDF74AFB431C02D110
S31500004AC02B6803B1236038BD0C05002010B50C46D9
S31500004AD0B1F90E1000F076FA0028ABBF636DA3891A
S31500004AE01B1823F48053ACBF6365A38110BD2DE969
S31500004AF0F0411F468B8905460C46DB05164605D553
S31500004B0002230022B1F90E1000F0C6F9A38932463D
S31500004B10B4F90E10284623F48053A3813B46BDE822
S31500004B20F04100F069B810B50C46B1F90E1000F06E
S31500004B30B3F9431CA38915BF606523F4805343F47E
S31500004B408053A38118BFA38110BDB1F90E1000F0E8
S31500004B50D3B8FFFFF8B50E461446054618B183696B
S31500004B600BB9FFF70DF9214B9C422BD16C68A36959
S31500004B70A360A3891A072FD523696BB32369F6B2FD
S31500004B8020683746C01A6369834204DC21462846FA
S31500004B9000F046F930BBA3680130013BA3602368EF
S31500004BA05A1C22601E706369834204D0A389DB0706
S31500004BB006D50A2E04D12146284600F031F988B9D7
S31500004BC03846F8BD0A4B9C4201D1AC68CFE7094B89
S31500004BD09C4208BFEC68CAE72146284600F01EF84A
S31500004BE00028CBD04FF0FF37EAE700BF385B000064
S31500004BF0585B0000185B000038B50446064D0846B1
S31500004C00114600222A601A46FBF7A4FD431C02D176
S31500004C102B6803B1236038BD0C050020324B70B5FC
S31500004C201D6806460C4625B1AB6913B92846FFF741
S31500004C30A7F82E4B9C420FD16C68A389B4F90C20BF
S31500004C4019072CD4DD0611D40923336042F0400342
S31500004C504FF0FF30A3813EE0254B9C4201D1AC686A
S31500004C60EBE7244B9C4208BFEC68E6E7580712D5F1
S31500004C70616B41B104F14403994202D03046FFF71B
S31500004C80DBFC00236363A38923F02403A3810023B1
S31500004C90636023692360A38943F00803A381236922
S31500004CA04BB9A38903F42073B3F5007F03D02146E3
S31500004CB0304600F029F9A089B4F90C2010F0010360
S31500004CC00AD00023A36063695B42A361236943B9E9
S31500004CD010F08000BAD170BD810758BF6369A36028
S31500004CE0F4E70020F7E700BF14000020385B00005F
S31500004CF0585B0000185B000038B50023054D0446DC
S31500004D0008462B6000F078FC431C02D12B6803B1E7
S31500004D10236038BD0C0500208A892DE9F04105463F
S31500004D2010070C4658D44B68002B05DC0B6C002B87
S31500004D3002DC0020BDE8F081E66A002EF9D00023EF
S31500004D4012F480522F682B6032D0606DA3895A0707
S31500004D5005D56368C01A636B0BB1236CC01A0023B8
S31500004D600246E66A2846216AB047431CA38906D153
S31500004D7029681D292CD8294ACA40D60728D50022D9
S31500004D80D90462602269226004D5421C01D12B68D5
S31500004D9003B96065616B2F600029CAD004F1440332
S31500004DA0994202D02846FFF747FC00206063C1E71E
S31500004DB0216A01232846B047411CC7D12B68002B26
S31500004DC0C4D01D2B01D0162B01D12F60B1E7A389CA
S31500004DD043F04003A381ADE70F69002FA9D09307E5
S31500004DE00E680F600CBF4B690023A6EB07088B60AB
S31500004DF0B8F1000F9DDD43463A46216A2846A66A69
S31500004E00B047002806DCA3894FF0FF3043F040038B
S31500004E10A3818FE70744A8EB0008E9E701004020DB
S31500004E2038B50B6905460C4613B90025284638BD2A
S31500004E3018B183690BB9FEF7A3FF144B9C421BD133
S31500004E406C68B4F90C30002BEFD0626ED00704D436
S31500004E50990502D4A06DFFF736F828462146FFF7DC
S31500004E605BFF636E0546DA07E0D4A3899B05DDD4B4
S31500004E70A06DFFF729F8D9E7054B9C4201D1AC6834
S31500004E80DFE7044B9C4208BFEC68DAE7385B0000BA
S31500004E90585B0000185B000038B50446064D08460E
S31500004EA0114600222A601A4600F0BEFB431C02D1BE
S31500004EB02B6803B1236038BD0C05002070B50E4683
S31500004EC0B1F90E1096B0144600291D4608DAB6F957
S31500004ED00C3000222A601A0610D44FF480630EE0CC
S31500004EE06A4600F08FF80028F1DB019A02F470425E
S31500004EF0A2F500535A425A412A60EEE740230020A9
S31500004F00236016B070BDFFFF8B8973B59D070646FB
S31500004F100C4607D504F1470323602361012363612F
S31500004F2002B070BD01AB6A46FFF7C8FF009905469F
S31500004F303046FFF7EDFB48B9B4F90C309A05EFD4CB
S31500004F4023F0030343F00203A381E3E70D4BB362AF
S31500004F50A389206043F080032061A381009B6361E5
S31500004F60019B5BB1B4F90E10304600F05DF828B134
S31500004F70A38923F0030343F00103A381A08905431A
S31500004F80A581CDE7193D000082B001B901A942B162
S31500004F904BB113780B601278101E18BF012002B0B7
S31500004FA070471046FBE76FF00100F8E70148FEF78F
S31500004FB08ABF00BF000500200148FEF785BF00BF7D
S31500004FC00005002038B50446064D08461146002265
S31500004FD02A601A4600F030FB431C02D12B6803B14D
S31500004FE0236038BD0C05002049B1FF2A8DBF8A23F6
S31500004FF001200A70036088BF4FF0FF3070470846F3
S315000050007047FFFF38B50023064D04460846114693
S315000050102B6000F0F9FA431C02D12B6803B1236020
S3150000502038BD00BF0C05002038B50023054D0446E9
S3150000503008462B6000F0F0FA431C02D12B6803B13E
S31500005040236038BD0C05002070B54FF0FF0C4CF402
S31500005050E06C1CEA11541DBF1CEA135594EA0C0FB0
S3150000506095EA0C0F00F0DEF82C4481EA030621EAEB
S315000050704C5123EA4C5350EA013518BF52EA033526
S3150000508041F4801143F4801338D0A0FB02CE4FF0D8
S315000050900005E1FB02E506F00042E0FB03E54FF008
S315000050A00006E1FB03569CF0000F18BF4EF0010E00
S315000050B0A4F1FF04B6F5007F64F5407404D25FEAFC
S315000050C04E0E6D4146EB060642EAC62141EA5551AF
S315000050D04FEAC52040EA5E504FEACE2EB4F1FD0CF1
S315000050E088BFBCF5E06F1ED8BEF1004F08BF5FEA6F
S315000050F0500E50F1000041EB045170BD06F0004621
S3150000510046EA010140EA020081EA0301B4EB5C04CD
S31500005110C2BFD4EB0C0541EA045170BD41F48011C5
S315000051204FF0000E013C00F3AB8014F1360FDEBFEA
S31500005130002001F0004170BDC4F10004203C35DAC6
S315000051400C341BDC04F11404C4F1200500FA05F349
S3150000515020FA04F001FA05F240EA020001F00042EA
S3150000516021F0004110EBD37021FA04F642EB060160
S315000051705EEA430E08BF20EAD37070BDC4F10C048A
S31500005180C4F1200500FA04F320FA05F001FA04F24E
S3150000519040EA020001F0004110EBD37041F100013A
S315000051A05EEA430E08BF20EAD37070BDC4F1200545
S315000051B000FA05F24EEA020E20FA04F301FA05F2AD
S315000051C043EA020321FA04F001F0004121FA04F255
S315000051D020EA020000EBD3705EEA430E08BF20EA25
S315000051E0D37070BD94F0000F0FD101F0004640005F
S315000051F041EB010111F4801F08BF013CF7D041EAE1
S31500005200060195F0000F18BF704703F000465200E4
S3150000521043EB030313F4801F08BF013DF7D043EAB5
S315000052200603704794EA0C0F0CEA135518BF95EA6B
S315000052300C0F0CD050EA410618BF52EA4306D1D1F2
S3150000524081EA030101F000414FF0000070BD50EA11
S31500005250410606BF1046194652EA430619D094EA9B
S315000052600C0F02D150EA013613D195EA0C0F05D185
S3150000527052EA03361CBF104619460AD181EA0301D9
S3150000528001F0004141F0FE4141F470014FF0000091
S3150000529070BD41F0FE4141F4780170BD70B54FF02C
S315000052A0FF0C4CF4E06C1CEA11541DBF1CEA1355AC
S315000052B094EA0C0F95EA0C0F00F0A7F8A4EB05048E
S315000052C081EA030E52EA03354FEA013100F0888085
S315000052D04FEA03334FF0805545EA131343EA12634E
S315000052E04FEA022245EA111545EA10654FEA002603
S315000052F00EF000419D4208BF964244F1FD0404F5BC
S31500005300407402D25B084FEA3202B61A65EB030517
S315000053105B084FEA32024FF480104FF4002CB6EBD4
S31500005320020E75EB030E22BFB61A754640EA0C0054
S315000053305B084FEA3202B6EB020E75EB030E22BF94
S31500005340B61A754640EA5C005B084FEA3202B6EBD5
S31500005350020E75EB030E22BFB61A754640EA9C0094
S315000053605B084FEA3202B6EB020E75EB030E22BF64
S31500005370B61A754640EADC0055EA060E18D04FEA22
S31500005380051545EA16754FEA06164FEAC30343EAC2
S3150000539052734FEAC2025FEA1C1CC0D111F4801F8F
S315000053A00BD141EA00014FF000004FF0004CB6E788
S315000053B011F4801F04BF01430020B4F1FD0C88BF27
S315000053C0BCF5E06F3FF6AFAEB5EB030C04BFB6EB32
S315000053D0020C5FEA500C50F1000041EB045170BD25
S315000053E00EF0004E4EEA113114EB5C04C2BFD4EB52
S315000053F00C0541EA045170BD41F480114FF0000ED6
S31500005400013C90E645EA060E8DE60CEA135594EA51
S315000054100C0F08BF95EA0C0F3FF43BAF94EA0C0F54
S315000054200AD150EA01347FF434AF95EA0C0F7FF4C9
S3150000543025AF104619462CE795EA0C0F06D152EA1D
S3150000544003353FF4FDAE1046194622E750EA410601
S3150000545018BF52EA43067FF4C5AE50EA41047FF412
S315000054600DAF52EA43057FF4EBAE12E74FF0FF3C77
S3150000547006E000BF4FF0010C02E000BF4FF0010C48
S315000054804DF804CD4FEA410C7FEA6C5C4FEA430CC1
S3150000549018BF7FEA6C5C1BD001B050EA410C0CBF10
S315000054A052EA430C91EA030F02BF90EA020F002072
S315000054B0704710F1000F91EA030F58BF994208BFD9
S315000054C090422CBFD8176FEAE37040F00100704796
S315000054D04FEA410C7FEA6C5C02D150EA013C07D1ED
S315000054E04FEA430C7FEA6C5CD6D152EA033CD3D038
S315000054F05DF8040B704700BF8446104662468C4632
