S01500007261366D355F6565675F696D752E737265632A
S3150000000058380020752C0000A12A0000712C000031
S31500000010712C0000712C0000712C0000712C000066
S31500000020000000000000000000000000712C00002D
S31500000030712C000000000000712C0000712C0000E3
S31500000040C113000031130000511400009914000080
S31500000050292300005D0A0000010B0000E50B0000EB
S31500000060C90C00007518000075180000C1150000C5
S3150000007051150000391600007916000075180000A9
S31500000080851E0000851E0000000000000000000024
S31500000090000000000000000000000000000000005A
S315000000A0000000000000000000000000000000004A
S315000000B0000000000000000000000000000000003A
S315000000C0000000000000000000000000000000002A
S315000000D0000000000000000000000000000000001A
S315000000E0000000000000000000000000000000000A
S315000000F000000000000000000000000000000000FA
S3150000010000000000000000000000000000000000E9
S3150000011000000000000000000000000000000000D9
S3150000012000000000000000000000000000000000C9
S3150000013000000000000000000000000000000000B9
S3150000014000000000000000000000000000000000A9
S315000001500000000000000000000000000000000099
S315000001600000000000000000000000000000000089
S315000001700000000000000000000000000000000079
S315000001800000000000000000000000000000000069
S315000001900000000000000000000000000000000059
S315000001A00000000000000000000000000000000049
S315000001B00000000000000000000000000000000039
S315000001C0FFFFFFFFFFFFFFFFFFFFFFFFFFFFFFFF39
S315000001D0FFFFFFFFFFFFFFFFFFFFFFFFFFFFFFFF29
S315000001E0FFFFFFFFFFFFFFFFFFFFFFFFFFFFFFFF19
S315000001F0FFFFFFFFFFFFFFFFFFFFFFFFFFFFFFFF09
S3150000020010B5054C237833B9044B13B1044800E00C
S3150000021000BF0123237010BD100200200000000063
S31500000220C08C000008B5034B1BB10349034800E02E
S3150000023000BF08BD0000000014020020C08C0000B2
S315000002402DE9F041204C2378002B3AD11F4FFD6851
S315000002503E682B6830467968984718B10E2801D059
S31500000260BDE8F08130466B68B96898470028F7D139
S31500000270174B9F68D3E900813B684046984708B111
S315000002800E28EDD140467B6998470028E8D1114BEE
S315000002909A68D3E900011268904708B10E28DFD1A9
S315000002A00D4B9A68D3E900011268904708B10E28F1
S315000002B0D6D13046AB6898470028D1D101232370A8
S315000002C0CEE70020BDE8F0812C02002080840000EB
S315000002D04484000024850000C8840000002837D02C
S315000002E0F8B51D4B1B78002B34D0002401231B4985
S315000002F01B4A1C4D2C7088609068CB81446810683E
S315000003008B81A04718BB184B1F689E683846B36898
S3150000031098473846F3689847C8B938467368984787
S31500000320A8B92B785BB94FF4FA7401E0013C06D00A
S3150000033001210A2002F080FB2B78002BF6D03846EC
S31500000340B368984718B92B78002B08BF1420F8BD5E
S31500000350012070470720F8BD2C0200200000002075
S315000003602485000054020020C88400000122014BAD
S315000003701A7070475402002024220021014803F01D
S3150000038040B800BF300200203D4B2DED048B1A789B
S315000003900AB901221A7093ED015A9FED3A6AD3ED1C
S315000003A0056AD3ED027A25EE066ADFED371A9FED70
S315000003B0377AB8EE001ADFED362A26EE879A93EDE5
S315000003C0062A9FED344A67EEA22A83ED025AC3ED50
S315000003D0066A25EE215A66EE811A76EE006AD3ED9C
S315000003E0075A27EE848A76EEE26ADFED2B7A93EDE2
S315000003F0080A25EE811AC3ED085A65EEA75A66EE7D
S31500000400847AD3ED034A9FED253A77EE857AD3EDCC
S31500000410040A24EE833A77EE887ADFED213A77EE06
S31500000420837A60EEA33AC3ED044A77EEE37A74EE7C
S31500000430A44A34EEA77ADFED1B8A37EE207A62EE05
S31500000440288A37EE097A37EE687ABDEC048BC3ED5D
S31500000450037A71EE877A9FED146A77EE827A20EE40
S31500000460066A77EEA57A77EEC67A31EE271AC3EDDD
S31500000470016A31EE000A83ED057AC3ED077A70470B
S3150000048030020020D94C0D3F3B77923BFD51BF3ED9
S3150000049030C81A3F3B77123B31F8933FEC405C3F44
S315000004A03297223F27FF4F3F5BFD583F70B5104DF7
S315000004B02B780BB1002070BD0E4903F0FF040E4BE4
S315000004C00C804FF4807221460C481C8002F099FF84
S315000004D00B4B0C489A680C49046056681868012250
S315000004E00C70B0470028E6D101232B7070BD00BF09
S315000004F0600300205C0200206203002060020020EE
S315000005004C85000058020020550200200379012B7B
S3150000051006D0022B03D10122124B1A607047704796
S3150000052010B4114B1148124C1978038822880133F4
S31500000530DBB292B29342C9B203D122880132D2B25F
S31500000540228002880B4C92B2A15401220A490380F0
S315000005500A4C8B68086822605B6803495DF8044BA7
S31500000560184700BF64030020550200205C020020EB
S3150000057062030020600200204C8500005802002023
S3150000058010B50A4B82B0996801908C6801221868F0
S3150000059001A9A04700B100BE054A1368002BFCD094
S315000005A000230198136002B010BD00BF4C85000007
S315000005B06403002070B5161E07DD0C468D1914F96C
S315000005C0010BFFF7DDFFA542F9D1304670BD00BF34
S315000005D008B50A4BC3F8FC01C3F8001293F80432BD
S315000005E02BB94FF47A71642002F026FAF9E70A462D
S315000005F00146034803F08CFDF3E700BF68030020C3
S31500000600088400002DE9F0432F4B85B0D3E9011291
S3150000061018681268904708B10E2847D101262B4C5E
S3150000062084F80462FFF742FF18B101460A20FFF77B
S31500000630CFFF04F5F47000F087F900F04DF8054699
S31500000640C0BB062332464FF48061214884F8DF613F
S31500000650204F04F5F47684F8E23101F033F83046A1
S3150000066000F0AEF900F04AF800F066F9A842044638
S3150000067024D000F055F9254610EE104A00F056F940
S31500000680204610EE104A02F0C1FC02460B462046F8
S31500000690CDE9022302F0BAFCDDE902238046894651
S315000006A03846CDE9008903F033FDD8E7014601203D
S315000006B0FFF78EFF01460B20FFF78AFF0121C820B6
S315000006C002F0BAF9CBE700BF4C85000068030020B2
S315000006D0E80500202C84000010B5074C702200218C
S315000006E0204602F08EFEFFF747FEFFF7A9FD08B988
S315000006F00123237010BD00BF70050020002270B5D5
S315000007007F4C84B02378ADF80E2063B1636805464C
S315000007105BB960600DF10E00FFF7E0FD064648B1DB
S3150000072005F5FA65656004B070BDC31A002BF1DAF1
S3150000073004B070BDBDF80E3000EE103AB8EE400AB7
S31500000740FFF722FE94F82C3094ED0A7A03F10C029E
S3150000075004EB8202D2ED006A37EE667AF0EEC06AEA
S31500000760DFED687A37EE267A67EE277A013303F0F3
S315000007700F0384F82C30A368BDF80E100133202B2C
S3150000078084ED040AC2ED006A84ED0A7AC4ED057AA6
S31500000790A360A18115D8B3EE027AC4ED087A77EE8C
S315000007A0877A0023C4ED097A2677A361636803F587
S315000007B0FA63EA1A002A6360B5DB05F5FA65656037
S315000007C0B1E7D4ED086AF4EEE67AF1EE10FA37EE08
S315000007D0E67A4CBF9FED4C6A9FED4C6AD4ED095A00
S315000007E027EE067AF4EEE57A77EE266AF1EE10FA4F
S315000007F0C4ED086AB3EE027A67DC36EE877A9FEDBF
S31500000800445A37EE656A26EE056A36EE256AB4EE78
S31500000810C76AF1EE10FA5ABFB0EE467A84ED096A5D
S3150000082084ED097AB3EE026A37EE667AB4EE467A5A
S31500000830F1EE10FA77EEE67A48BFB0EE467AC7EEEA
S31500000840876AF5EEC06AF1EE10FA18D4B7EE007AB0
S31500000850F4EEC76AF1EE10FA40DCDFED2B7AF4EE27
S31500000860E76AF1EE10FA0AD976EEE76A9FED296A91
S31500000870C6EE867AF5EEC07AF1EE10FA35D5DFEDE2
S31500000880267A94ED067AF5EE006A77EEC77A67EE79
S31500000890A67A77EE877AF5EEC07AF1EE10FA19D4D9
S315000008A09FED1E7AF4EEC77AF1EE10FA19DCB6EE79
S315000008B0007A37EE877ABCEEC77A8DED017A9DF81D
S315000008C00430C4ED067A237770E7B0EE676A36EE39
S315000008D0877A9CE70023DFED107AF2E7DFED0F7AE7
S315000008E0CFE76423F0EE477AEBE7F4EEC77AF1EE52
S315000008F010FAF3DC9FED097A67EE877AC1E700BF4D
S31500000900700500200000803DCDCCCC3D6F12033B2E
S315000009106F12833B6666663F000000000000C84217
S31500000920014B93ED040A704770050020014B93EDCF
S31500000930050A704770050020014B9868704700BF94
S3150000094070050020FFFFFFFF38B3002170B4164C7E
S31500000950164BD4F8FC20164E42F08072C4F8FC20E8
S3150000096059601A68134D42F001021A604160326AFA
S315000009702B68C2F3026293400F4CD340A3429FED13
S31500000980087B70BC94BF01230C4A80ED027B84BFB8
S31500000990A2FB03239B0C036070477047AFF30080F4
S315000009A0000000000000000000ED00E0001000E084
S315000009B000E00140400800203F420F0083DE1B4359
S315000009C090B10A4A38B5D0E90241556843680268D1
S315000009D0EB1A1C1941F10001C0E901540023C16062
S315000009E0204602F06BFB38BD704700BF001000E0E8
S315000009F008B5FFF707FEFEE7022800D07047024958
S31500000A00024800F02DBF00BF8C850000E8050020DD
S31500000A1008B5FFF7EDFF002008BD00BF30B5836ABB
S31500000A2085B004468C4601ADABB193E8070085E876
S31500000A30070062681846117883F804C0E26A1960F4
S31500000A409A60636A9847A36A1BB195E8070083E832
S31500000A50070005B030BD2B46EBE700BF10B4EFF33F
S31500000A600383103B234A5BB203F1C00152F8210015
S31500000A706FF3104042F8210052F821201E4A52F826
S31500000A802330D3E906218A421DD0186948B393F86A
S31500000A9020C0BCF10F0F0BD99968496840F82210A5
S31500000AA0D96901328A429A610DD05DF8044B7047CC
S31500000AB0BCF1070F18D8996809798154D9690132B0
S31500000AC08A429A61F1D15B6893F90330012203F0FF
S31500000AD01F000A495B09824041F823205DF8044B58
S31500000AE0704798684068DCE79C68B4F804C020F852
S31500000AF012C0D6E700600040B406002000E100E026
S31500000B0010B5EFF30383103B33495BB203F1C00228
S31500000B1051F822006FF3104041F8220051F82220CC
S31500000B202E4A52F823305C68226A82B392F801C0DA
S31500000B30D869BCF1010F5A6918D0904210D0D96813
S31500000B4041B393F820000F280BD8072898BF895C7B
S31500000B5098688ABF31F812100171818001325A619A
S31500000B6010BD986851F822104160F7E700F1FF3E8A
S31500000B70724512D021690029DFD094F90310184874
S31500000B8001F01F020CFA02F2490940F821205A69C5
S31500000B90D869D2E798684160E0E794F9030000F16C
S31500000BA0C00251F822406FF3104441F8224051F838
S31500000BB02220BFF35F8F4209920000F01F0002F16E
S31500000BC060420CFA00F002F56142C2F88001106042
S31500000BD05A69D869B1E700BF00600040B40600203A
S31500000BE000E100E0EFF30383103B344A5BB203F10C
S31500000BF0C00152F821006FF3104042F8210052F86C
S31500000C0021202F4A52F823008268D278920704D511
S31500000C104268527A012A00D07047012230B459093D
S31500000C20284C03F01F03203102FA03F344F8213065
S31500000C30BFF34F8FBFF36F8F436893F90230002BDA
S31500000C4032DB590903F01F0302FA03F3203144F89B
S31500000C502130BFF34F8FBFF36F8FD0E90114237894
S31500000C6091F902106FF386130029237018DB134BDA
S31500000C7001F1C00453F824506FF3104543F8245093
S31500000C8053F82430BFF35F8F4B099B0001F01F011F
S31500000C9003F160438A4003F56143C3F880211A607B
S31500000CA0012130BCFFF7BABE8268012130BC13783F
S31500000CB06FF386131370FFF7B1BE00BF00600040EC
S31500000CC0B406002000E100E070B5EFF30384354B75
S31500000CD0103C64B253F82460736893F90230002B19
S31500000CE048DB012030495A0903F01F03203200FA7D
S31500000CF003F341F82230BFF34F8FBFF36F8FD6E96E
S31500000D00013293F902301178002B6FF386111170BE
S31500000D1019DB264A03F1C00152F821506FF3104542
S31500000D2042F8215052F82120BFF35F8F03F01F02D3
S31500000D305B099B0003F16043904003F56143C3F8F0
S31500000D4080011860B2680021D378D1701A07DDB22D
S31500000D5023D4EB0714D405F01405142D18D0134B27
S31500000D60C03453F824206FF3104243F8242053F87C
S31500000D70243070BDB26813786FF386131370E2E700
S31500000D800421304605F01405FFF748FE142DE6D180
S31500000D9008213046FFF742FEE1E705213046FFF71E
S31500000DA03DFED6E7B406002000E100E0006000400A
S31500000DB010B400240122036A44609C70C3692D4963
S31500000DC093F905304FEA531C03F01F0302FA03F3AD
S31500000DD00CF1200C41F82C30BFF34F8FBFF36F8F0F
S31500000DE0C36993F90B304FEA531C03F01F0302FA51
S31500000DF003F30CF1200C41F82C30BFF34F8FBFF3F7
S31500000E006F8FC36993F907304FEA531C03F01F0332
S31500000E1002FA03F30CF1200C41F82C30BFF34F8F8C
S31500000E20BFF36F8FC36993F909304FEA531C03F080
S31500000E301F0302FA03F30CF1200C41F82C30BFF328
S31500000E404F8FBFF36F8FEFF3108182F31088C36962
S31500000E50094A93F800C04FF00043506823FA0CF398
S31500000E6003435360536881F3108820465DF8044BB2
S31500000E70704700BF00E100E0004008400346002044
S31500000E80C3E90512704700BF10B4046AA37803F0E3
S31500000E907B03A370837803F00303D21A0B44026129
S31500000EA0A278C360837842F0800203F00303022B2A
S31500000EB0A27005D00B780020E3705DF8044B7047F4
S31500000EC00B88002043F47E43E3815DF8044B7047B2
S31500000ED084460020CCE90A32CCF82410704700BFC3
S31500000EE070B586460024DEF820304D7893F802C0AF
S31500000EF00A780CF00B069E70CEF80C4020468C78D3
S31500000F0002F05C025C7093F800E00CF07B0C65F379
S31500000F10010E83F800E0C9789974D97901F0A3012C
S31500000F200A43DA7183F802C070BD00BF4FF0FF3389
S31500000F300020C1E9003370478B0711D5002210B499
S31500000F40046AC907A37803F07B03A3701346026102
S31500000F5002D500221346826118465DF8044B70479D
S31500000F60CA074FF0060302D50022134682611846CF
S31500000F70704700BF0346002210B49C6910460C60FF
S31500000F805DF8044B9A617047F0B5846A85B00546F2
S31500000F900F4694466E46B4B194E80F0086E80F00FB
S31500000FA0EB6920461B7884F804C02360EB6AC4E929
S31500000FB002736B6A9847AC6A1CB196E80F0084E826
S31500000FC00F0005B0F0BD3446EAE700BF0022F0B5D9
S31500000FD001240B78027003F5800303F58C531B0282
S31500000FE003624B698D6943628378C16164F30103CF
S31500000FF08262C56283704B7823B90222837862F3DA
S3150000100001038370012491F90B50C44A6B0905F062
S315000010101F07203304FA07F78E7A42F82370BFF3CE
S315000010204F8FBFF36F8FBE4B05F1C00753F827C034
S315000010306FF3104C43F827C053F82770B94F3601A9
S3150000104002EB050CF6B28CF8006347F8250091F91F
S3150000105005500E794FEA551C05F01F0E0CF1200CB9
S3150000106004FA0EFE42F82CE0BFF34F8FBFF36F8FEA
S3150000107005F1C00C53F82CE06FF3104E43F82CE04A
S3150000108053F82CC0360102EB050CF6B28CF800635F
S3150000109047F8250091F907508E794FEA551C05F05F
S315000010A01F0E0CF1200C04FA0EFE42F82CE0BFF3E2
S315000010B04F8FBFF36F8F05F1C00C53F82CE06FF321
S315000010C0104E43F82CE053F82CC0360102EB050C09
S315000010D0F6B28CF8006347F8250091F909500E7AAC
S315000010E04FEA551C05F01F0E0CF1200C04FA0EFEFB
S315000010F042F82CE0BFF34F8FBFF36F8F05F1C00CA2
S3150000110053F82CE06FF3104E43F82CE053F82C30D4
S315000011103301DBB22A4482F8003347F82500EFF3A7
S31500001120108584F310884FF000447F4B0E785A6880
S31500001130F44022EA04025A605B6885F310880022B4
S3150000114040F2F934036A40F2F9359A701A715A720C
S315000011509A72DA725A830A7824FA02F2D60744BFE0
S315000011604022DA740622CC691A770A784E78D5407E
S31500001170ED078F78CA7848BF4FF478414FEAC2022C
S3150000118048BF9982032E42EA071200F0C280002E61
S3150000119014BFF221E221D2B21A709971227B082A79
S315000011A00EBF0A22520002F002025A736278A17838
S315000011B0D201490101F02001D2B20A43002119727D
S315000011C094F800C0ACF10201012940F29880D2B235
S315000011D0DA716268917855785970197865F301016A
S315000011E01970D17812789974D97902F05C0201F0FD
S315000011F0A3010A43DA710022C16902618261C260F9
S31500001200426191F90550464B05F1C00153F8216042
S3150000121062F3104643F8216053F82110BFF35F8F45
S3150000122001266909890005F01F0501F1604101F5F4
S31500001230614106FA05F5C1F880510D60C16991F961
S315000012400B5005F1C00153F8217062F3104743F8C3
S31500001250217053F82110BFF35F8F6909890005F0EB
S315000012601F0501F1604106FA05F501F56141C1F876
S3150000127080510D60C16991F907E00EF1C00153F884
S31500001280215062F3104543F8215053F82110BFF363
S315000012905F8F4FEA5E1189000EF01F0E01F160416B
S315000012A006FA0EF501F56141C1F880510D60C1697C
S315000012B091F9091001F1C00553F8257062F3104742
S315000012C043F8257053F82530BFF35F8F4B099B0019
S315000012D001F01F0103F160438E4003F56143C3F83B
S315000012E080611E60036A0CF0030C4CF0700C61897F
S315000012F083F802C00D4B018143601046F0BDFF210B
S31500001300BCF1020F08BF42F01002D2B25970DA7176
S3150000131071E7F22142F040023DE700BF00E100E044
S3150000132000600040B4060020004008405549435381
S3150000133030B4EFF30383103B1F4A5BB203F1C001E5
S3150000134052F821006FF3104042F8210052F8212094
S315000013501A4A52F82300C3691B691BB103691BB102
S3150000136030BC704703697BB9D0E908240021937823
S3150000137003F07F0343F004039370C160002CEFD0A9
S3150000138030BC8022FFF700BE827802F003010229FA
S31500001390C1680BD0046A91F800C084F803C002F05B
S315000013A003029B1A0A44C0E90323D8E70C88056A9E
S315000013B044F47E44EC81F2E700600040B40600206D
S315000013C010B582B0EFF30383103B1F4A5BB203F103
S315000013D0C00152F821006FF3104042F8210052F884
S315000013E021201A4A52F82340A27802F00303022B66
S315000013F0236A0CBF198A5979A3690CBFC1F3080186
S31500001400C9B2019143B9636AB3B10422204602B05E
S31500001410BDE81040FFF7B8BD02F0030201A96069FC
S3150000142001F0E2FFD4E90521A37803F003031A448F
S31500001430C91AC4E9052109B102B010BD636A002BBF
S31500001440FAD00122E2E700BF00600040B4060020A7
S3150000145010B5EFF303830E4A103B5CB252F824003A
S31500001460D0E90821937803F07B03937019B1022227
S315000014700021FFF789FD074A04F1C00352F8231043
S315000014806FF3104142F8231052F8233010BD00BF0D
S31500001490B40600200060004010B5EFF303831A4A3B
S315000014A0103B5CB252F82400837803F00303022B4E
S315000014B0036A0CBF198A597993F804C00CBFC1F3AB
S315000014C00801C9B21CF0100F0CF0380206D093F8D0
S315000014D01CC01CF0010F08BF42F0400293F804C084
S315000014E00CF0C70C83F804C0436A0BB1FFF74CFD40
S315000014F0064A04F1C00352F823106FF3104142F874
S31500001500231052F8233010BDB406002000600040BE
S3150000151030B5436A85B004468C4601ADABB193E85D
S31500001520070085E8070062681846117883F804C04A
S31500001530A26A19609A60236A9847636A1BB195E8A4
S31500001540070083E8070005B030BD2B46EBE700BF78
S3150000155010B4EFF30383103B174A5BB203F1C001EB
S3150000156052F821006FF3104042F8210052F8212072
S31500001570124A52F823305A69D9698A4206D2D86883
S31500001580B0B1805C9C68E07001325A618A4202D038
S315000015905DF8044B70471A69002AF9D19A685DF81C
S315000015A0044B937803F07B0343F004039370704776
S315000015B09C68E070E8E700BF00600040B4060020C9
S315000015C010B4EFF30383103B194A5BB203F1C00179
S315000015D052F821006FF3104042F8210052F8212002
S315000015E0144A52F823305A69D9698A4206D2D3E995
S315000015F00240D0B1805CE07001325A619A698A4239
S3150000160007D2986819694079541C9C618854D3E9BB
S315000016100621914206D19A68937803F03B0343F082
S31500001620040393705DF8044B7047E070E4E700BF75
S3150000163000600040B406002010B5EFF303830C4AA7
S31500001640103B5CB252F8240001218268937803F0C3
S3150000165003039370FFF75CFF064A04F1C00352F8D8
S3150000166023106FF3104142F8231052F8233010BDB7
S31500001670B40600200060004010B5EFF303834FF07E
S31500001680840C0E4A103B5CB252F824000421836895
S315000016909A7802F003029A701A7983F804C0FFF769
S315000016A037FF074A04F1C00352F823106FF31041C5
S315000016B042F8231052F8233010BD00BFB4060020B4
S315000016C0006000400123C8B283404AB91A040B0ADD
S315000016D05B0103F1804303F5002300209A60704705
S315000016E09AB2F4E72DE9F84F0388002B3DD0074660
S315000016F04FF00008DFF8A4A040F202427B684FEAF0
S31500001700C80559198988002491424FF00109224ED3
S3150000171009D00134032C23D07B6836F8022B5919E3
S3150000172089889142F5D15B5909FA04F203F0B8535E
S31500001730B3F1807F5FFA82FB19D09AF8BB341A4264
S31500001740E7D0012001F048FA9AF8BB34012023EAD9
S315000017500B0B8AF8BBB4013401F00EFA032CDBD173
S315000017603B8808F101084345C6D8BDE8F88F9AF8CA
S31500001770BB2409FA04F313425FFA83FBC9D10120A3
S3150000178001F02AFA9AF8BB3401204BEA030B8AF8D7
S31500001790BBB401F0F1F9BCE73287000000E001407C
S315000017A0F8B50446FFF79EFFEFF31082012383F39B
S315000017B01088284E33681BB92749CB704023CB705D
S315000017C033680133336082F3108823887BB3626801
S315000017D003F1FF3E1FFA8EFE02F108011F4C01EBDA
S315000017E0CE0E08E0D2B21B0113448E450A4644F8D9
S315000017F023001CD008311068928810F4803F4FEA0D
S315000018001223EFD0130AD2B202EB031C54F82C7049
S315000018101B01134420F480356FF310478E4544F8BE
S315000018202C700A4644F82C5044F82300E2D1EFF31A
S315000018301082012383F31088336813B13368013BA8
S31500001840336033681BB980200349CB70C87082F3BC
S315000018501088F8BDB0060020000D084000080840BA
S3150000186008B5034B03600846FFF79AFF002008BD42
S3150000187054524F5010B582B0EFF30384184B103C0E
S3150000188064B253F82410174A4879135C03F0030333
S31500001890032B11D0C03452F824306FF3104342F8B2
S315000018A0243052F824308B6823B1CA68CDE9002071
S315000018B06846984702B010BD8B6823B1CA68CDE967
S315000018C0002068469847074BC03453F824206FF32E
S315000018D0104243F8242053F8243002B010BD00BF54
S315000018E0B40600200060004003460020D3E902232E
S315000018F09360704703460020D3E902235360704784
S3150000190003460020D3E90223D3607047034630B470
S31500001910D3E90123D2690020D2E9011444F000453D
S31500001920D46841F0004144F000445D619C61D2E915
S31500001930044219615C629A6230BC70474FF0004104
S315000019400022836810461961596199615A629A6248
S31500001950704700BF10B4D0E901434A1E9A66247846
S315000019601CB94908013959659965D96AC90705D469
S315000019704FF4AA04C1685A661C64D96000205DF859
S31500001980044B704703469A680020D36AC3F30003EA
S315000019900B71936C0B60704784460020CCE90632CD
S315000019A0CCF81410704700BF70B5836984B0044644
S315000019B08C46164601AD9BB193E8070085E8070003
S315000019C083F804C0E26918469E601A606369984706
S315000019D0A3691BB195E8070083E8070004B070BD52
S315000019E02B46EDE702464FF0010C30B494680C4DDF
S315000019F0626E0C4B62448A60E46A2A6A1B6881F84C
S31500001A0000C0C4F3C35CC2F30264A34002F0070241
S31500001A10D34023FA0CF3002030BC4B60704700BF64
S31500001A2000E001404008002030B48C6E01342AB139
S31500001A30944203D930BC013A1A607047029D496B43
S31500001A400078ED0754BF01F01F01C1F304410328DC
S31500001A5008D9090981F001016AB9A1B930BC02228D
S31500001A605A60704701F00C01A1F10401B1FA81F14D
S31500001A704909002AF1D0944201D80029EED130BCA0
S31500001A8003225A607047002CE8D0F8E72DE9F041B0
S31500001A904FF0FF3C0025064684B0009202AB0F468D
S31500001AA0144602F003080A46D0E90101CDE902C551
S31500001AB0FFF7BAFFB368039A1D6B5AB914F0080F03
S31500001AC00CBF02210421A0071DD5029803EB81015A
S31500001AD0C864086561061ED5196CB8F1010F41F49A
S31500001AE08001196406D025F4403545EA0245B8F16F
S31500001AF0000F03D025F0407545EA026500201D63FE
S31500001B0004B0BDE8F08141440298123103EB810133
S31500001B1048606106E0D4B8F1010F12D025F44035D3
S31500001B20022C45EA0245E2D1002AE3D001200090CA
S31500001B3019463A4602AB7068FFF776FF039AB36818
S31500001B40D8E7022CD6D1002AD4D0EFE7002800DA55
S31500001B50704710B400F160430901134CC9B203F594
S31500001B60614383F80013114B00F1C00144F82020B3
S31500001B7053F821206FF3104243F8212053F8213007
S31500001B80BFF35F8F012243099B0000F01F0003F1A2
S31500001B90604303F5614302FA00F0C3F88001186060
S31500001BA05DF8044B704700BFB4060020006000409B
S31500001BB001222DE9F0410D46097C044602FA01F3A3
S31500001BC0C3601B0714BF002302744FF0000218BF46
S31500001BD00374814B84B00B4469691B0283604560C2
S31500001BE0D5E906364161C0E90623EFF3108E4FF0C2
S31500001BF0010C8CF310884FF00040784B2F7C19694C
S31500001C0020FA07F721EA070119611B698EF310888C
S31500001C104FF42541A368D5F804E01960DA62DA6367
S31500001C209A6429782F7A03294FEAC7570EF1FF38AD
S31500001C3000F09880DF6203921861586198615A62D9
S31500001C409A624FF0FF32B069F76AD861F069029282
S31500001C501862C3F86880C3F86480002940F0B18038
S31500001C60614638464FF0030C4FEA5E02013A029293
S31500001C705A659A6500284FD13278002A5AD12878B9
S31500001C80B278C2B196F803E002284FEA0E1242EA91
S31500001C908E1200F09080032800F09B80BEF1000FAA
S31500001CA014BF4FF0090E4FF0060E42EA0E0247EA45
S31500001CB0024747F0807700229A63C3F8882096F897
S31500001CC0212096F820E0520742EA4E3217434FF49D
S31500001CD0AA0201281A6429D0E268DA605F63C3F8B1
S31500001CE030C019632246697C95F91200FFF72EFF72
S31500001CF0224696F8221096F92400FFF727FF96F958
S31500001D002500224696F82310FFF720FF0020344BCB
S31500001D10236004B0BDE8F08100229A63C3F88820EE
S31500001D204FF4AA0228781A640128D5D10022DA6471
S31500001D301A65D1E796F801E028784FEA0E120228D4
S31500001D4042EA8E123AD0032841D0BEF1000F14BFEA
S31500001D504FF0090E4FF0060E42EA0E02174347F403
S31500001D6080778DE747F48037DF6203921861586108
S31500001D7098615A629A624FF0FF320292B269F76A2C
S31500001D80DA61F2691A62C3F86880C3F8648019469A
S31500001D9000230093EA68606802ABFFF745FEDDE9C1
S31500001DA00220010641EA004141F0030CA368F06AF3
S31500001DB041F001015CE74FF0090E76E74FF0090E9E
S31500001DC0CAE70129E3D138464FF0030C50E78646AF
S31500001DD0C2E7864669E700BF90164000004008400B
S31500001DE05450470030B4426892F91230D269002B41
S31500001DF010DB012403F01F05AC4059091F4D2031AB
S31500001E0045F82140BFF34F8FBFF36F8F00241C4965
S31500001E1041F8234092F92430002B10DB012403F013
S31500001E201F05AC405909154D203145F82140BFF337
S31500001E304F8FBFF36F8F0024114941F8234092F969
S31500001E402530002B11DB01210C4C5A0903F01F0C25
S31500001E50203201FA0CF144F82210BFF34F8FBFF382
S31500001E606F8F0021064A42F823100023D0E9022191
S31500001E7030BC0360184691605363704700E100E090
S31500001E80B406002070B5EFF30383103B1E495BB226
S31500001E9003F1C00C51F82C009A006FF3104002F1C8
S31500001EA0804241F82C0002F5C042D2F800031748E0
S31500001EB050F82300446894F800E0BEF1010F08D002
S31500001EC043692BB1BDE8704000221146FFF76CBD97
S31500001ED070BD0024D0E90256AE60AC64EC642C659B
S31500001EE051F82C5064F3104541F82C50D2F80023D9
S31500001EF0BFF35F8F06495A0903F01F030EFA03F377
S31500001F00603241F82230DBE700600040B406002072
S31500001F1000E100E030B58646EFF31084012282F33B
S31500001F2010880D4B986820F4804098609B6884F375
S31500001F3010880023094DC2F31204520024B131F86F
S31500001F4013C01C1D25F824C00133172BF3D1044BF5
S31500001F500020CEF8003030BD004008400020084088
S31500001F60434C4500002302460249136018460B7095
S31500001F70704700BF0020084000204022412349004E
S31500001F8001F1804101F5022188708A708B707047DB
S31500001F90024B0431002023F821207047002008401E
S31500001FA00020024B043123F821007047002008402E
S31500001FB08022024B00201A70704700BF00200840A4
S31500001FC00020014B187070470020084003460901A5
S31500001FD09B6841F00101C9B200205977704700BFE4
S31500001FE00023826818465377704700BF03460122D4
S31500001FF09B6800201A77704710B44FF480324FF474
S31500002000806483688C600A601A8AD86812F4404F2C
S3150000201048609B684FF000009BB2CB6008BF4FF64C
S31500002020FF735DF8044B08BF8B607047002110B545
S315000020304368134C5B681A78A03244F82210DA68B9
S3150000204084682177BAB14FF0010E93F901200D4C47
S315000020504FEA521C02F01F020CF1200C0EFA02F29B
S3150000206044F82C20BFF34F8FBFF36F8F064A93F9C6
S31500002070013042F8231000230360184610BD00BF4C
S315000020800060004000E100E0B40600202DE9F047C2
S3150000209091F803E00024774643684FEA9E125E6893
S315000020A0836896F800C0B6F80A804FEA8C0C0CF1EB
S315000020B0804C0CF5C04C91F80290CCF88042CEF3DF
S315000020C0810A1C77CEF3011ECCF8808292035C77DE
S315000020D0CD89C9F3810C42EA0E2207F0C00E4FEA01
S315000020E08C1CBEF1800FADB24CEA8A3C64D0BEF1C6
S315000020F0400F61D0BEF1C00F00F0978042F400524D
S31500002100B8F1000F01D042F00102D6F80C80B8F108
S31500002110000F38D019F0200F59D0BEF1C00F14BFF0
S315000021204FF01C084FF0100896F901E0B3780EF155
S3150000213060471B01DFF80491DBB207F5614787F8BA
S3150000214000333D4B0EF1C00749F82E0053F8279097
S315000021506FF3104943F8279053F82730BFF35F8F8A
S3150000216001274FEA5E139B000EF01F0E03F160433A
S3150000217003F5614307FA0EF7C3F880711F60CF7845
S31500002180836807F0C00EBEF1C00F23D000200746BB
S3150000219092B21FFA8CFC9F62D862A3F814C01A820E
S315000021A0486872681860896859609D60DC609A6149
S315000021B083F81380BDE8F0878C8945EA0545C9F3A5
S315000021C0001A25F0FC25A4B242EA0A3298E74FF03D
S315000021D01008A9E7888907F00C07042F80B208BF0A
S315000021E0074691F80290B1F80EE009F00C0918BF05
S315000021F037891FFA8EFE08BF4CF4005CB9F1040F54
S3150000220018BF10FB0EF0D1F804E018BF80B2C3F877
S3150000221020E0D1F808E008BF4CF0200C47EA074759
S3150000222040EA0040C3F824E0B2E78C8945EA054558
S3150000223025F0FC25A4B263E700600040B406002048
S3150000224010B54B6841601B78044603F10123403307
S315000022509B018360EFF3108E4FF0010C8CF3108816
S31500002260084B1A6822F480021A601B688EF31088E5
S31500002270054B096883F800C0FFF708FF034B0020F1
S31500002280236010BD004008400052004043414D44C9
S3150000229010B50446FFF7FAFE0122A36800201A775C
S315000022A010BD00BF0346002210B4D3E901416468A3
S315000022B01046237864899B0003F1804303F5C043ED
S315000022C0C3F880220A77C3F880425DF8044B4A7748
S315000022D0704700BF10B4002483B001910092D0E98A
S315000022E00121506802784089920002F1804202F58D
S315000022F0C042C2F880420C77C2F880024C77019A3D
S315000023000AB1019A0A60009A0AB1009A4A600A8ADA
S31500002310002012F4404F14BFCB608B6001230B7773
S3150000232003B05DF8044B704710B582B0EFF303833A
S31500002330103B0E4A5BB203F1C00152F821006FF365
S31500002340104042F8210052F82120094A01A852F80B
S31500002350234063685B68D3E9033201929847A36818
S31500002360DA680AB101221A7702B010BD0060004097
S31500002370B406002084460020CCE90732CCF81810B9
S31500002380704700BF03461A689B8A00201380704777
S31500002390062070470023026818461380704700BF66
S315000023A003461B6800201B88C3F3C0330B707047BD
S315000023B003461B68103133F8113000201380704734
S315000023C01031D0E9003033F8113001799BB2012980
S315000023D008BF1B0400201360704700BF062070472B
S315000023E006207047002800DA704710B400F16043F9
S315000023F00901134CC9B203F5614383F80013114B6D
S3150000240000F1C00144F8202053F821206FF3104258
S3150000241043F8212053F82130BFF35F8F012243098F
S315000024209B0000F01F0003F1604303F5614302FACD
S3150000243000F0C3F8800118605DF8044B704700BFD8
S31500002440B4060020006000402DE9F0410027CA686C
S315000024500B884E6982610A695B02C0E9077203F163
S31500002460804303F5B81303604160054648790C467E
S31500002470F2788978030243EA4133002A58D043F4BC
S315000024803073022814BF00202F499BB208BF31F8D1
S315000024902200AB822279E178D20342EA41027178C6
S315000024A096F800C042EA4112EFF31088012181F349
S315000024B01088B4F800E0254FCEF1100E01FA0EF1A7
S315000024C0D7F80CE02EEA0101F960F96888F3108864
S315000024D047F6FF510B40296892B20B800882CA81E9
S315000024E081F80CC073792A46A3F10103B3FA83F38A
S315000024F05B0981F8D030217A94F90600FFF772FF64
S315000025002A46617A94F90700FFF76CFF2A46317A6A
S3150000251096F90600FFF766FF96F907002A46717AD4
S31500002520FFF760FF00200A4B2861AB60BDE8F08131
S3150000253030B943F4004343F040039BB2AB82A9E7B2
S3150000254043F040039DE700BFA88700000040084015
S3150000255043444152026930B504467AB34FF0FF3323
S3150000256001204FEA72729E46013300FA03FC1CEA10
S31500002570020FF8D0B2FA82F2C3F120039B1A226846
S315000025800EF10E0E02EB4E024B600A6001234FF471
S315000025907A6C0B7263680A4D1B8800201A1D520064
S315000025A04A72D5F87C2103EB43035B0003F5B07355
S315000025B092B24B81CA60A1F810C030BD4A60E5E70F
S315000025C000B07F4043682DE9F0430C684A685E69B5
S315000025D003688D681FFA84F8A3F804801FFA82F84E
S315000025E0A3F8148022F0C04C1FFA85F824F0C04EE0
S315000025F025F0C0472243A3F808804FEA1C4C3F0C45
S315000026004FEA1E4812F0C04FA3F80680A3F816C082
S315000026105F8153D1CF68002F00F0AF80B7F808C0B4
S315000026201CF4006F20D0D7E90052B7F80A80A3F84F
S3150000263090C0A3F89C80B7F80C80A3F89E801FFA80
S3150000264085F8A3F89480C5F30B486D0FA3F8968020
S3150000265083F8925095B2A3F89850C2F30B45520FE7
S31500002660A3F89A5083F893201CF4007F1AD10A8AA3
S31500002670A3F890C0A3F88020F2786AB1BEFA8EFE65
S315000026801A88818A92B222F01F021F32A2EB0E0232
S3150000269092B211431A808182394BC0E9033400207B
S315000026A0BDE8F083BA7CFD7C2A4383F8A620FA892C
S315000026B0A3F8A8203A8AA3F8AA20D8E741F2360858
S315000026C0304FD7F82090304FC9F3026C3F68C9F3FA
S315000026D0021907FA0CFC2D4F2CFA09FCA7FB0C7CFF
S315000026E04FEA9C1C08FB0CFC294FA7FB0C7C4FEA0D
S315000026F09C4C0CF1010CBCF1070F38BF4FF0070CD6
S3150000270012F0005722D0EFF31085012383F31088CF
S31500002710204BDC6824F48004DC60DB6885F31088D9
S3150000272090251D4B0C681D7003685FFA8CF714F03A
S31500002730005F8D6883F8DE7014BF4FF480774FF426
S31500002740806715F0005F18BF47F0010752000ED5ED
S31500002750620048BF47F400775FFA8CFC58BF47F425
S3150000276000676A0083F8DFC048BF47F00207BFB2C0
S315000027705F82CF68002F7FF451AFBC4677E700BF7A
S315000027804344415200E0014040080020D34D62100E
S3150000279083DE1B430040084000300F40002170B428
S315000027A0C0E90211436893F906205C698A4211DB8D
S315000027B00125344E530902F01F0C203305FA0CF59F
S315000027C046F82350BFF34F8FBFF36F8F2E4B43F85E
S315000027D02210436893F90730002B10DB012103F028
S315000027E01F05A9405A09274D203245F82210BFF38C
S315000027F04F8FBFF36F8F0021234A42F8231094F9BD
S315000028000630002B10DB012103F01F05A9405A09F1
S315000028101C4D203245F82210BFF34F8FBFF36F8F48
S315000028200021194A42F8231094F90730002B10DBD7
S315000028300121144C5A0903F01F052032A94044F81F
S315000028402210BFF34F8FBFF36F8F00210E4A42F85D
S315000028502310002203681A821A80EFF310840123E2
S3150000286083F31088406809490088C0F1100083404E
S31500002870C8680343CB60CB6884F31088104670BCED
S31500002880704700BF00E100E0B406002000400840A9
S31500002890064B074993F826001A6A51F82030C2F30E
S315000028A002620449D3400B60704700BF00E001405C
S315000028B0F001002040080020F8B54AF20350012339
S315000028C03749384AA1F8FE03A2F80431B2F80431B8
S315000028D09BB2002BFAD101214FF400454FF0090CB1
S315000028E0314CDFF8DCE0314EC4F804E0DFF8D4E028
S315000028F02B48C4F80CE02E4FA2F800112D4AB16007
S3150000290031606261276090F82620A5602561056A1E
S3150000291054F82220C5F30265EA40274D2A6080F864
S31500002920133480F8A2C090F8803493B300231C4976
S3150000293081F8813481F8803481F8323091F83C3066
S315000029401A07FBD543F202100023154A088581F8C1
S315000029502A3092F83C309B06FBD50320052311490B
S3150000296081F81C0115490120116282F8263092F87F
S315000029702630116A54F82330C1F30261CB402B6034
S315000029804FF4254382F8300082F85200A2F8FE3355
S31500002990F8BD80F8801440F2C44000F04DF8C5E759
S315000029A000E0014000C00140F0010020007000403E
S315000029B0002D310100C2EB0B40080020211201203E
S315000029C000127A0000366E0138B50025134C01213D
S315000029D0C82084F8285000F02FF884F8245094F882
S315000029E02430002BFBD194F824300C4A43F0020328
S315000029F084F8243092F82430C3F340049B07F9D4BA
S31500002A00012082F8224000F0E7F8054B012083F808
S31500002A10BB44BDE8384000F0AFB800BF0030084006
S31500002A2000E00140704700BF00BEFEE7A0F10100D4
S31500002A300028FBD1704700BF10B54FF47A72164CD0
S31500002A40164B24684FF0000EB3FBF4FC4FF0FF3337
S31500002A5000FB01F1A1FB020483427EEB040407D3D1
S31500002A60B0FBFCF0800880B1BDE81040FFF7DEBF88
S31500002A704FEA8C0CB1FBFCF1A1FB02128B427EEB00
S31500002A80020203D308460028EED110BD1846BDE861
S31500002A901040FFF7CBBF00BF4008002000CA9A3B9A
S31500002AA070B500240A4B0B4EB3F84051ADB225FA6F
S31500002AB004F3DB07E0B203D556F8243003B1984798
S31500002AC00134102CF3D1024BA3F8305170BD00BF76
S31500002AD0006000407006002030B56FF0FF0585B03D
S31500002AE0032000F079F84FF0FF311F4C1F482246B3
S31500002AF0856400230125CDE90111039104F1C00E7F
S31500002B0032F8020F590960B104A800EB810151F8AF
S31500002B100C0C03F01F0C05FA0CFC20EA0C0041F823
S31500002B200C0C724503F10103EAD10199104B0F4ACF
S31500002B3003201167C3F8801202995167C3F8841203
S31500002B4003999167C3F8881200F016F80023094824
S31500002B5003F1C00234F8021F0133602B40F8221043
S31500002B60F6D105B030BD00BF4A86000000800040A7
S31500002B7000E100E000600040EFF31081012383F3E1
S31500002B801088124B33F8102092B22AB133F8102075
S31500002B90013A92B223F8102033F810309BB293B961
S31500002BA00B4A10B4B2F8FE330A4C9BB234F810004C
S31500002BB043F4254323EA0003A2F8FE3381F3108889
S31500002BC05DF8044B704781F3108870473408002085
S31500002BD000E00140E887000030B4EFF310810123E4
S31500002BE083F310880E4A32F810309BB26BB90D4C45
S31500002BF00D4DB4F8FE3335F810C09BB243EA0C0312
S31500002C0043F425439BB2A4F8FE3332F81030013367
S31500002C109BB222F8103081F3108830BC704700BF99
S31500002C203408002000E00140E88700000D4908B59F
S31500002C300A6803464AB103330B4823F003031344DF
S31500002C40834206D810460B6008BD08480246086055
S31500002C50F1E700F0C3FB0C234FF0FF320360104690
S31500002C6008BD00BF3C080020582800205808002056
S31500002C7000BE704708B500F003F8FDF7C9FEFEE791
S31500002C804FF4700270B5254B254CC3F88820002000
S31500002C909C60FDF7B1FEFFF70FFE0120FDF7ACFECD
S31500002CA02368A3F5805383F30A881E481E4A002131
S31500002CB0121A00F0A6FB1D481D4A1E49121A00F002
S31500002CC093FB1D4D1D4B5B1B002B07DD00249E1047
S31500002CD055F8043B01349847A642F9DCFFF7D8FDC6
S31500002CE0FFF772FE0320FFF777FF00234FF6FF7012
S31500002CF0134903F108020133092B21F81200F8D118
S31500002D000320FFF739FF0220FDF776FEFFF7E4FE0A
S31500002D10BDE870400020FFF785BE00BF00ED00E073
S31500002D2000000000100200205408002000000020CF
S31500002D30F0010020CC8C0000E8010020EC0100200E
S31500002D40000D084081F0004102E000BF83F000431F
S31500002D5030B54FEA41044FEA430594EA050F08BF30
S31500002D6090EA020F1FBF54EA000C55EA020C7FEAF4
S31500002D70645C7FEA655C00F0E2804FEA5454D4EB71
S31500002D805555B8BF6D420CDD2C4480EA020281EA3B
S31500002D90030382EA000083EA010180EA020281EA73
S31500002DA00303362D88BF30BD11F0004F4FEA0131C5
S31500002DB04FF4801C4CEA113102D0404261EB4101D4
S31500002DC013F0004F4FEA03334CEA133302D052425A
S31500002DD063EB430394EA050F00F0A780A4F1010416
S31500002DE0D5F1200E0DDB02FA0EFC22FA05F2801850
S31500002DF041F1000103FA0EF2801843FA05F3594136
S31500002E000EE0A5F120050EF1200E012A03FA0EFCB4
S31500002E1028BF4CF0020C43FA05F3C01851EBE371DE
S31500002E2001F0004507D54FF0000EDCF1000C7EEBFB
S31500002E3000006EEB0101B1F5801F1BD3B1F5001F39
S31500002E400CD349085FEA30004FEA3C0C04F1010458
S31500002E504FEA445212F5800F80F09A80BCF1004F81
S31500002E6008BF5FEA500C50F1000041EB045141EA03
S31500002E70050130BD5FEA4C0C404141EB0101013CCC
S31500002E8028BFB1F5801FE9D291F0000F04BF0146BB
S31500002E900020B1FA81F308BF2033A3F10B03B3F18D
S31500002EA020020CDA0C3208DD02F1140CC2F10C021D
S31500002EB001FA0CF021FA02F10CE002F11402D8BF7B
S31500002EC0C2F1200C01FA02F120FA0CFCDCBF41EA47
S31500002ED00C019040E41AA2BF01EB0451294330BD16
S31500002EE06FEA04041F3C1CDA0C340EDC04F11404F3
S31500002EF0C4F1200220FA04F001FA02F340EA0300CA
S31500002F0021FA04F345EA030130BDC4F10C04C4F10F
S31500002F10200220FA02F001FA04F340EA03002946EF
S31500002F2030BD21FA04F0294630BD94F0000F83F439
S31500002F30801306BF81F480110134013D4EE77FEA1C
S31500002F40645C18BF7FEA655C29D094EA050F08BF68
S31500002F5090EA020F05D054EA000C04BF1946104649
S31500002F6030BD91EA030F1EBF0021002030BD5FEA8D
S31500002F70545C05D14000494128BF41F0004130BDB5
S31500002F8014F580043CBF01F5801130BD01F0004509
S31500002F9045F0FE4141F470014FF0000030BD7FEA7C
S31500002FA0645C1ABF194610467FEA655C1CBF0B4677
S31500002FB0024650EA013406BF52EA033591EA030F8E
S31500002FC041F4002130BD00BF90F0000F04BF002186
S31500002FD0704730B54FF4806404F132044FF00005B9
S31500002FE04FF0000150E700BF90F0000F04BF002132
S31500002FF0704730B54FF4806404F1320410F0004598
S3150000300048BF40424FF000013EE700BF42004FEA92
S31500003010E2014FEA31014FEA02701FBF12F07F430F
S3150000302093F07F4F81F06051704732F07F4208BFC6
S31500003030704793F07F4F04BF41F40021704730B5CD
S315000030404FF4607401F0004521F000411CE700BF19
S3150000305050EA010208BF704730B54FF000050AE09C
S3150000306050EA010208BF704730B511F0004502D59D
S31500003070404261EB41014FF4806404F132045FEA9F
S31500003080915C3FF4D8AE4FF003025FEADC0C18BF48
S3150000309003325FEADC0C18BF033202EBDC02C2F13A
S315000030A0200300FA03FC20FA02F001FA03FE40EACC
S315000030B00E0021FA02F11444BDE600BF53B94AB925
S315000030C0002908BF00281CBF4FF0FF314FF0FF302A
S315000030D000F082B9ADF1080C6DE904CE00F006F8F7
S315000030E0DDF804E0DDE9022304B070472DE9F04F76
S315000030F0099D04460F46002B48D18A42944661D961
S31500003100B2FA82F343B1C3F120019F4002FA03FCF5
S315000031109C4020FA01F10F434FEA1C411FFA8CFE36
S31500003120220CB7FBF1F601FB167706FB0EF042EA1E
S315000031300742904208D91CEB020206F1FF3702D281
S31500003140904200F237813E46121AA4B2B2FBF1F069
S3150000315001FB102200FB0EFE44EA0244A64508D9F4
S315000031601CEB040400F1FF3202D2A64500F21C81DA
S31500003170104640EA0640A4EB0E0400261DB1DC40D2
S315000031800023C5E900433146BDE8F08F8B4209D9DB
S31500003190002D00F0FD800026C5E9000130463146CD
S315000031A0BDE8F08FB3FA83F6002E4BD18B42C0F008
S315000031B0F280824240F2EF803046002DE3D0C5E92E
S315000031C00047E0E702B9FFDEB2FA82F3002B40F0D7
S315000031D09D80891A4FEA124E97B20126200CB1FB48
S315000031E0FEF20EFB121140EA014107FB02F0884293
S315000031F00FD91CEB010102F1FF382CBF4FF001097A
S315000032004FF00009884203D9B9F1000F00F0CF80D2
S315000032104246091AA4B2B1FBFEF00EFB101100FBE8
S3150000322007F744EA0144A74208D91CEB040400F15D
S31500003230FF3102D2A74200F2B4800846E41B40EAFE
S3150000324002409BE7C6F12007B34001FA06F422FAD2
S3150000325007FCF940B2404CEA030C20FA07F34FEAA8
S315000032601C491C431FFA8CFE00FA06F3200CB1FB26
S31500003270F9F809FB181140EA014108FB0EF08842F3
S315000032800FD91CEB010108F1FF3A2CBF4FF0010BDF
S315000032904FF0000B884203D9BBF1000F00F08D8080
S315000032A0D046091AA4B2B1FBF9F009FB101100FBD4
S315000032B00EFE44EA01418E4507D91CEB010100F1DF
S315000032C0FF3401D28E457FD8204640EA0840A1EB64
S315000032D00E01A0FB029841454C46C64602D306D1D4
S315000032E04B4504D20138B9EB020468EB0C0E002DF5
S315000032F070D01A1B61EB0E0122FA06F301FA07F7EA
S31500003300F14000261F43C5E900713CE702FA03FCC1
S31500003310C3F1200001FA03F221FA00F64FEA1C4E2F
S3150000332024FA00F11FFA8CF79C401143B6FBFEF01D
S315000033300A0C0EFB106642EA064200FB07F69642AE
S315000033400ED91CEB020200F1FF382CBF4FF0010929
S315000033504FF00009964202D9B9F1000F31D040462C
S31500003360921B89B2B2FBFEF60EFB162241EA02411F
S3150000337006FB07F28A4207D91CEB010106F1FF386A
S3150000338001D28A4223D84646891A46EA004625E7EC
S315000033902E462846F7E6841A61EB030301201F46F2
S315000033A00BE76444023849E764440238E1E6023A2E
S315000033B061442EE7023E6244C6E6A8F10208614473
S315000033C06FE702386244CBE7023861447DE7023E8C
S315000033D06144D9E72E46D6E6704700BF014B186810
S315000033E0704700BF140000200A44431E914200D1DA
S315000033F0704710B511F8014B914203F8014FF9D10E
S3150000340010BD02440346934200D1704703F8011BE6
S31500003410F9E72DE9FF4755EC104B002D0E461946EE
S315000034202B46B4BF05F1004300239146BFBF224699
S315000034301D462D231446DDF830A00B700D9B23F09E
S315000034402008B8F1460F05D0B8F1450F00D1013676
S31500003450022100E0032103AB3246019302AB45ECA7
S31500003460104B0093534601F0D7FDB8F1470F0746BE
S3150000347002D119F0010F22D0B8F1460F07EB060969
S3150000348010D13B78302B0AD1002200232046294652
S3150000349004F048FE18B9C6F10106CAF80060DAF869
S315000034A000309944002200232046294604F03AFEC3
S315000034B008B1CDF80C903022039B4B4507D3039BF4
S315000034C038460E9ADB1B136004B0BDE8F087591C22
S315000034D003911A70F0E7F7B500290346B8BF4942D1
S315000034E003F8022BB4BF2D222B22092942702ADDB4
S315000034F00DF107040A27A4460A46A646013C632A9C
S3150000350091FBF7F607FB1615314605F130050EF867
S31500003510015CF1DC3031AEF1020504F8011C441CFB
S31500003520294661450AD30DF10902A2EB0E02654553
S3150000353088BF00221344181A03B0F0BD11F8012BFE
S3150000354004F8012FEDE7302330318370031DC1707D
S31500003550F1E7FFFF2DE9F04F2DED028B8DB00C4604
S3150000356016461F46DDF86080054602F0A5FFD0F836
S3150000357000A0504600F00AFE002394F818B008EEAA
S31500003580100A0A9323680593D8F80030073323F00E
S31500003590070303F10802C8F80020D3E90023C4E9B1
S315000035A01223D4E912894FF0FF3229F00043CDF8F7
S315000035B0188007939E4BDDE9060104F0E5FD88BB04
S315000035C04FF0FF329A4BDDE9060104F0BFFD48BB20
S315000035D0002200234046494604F0AEFD10B12D23DB
S315000035E084F84330934B9448BBF1470F94BF9846F9
S315000035F0804603234FF000092361059B23F0040254
S31500003600226033460BAA21462846009700F0D8F9D7
S31500003610013040F090804FF0FF300DB0BDEC028BD2
S31500003620BDE8F08F42464B464046494604F0ACFDA5
S3150000363040B14B468148002BBCBF2D2384F8433054
S315000036407F4BD1E70BF0DF02636806925A1C3FD12D
S3150000365006236360059B2846616843F48062002365
S3150000366003930AAB2260CDE901B309AB49EC108B99
S3150000367000930DF12303FFF7CCFE069B80460999C4
S31500003680472B08D1C81C02DB6368994241DDABF1C8
S31500003690020B5FFA8BFBBBF1650F20D801395A4646
S315000036A004F150000991FFF716FF0A9A8146131894
S315000036B0012A236102DC2268D20701D50133236186
S315000036C09DF82330002B9CD02D2384F8433098E7B7
S315000036D0069A472ABED1002BBCD10123B9E7BBF11C
S315000036E0660F18D1002963680BDD216113B92268C2
S315000036F0D00702D501330B4423614FF00009A165C1
S31500003700DEE713B92268D20701D50233F4E70123B5
S31500003710F2E74FF0670B0A9B994205DB23682161AC
S31500003720D807EAD54B1CE7E70029D4BFC1F102024E
S3150000373001221344E0E723685A0507D42369424669
S3150000374031462846B84701302CD164E7BBF1650FF6
S3150000375040F2E08000220023D4E9120104F0E2FCEA
S31500003760002834D00123374A31462846B84701306D
S315000037703FF451AFDDE909239A4202DB2368D807FB
S3150000378010D518EE103A524631462846B847013051
S315000037903FF441AF4FF0000804F11A090A9B013BC0
S315000037A0434509DC23689B0700F10581E0680B9B14
S315000037B09842B8BF184630E701234A4631462846A4
S315000037C0B84701303FF427AF08F10108E6E7099B47
S315000037D0002B39DC01231B4A31462846B847013005
S315000037E03FF419AFDDE90923134302D12368D90752
S315000037F0D8D518EE103A524631462846B847013019
S315000038003FF409AF4FF0000904F11A0A099B5B4225
S315000038104B4501DC0A9B92E7012352463146284676
S31500003820B84701303FF4F7AE09F10109EEE700BFF2
S31500003830FFFFEF7FF4870000F88700000088000094
S31500003840FC870000048800000A9AA36D9A42A8BF6C
S315000038501A46002A914637DC4FF0000B29EAE9792F
S3150000386004F11A02A36D0593A3EB09035B4533DC50
S31500003870DDE909239A423BDB2368DA0738D40A9B41
S31500003880059A09999A1AA3EB01099145A8BF914691
S31500003890B9F1000F35DC4FF0000829EAE97904F1A7
S315000038A01A0ADDE909239B1AA3EB090343457FF7AF
S315000038B079AF0123524631462846B84701303FF4D6
S315000038C0AAAE08F10108ECE71346314642462846FF
S315000038D0B8470130C0D19EE60123314628460592FD
S315000038E0B84701303FF497AE0BF1010B059AB9E7E3
S315000038F018EE103A524631462846B8470130BED136
S3150000390089E6059A4B46314628464244B847013077
S31500003910C1D180E60A9A012A01DCDB0738D50123EA
S31500003920424631462846B84701303FF474AE18EE99
S31500003930103A524631462846B84701303FF46BAE3E
S3150000394000220023D4E9120104F0ECFBD8B90A9B4B
S3150000395008F10102013B31462846B84701300ED135
S3150000396059E60123524631462846B84701303FF40E
S3150000397052AE08F101080A9B013B4345F1DC4B4678
S3150000398004F15002DCE64FF0000804F11A0AF2E7EF
S3150000399001234246DFE701234A4631462846B84717
S315000039A001303FF438AE08F10108E3680B995B1A61
S315000039B04345F0DCFAE64FF0000804F11909F4E794
S315000039C02DE9F047164699468A6807460B690C4664
S315000039D0DDF820809342B8BF1346336091F8432048
S315000039E00AB1013333602368990642BF3368023354
S315000039F03360256815F0060506D104F1190AE36857
S31500003A0032689B1AAB4229DC94F84320131E2268C5
S31500003A1018BF012392062ED404F1430249463846C4
S31500003A20C047013021D023681A3454F80E5C03F0E5
S31500003A30060332680026042B54F8123C08BFAD1A60
S31500003A4054F80A2C14BF002525EAE5759342C4BF35
S31500003A509B1AED18B5421AD1002008E00123524600
S31500003A6049463846C047013003D14FF0FF30BDE824
S31500003A70F0870135C3E7E1185A1C3020023322448F
S31500003A8081F8430094F8451082F84310C4E70123F7
S31500003A90224649463846C0470130E6D00136D9E7C6
S31500003AA02DE9FF470F7E914680460C46782F9A46B1
S31500003AB00C9D01F1430207D8622F0AD8002F00F0AF
S31500003AC0D880582F00F0A38004F1420584F8427094
S31500003AD03AE0A7F16303152BF6D801A151F823F0BC
S31500003AE0393B00004D3B0000C93A0000C93A0000CE
S31500003AF0C93A0000C93A00004D3B0000C93A00002F
S31500003B00C93A0000C93A0000C93A0000593C000011
S31500003B107D3B00003B3C0000C93A0000C93A00006A
S31500003B207B3C0000C93A00007D3B0000C93A00001A
S31500003B30C93A0000433C00002B681A1D1B682A6026
S31500003B4004F1420584F842300123A3E02068296885
S31500003B50060601F104030AD50E682B60002E03DA6F
S31500003B602D23764284F843305E480A2319E00E6816
S31500003B7010F0400F2B6018BF36B2EFE72B682068B5
S31500003B80191D2960010601D51E6802E04606FBD50F
S31500003B901E886F2F53480CBF08230A23002184F880
S31500003BA043106568002DA560A2BF216821F00401BD
S31500003BB021600EB9002D4DD01546B6FBF3F103FB7F
S31500003BC01167C75D05F8017D37460E46BB42F4D93D
S31500003BD0082B0BD12368DE0708D523696168994253
S31500003BE0DEBF302305F8013C05F1FF35521B22618B
S31500003BF04B4603AA21464046CDF800A0FFF7E0FE5B
S31500003C0001304CD14FF0FF3004B0BDE8F0873548A5
S31500003C1081F845702968236851F8046B29601D06F0
S31500003C2014D5DF0744BF43F0200323601EB9236881
S31500003C3023F0200323601023B0E7236843F020031A
S31500003C4023607823284884F84530E3E7590648BFBF
S31500003C50B6B2E6E71546BBE72B682668181D61690C
S31500003C60286035061B6801D5196002E07006FBD591
S31500003C701980002315462361BAE72B6800211A1D17
S31500003C802A601D686268284602F038FC08B1401BAD
S31500003C90606063682361002384F84330A8E72369E2
S31500003CA02A4649464046D0470130ABD023689B0799
S31500003CB013D4E068039B9842B8BF1846A4E70123D3
S31500003CC0324649464046D04701309BD00135E3682D
S31500003CD003995B1AAB42F2DCEBE7002504F1190607
S31500003CE0F5E700BF06880000178800002DE9F04FB1
S31500003CF087B017468B46804603930C468B685A1E40
S31500003D00B2F5AE7F8BBF6FF4AE7500235B190293DD
S31500003D104FF0000584BF029340F25D13AA46A94600
S31500003D2088BF8B600B68019543F4F0634BF81C3B2E
S31500003D305E46CDE90455A26852B13B681B784E2B0E
S31500003D4064D8402B3CD8A3F12B01C8B20E283AD92F
S31500003D50B9F1000F03D0236823F4807323600AF1BE
S31500003D60FF3ABAF1010F00F213815E4500F20581B8
S31500003D700125284607B0BDE8F08FA3F161020D2AA0
S31500003D80E6D801A151F822F0C73E0000513D0000DF
S31500003D90513D0000513D0000273F0000FF3E00005E
S31500003DA0513D0000513D0000D53E0000513D000050
S31500003DB0513D0000513D0000513D00008D3E000088
S31500003DC0A3F14102DBE70E29C2D801A050F821F089
S31500003DD07F3E0000513D00007F3E0000133F000083
S31500003DE0513D00002D3E0000693E0000693E000086
S31500003DF0693E0000693E0000693E0000693E000021
S31500003E00693E0000693E0000693E00006E2B09D83D
S31500003E10602BB2D8542B77D0592B99D1072D97D137
S31500003E20082529E0742B6FD0792BF6E72168C805A1
S31500003E301AD521F08001029B09F1010921601BB10D
S31500003E40013B01320293A260A368013BA360236990
S31500003E50013323617B68013B002B7B6040F3848048
S31500003E603B6801333B6066E71AEB050F7FF470AFE2
S31500003E70226822F4C072226006F8013BE4E7226859
S31500003E8010067FF565AF22F08002F4E7BAF1000F65
S31500003E900ED1B9F1000F0ED1226802F4E061B1F53E
S31500003EA0E06F08D122F4F0624FF0010A2260E3E7E6
S31500003EB0BAF1020F55D0012D02D0042D7FF448AF80
S31500003EC00135EDB2D8E7BAF1010F7FF441AF4FF0FB
S31500003ED0020AD1E77DB9B9F1000F7FF43CAF226841
S31500003EE002F4E061B1F5E06F7FF439AF22F4F062DD
S31500003EF001252260C0E7032DE2D0052DDEE7022D65
S31500003F007FF426AF0325B7E7062D7FF421AF0725FB
S31500003F10B2E7226891057FF51BAF22F42072CDF837
S31500003F2004902260A8E7226802F4A061B1F5806FD0
S31500003F3006D050057FF50CAFB9F1000F3FF40FAF77
S31500003F40910522F4F06258BF019942F4C07258BF3D
S31500003F50A9EB010122604FF0000958BFCDE9041614
S31500003F608AE74FF0030A87E7D4F88031394640469E
S31500003F70984700283FF4DFAEEAE6D4F87C313A46AB
S31500003F8016F8011D404698472369013B2361ECE67C
S31500003F906B1E062B25D8022D36D85E457FF6E8AE79
S31500003FA0D4F87C313A4616F8011D404698472369F5
S31500003FB0013B2361F1E702983A46D4F87C3110F8C8
S31500003FC0011D0290404698472369013B23610AF18F
S31500003FD0FF3A5FFA8AFABAF1020FECD1033DEDB26D
S31500003FE0761B2368DA052ED55B0510D55E457FF670
S31500003FF0BFAED4F87C313A4616F8011D40469847C4
S315000040002369013B2361F1E7AA460296DFE716F82A
S31500004010011C751E2369652903F1FF3323610CD04A
S3150000402045290AD0D4F87C313A464046B51E984711
S31500004030236916F8021C013B23612E46D4F87C3115
S315000040403A4640469847256815F0100559D135700F
S31500004050236803F4C063B3F5806F1BD1019B4B4506
S31500004060A3EB090223D100225946404600F0B6FED2
S315000040702268039B12F0020F1B6857EC106B21D0CD
S315000040801A1D03990A601B68C3E90067E3680133D8
S31500004090E3606EE6049B002BE5D005990A232A46C9
S315000040A04046013100F022FF049B059EC21A04F22D
S315000040B06F1315499E4228BF04F5B776304600F0C7
S315000040C045F8D0E7039912F0040F03F104020A60E1
S315000040D0D9D1D3F8008010EE102A3B4610EE100A14
S315000040E0394604F051F828B1084800F029F888ED5F
S315000040F0000ACBE73046394604F0A4F8C8F80000B9
S31500004100C4E7002535E600BF28880000B18C000012
S315000041100FB40A4B13B51C6824B1A36913B9204622
S3150000412001F0BEFD05AB049AA1682046019303F099
S3150000413035F902B0BDE8104004B070471400002005
S315000041409FED010A704700BF0000C07F0EB400B5A6
S315000041509CB06FF000411DAB029006900791049150
S315000041600848094953F8042B059102A900680193F0
S3150000417002F0EAFF029B00221A701CB05DF804EB05
S3150000418003B07047140000200802FFFF034613F82F
S31500004190012B002AFBD1181A0138704770B5044666
S315000041A00D46164645EC104B02F02EFD51EC100B59
S315000041B07EB1C5F30A53C3F16B03002B09DD1B0562
S315000041C0002403F17F55224605F540152B4603F0E2
S315000041D041FD70BDFFFFFFFF2DE9F04F1F46002395
S315000041E0044688464FF0000A4FF0000B2DED028B77
S315000041F09DB018939F4B13921B6818460593FFF7C3
S31500004200C5FF0546CDF85C80179B1A782B2A4ED041
S315000042103BD80D2A34D8082A34D8002A3ED00023A9
S315000042200A93179E3378302B40F0B080737803F0F2
S31500004230DF03582B68D10A9B17A9029720460193E2
S3150000424018AB8D4A009319AB01F02EFE10F007074C
S31500004250054605D0062F2CD10136002317960A9362
S31500004260139B002B40F08E850A9BEBB152460BF157
S31500004270004343EC102B1DB0BDEC028BBDE8F08F64
S31500004280202ACCD101331793BEE72D2AC7D10122AC
S315000042900A925A1C17925B78002BC2D1139BCDF859
S315000042A05C80002B40F06C8552465B46E1E70022BD
S315000042B0EEE7189A3AB135211AA802F0AEFD189920
S315000042C0204602F069F9013F042F06D8DFE807F01F
S315000042D00A0314170A00DDE91AAB2807C0D54BF00C
S315000042E0004BBDE7DDE91AA3199A23F4801302F205
S315000042F0334243EA025BF0E7DFF880B1EDE76FF0A7
S31500004300004B4FF0FF3AE8E7179B5A1C17925B7871
S31500004310302BF9D0002BA3D001234FF000090493D2
S315000043200A22179B4F46CDF81C90089317980678DB
S31500004330A6F13003D9B209292AD92A46059903F0EC
S31500004340BAF9A0B3002032463D4603460590652AD9
S3150000435001D0452A18D11DB9049A02439ED00025E2
S31500004360DDF85C8008F10102179298F801202B2AEB
S3150000437075D02D2A7BD04FF0000CA2F1300109290F
S3150000438040F28280CDF85C8000269DE00023C4E7E1
S31500004390082F00F1010007F10107D4BF079902FBBE
S315000043A009391790DCBF02FB01330793BEE7179B61
S315000043B05A1917925A5D002F36D03D460590A2F144
S315000043C03003092B12D90123C1E7179B01305A1C70
S315000043D017925A78302AF8D0A2F13103082B00F24E
S315000043E0D68405900020179B05460893303A00F1C5
S315000043F0010313D0059900EB050E19442B460591D0
S315000044000A21734512D12B180135082B05441CDCF3
S3150000441007990A2303FB012307930023179A1846DB
S31500004420511C17915278CAE73846D3E7082B04DCAB
S31500004430079E4E4307960133E3E703F1010CBCF1F7
S31500004440100FD8BF01FB09F9F5E7102DDCBF0A23D1
S3150000445003FB0929E1E70023059301237CE74FF0DD
S31500004460000C08F10202179298F8022085E74FF037
S31500004470010CF6E71C8B0000308800000000F07F7E
S31500004480179A511C17915278302AF9D0A2F13101AE
S3150000449008293FF679AFA2F1300E179A0692179ABD
S315000044A0511C17915278A2F13006092E37D9069E73
S315000044B0891B44F61F66082902DC7645A8BF7646A6
S315000044C0BCF1000F00D07642002D4DD10499014376
S315000044D07FF4C6AE002B7FF4E1AE692A27D024DC38
S315000044E0492A24D04E2A7FF4D9AE9F4917A801F055
S315000044F033FF00283FF4D2AE179B1B78282B2DD113
S315000045001AAA9A4917A801F03BFF052826D11B9B3A
S31500004510DDF868A043F0FF4B4BF4E00BA0E60A2160
S3150000452001FB0E2EAEF1300EB9E76E2ADBE790499D
S3150000453017A801F011FF00283FF4B0AE179B17A88B
S315000045408C49013B179301F007FF10B9179B013304
S315000045501793DFF830B24FF0000A81E6864803F081
S315000045604FF85BEC10AB7BE6059B002F08BF2F4690
S31500004570102D0798A6EB0303A846A8BF4FF0100816
S315000045800693FEF721FD092D82468B4613DD7B4BF4
S3150000459003EBC80353E9122303F05CFB82468B4608
S315000045A04846FEF711FD02460B4650465946FEF7B1
S315000045B0CFFB82468B460F2D38DC069B002B3FF443
S315000045C04FAE24DD162B0BDC6C49524601EBC301C2
S315000045D05B46D1E9000103F03DFB82468B463FE690
S315000045E0C5F12503069A934220DBC5F10F05634CFE
S315000045F052465B4604EBC501D1E9000103F02AFBF4
S31500004600069B5D1B04EBC504D4E90023E3E7069B88
S3150000461016330BDB059B504659469E1B574B03EB47
S31500004620C606D6E9002303F03FFCD6E7A5EB08084B
S31500004630069B9844B8F1000F74DD18F00F030AD0FA
S315000046404E49524601EBC3015B46D1E9000103F036
S3150000465001FB82468B4638F00F084FD0B8F59A7F9B
S3150000466022DD00252E46079505952223DFF814B195
S315000046704FF0000A2360079B002B3FF4F1AD189919
S31500004680204601F089FF0599204601F085FF314655
S31500004690204601F081FF0799204601F07DFF29465B
S315000046A0204601F079FFDBE5354B4FEA28185046E6
S315000046B05946049300239946B8F1010F21DC0BB14A
S315000046C082468B462E4BABF1547B524603EBC9090F
S315000046D05B46D9E9000103F0BDFA2A4B0A46824639
S315000046E00B4029498B42BCD8A1F580118B4286BF6D
S315000046F0DFF898B04FF0FF3A02F1547B00230493A1
S3150000470083E018F0010F05D0049BD3E9002303F0E2
S31500004710A1FA0123049A09F101094FEA680808324F
S315000047200492C9E7EAD0C8F1000818F00F020AD0CF
S31500004730124B5046594603EBC203D3E9002303F05C
S31500004740B3FB82468B465FEA2818D7D0B8F11F0F15
S315000047501EDD00252E460795059522234FF0000AFB
S315000047604FF0000B236086E70188000044880000B4
S31500004770F987000084890000B18C0000D88B000006
S31500004780B08B00000000F07F0000A07CFFFFEF7FF1
S3150000479018F0100350465946DFF8A89318BF6A234D
S315000047A00493002318F0010F04D0D9E9002303F085
S315000047B051FA01235FEA680809F10809F2D10BB141
S315000047C082468B46049BC3B1CBF30A525946C2F1CB
S315000047D06B03002B11DD1F2B40F32181342B4FF08F
S315000047E0000ADBBFC2F14B024FF0FF334FF05C7B98
S315000047F003FA02F2D8BF02EA010B00220023504658
S31500004800594603F08FFC0028A3D1079B3A46089926
S31500004810204600932B4601F029FF079000283FF41D
S3150000482020AF059B00259E1B069B002BB4BF33467D
S3150000483000232E460C93069B23EAE3731293079BF1
S315000048402046596801F068FE059000283FF40DAF38
S31500004850079B0C301A6903F10C0102329200FEF735
S31500004860C3FD1AAA19A920464BEC10AB02F046FA72
S3150000487018904BEC18AB00283FF4F7AE0121204608
S3150000488001F08EFF064600283FF4EFAE199B04990F
S31500004890002BA3EB0108A9BF0C9A129A03EB02099D
S315000048A0129FB8BFD71A1A9AA14B9044B8BFDDF829
S315000048B03090C2F1360208F1FF38984580F2C38085
S315000048C0A3EB080301211F2BA2EB030200F3AE802A
S315000048D001FA03F30D930023089309EB0208049BE6
S315000048E01744C1451F444B46A8BF4346BB42A8BF19
S315000048F03B46002BC2BFA8EB0308FF1AA9EB03092E
S315000049000C9B002B17DD31461A46204602F006F8AE
S31500004910064600283FF4A9AE0146189A204601F043
S3150000492055FF0B9000283FF4A0AE1899204601F0E1
S3150000493033FE0B9B1893B8F1000F00F38980069B9A
S31500004940002B08DD129A2046059901F0E7FF059035
S3150000495000283FF48AAE002F08DD3A460599204626
S3150000496002F036F8059000283FF47FAEB9F1000F4B
S3150000497008DD31464A46204602F02AF80646002857
S315000049803FF473AE059A2046189902F0ADF8054635
S3150000499000283FF46AAEC36831460B930023C36018
S315000049A002F086F800285DDA0B9B53EA0A037FD1F2
S315000049B0CBF31303002B7BD12BF000431B0D1B0500
S315000049C0B3F1D66F74D96B6913B92B69012B6FDDFF
S315000049D029460122204601F0FBFF3146054602F03A
S315000049E067F8002864DD04995B46524A00297FD0A7
S315000049F002EA0B01B1F1D66F7ADCB1F15C7F7FF789
S31500004A00ACAE4D4B50465946002203F023F90B46F7
S31500004A1082468B46034304BF222323602FE64FF0D2
S31500004A20FF3202FA03F303EA0A0AE6E6C8F17F4810
S31500004A300D9108F57F0808F57B4808F1E20801FAB0
S31500004A4008F3089349E70023089301230D9344E7ED
S31500004A5042461899204601F0BBFF189000287FF4C3
S31500004A606EAF02E65F466FD10B9ACBF3130342B3E8
S31500004A70324A934228D1049B5146EBB12D4B4FF05D
S31500004A80FF323B40B3F1D46F19D81B0DC3F16B0352
S31500004A9002FA03F3994217D1294B9F4202D1013101
S31500004AA03FF4E3AD234B4FF0000A3B4003F5801B78
S31500004AB0049B002BA5D1E2E54FF0FF33EAE713464E
S31500004AC0E8E753EA0A038ED0089BDBB13B42EFD0FE
S31500004AD00B9B5046049A5946C3B1FFF75FFB02464B
S31500004AE00B4651EC180BFEF733F982468B46DFE78F
S31500004AF013404FF0FF3AA3F580136FEA135B6FEA9A
S31500004B000B5BD5E70D9B13EA0A0FE0E7FFF746FBC1
S31500004B1002460B4651EC180BFEF718F9002200234B
S31500004B2082468B4603F0FEFA0028C1D015E600BF88
S31500004B3002FCFFFF0000F07F00005039FFFF0F006E
S31500004B40FFFFEF7F588800003146284602F032F911
S31500004B5000224FF0804310EE100A59EC108B4946A4
S31500004B6003F0F4FA00287AD00B9B002B4AD00022DF
S31500004B70934B4FF00008DFF84892CDE90823914B9C
S31500004B803B400D930D9A904B9A4240F0B080A7F1AE
S31500004B90547BDDE908014BEC10ABCDE9080102F0CE
S31500004BA033F8DDE9080153EC102B03F053F85246B5
S31500004BB05B46FEF7CDF80B4682498246834A19408A
S31500004BC0914260D918EE903A02F15472934204D1A0
S31500004BD018EE103A01333FF448ADDFF8FCB14FF060
S31500004BE0FF3A1899204601F0D7FC0599204601F0B6
S31500004BF0D3FC3146204601F0CFFC2946204601F081
S31500004C00CBFC1CE6BAF1000F1BD1CBF31303F3B9AF
S31500004C1000226B4B4046494603F08EFAD0B9404617
S31500004C20494600226A4B03F015F88046894609F189
S31500004C300043CDF850801593DDE91423CDE9082310
S31500004C409DE7BAF1010F02D1002F3FF486AD002295
S31500004C50604B8EE74FF00008DFF87491E7E75C4B96
S31500004C6040464946002202F0F5FF0B9B80468946E6
S31500004C7033B901F100430E900F93DDE90E23DDE712
S31500004C80CDE90E89F9E703F1547B049B002BA8D1EB
S31500004C902BF000430D9A1B0D1B059A42A1D14046ED
S31500004CA0494603F01FFBFEF7DBF902460B4640467A
S31500004CB04946FEF74BF8CBF313030B9A804643EABB
S31500004CC00A038946134355D035A3D3E9002303F0DD
S31500004CD033FA00287FF4D3AC4046494632A3D3E9E1
S31500004CE0002303F047FA00283FF47BAFC7E4049B98
S31500004CF033B30D9BB3F1D46F22D8404649462CA35B
S31500004D00D3E9002303F022FAA0B14946404603F056
S31500004D1079FA012838BF0120FEF756F90B9B804629
S31500004D20894623BB01F1004310901193DDE910235E
S31500004D30CDE90823099B0D9A03F1D6639B1A0993C3
S31500004D40B0EE480AF0EE680ADDE90801CDE908018F
S31500004D5001F05AFFDDE9080153EC102B02F07AFF4F
S31500004D6053EC182BFDF7F4FF82468B468DE7CDE911
S31500004D701089DBE710A3D3E9002303F0DDF9B2E7DE
S31500004D8000230A93179B139A1360FFF76DBA652ADF
S31500004D903FF461AB452A3FF45EAB0123FFF796BBB8
S31500004DA09535A094FFFFDF3F35E5AF350000E03FC6
S31500004DB00000C0FFFFFFDF419535A094FFFFCF3F06
S31500004DC00000F03F0000F07F0000E07FFFFF9F7CC7
S31500004DD00000E03F0000F0BFFFFFEF7F014BFFF751
S31500004DE0FBB900BF7C000020012B2DE9F04701D064
S31500004DF0242B06D9FEF7F2FA162303600020BDE83D
S31500004E00F0870D46DFF8E0C02E4615F8014B14F882
S31500004E100C7017F00807F7D12D2C32D12C7801270A
S31500004E20B51C002B5BD0102B09D1302C07D12C7868
S31500004E3004F0DF04582C4DD16C781023023507F1AD
S31500004E4000484FF0000C08F1FF386646B8FBF3F94E
S31500004E5003FB198AA4F1300EBEF1090F16D8744669
S31500004E60A34224DDBCF1000F1EDBB1451CD301D1EA
S31500004E70A24519DB06FB03464FF0010C15F8014B62
S31500004E80E8E72B2C04BF2C78B51CCAE7A4F1410E29
S31500004E90BEF1190F01D8373CE2E7A4F1610EBEF16D
S31500004EA0190F04D8573CDBE74FF0FF3CE6E7BCF1AF
S31500004EB0000F05DA22234646036042B930469EE7D4
S31500004EC007B17642002AF9D0BCF1000F00D0691E66
S31500004ED01160F3E73024002BB1D10823AFE7302C63
S31500004EE0A5D00A23ABE700BF81880000FFF77CBF8F
S31500004EF02DE9F74F036907460C69A342C0F2878084
S31500004F00013C00F1140501F1140805EB840355F882
S31500004F1024204FEA840B019308EB840958F82430C7
S31500004F2001339A42B2FBF3F635D34FF0000E4046FA
S31500004F30AC46F24650F8042B93B281454FEA124232
S31500004F4006FB03E34FEA134E9BB206FB02E2AAEB13
S31500004F500303DCF800A04FEA124E1FFA8AFA92B257
S31500004F6053440093DCF80030C2EB1342009B02EB83
S31500004F702342BDF8003043EA02434FEA224A4CF886
S31500004F80043BD7D255F80B302BB9019B043B9D420D
S31500004F901A4630D33C61384601F08AFD002826DBEC
S31500004FA0013628464FF0000C58F8041BD0F800E0F4
S31500004FB08BB2C1451FFA8EF2ACEB030313444FEAE2
S31500004FC01142C2EB1E4202EB23429BB24FEA224C35
S31500004FD043EA024340F8043BE6D255F8242005EBA9
S31500004FE0840322B9043B9D421A460AD33C613046EB
S31500004FF003B0BDE8F08F1268043B002ACAD1013C19
S31500005000C5E71268043B002AF0D1013CEBE700201B
S31500005010EEE7FFFFFFFFFFFF2DE9F04F456A04466D
S3150000502010EE10AA2DED048B93B057EC106BDDF843
S315000050308080BB46069109920C9375B9102001F049
S3150000504043FA0246606220B9A74BEA21A748FDF75A
S31500005050EBFCC0E901550560C560636A196851B18A
S315000050605A680123204693404A608B6001F094FA07
S31500005070636A00221A603B1EADBF0023012223F0A3
S31500005080004BC8F800309A4BB8BFC8F8002033EA86
S315000050900B031BD142F20F730C9A1360CBF313036D
S315000050A0334300F08F85219B63B9924B22E0924BEC
S315000050B001930833219A1360019813B0BDEC048B59
S315000050C0BDE8F08F8B4B01930333F3E700220023F7
S315000050D05046594603F026F880464BEC19AB58B1BA
S315000050E001230C9A1360219B002B00F068858348EE
S315000050F01860431E0193DFE7CBF30A5510AA11A9E6
S3150000510020464BEC10AB01F0F9FD08EE100A002D1D
S3150000511000F0828019EE903A5646A5F2FF35CDF89A
S315000051203880C3F3130343F07F5747F44017002238
S31500005130734B30463946FDF709FE65A3D3E90023D4
S3150000514002F088FD64A3D3E90023FDF701FE0646BD
S315000051500F462846FDF748FF61A3D3E9002302F076
S3150000516079FD02460B4630463946FDF7F1FD064607
S315000051700F4603F01FF80022009000233046394600
S3150000518002F0DAFF50B10098FDF72EFF32463B469B
S3150000519002F0C8FF10B9009B013B0093009B162B41
S315000051A059D8009A574B03EBC20351EC190BD3E9BC
S315000051B0002302F0C1FF00284FD0009B013B009363
S315000051C000230B93109B5D1B6B1E059349BFC5F116
S315000051D0010300230493002354BF04930593009B0B
S315000051E0002B3CDB059B009A13440A92059300238F
S315000051F00793069B092B00F28980052BC5BF043B4C
S31500005200002501250693069B023B032B00F28980AD
S31500005210DFE803F02E3B395ADDE910531D4405F251
S315000052203243202BC6BFC3F1400305F21240C3F13F
S31500005230200305F1FF35C5BF0BFA03F326FA00F08C
S3150000524006FA03F01843FDF7BFFE01230646A1F157
S31500005250F8770E936BE70123B3E70B90B2E7049B55
S31500005260009A9B1A04935342079300230A93C0E7BC
S3150000527000230893099B002B56DC01231A46CDE92F
S31500005280023309920CE00123F3E70023099A0893FD
S31500005290009B134402930133012B0393B8BF0123F0
S315000052A00022606A4260042202F1140641689E42AE
S315000052B03ED9204601F030F9019000283CD1124B2E
S315000052C002464FF4D571C1E60123DFE7AFF3008054
S315000052D061436F63A787D23FB3C8608B288AC63FF6
S315000052E0FB799F501344D33F8E890000A5890000A7
S315000052F00000F07F8A89000081890000058800008F
S315000053000000F83FD88B0000238A00000125002307
S31500005310089506934FF0FF330022CDE9023312239E
S31500005320AFE701230893F5E7099BCDE90233B7E719
S31500005330013152004160B7E7636A019A1A60039B24
S315000053400E2B00F29D80002D00F09A80009B002B12
S3150000535032DD03F00F03B64A02EBC303D3E900893B
S31500005360009BD8054FEA231716D5B24B07F00F0757
S315000053700325D3E9082351EC190B02F095FD82466B
S315000053808B46AC4E57B942464B465046594602F0FC
S315000053908BFD82468B4628E00225F2E7F90708D501
S315000053A0404649460135D6E9002302F053FC8046C3
S315000053B089467F100836E5E700F09B80009B0225B2
S315000053C09C4F5E429A4B06F00F02361103EBC20366
S315000053D051EC190BD3E9002302F03CFC0023824672
S315000053E08B46002E7AD1002BD3D10B9B002B00F0DD
S315000053F082800022904B5046594602F09DFE0028BE
S3150000540079D0039B002B76D0029B002B36DD009BC8
S315000054105046594600225F1E884B02F01BFC0135A0
S3150000542082468B46029E2846D046FDF7DDFD524653
S315000054305B46D94602F00EFC0022814BFDF788FC44
S315000054408246A1F1507B002E58D100227D4B40466A
S315000054504946FDF77BFC52465B468046894602F08C
S3150000546089FE002840F0938252460BF100434046E5
S31500005470494602F061FE002840F087825BEC19ABDA
S31500005480119B002BC0F24881009A0E2A00F344813A
S31500005490674B03EBC203D3E90089099B002B80F21B
S315000054A0D580039B002B00F3D18040F06D82002253
S315000054B0644B4046494602F0CDFB52465B4602F03D
S315000054C04FFE039E3746002840F043823123019D5C
S315000054D005F8013B009B013300933EE2F20705D538
S315000054E00135D7E9002302F0B5FB01237610083712
S315000054F077E7022579E7009F039E94E701994C4BD5
