:020000040200F8
:10000000809C0622B1F40202B5F20202FF620102F4
:10001000ADF40202ADF40202ADF40202ADF402024C
:10002000000000000000000000000000ADF402022B
:10003000ADF40202000000003762010241FB02023F
:1000400021E5020299E6020299E6020265B6020281
:1000500051B5020215B7020261B7020279AF02027E
:100060003492030214920302000000001D420002B9
:1000700000E10602D8E0060200000000711E010245
:1000800028E106020CE1060200000000991D0102B1
:1000900050E1060234E1060200000000311E0102B8
:1000A00060E3060244E30602000000000943010287
:1000B000C8E80602A4E8060200000000A5750102D7
:1000C000F4E80602D0E8060200000000ED7E01021E
:1000D0000CE90602F8E8060200000000C1830102F4
:1000E00044E9060214E90602000000002D7B01022B
:1000F0009CEC06028CEC0602480100221958020210
:10010000C8EC0602A4EC060200000000E14C02026A
:10011000ECEC0602D0EC060200000000D14C02021A
:1001200098ED060274ED060200000000015902027B
:10013000BCED0602A0ED060200000000F558020228
:10014000D8ED0602C0ED060200000000AD58020224
:1001500010EE0602E0ED060200000000F964020263
:100160002CEE060218EE06020000000039670202BB
:1001700040EE060234EE060200000000ED660202C8
:100180005CEE060244EE060200000000B1640202CA
:100190008CEE060264EE060200000000D16302024B
:1001A000B4EE060294EE0602000000007163020243
:1001B000D4EE0602BCEE060200000000C166020298
:1001C00010EF0602DCEE06020000000021600202D1
:1001D00038EF060214EF06020000000085660202F6
:1001E00058EF06023CEF0602000000004D620202DA
:1001F00070EF06025CEF0602000000004D6602028E
:100200008CEF060274EF0602000000003960020263
:10021000A8EF060290EF060200000000216602022D
:10022000D0EF0602ACEF06020000000009600202F7
:1002300090F106027CF10602D8010022297C02021C
:100240006811070258110702000000001DFB02029E
:10025000112B01023D2B0102412B0102098E0102EB
:10026000E5860202418B020271010302D1380002CD
:0C02700075670102BD690202392B010212
:10028000072A10B53DD9A2F1080E4FEADE0E0EF195
:10029000010E84460B464EF001E0BCEC887E94EFE4
:1002A0005667A3EC887E0FF009C0A2F1080E2EF06D
:1002B000070E0EF1080E72451FD90EF10043013BE7
:1002C00000EB430001EB43010EF10103934247F6BB
:1002D000FF7C0D4CA2EB0E0E10D87AB14EF001E06F
:1002E00030F9023F1B01A342B8BF23466345A8BFB4
:1002F000634621F8023F0FF00DC810BD4FF0010E0C
:10030000ECE74FF0000ED8E70080FFFF70B52DED51
:10031000048B066A446DD6F5806C2DED08CB04EB9A
:1003200086034ED065464FF0010E0CF1FF320735C3
:10033000D2087244072D88BF96462448244D0146B2
:100340002A464EF001E093FC801EB3FCA01EB1ECE7
:10035000889E10EF484B12EF486B82FC805EA2FC37
:10036000A05E0FF011C0BCF5806F04D3BDEC08CBCC
:10037000BDEC048B70BD224605EB8C0500EB4C03F5
:10038000701EC0080736072E00F101004FF0010E65
:1003900088BF86464EF001E092FC805EB2FCA05E13
:1003A000B3EC883E14EF42CB16EF42EB85FC80DEC7
:1003B000A5FCA0DE0FF011C0BDEC08CBBDEC048B9A
:1003C00070BD2246014B024DDAE700BF60BF00203E
:1003D00060D700202DE9F0474FF0400E4EF001E0CD
:1003E0000446456D5C495D4B406A93FC801EB3FC3E
:1003F000A01E9FEF50609FEF524017EE062E15EEA5
:10040000040E0A4617EE067E15EE045E22EF402823
:1004100026EF4468A2EC043F203182ED007F0FF00C
:100420001DC04FF0400E4EF001E04D49A3F5805342
:1004300093FC801EB3FCA01E9FEF50609FEF5240C4
:1004400017EE062E15EE040E0A4617EE067E15EE82
:10045000045E22EF402826EF4468A2EC043F2031DE
:1004600082ED007F0FF01DC040F27543984249D9DC
:100470004FF4806C3B483C4EDFF8F8E000F1010A95
:10048000014610F8013F56F8042F05EBC308BF2BB7
:1004900008F5805824D8D8F80030D8F804709B1894
:1004A00047F10009C8E90039BEF80030FF2B0CD82D
:1004B00005EBC30303F5B058D8F80030D8F8047042
:1004C0009B1847F10009C8E90039A36B934207D292
:1004D00001F20121A1EB0A01C1F30901A2636163E9
:1004E000BCF1010C0EF1020ECAD104F53730636A7B
:1004F0009FED1E0ABDE8F047174A1D4900F5BC7084
:1005000000F052BE4FF4806C164FDFF85CE007F14C
:100510000108384617F8012F5EF8041F05EBC203E7
:10052000BF2A03F5805312D8D3E90026D4F83890B7
:10053000521846F100068945C3E9002607D200F2A9
:100540000120A0EB0800C0F30900A1636063BCF1C7
:10055000010CDED1C9E700BF60C7002060DF0020CA
:1005600060CF0020FFA709225CC700200000803276
:1005700020BC0020009D09222DE9F0430446884656
:100580000068616887B00DF10F0650EA0103174655
:1005900026F00F0605D0D8F80090B9F1000F40F012
:1005A0008380DFED4A7A0125A068E168C6ED007A14
:1005B00050EA010304D0D8F80490B9F1000F62D1D9
:1005C000DFED427A45F0020520696169C6ED017AE6
:1005D00050EA010304D0D8F80890B9F1000F41D1D6
:1005E000DFED3A7A45F00405D4E9060150EA01034B
:1005F000C6ED027A02D0D8F80C4014BBDFED337A96
:1006000045F00805C6ED037A96ED001F01F0C0F82D
:100610002F4BE90731EE630E48BF2E4B87ED001FCD
:1006200048BF3B60AA0744BF2A4B7B606B0744BFAF
:10063000284BBB60ED081CBF264BFB6007B0BDE834
:10064000F08301F0BDF807EE104A05EE900AB8EE0F
:10065000477ADFED216ADFED1D7A85EE876AE6EEE7
:10066000267ACFE701F0ACF807EE109A05EE900A73
:10067000B8EE477ADFED186ADFED147A85EE876A07
:10068000E6EE267AB0E701F09BF807EE109A05EE49
:10069000900AB8EE477ADFED106ADFED0C7A85EE4E
:1006A000876AE6EE267A8FE701F08AF807EE109A5D
:1006B00005EE900AB8EE477ADFED076ADFED037AC0
:1006C00085EE876A0025E6EE267A6DE7CCBC8C2B9A
:1006D0003BAAB83FDA731FC200008032002865D001
:1006E000436D002B62D00F2960D803F580532DE9AC
:1006F000F04F1D4695B001EB41012D4E0DF1170451
:1007000000EB811024F00F0400F5B927019307F2E4
:10071000C45706F5407A04F1100904F1300B04F1D6
:10072000200895ED005F05F11003B6EC047F84ED21
:10073000005F93ED005F4246594620468BED007FF7
:1007400089ED005FFFF718FF94ED080A01F034F817
:1007500094ED090A014601F02FF894ED0A0A0246C9
:1007600001F02AF894ED0B0A034601F025F84FF04A
:10077000000C61F3070C62F30F2C63F3174C60F36A
:100780001F6CB24505F1200547F804CFC9D14FF4DD
:10079000C0620021074C0198D4F89830C033C4F8E7
:1007A000983015B0BDE8F04F01F002B8704700BFB7
:1007B00000A5092230AC0922002863D02DE9F04FB2
:1007C000466D99B0002E5AD006F5B056B3464FF09C
:1007D00000092D4B0DF1270A00F5BB222AF00F0A64
:1007E00002F2C7120193CDE904260AF11003039324
:1007F0000AF1300302930AF12008019B9BED005F90
:100800001A460BF1100492ED007F8AED005F94ED23
:10081000005F46465446029F10330193039B4246B5
:100820003946504683ED005F87ED007FFFF7A4FE59
:10083000049B03EB0905F4E80201B6EC010A57F842
:10084000042B00F0A1FF444505F8010FF3D109F195
:100850000409B9F5807F0BF1200BCED1059E4FF432
:10086000006200213046094CD4F8983003F58073BB
:10087000C4F8983019B0BDE8F04F00F099BF19B036
:10088000BDE8F08F704700BF0099092230AC092203
:10089000002879D0436D2DE9F0410446002B4CD05F
:1008A0004C4B1B78002B48D04B4F7E684B4DD5F8F6
:1008B0000080B8F1000F42D0FFF728FDD7F8048080
:1008C000AB69002243449B1BAB614549012345486A
:1008D00000F0DEFD7F68EB6920463B44A3EB080394
:1008E000EB61FFF777FD08B9012323653A4BD3F895
:1008F00004802B6A626A4344DB1B3B4F2B62531C10
:10090000BA6D63620132BA65A26A0132482AA262F4
:1009100051D0B3F5906F38D02F4B5B686A6A9E1B3D
:100920001344A3EB08036B62E36C23B1A26CD7F80A
:1009300090309A4224D00023E364BDE8F081FFF7B1
:10094000E5FC284801234246254900F0A1FD204648
:10095000FFF740FD08B901232365234FA26AB96D53
:10096000636A013201330131482A6362B965A262C8
:100970000FD0B3F5906F1AD0174B5B689E1BD3E76F
:10098000E36B3344E363D8E770472046FFF714FF77
:10099000C2E72046E16AFFF7A1FE0021E36A204694
:1009A0000133C4E90A1300F00FFF636AE1E7204650
:1009B000FFF702FFE0E72046E16AFFF78FFE002124
:1009C000E36A20460133E362A16200F0FDFE636A40
:1009D0009FE700BF00AC0922001000E0908C0922C4
:1009E00060D7002004AC092230AC092200285FD077
:1009F0002DE9F84FD0F854800546B8F1000F55D0D6
:100A00000F46002952D016464FF0000B8369DFF8DD
:100A1000A4900BE0D5E9063222442344B2F5806F5E
:100A2000C5E90632A34430D05E453FD94B453DD899
:100A30002A6AC3F5102303F50073A6EB0B018B4262
:100A400028BF0B46E86907EB8B01C0F580649C4228
:100A500028BF1C461044C0F30900C0F58062A242C2
:100A600028BF2246924608EB8000920000F094FED8
:100A7000A245CFD2A4EB0A020AEB0B01404692003A
:100A800007EB810100F088FEC4E72846FFF700FF6E
:100A9000AB694B450AD84FF40072EA612A6A5E4599
:100AA00002F50072C2F309022A62C2D8BDE8F88FCB
:100AB000704700BFFF0109002DE9F04F2DED108BAD
:100AC000A9B00DF1470300F53C3923F00F0299F866
:100AD0004E3007920133DBB20A2B049089F84E3076
:100AE00040F08881002300F5CC65B0EE409AAC461A
:100AF000DFEDD99ADFEDD9AA02F140010A9102F1A6
:100B000050012032CDE90832DFF86C8306930C9156
:100B10000D950027079DDCF80410DCF80820DCF8B0
:100B20000C30DCF80000DDF824B0AE46ABE80F0076
:100B3000DDF828A0DCF81000DCF81410DCF8182030
:100B4000DCF81C303C46ABE80F003E464FF0010B92
:100B50005746E246DCF86006DCF86416DCF86826E6
:100B6000DCF86C36AEE80F00DCF87006DCF87416C2
:100B7000DCF87826DCF87C36AEE80F000095D5E985
:100B8000000150EA010205F108050BFA04F200F039
:100B90003681B5EEC09AF1EE10FA40F3308100F0E4
:100BA0000FFE07EE100AF0EE697A27EE2A7AE9EED8
:100BB000077A0134042CE7EC017AE0D10A9B87EF35
:100BC0005F4093ED00DFA9EF5C2022FF4428B7EFE0
:100BD0005245BBFF4226D8F800303746A6EE103B00
:100BE000D8F80830009EAEEE103BD8F804308DEDFA
:100BF000003FA0EE103BD8F80C302CFF4448A2EE8A
:100C0000103B00233DEE430FD8F8103004FF54CDC5
:100C100035EE436ED8F81830914835EE43EED8F8EB
:100C200014300EEF5C6C35EE430ED8F81C300CFF20
:100C30005CED35EE432E02EF5C0C9DED005F00EFA6
:100C40005E6C6FF4000235EE406E71FE4D0FA6EE45
:100C5000102B844BD44637EE636E0C994A468A4675
:100C60008B46002481ED007FE146079D27FA04F3BF
:100C7000DB0700F113810134042C0BF1040B05F1A7
:100C80000805F3D1099BCC46DFED81CA91469FED63
:100C900081CADFED81BA9FED74BA9FED74AA1D463B
:100CA000069F03F1200BCDF82CC0B9F84C40D5E9D4
:100CB00000013C4450EA010CD6E90023BAEC018A59
:100CC0004FEA840405F1080506F1080600F09B8050
:100CD000B5EEC09AF1EE10FA40F3FF800593009252
:100CE00000F06EFD9FED627A06EE900AB0EE690AA2
:100CF000C6EE877AA9EE270A00F06AFDDFED5F7A7B
:100D000060EE278A78EE687AF4EE677AF1EE10FAF0
:100D1000009A059B40F03D81F5EEC07AF1EE10FAA5
:100D200000F1FB80B2EE087AF4EEC77AF1EE10FA29
:100D300000F3138137EEEC7AC7EE0C5AB7EE006A77
:100D400085EEAB7A37EE467ABBFE476AF6EE006A6E
:100D500037EE467A37EE667AB0EEC77AB4EECB7AE3
:100D6000F1EE10FA59D9F5EEC07AF1EE10FAD9F891
:100D7000402040F3BE80049B234403F5805103F5DB
:100D8000C033C1EDC88AC3ED6C7A8AB1B2EE087A7D
:100D9000F4EEC77AF1EE10FA04F101031A4440F3BD
:100DA00001819FED340A00F0FBFC00F30700107096
:100DB000AB4507F173077FF478AF089B069A0433BD
:100DC000DDF82CC002F5E672CC2B08930CF1200C58
:100DD00006927FF49EAE0D9D4FF44C620021284692
:100DE00000F0E6FC0022B9F84C3089F84E200133BF
:100DF000A9F84C3029B0BDEC108BBDE8F08FF0EEB7
:100E0000697A1643D5E678EE0A7AF4EE677AF1EE5F
:100E100010FADFED1E8A3FF47FAF52EA030100F0C3
:100E2000BC80B5EEC09AF1EE10FA40F3B6801046E1
:100E3000194600F0C5FC07EE900AB0EE690A67EEAD
:100E4000AA7AA9EE270A00F0C3FC9FED0C7AF0EE17
:100E5000687AD0EE077A86E7CCBC8C2B0000803B0A
:100E60001872313F67F98A40C801C83A0000F04261
:100E7000000020458F1F864230FD0602C1A8404079
:100E80004DF4C3C10000000017B751390000F0C293
:100E9000D7134540E3CC6F3FA0470F3ED5E9000193
:100EA00050EA010356D0B5EEC09AF1EE10FA51DDCA
:100EB000009200F085FC07EE900AB0EE690A67EE3A
:100EC000AA7AA9EE270A00F083FC5FED147A20EEDF
:100ED000270A009A8BED000ACDE678EE0A7AF4EE46
:100EE000677AF1EE10FA5FED178A3FF415AFD9F883
:100EF00040205FED1C7A049B234403F5805103F5E9
:100F0000C033C1EDC88AC3ED6C7A002A3FF450AFFC
:100F100001341FED250A224445E71FED267A77EEBE
:100F2000677A1FED277AF4EEC77AF1EE10FA7FF6B2
:100F300074AF5FED2C7A049B234403F5805203F5D4
:100F4000C033C2EDC88AC3ED6C7AD9F84020002ABC
:100F5000DED12DE71FED330ABCE737EEC77A5FED30
:100F6000366AB4EEE67AF1EE10FA7FF656AF049BDD
:100F7000234403F5805203F5C033C2EDC88AC3EDA4
:100F80006C7AD9F84020002A3FF412AF0134224491
:100F900007E752EA03017FF44AAF5FED447A77EE48
:100FA000E87AE0E61FED466A5FED465A77EEC67ACC
:100FB0005FED476A87EEA56AB7EE007A86EE260AED
:100FC00030EE470AEFE600BFC8B330B500F53C335A
:100FD00093F84F4094B3B1F5806F2FD240F27D4427
:100FE0009B6C013BA34229D801EB410101EB0113AA
:100FF000190A01F1010E03F133054FEA0E24A5424F
:1010000094BFC3EB0503C3EB040300EBC10C50F822
:101010003140DCF80450DBB2E2FB0345D3F133038B
:1010200040F83140CCF8045008D0BEF1CC0F05D0C8
:10103000DCE90210E2FB0310CCE9021030BD70477E
:10104000002844D040F27D41F8B500F53C37BB6C38
:1010500097F84F205C1E8C4230D88AB3B7F84C30DA
:10106000722B2FD897F84E30092B2BD8CC26A0F115
:10107000080E00F5CB6200F6B84C5EF8081F52F877
:10108000083FDEF8045054685B1845EB0404C2E9DD
:1010900000345CF8084FDCF804308C42AB4138BFB8
:1010A000CCE90015013EE8D1FFF706FDBB6C00223C
:1010B000012087F84F200344BB64F8BD002AF6D115
:1010C0000020F8BD0023002087F84F30F9E700200A
:1010D000704700BF002964D02DE9F04104462DED92
:1010E000028B002858D000F53C3898F84F70002F3C
:1010F00052D1B2F5906F15464ED2D8F848309A4288
:101100004AD14FF4CC620E463946B0EE408A00F028
:101110004FFB40F27D4301216A1E9A4288F84F102E
:1011200031D8384633223946A6F1040E0EE0CC2ED3
:1011300026D0D7E90210E5FB0310C7E90210130A15
:1011400004EBC30154F8330049683332A2F133038E
:101150004FEA132C0CF101063502954294BFC3EB04
:101160000503C3EB02035EF8045FDBB2E5FB03019A
:1011700004EBCC07D3F1330344F83C007960D6D1BB
:10118000B2F54C4FDBD1B0EE480ABDEC028B2046E5
:10119000BDE8F041FFF754BF0020BDEC028BBDE875
:1011A000F0810020704700BF002900F08C80002AE9
:1011B00000F089802DE9F04F054685B050B100F56B
:1011C0003C3494F84F0028B9B3F5906F02D2A66C66
:1011D000B34201D000206EE0012784F84F7040F246
:1011E0007D47013BBB4260D8B4F84C30722B65D8C8
:1011F00094F84E30092B61D88C4681464FF0CC0BC9
:10120000924605F6B847CDE9017505F5CB6E039416
:10121000BCF800309CF8028001330AEB8306726848
:101220005AF82300D6E90213101849EB09024018B6
:1012300042F10002C01842F10002031842EB020121
:101240001B1842EB01021C46154654EA0F159CF888
:101250000310306956F8046CA1FB0010E6FB08107F
:101260005EF8087F1B1942EB05025B18DEF80410DC
:1012700042EB0002FE1842EB0101CEE90061019948
:101280000CF1040C51F8080F019149689842914102
:1012900002D201990B604A60BBF1010BB8D1DDE9C4
:1012A00002542846FFF708FCA66C012000230644E0
:1012B000A66484F84F3005B0BDE8F08F002300200D
:1012C00084F84F30F7E70020704700BF2DE9F04F5A
:1012D0002DED108B4FEA920BBBF1010F16468DB02E
:1012E00040F2CE800D460246A0EE101B00211346B0
:1012F0000A95B0464FF0010A08465A465D460B96DD
:101300001E69D3E90514375809581E6A245806EB9C
:1013100041010391596ABAF1000F01EB4401DC6904
:10132000049104EB4704114605944FEA920266DDEE
:101330004FEA88044FF000080194CDE9065001EB14
:101340004104CDE90813A400DDF828E04FEA810B41
:1013500002944FEAC10902980EEB09039EED807ECC
:1013600093ED809E0BEB0E017044F2B3DDE9037C3C
:1013700075461446059E91ED805E90ED80FE16EF59
:1013800048A014EF4EC016EF48621AEF4C8085ED6E
:10139000809E1AEF4CC2B7EC889E22EF52A118FE35
:1013A0000CAE18EE0CBE14EF4E42A1EC88BE16EE49
:1013B000049FB6EC88BE16EE046F22EF52411AFE6F
:1013C000084E1AEE085E83ED805E22EF5241BCECBF
:1013D000889E18FE064E18EE065EA0EC885E013C64
:1013E000B5ED887EB3ED889EC5D1019B08F101085B
:1013F000D0459E44AFD1DDE90650DDE90813AD10BC
:10140000012D88464FEA8A0A00F104003FF778AFC1
:101410001E4B0B9E93ED005F24EF404824EF546178
:10142000B6FD103E3609B4FD103E96FD02BE27D033
:1014300046F001E096FD03FE96FD015E12EF4AC004
:1014400012EF4A0214EF4E8026EF56A114EF4E42DF
:10145000BAFD103E1CEF48E0B6FD10BE1CEF4882FE
:1014600010EE04DF10EE044F06FD10FE96FD02BEE6
:1014700006FD0F9E06FD0EDE06FD0D5E0FF027C079
:101480000DB0BDEC108BBDE8F08F00BF10FD060263
:101490002DE9F843012A2DED0C8B06460C461F461C
:1014A000058800F0E380B5F5807F00F0F88011D961
:1014B000B5F5006F18D000F2EE80B5F5007F13D0BF
:1014C000B5F5806F00F0EB80002F5CD1BDEC0C8B8C
:1014D000BDE8F883402D00F0E28000F23C81102D41
:1014E00000F0DD80202DEFD14FEAD50E4FEA0E1E21
:1014F000AEF1100E4FEA1E1E04EB45080EF1010E70
:101500004EF001E04146234670684FEA55096D00F0
:1015100093ED807E91ED805E9FEF56609FEF54408B
:1015200016EF4400A3EC881E16EF4462B0EC881E50
:1015300022EF524116FE005E16EE004EA1EC885ED0
:101540000FF01BC04A4621463046FFF7BFFE4A4611
:1015500041463046FFF7BAFE4FEAD50E4FEA0E1E5F
:10156000AEF1100E4FEA1E1E0EF1010E23464EF094
:1015700001E093ED807E16EF4668A3EC887E0FF0C5
:1015800009C0002FA2D00123B068A0EE303BB0EC20
:10159000887E17FE002E17FE007EB1899DFF522027
:1015A0000D099DFF56602CD0024645F001E0134620
:1015B00094FC438FB3EC885E94FC47AF84EC43AF5C
:1015C00084EC478F15FE008E15FE005E93ED807E45
:1015D0009DFF58809DFF544017FE002E94FC49AF9C
:1015E00094FC45CF17FE007E84EC49CF9DFF52202E
:1015F0009DFF566084EC45AF20320FF029C000EB10
:10160000451001F00F01082900F0A9800C297FF492
:101610005DAF042313F001E8FDEE103A9BB2EDEE4E
:10162000103A94FC438F71FE4D0F90ED805E94FC58
:1016300047AF84EC43AF84EC478F15FE002E15FEB8
:10164000007E9DFF52409DFF566071FE4D0F94FC41
:10165000452F71FE4D0F94FC470F71FE4D0F84EC2A
:10166000450F71FE4D0F84EC472F2FE7B5F5807FB6
:101670000BD01AD9B5F5006F1FD07FD8B5F5007F14
:101680001BD0B5F5806F7FF41FAF2A462146304648
:1016900000F08AF818E7B5F5805F7FF415AF2A46A9
:1016A00021463046FFF712FE0EE7402DEDD062D8FE
:1016B000102DEAD0202D7FF407AF4FEAD50E4FEA68
:1016C0000E1EAEF1100E4FEA1E1E04EB45080EF181
:1016D000010E4EF001E04146234670684FEA55097D
:1016E0006D0093ED807E91ED805E9FEF56609FEFE1
:1016F000544016EF4400A3EC881E16EF4462B0EC91
:10170000881E22EF524116FE014E16EE015EA1EC3C
:10171000885E0FF01BC04A462146304600F044F870
:101720004A464146304600F03FF84FEAD50E4FEAB0
:101730000E1EAEF1100E4FEA1E1E0EF1010E2346D4
:101740004EF001E093ED807E16EF4668A3EC887EB4
:101750000FF009C0B8E6802D3FF4C6AEB4E694FCA5
:10176000434F94FC470F84EC430F84EC474FBDEC90
:101770000C8BBDE8F883802D9FD0A5E6B5F5805F82
:101780007FF4A2AE81E700BF5FF800F01D460002C3
:101790005FF800F0854200025FF800F0A517030231
:1017A0005FF800F05DA500025FF800F0CDF80202DE
:1017B0005FF800F05D0E03025FF800F0D94300020D
:1017C0005FF800F01D2703025FF800F03D440002BF
:0817D0005FF800F0E91B0302C1
:1017D800080000101000000818000018200000047D
:1017E800280000143000000C3800001C40000002E3
:1017F800480000125000000A5800001A6000000655
:10180800680000167000000E7800001E80000001BD
:10181800880000119000000998000019A000000538
:10182800A8000015B000000DB800001DC00000039E
:10183800C8000013D000000BD800001BE000000710
:10184800E8000017F000000FF800001F08018010E2
:1018580010018008180180182001800428018014D4
:101868003001800C3801801C400180024801801240
:101878005001800A5801801A6001800668018016AC
:101888007001800E7801801E880180119001800906
:1018980098018019A0018005A8018015B001800D6C
:1018A800B801801DC0018003C8018013D001800BDE
:1018B800D801801BE0018007E8018017F001800F44
:1018C800F801801F08024010100240081802401852
:1018D80020024004280240143002400C3802401C08
:1018E800480240125002400A5802401A600240065C
:1018F800680240167002400E7802401E88024011AD
:101908009002400998024019A0024005A80240151B
:10191800B002400DB802401DC0024003C802401387
:10192800D002400BD802401BE0024007E8024017F3
:10193800F002400FF802401F0803C0101003C0084F
:101948001803C0182003C0042803C0143003C00CB7
:101958003803C01C4803C0125003C00A5803C01AF9
:101968006003C0066803C0167003C00E7803C01E6B
:101978008803C0119003C0099803C019A003C005CB
:10198800A803C015B003C00DB803C01DC803C01319
:10199800D003C00BD803C01BE003C007E803C0177F
:1019A800F003C00FF803C01F08042010100420081B
:1019B80018042018280420143004200C3804201C93
:1019C800480420125004200A5804201A60042006F3
:1019D800680420167004200E7804201E8804201144
:1019E8009004200998042019A0042005A8042015B3
:1019F800B004200DB804201DC8042013D004200B07
:101A0800D804201BE0042007E8042017F004200F66
:101A1800F804201F0805A0101005A0081805A01834
:101A28002805A0143005A00C3805A01C4805A012F4
:101A38005005A00A5805A01A6005A0066805A0165A
:101A48007005A00E7805A01E8805A0119005A009B4
:101A58009805A019A805A015B005A00DB805A01DEA
:101A6800C805A013D005A00BD805A01BE005A0074A
:101A7800E805A017F005A00FF805A01F08066010DC
:101A88001006600818066018280660143006600CF6
:101A98003806601C480660125006600A5806601A2C
:101AA800680660167006600E7806601E880660116B
:101AB8009006600998066019A8066015B006600DC2
:101AC800B806601DC8066013D006600BD806601BF8
:101AD800E0066007E8066017F006600FF806601F6A
:101AE8000807E0101007E0081807E0182807E014B6
:101AF8003007E00C3807E01C4807E0125007E00AFE
:101B08005807E01A6807E0167007E00E7807E01E2D
:101B18008807E0119007E0099807E019A807E01581
:101B2800B007E00DB807E01DC807E013D007E00BC9
:101B3800D807E01BE807E017F007E00FF807E01FF9
:101B48000808101018081018280810143008100C6D
:101B58003808101C480810125008100A5808101AA3
:101B6800680810167008100E7808101E88081011E2
:101B78009008100998081019A8081015B008100D39
:101B8800B808101DC8081013D008100BD808101B6F
:101B9800E8081017F008100FF808101F080990102F
:101BA80018099018280990143009900C3809901CCD
:101BB800480990125009900A5809901A6809901615
:101BC8007009900E7809901E88099011980990194B
:101BD800A8099015B009900DB809901DC80990136F
:101BE800D009900BD809901BE8099017F009900FBD
:101BF800F809901F080A5010180A5018280A50149B
:101C0800300A500C380A501C480A5012580A501A08
:101C1800680A5016700A500E780A501E880A501129
:101C2800980A5019A80A5015B00A500DB80A501D44
:101C3800C80A5013D00A500BD80A501BE80A50178C
:101C4800F00A500FF80A501F080BD010180BD018C4
:101C5800280BD014300BD00C380BD01C480BD012EA
:101C6800580BD01A680BD016700BD00E780BD01EFC
:101C7800880BD011980BD019A80BD015B00BD00D2C
:101C8800B80BD01DC80BD013D80BD01BE80BD0173E
:101C9800F00BD00FF80BD01F080C3010180C3018B0
:101CA800280C3014380C301C480C3012580C301AE0
:101CB800680C3016700C300E780C301E880C301101
:101CC800980C3019A80C3015B00C300DB80C301D1C
:101CD800C80C3013D80C301BE80C3017F00C300F40
:101CE800F80C301F080DB010180DB018280DB014DE
:101CF800380DB01C480DB012580DB01A680DB0164A
:101D0800700DB00E780DB01E880DB011980DB01979
:101D1800A80DB015B80DB01DC80DB013D80DB01B67
:101D2800E80DB017F00DB00FF80DB01F080E7010C9
:101D3800180E7018280E7014380E701C480E701289
:101D4800580E701A680E7016780E701E880E701174
:101D5800980E7019A80E7015B80E701DC80E701365
:101D6800D80E701BE80E7017F00E700FF80E701F6B
:101D7800080FF010180FF018280FF014380FF01C87
:101D8800480FF012580FF01A680FF016780FF01E6F
:101D9800880FF011980FF019A80FF015B80FF01D63
:101DA800C80FF013D80FF01BE80FF017F80FF01F4B
:101DB80018100818281008143810081C48100812A1
:101DC8005810081A681008167810081E881008118C
:101DD80098100819A8100815B810081DC81008137D
:101DE800D810081BE8100817F810081F18118818D1
:101DF800281188143811881C481188125811881A1B
:101E0800681188167811881E98118819A8118815E4
:101E1800B811881DC8118813D811881BE8118817B4
:101E2800F811881F18124818281248143812481C2C
:101E38005812481A681248167812481E98124819FB
:101E4800A8124815B812481DC8124813D812481BC2
:101E5800E8124817F812481F1813C8182813C8148E
:101E68003813C81C5813C81A6813C8167813C81E24
:101E78009813C819A813C815B813C81DD813C81BB8
:101E8800E813C817F813C81F181428183814281C82
:101E98005814281A681428167814281E9814281913
:101EA800A8142815B814281DD814281BE8142817B6
:101EB800F814281F1815A8183815A81C5815A81A9A
:101EC8006815A8167815A81E9815A819B815A81D7C
:101ED800D815A81BE815A817F815A81F181668180C
:101EE8003816681C5816681A7816681E98166819E5
:101EF800B816681DD816681BE8166817F816681F04
:101F08001817E8183817E81C5817E81A7817E81E41
:101F18009817E819B817E81DD817E81BF817E81F2D
:101F28003818181C5818181A7818181E98181819DC
:101F3800B818181DD818181BF818181F3819981C25
:101F48005819981A7819981EB819981DD819981BF5
:101F5800F819981F381A581C781A581EB81A581D9C
:101F6800D81A581BF81A581F381BD81C781BD81EAB
:101F7800B81BD81DF81BD81F781C381EB81C381D74
:101F8800F81C381F781DB81EF81DB81FF81E781FDA
:101F9800000000000002000080020000A002000013
:101FA8000000000000000000000000000002000027
:101FB80080020000A00200000000000000000000F5
:101FC800000000000002000080020000A0020000E3
:101FD8000000000000000000FF7F0000FF7F37FFC7
:101FE800FE7F6EFEFA7FA5FDF67FDCFCF17F13FC19
:101FF800EA7F4AFBE27F81FAD97FB8F9CE7FEFF812
:10200800C27F27F8B57F5EF7A77F95F6987FCDF555
:10201800877F05F5757F3CF4627F74F34E7FACF2E1
:10202800387FE4F1227F1CF10A7F55F0F07E8DEFB6
:10203800D67EC6EEBA7EFFED9D7E38ED7F7E71ECD2
:10204800607EABEB3F7EE4EA1E7E1EEAFB7D58E92C
:10205800D67D92E8B17DCDE78A7D07E7637D42E6CC
:102068003A7D7DE50F7DB9E4E47CF4E3B77C30E3A9
:10207800897C6DE25A7CA9E12A7CE6E0F97B23E0C1
:10208800C67B61DF927B9EDE5D7BDCDD277B1BDD13
:10209800EF7A59DCB77A99DB7D7AD8DA427A18DA9E
:1020A800067A58D9C97998D88A79D9D74A791BD75D
:1020B8000A795CD6C8789ED58578E1D4407824D44E
:1020C800FB7767D3B477ABD26C77EFD1237734D172
:1020D800D97679D08E76BECF427604CFF4754BCEC2
:1020E800A67592CD5675D9CC057521CCB37469CB3C
:1020F8006074B2CA0B74FCC9B67346C95F7390C8E2
:102108000873DBC7AF7227C7557273C6FA71C0C5AB
:102118009E710DC541715BC4E370A9C38370F8C299
:10212800237048C2C26F98C15F6FE9C0FB6E3AC0A6
:10213800976E8CBF316EDFBECA6D32BE626D86BDD2
:10214800F96CDABC8F6C2FBC246C85BBB86BDCBA1D
:102158004B6B33BADD6A8BB96E6AE3B8FD693CB87C
:102168008C6996B71A69F1B6A7684CB63268A8B5F3
:10217800BD6705B5476762B4D066C0B357661FB37D
:10218800DE657FB26465DFB1E96440B16C64A2B01A
:10219800EF6305B0716368AFF262CCAE726231AEC4
:1021A800F16197AD6F61FDACEC6065AC6860CDAB7B
:1021B800E45F36AB5E5FA0AAD75E0AAA505E76A936
:1021C800C85DE2A83E5D4FA8B45CBDA7295C2CA7FA
:1021D8009D5B9CA6105B0CA6825A7EA5F459F0A4C0
:1021E800645963A4D458D7A343584CA3B157C2A287
:1021F8001E5738A28A56B0A1F65529A16055A2A04B
:10220800CA541CA03354989F9B53149F0353919E08
:1022180069520F9ECF518E9D34510E9D98508F9CC0
:10222800FB4F119C5E4F949BC04E179B214E9C9A6E
:10223800814D229AE14CA999404C30999E4BB9980E
:10224800FB4A4398584ACE97B44959970F49E6969E
:102258006A487496C44703961D4792957546239518
:10226800CD45B594244548947B44DC93D143719380
:10227800264307937A429E92CE4136922141CF91CE
:1022880074406991C63F0591173FA190683E3E9002
:10229800B83DDD8F083D7D8F573C1D8FA53BBF8E18
:1022A800F33A628E403A068E8D39AB8DD938518D0E
:1022B8002538F88C7037A18CBA364A8C0436F58BE1
:1022C8004E35A08B97344D8BDF33FB8A2733AA8A90
:1022D8006E325A8AB5310C8AFC30BE894230728916
:1022E800872F2789CC2EDD88112E9488552D4C8870
:1022F800992C0588DC2BC0871F2B7B87622A38879F
:10230800A429F686E528B68627287686682737869C
:10231800A826FA85E825BE8528258385672449856A
:10232800A7231185E522D9842422A38462216E84FF
:102338009F203A84DD1F07841A1FD683571EA68361
:10234800931D7783D01C49830C1C1C83471BF18287
:10235800831AC682BE199D82F918768233184F8275
:102368006E172A82A8160582E215E2811C15C18122
:102378005514A0818F138181C8126381011246818F
:102388003A112A8173101081AB0FF680E40EDE80BB
:102398001C0EC880540DB2808C0C9E80C40B8B80A0
:1023A800FB0A7980330A68806B095980A2084B8040
:1023B800D9073E8011073280480627807F051E8096
:1023C800B6041680ED030F8024030A805B020680A2
:1023D80092010280C9000180FF7F0000F67FDCFCCB
:1023E800D97FB8F9A77F95F6627F74F30A7F55F015
:1023F8009D7E38ED1E7E1EEA8A7D07E7E47CF4E3C5
:102408002A7CE6E05D7BDCDD7D7AD8DA8A79D9D76B
:102418008578E1D46C77EFD1427604CF057521CC6D
:10242800B67346C9557273C6E370A9C35F6FE9C036
:10243800CA6D32BE246C85BB6E6AE3B8A7684CB619
:10244800D066C0B3E96440B1F262CCAEEC6065AC72
:10245800D75E0AAAB45CBDA7825A7EA543584CA38E
:10246800F65529A19B53149F34510E9DC04E179BBE
:10247800404C3099B44959971D4792957B44DC9359
:10248800CE413692173FA190573C1D8F8D39AB8DA9
:10249800BA364A8CDF33FB8AFC30BE89112E948809
:1024A8001F2B7B8727287686282583852422A384CB
:1024B8001A1FD6830C1C1C83F9187682E215E28158
:1024C800C8126381AB0FF6808C0C9E806B09598013
:1024D8004806278024030A80FF7F0000627F74F388
:1024E8008A7D07E77D7AD8DA427604CFE370A9C3FC
:1024F8006E6AE3B8F262CCAE825A7EA534510E9D64
:102508001D479295573C1D8FFC30BE892825838531
:10251800F91876828C0C9E80FF7F0000427604CFEB
:10252800825A7EA5FC30BE89FF7F0000FE7F6EFECA
:10253800F67FDCFCEA7F4AFBD97FB8F9C27F27F82F
:10254800A77F95F6877F05F5627F74F3387FE4F1FE
:102558000A7F55F0D67EC6EE9D7E38ED607EABEBE9
:102568001E7E1EEAD67D92E88A7D07E73A7D7DE5E4
:10257800E47CF4E3897C6DE22A7CE6E0C67B61DFDB
:102588005D7BDCDDEF7A59DC7D7AD8DA067A58D9BA
:102598008A79D9D70A795CD68578E1D4FB7767D36D
:1025A8006C77EFD1D97679D0427604CFA67592CDE3
:1025B800057521CC6074B2CAB67346C90873DBC707
:1025C800557273C69E710DC5E370A9C3237048C2C6
:1025D8005F6FE9C0976E8CBFCA6D32BEF96CDABC0A
:1025E800246C85BB4B6B33BA6E6AE3B88C6996B7BB
:1025F800A7684CB6BD6705B5D066C0B3DE657FB2C7
:10260800E96440B1EF6305B0F262CCAEF16197AD19
:10261800EC6065ACE45F36ABD75E0AAAC85DE2A899
:10262800B45CBDA79D5B9CA6825A7EA5645963A431
:1026380043584CA31E5738A2F65529A1CA541CA0CA
:102648009B53149F69520F9E34510E9DFB4F119C52
:10265800C04E179B814D229A404C3099FB4A4398B3
:10266800B44959976A4874961D479295CD45B594D3
:102678007B44DC9326430793CE413692744069919C
:10268800173FA190B83DDD8F573C1D8FF33A628EFE
:102698008D39AB8D2538F88CBA364A8C4E35A08BDF
:1026A800DF33FB8A6E325A8AFC30BE89872F27892E
:1026B800112E9488992C05881F2B7B87A429F686D0
:1026C80027287686A826FA8528258385A7231185B5
:1026D8002422A3849F203A841A1FD683931D7783CC
:1026E8000C1C1C83831AC682F91876826E172A82FC
:1026F800E215E2815514A081C81263813A112A813A
:10270800AB0FF6801C0EC8808C0C9E80FB0A79806B
:102718006B095980D9073E8048062780B604168081
:1027280024030A8092010280000000806EFE02806D
:10273800DCFC0A804AFB1680B8F9278027F83E801F
:1027480095F6598005F5798074F39E80E4F1C88088
:1027580055F0F680C6EE2A8138ED6381ABEBA08197
:102768001EEAE28192E82A8207E776827DE5C68240
:10277800F4E31C836DE27783E6E0D68361DF3A8475
:10278800DCDDA38459DC1185D8DA838558D9FA852C
:10279800D9D776865CD6F686E1D47B8767D3058859
:1027A800EFD1948879D0278904CFBE8992CD5A8AEF
:1027B80021CCFB8AB2CAA08B46C94A8CDBC7F88CED
:1027C80073C6AB8D0DC5628EA9C31D8F48C2DD8F40
:1027D800E9C0A1908CBF699132BE3692DABC0793EA
:1027E80085BBDC9333BAB594E3B8929596B77496E3
:1027F8004CB6599705B54398C0B330997FB2229A21
:1028080040B1179B05B0119CCCAE0E9D97AD0F9EA5
:1028180065AC149F36AB1CA00AAA29A1E2A838A26D
:10282800BDA74CA39CA663A47EA57EA563A49CA675
:102838004CA3BDA738A2E2A829A10AAA1CA036ABBE
:10284800149F65AC0F9E97AD0E9DCCAE119C05B044
:10285800179B40B1229A7FB23099C0B3439805B50F
:1028680059974CB6749696B79295E3B8B59433BA1F
:10287800DC9385BB0793DABC369232BE69918CBF74
:10288800A190E9C0DD8F48C21D8FA9C3628E0DC516
:10289800AB8D73C6F88CDBC74A8C46C9A08BB2CA0D
:1028A800FB8A21CC5A8A92CDBE8904CF278979D058
:1028B8009488EFD1058867D37B87E1D4F6865CD608
:1028C8007686D9D7FA8558D98385D8DA118559DC1F
:1028D800A384DCDD3A8461DFD683E6E077836DE2AA
:1028E8001C83F4E3C6827DE5768207E72A8292E8B4
:1028F800E2811EEAA081ABEB638138ED2A81C6EE46
:10290800F68055F0C880E4F19E8074F3798005F56F
:10291800598095F63E8027F82780B8F916804AFB3B
:102928000A80DCFC02806EFEFF7F0000D97FB8F9C8
:10293800627F74F39D7E38ED8A7D07E72A7CE6E0A6
:102948007D7AD8DA8578E1D4427604CFB67346C961
:10295800E370A9C3CA6D32BE6E6AE3B8D066C0B36D
:10296800F262CCAED75E0AAA825A7EA5F65529A194
:1029780034510E9D404C30991D479295CE41369268
:10298800573C1D8FBA364A8CFC30BE891F2B7B877B
:10299800282583851A1FD683F9187682C812638181
:1029A8008C0C9E804806278000000080B8F927809C
:1029B80074F39E8038ED638107E77682E6E0D6837C
:1029C800D8DA8385E1D47B8704CFBE8946C94A8C8F
:1029D800A9C31D8F32BE3692E3B89295C0B3309921
:1029E800CCAE0E9D0AAA29A17EA57EA529A10AAA78
:1029F8000E9DCCAE3099C0B39295E3B8369232BEF4
:102A08001D8FA9C34A8C46C9BE8904CF7B87E1D4F0
:102A18008385D8DAD683E6E0768207E7638138EDE6
:102A28009E8074F32780B8F9FF7F00008A7D07E74E
:102A3800427604CF6E6AE3B8825A7EA51D47929506
:102A4800FC30BE89F91876820000008007E776829C
:102A580004CFBE89E3B892957EA57EA59295E3B88A
:102A6800BE8904CF768207E7FF7F0000825A7EA5E1
:102A7800000000807EA57EA5FF7F0000FA7FA5FDEF
:102A8800EA7F4AFBCE7FEFF8A77F95F6757F3CF487
:102A9800387FE4F1F07E8DEF9D7E38ED3F7EE4EAED
:102AA800D67D92E8637D42E6E47CF4E35A7CA9E1B2
:102AB800C67B61DF277B1BDD7D7AD8DAC97998D898
:102AC8000A795CD6407824D46C77EFD18E76BECF65
:102AD800A67592CDB37469CBB67346C9AF7227C7D2
:102AE8009E710DC58370F8C25F6FE9C0316EDFBE9D
:102AF800F96CDABCB86BDCBA6E6AE3B81A69F1B67D
:102B0800BD6705B557661FB3E96440B1716368AF27
:102B1800F16197AD6860CDABD75E0AAA3E5D4FA85C
:102B28009D5B9CA6F459F0A443584CA38A56B0A1C7
:102B3800CA541CA00353919E34510E9D5E4F949B22
:102B4800814D229A9E4BB998B4495997C447039628
:102B5800CD45B594D1437193CE413692C63F059188
:102B6800B83DDD8FA53BBF8E8D39AB8D7037A18CFD
:102B78004E35A08B2733AA8AFC30BE89CC2EDD883F
:102B8800992C0588622A388727287686E825BE8505
:102B9800A723118562216E841A1FD683D01C49830E
:102BA800831AC68233184F82E215E2818F1381811E
:102BB8003A112A81E40EDE808C0C9E80330A6880EC
:102BC800D9073E807F051E8024030A80C900018042
:102BD8006EFE028013FC0F80B8F927805EF74B80E9
:102BE80005F57980ACF2B28055F0F680FFED4681AC
:102BF800ABEBA08158E9058207E77682B9E4F18258
:102C08006DE2778323E00784DCDDA38499DB4985C3
:102C180058D9FA851BD7B686E1D47B87ABD24C88C6
:102C280079D027894BCE0C8A21CCFB8AFCC9F58B3D
:102C3800DBC7F88CC0C5068EA9C31D8F98C13E900E
:102C48008CBF699186BD9E9285BBDC938BB9239519
:102C580096B77496A8B5CE97C0B33099DFB19C9A51
:102C680005B0119C31AE8E9D65AC149FA0AAA2A0A0
:102C7800E2A838A22CA7D7A37EA57EA5D7A32CA708
:102C880038A2E2A8A2A0A0AA149F65AC8E9D31AE7E
:102C9800119C05B09C9ADFB13099C0B3CE97A8B506
:102CA800749696B723958BB9DC9385BB9E9286BDA7
:102CB80069918CBF3E9098C11D8FA9C3068EC0C56F
:102CC800F88CDBC7F58BFCC9FB8A21CC0C8A4BCE70
:102CD800278979D04C88ABD27B87E1D4B6861BD7BD
:102CE800FA8558D9498599DBA384DCDD078423E07C
:102CF80077836DE2F182B9E4768207E7058258E9C5
:102D0800A081ABEB4681FFEDF68055F0B280ACF2C6
:102D1800798005F54B805EF72780B8F90F8013FCA2
:102D280002806EFE0180C9000A8024031E807F0590
:102D38003E80D9076880330A9E808C0CDE80E40EC2
:102D48002A813A1181818F13E281E2154F8233186B
:102D5800C682831A4983D01CD6831A1F6E846221C7
:102D68001185A723BE85E825768627283887622A15
:102D78000588992CDD88CC2EBE89FC30AA8A273399
:102D8800A08B4E35A18C7037AB8D8D39BF8EA53B8E
:102D9800DD8FB83D0591C63F3692CE417193D14340
:102DA800B594CD450396C4475997B449B9989E4BF5
:102DB800229A814D949B5E4F0E9D3451919E0353F0
:102DC8001CA0CA54B0A18A564CA34358F0A4F45985
:102DD8009CA69D5B4FA83E5D0AAAD75ECDAB6860F6
:102DE80097ADF16168AF716340B1E9641FB357668D
:102DF80005B5BD67F1B61A69E3B86E6ADCBAB86B97
:102E0800DABCF96CDFBE316EE9C05F6FF8C283705F
:102E18000DC59E7127C7AF7246C9B67369CBB37427
:102E280092CDA675BECF8E76EFD16C7724D440783C
:102E38005CD60A7998D8C979D8DA7D7A1BDD277BE0
:102E480061DFC67BA9E15A7CF4E3E47C42E6637D5A
:102E580092E8D67DE4EA3F7E38ED9D7E8DEFF07EE8
:102E6800E4F1387F3CF4757F95F6A77FEFF8CE7FC5
:102E78004AFBEA7FA5FDFA7FFF7F0000A77F95F652
:102E88009D7E38EDE47CF4E37D7AD8DA6C77EFD177
:102E9800B67346C95F6FE9C06E6AE3B8E96440B1CA
:102EA800D75E0AAA43584CA334510E9DB44959978A
:102EB800CE4136928D39AB8DFC30BE892728768677
:102EC8001A1FD683E215E2818C0C9E8024030A80A7
:102ED800B8F9278055F0F68007E77682DCDDA38411
:102EE800E1D47B8721CCFB8AA9C31D8F85BBDC93EA
:102EF800C0B3309965AC149F7EA57EA5149F65ACC0
:102F08003099C0B3DC9385BB1D8FA9C3FB8A21CC44
:102F18007B87E1D4A384DCDD768207E7F68055F071
:102F28002780B8F90A8024039E808C0CE281E21580
:102F3800D6831A1F76862728BE89FC30AB8D8D393B
:102F48003692CE415997B4490E9D34514CA34358FB
:102F58000AAAD75E40B1E964E3B86E6AE9C05F6F58
:102F680046C9B673EFD16C77D8DA7D7AF4E3E47C9E
:102F780038ED9D7E95F6A77FFF7F00007D7AD8DA31
:102F88006E6AE3B834510E9DFC30BE898C0C9E806D
:102F980007E77682A9C31D8F7EA57EA51D8FA9C3CD
:102FA800768207E79E808C0CBE89FC300E9D3451DA
:102FB800E3B86E6AD8DA7D7AFF7F0000FC30BE89FC
:082FC8007EA57EA5BE89FC3048
:102FD000C93F0002AD760002FFFFFFFF01000000C5
:102FE000008793030100000018000022180000224F
:102FF000010000002400002224000022A0000000A4
:103000000000000000000000020000003C00002260
:103010003C0000222C000000000000000000000026
:103020000300000054000022540000223800000079
:103030000000000000000000040000006C000022FE
:103040006C0000222C0000000000000000000000C6
:103050000500000084000022840000223C000000E3
:103060000000000000000000060000009C0000229C
:103070009C0000224800000000000000000000004A
:1030800007000000B4000022B40000227800000015
:10309000000000000000000008000000CC0000223A
:1030A000CC000022400000000000000000000000F2
:1030B00009000000E4000022E400002248000000B3
:1030C00000000000000000000A000000FC000022D8
:1030D000FC000022300000000000000000000000A2
:1030E0000C00000014010022140100222C0000003A
:1030F0000000000000000000100000002C01002271
:103100002C01002220000000000000000000000050
:103110006E19000000C000C001000000A0350302CD
:10312000AC7703020A000000A83E0302BC7703024A
:1031300002000000484D0302C877030204000000AB
:103140004C430302D877030203000000B873030264
:10315000E47703020500000058740302F0770302CD
:1031600006000000D074030200780302070000008C
:103170003C7503021478030208000000C0750302C6
:103180002878030209000000207703023C7803023C
:10319000000100004C780302507803020000000098
:1031A000000000000000000001000000448603024F
:1031B0004C86030202000000608603026886030258
:1031C000030000007C8603028486030204000000E2
:1031D000988603029C86030205000000B486030261
:1031E000B886030206000000D8860302D0860302D8
:1031F00007000000E0860302EC86030200000000E6
:1032000000000000000000002F000000000000008F
:1032100000000000000000000000000000000000AE
:10322000000000000000000000000000000000009E
:10323000000000000000000000000000000000008E
:10324000000000000000000000000000000000007E
:10325000000000000000000000000000000000006E
:10326000000000000000000000000000000000005E
:10327000000000000000000000000000000000004E
:10328000000000000000000000000000000000003E
:10329000000000000000000000000000000000002E
:1032A000000000000000000000000000000000001E
:1032B000000000000000000000000000000000000E
:1032C00000000000000000000000000000000000FE
:1032D00000000000000000000000000000000000EE
:1032E00000000000000000000000000000000000DE
:1032F00000000000000000000000000000000000CE
:10330000000000000000000068030022010000002F
:1033100068470D22000000000000000000000000CF
:10332000700300220100000078470D220000000019
:10333000000000000000000000112233445500008E
:10334000001122334455000000000000000000007E
:1033500090030022000000000000000000000000B8
:1033600020500D220000000080820422807C042274
:103370008076042280700422806A04228064042201
:10338000805E04228058042280520422804C042251
:103390008046042280400422803A042280340422A1
:1033A000802E04228028042280220422801C0422F1
:1033B0008016042280100422800A04228004042241
:1033C00080FE032280F8032280F2032280EC032295
:1033D00080E6032280E0032280DA032280D40322E5
:1033E00080CE032280C8032280C2032280BC032235
:1033F00080B6032280B0032280AA032280A4032285
:10340000809E03228098032280920322808C0322D4
:103410008086032280800322807A03228074032224
:10342000806E03228068032280620322805C032274
:103430008056032280500322804A032280440322C4
:10344000803E03228038032280320322802C032214
:103450008026032280200322801A03228014032264
:10346000800E0322800803228002032280FC0222B5
:1034700080F6022280F0022280EA022280E4022208
:1034800080DE022280D8022280D2022280CC022258
:1034900080C6022280C0022280BA022280B40222A8
:1034A00080AE022280A8022280A20222809C0222F8
:1034B0008096022280900222808A02228084022248
:1034C000807E02228078022280720222806C022298
:1034D0008066022280600222805A022280540222E8
:1034E000804E02228048022280420222803C022238
:1034F0008036022280300222802A02228024022288
:10350000801E02228018022280120222800C0222D7
:10351000800602228000022280FA012280F4012229
:1035200080EE012280E8012280E2012280DC01227B
:1035300080D6012280D0012280CA012280C40122CB
:1035400080BE012280B8012280B2012280AC01221B
:1035500080A6012280A00122809A0122809401226B
:10356000808E01228088012280820122807C0122BB
:103570008076012280700122806A0122806401220B
:10358000805E01228058012280520122804C01225B
:103590008046012280400122803A012280340122AB
:1035A000802E01228028012280220122801C0122FB
:1035B0008016012280100122800A0122800401224B
:1035C00080FE002280F8002280F2002280EC00229F
:1035D00080E6002280E0002280DA002280D40022EF
:1035E00080CE002280C8002280C2002280BC00223F
:1035F00080B6002280B0002280AA002280A400228F
:10360000809E00228098002280920022808C0022DE
:103610008086002280800022807A0022807400222E
:10362000806E00228068002280620022805C00227E
:103630008056002280500022804A002280440022CE
:10364000803E00228038002280320022802C00221E
:103650008026002280200022801A0022801400226E
:10366000800E00228008002201000000808E0422CB
:1036700000000000000000006000000001000000E9
:10368000000000000100000080880422000000000B
:1036900000000000600000000100000000000000C9
:1036A00001010000809504220000000000000000DD
:1036B00010000000010000000000000001010000F7
:1036C00080940422000000000000000010000000B0
:1036D00001000000000000000201000000000000E6
:1036E0008096042200000000080000000100000095
:1036F0000000000000112233445500001035000086
:10370000C08E0302FC5C0D2234F606024007002244
:1037100000000000445E0D22AC5E0D22145F0D22FD
:103720000000000000000000000000000000000099
:103730000000000000000000000000000000000089
:103740000000000000000000000000000000000079
:103750000000000000000000000000000000000069
:103760000000000000000000000000000000000059
:103770000000000000000000000000000000000049
:103780000000000000000000000000000000000039
:103790000000000000000000000000000000000029
:1037A0000000000000000000010000000000000018
:1037B0000E33CDAB34126DE6ECDE05000B000000DD
:1037C00000000000000000000000000000000000F9
:1037D00000000000000000000000000000000000E9
:1037E00000000000000000000000000000000000D9
:1037F00000000000000000000000000000000000C9
:1038000000000000000000000000000000000000B8
:1038100000000000000000000000000000000000A8
:103820000000000000000000000000000000000098
:043830007C5F0D228A
:103840000348044B834202D0034B03B1184770472F
:10385000640800226408002200000000064B0749AB
:10386000C91A891048BF0131491003D0044B0BB16C
:1038700001481847704700BF64080022640800220E
:103880000000000010B5064C237843B9FFF7D8FFBD
:10389000044B13B10448AFF300800123237010BD23
:1038A000209D06220000000028F1C90208B5054B42
:1038B0001BB105490548AFF30080BDE80840FFF79C
:1038C000CDBF00BF00000000249D062228F1C902E0
:1038D00010B5084C23680BB1002010BD0122064929
:1038E000064810F085F910B901232360F4E76FF062
:1038F000FE0010BD889D0622902B03028C9D06229F
:1039000018B330B51C468BB0E3B100220221036925
:10391000856804930D4BCDE90112089304AB009325
:1039200006950B4D416806AB07920992C26809489B
:10393000059527F087FA0346B0FA80F04009236026
:103940000BB030BD18460BB030BD7047E09D06226D
:10395000B0EE020020500D2204289DBF41F21C72DF
:10396000024B02FB00300020704700BF804800205F
:10397000004870476031002000487047401A00201E
:1039800018B1044B1B6813B9036003487047034B1D
:103990001B68F9E7C49D062200180020C89D062276
:1039A000024B1868003818BF01207047C49D0622DA
:1039B00038B5184C184A23681268A3B14FF0FF318C
:1039C000164810F069F90446E8B9154D2B682BB973
:1039D0001449154827F04EFA0446B8B10F4810F0C4
:1039E0005FF9204638BD012210490C4810F000F95B
:1039F00048B901234FF0FF310848236010F04CF91B
:103A000004460028E1D06424204638BD01232B6001
:103A1000E4E700BF889D0622000000228C9D06225C
:103A2000849D0622B4F5060278030022902B03023F
:103A30002DE9F04F4FF0FF3495B01E9BDDF88080EC
:103A40000A931F9B0D940B93002800F0EB808B468C
:103A5000002900F0E780904B9A4240F0E3808F4DC0
:103A60000746A8428E4E02D3B042C0F0DB80AB4581
:103A700080F0DC80B8F1000F04D0302200214046F5
:103A80002DF0ECF90021874B41F21C721960864B36
:103A9000864819602DF0E2F9FFF78AFF002840F010
:103AA0005F824FF0FF31824810F0F6F8002840F0B6
:103AB0005A82B8F1000F20D07E4BD3F8FC30DC01E5
:103AC0001BD57D4C2368980117D42368D90714D5DA
:103AD0007A4E3946706A704A2844D4F804902DF022
:103AE00061FE6368A3EB0903C8F80030BFF35F8F82
:103AF00063684FF0010A09930CE0704E3946706A12
:103B0000654A28442DF04EFEBFF35F8F4FF0000A48
:103B1000CDF824A04FF000090223CDE90139336923
:103B2000F2680E93B36871681093654B65480F9304
:103B30000EAB009310AB1295CDF84490CDF84C909D
:103B400027F080F90446BFF35F8FBAF1000F73D1FD
:103B5000002840F09D805C4C716C41F21C7229443D
:103B600004F547602DF01EFEF16C41F21C722944F1
:103B7000A4F6AC202DF016FE316D41F21C722944E2
:103B8000A4F5A0402DF00EFE716DA4F5075041F292
:103B90001C72294408382DF005FEDDE90A100023C7
:103BA0004A4A984208BF914200F09680484A98429B
:103BB00008BF914200F09080464E706A3946364AFE
:103BC00028442DF0EFFDBAF1000F56D1BFF35F8FFF
:103BD0000EAB002700930223CDE901373369F26869
:103BE0000E93B36871681093354B36480F9310AB42
:103BF000CDE91259119727F025F90446BFF35F8FDD
:103C0000BAF1000F00F0CE802B4B09995A68521A76
:103C1000C8F81020002800F04781C8F82C7024480C
:103C200010F03EF8204615B0BDE8F08FB345BFF464
:103C300021AF4FF0FF34F5E71F4B09995A68521A2C
:103C4000C8F80420002800F0FB800027E5E766683C
:103C500041F21C721149154809962DF0A3FD01236C
:103C6000114A1360636839469B1B1A4E0A4A706AF0
:103C7000C8F8283028442DF095FD0F4A099953685B
:103C80005B1AC8F80C30BFF35F8F536809939FE746
:103C9000B8F1000FC3D0D8E7906E0100E09D062276
:103CA000908C0922C89D0622C49D0622401A00203D
:103CB0008C9D062200ED00E0001000E0409203021F
:103CC000B0EE020020500D228098002000453E906A
:103CD00000A8DD92A8070402A44BA54A19689142E6
:103CE0007FF46AAF5A681B2A7FF466AFA14A996ACB
:103CF00091427FF461AF41F21C72D96A91427FF424
:103D00005BAF9D4A196B91427FF456AF9B4A596B4A
:103D100091427FF451AF9A6BB2F5B95F7FF44CAF2B
:103D2000DA6B002A7FF448AF44F20862D96D914201
:103D30007FF442AF924A196E91427FF43DAF5A6EC2
:103D4000904B9A427FF438AFBAF1000F00F0D9805F
:103D50000C238D4C8D496668059341F21C730491C8
:103D60000A998B4802918B4A0B990DF1340CCDE9DD
:103D7000060C0391009201933A467E4B7E49864899
:103D8000099609F0B5FF854B186063689B1BC8F85E
:103D900024300D9B002B3FF45AAF814E00237F4A05
:103DA00013600AE7002879D1716C7E4C41F21C72D5
:103DB00029447D482DF0F6FC606A59466D4A284436
:103DC0002DF0F0FCBFF35F8F6B4A00270F920222A9
:103DD000CDE9012722690EAB0E92A26861680093BB
:103DE000109210ABE26871481295CDF84C90119783
:103DF00027F028F80446BFF35F8FBAF1000F70D0A8
:103E0000614D099A6B689B1AC8F81C3000287FF432
:103E100004AF41F21C72664966486E682DF0C2FC20
:103E20006B68654A9B1BC8F82030D2F8FC30DA0179
:103E300064D52B689B0161D42F6807F00107ECE67D
:103E40005E48716C41F21C72294400F547605C6861
:103E50002DF0A8FCF16C594B294441F21C72A3F6D9
:103E6000AC202DF09FFC316D544B294441F21C7263
:103E7000A3F5A0402DF096FC504B716DA3F50750B3
:103E800041F21C72294408382DF08CFC3E4B5A68D4
:103E9000121BC8F808205B6809937EE6B8F1000F92
:103EA0003FF4BDAE5746B8E6716C41F21C7229442E
:103EB0003D485C682DF076FC334B5A68121BC8F8FD
:103EC0001420384C5946606A2A4A28445E682DF00E
:103ED00069FC2D4B5A68921BC8F818205B6809933F
:103EE00070E700287FF4D4AE41F21C7230493148AB
:103EF0002DF058FCB8F1000F3FF491AE0024274696
:103F00008BE60A9B41F21C7402930B9B3A46039387
:103F10000C2305931E4B184906931C4B1E48049313
:103F20001C4B019400930DAB0793124B09F0E0FE7C
:103F30001B4E1A4B726A18600D9B0A92002B7FF47D
:103F40002DAF224614491E482DF02CFC01231D4A9A
:103F50000A9813603946074A28442DF023FC35E6B9
:103F60006FF001045EE66FF002045BE680D70602A4
:103F700031543256906E0100B0EE020050830200C0
:103F8000A0F0190020360400001000E00018002006
:103F900001390002D48D0020E09D0622C89D062232
:103FA000A8070402684406029C5F002020500D22EE
:103FB00000B506226031002000ED00E0809800206E
:103FC000401A0020C49D062230B50024002585B08B
:103FD000CDE900450293FFF72BFD05B030BD00BFD2
:103FE00003462DE9F04F784D382200218DB0284648
:103FF00099462CF033FF00234FF0FF300721734A1E
:10400000734E1268734C34607060B360F360696023
:10401000AA60FFF7CDFC706030B104466E4B336090
:1040200020460DB0BDE8F08F6C4BD3F8FC30D801C2
:1040300004D56B4B1A68910140F1B6806749684A14
:10404000D1F8FC3043F08073C1F8FC30654BC2F806
:10405000B03F13689B0100F1AE80136843F0010389
:104060001360BFF34F8FBFF36F8FDFF884E103233B
:104070004EF001E05C4A03F1110102F8013FCBB2BE
:104080000FF007C800234FF0000A4FF0000B57490C
:10409000CDE900AB0846564A0293FFF7C9FC044637
:1040A00000287BD10746DFF838B10DF1100ABFF3C5
:1040B0004F8F0023002400224C49DBF8048008467F
:1040C000CDE9002302944A4AFFF7B2FC0446BFF34D
:1040D0004F8FDBF80430BA1D05EB8202A3EB080317
:1040E0005360536801374AF8043F002856D1072F20
:1040F000DDD105AFBE464FF0010C5EF8040F7346EC
:1041000003E01A600B1FBB4253D053F8042C19462E
:104110009042F6D30CF1010CBCF1070F0860ECD112
:1041200041F21C78089B059A324FEA602B610B9B89
:10413000DFF8E4C06B613048304B41F21C7E4EF03A
:1041400001E0A7F5B8521C3A12F8011F4B4000FBE2
:1041500003F30FF007C847446745EED1AB61BFF3E7
:104160005F8F274B2B602B69B360AB69F360BFF3A4
:104170005F8F244B33604B46002B3FF451AF2248F6
:1041800010F016F8214810F013F8EA682B696D69F1
:10419000072100951E4810F00BF841E720461D4B03
:1041A00033600DB0BDE8F08F1B68DA073FF55DAFF7
:1041B00044E73946AEE76FF003042046154B336001
:1041C0000DB0BDE8F08F00BF3C9D0622109D062279
:1041D000749D06220155504EE055504E00ED00E012
:1041E000001000E055CEACC51F680068206800686C
:1041F000906E01009B5F002093010001C59D1C8112
:10420000A542504EA555504E982B0302CC2B0302CD
:10421000002C0302E155504E27D300200120FFF768
:10422000DFBE00BF0020FFF7DBBE00BF70B5124D40
:10423000124E044605F5F053B04208BF1D4600215A
:104240000F4A04F537362CF009FE06F5BC764FF41C
:10425000F052002128462CF001FE304604F15801AE
:10426000656506F03BFC04F5B7313046BDE87040AB
:10427000E83106F053BC00BF60E70020E854246832
:10428000C8DA050030B5A9EF50402DED0C8B87EF53
:104290005F8024FF48481E4BB7EF54C59D681968DE
:1042A000AAEE105B00255868DC68A2EE100BA6EEA3
:1042B000101B31EE450FA8EE104B20FF4C08D3F831
:1042C00010E0D3F818C05869D96931EE4CAE31EE20
:1042D000418E31EE4E6E31EE402E00FF500D0AEF52
:1042E000506C08EF502CBDEC0C8B00FF500DBBFF49
:1042F000444602EF506C074A6FF4000335EE426EFD
:1043000026EF560171FE4D0FA0EE103B30BD00BFF1
:1043100030FD06021872313FF0B5294CADF5277D0E
:10432000E16FD4F89C30194346D1A66A032E43D8D6
:10433000E76A002F40D00028054608BF20252C2220
:1043400003A82CF08BFD1F481F4B204A00FB0633AF
:1043500003F5E523B3F8D2300EA9ADF82830136881
:1043600068460093013301978DF82D500296136033
:10437000D4E92823CDE90623D4E92A23CDE908236B
:10438000D4E90223CDE9042305F0CEF80EA807F006
:1043900083F901230E48A76A06680E4AC4F89C30C8
:1043A000BB403343D2E900510360D4E92A0385427C
:1043B000994138BFC2E900030DF5277DF0BD00BF6C
:1043C00030AC0922D8280700C0D60168D48C092255
:1043D000CC8C0922C08C0922DFED157AB4EEE70AF5
:1043E000F1EE10FA1FDDF8EE007AB4EEE70AF1EE16
:1043F00010FA1ADA9FED0F6ADFED0F7A30EE060A37
:10440000F3EE0E6A20EE270AB6EE007AC0EE267AA8
:1044100077EE877AFCEEE77A82B0CDED017A9DF8EF
:10442000040002B0704700207047FF20704700BFB3
:10443000000000C20000004200007F43002847D077
:10444000F0B5244B044624481B68C26F85B0134363
:1044500035D1D4E90B36102B28BF1023B3422ED907
:1044600000292ED09D1B836AE9B2032B2ED81B4A4C
:104470001B4F07FB032202F5E52292F8D620002A03
:104480000CBF502210220391F6B2C16C0296266D29
:1044900004F5B920002E42F0080618BF3246FF2965
:1044A00028BFFF210E46A168F6B2CFB200F5B96071
:1044B0000097019602F0EAFC236B2B44236305B0BE
:1044C000F0BD0121836A0D46032BD0D95022DAE7D3
:1044D000704700BF908C092230AC0922C0D6016819
:1044E000D82807002DE9F84F4FF48062FF21454896
:1044F0002CF0B4FC4FF44072002143482CF0AEFC89
:104500004FF40062FF2141482CF0A8FC00214FF439
:1045100080623F482CF0A2FC00223E4B3E4D1C69BD
:10452000944214BF2046284611465C68154613463F
:1045300050EA4F21B3F5007FC3F50072A3F5007C6C
:1045400053D3ACFB04C2604571EB020200D30135CA
:104550000133B3F5806FEDD1002D51D00022DFF88B
:10456000A4909646284FDFF8A48029E0ABFB04BA5C
:10457000584571EB0A0A1FD3B3FBF5F3BCFBF5FCFE
:10458000BF2B28BFBF23BCF1FF0F28BF4FF0FF0C8C
:1045900057F823600EF1010E06F1480A1C4E09F887
:1045A000023056F82C6028F812C006F10A0B184E9B
:1045B00047F823A046F82CB00132B2F5806F1FD027
:1045C0000EEB4E03B2F5007F4FEA0E2C4FEA831339
:1045D000C2F5007AA2F5007BC8D2AAFB04AB504515
:1045E00071EB0B0BC8D20132EAE7A2FB0426904222
:1045F00071EB060602D3013501339BE7013399E7DE
:10460000BDE8F88F00A8092200A50922009D092213
:104610000099092230AC0922007E560350EA0103BA
:104620007ED010B5144682B0002A76D0DFED6A7ACB
:1046300070EE277ADFED696AB0EEE77AB4EEE67ADB
:10464000F1EE10FA4ED9B0EE007A30EE077AB0EE05
:10465000C77AB4EEE67AF1EE10FA43D99FED607AAC
:10466000B4EEC70AF1EE10FA57DDB8EE007AB4EEF8
:10467000C70AF1EE10FA74D5B2EE017AF6EE005ADE
:1046800027EE877A77EE256AFCEEE66AF8EE666A30
:1046900036EEE56A37EE466A9FED525AB0EEC66ACC
:1046A000B4EEC56AF1EE10FA5DD976EEA56A37EE82
:1046B000667AB0EEC77AB4EEC57AF1EE10FA52D946
:1046C0009FED497AF3EE0E6A67EE877A87EEA67A57
:1046D00077EE257AFCEEE77ACDED017A9DF80400BD
:1046E00002B010BD2EF01AF807EE904A00EE100A44
:1046F000F8EE677A6FF0190080EE270A2DF0F6F8D1
:10470000DFED3A7A30EE270A2DF06EFADFED347ADB
:10471000B4EEE70AF1EE10FA04DC002002B010BD9E
:1047200000207047F8EE007AB4EEE70AF1EE10FAD6
:1047300017DA9FED296ADFED2C7A30EE060AF3EEE8
:104740000E6A20EE270AB6EE007AC0EE267A77EEE1
:10475000877AFCEEE77ACDED017A9DF8040002B08D
:1047600010BDFF20DAE72DF0D9FF07EE904A00EEEA
:10477000100AF8EE677A6FF0190080EE270A2DF024
:10478000B5F8DFED1A7A30EE270A2DF02DFADFEDBD
:10479000147AB4EEE70AF1EE10FABEDDF8EE007A14
:1047A000B4EEE70AF1EE10FADBDADFED0B7A9FEDFB
:1047B0000E7A70EE277AB3EE0E6A67EE877AF6EE1F
:1047C000006A87EE867A77EE267AFCEEE77ACDED00
:1047D000017A9DF80400A1E70000004282A87B381E
:1047E000000000C285B1053A00007F43CCBC8C2B91
:1047F0001B4BD3F8FC30D90108D51A4B1A6892012B
:1048000004D41B68DB0701D5012070471449154B00
:10481000D1F8FC20144842F08072C1F8FC20C3F8A3
:10482000B00F1A68900101D5002070471A6842F055
:1048300001021A60BFF34F8FBFF36F8FD1F8FC20D6
:10484000D101F1D51A689201EED41B68DB07EBD5D4
:10485000064A0120D2F890300133C2F890307047F8
:1048600000ED00E0001000E055CEACC530AC0922F0
:104870002DE9F04F0446ADF29C5D0F46164600212F
:10488000202214A82CF0EAFA3CB1064BA2699A4205
:104890000CD0054A936E013393660DF29C5DBDE822
:1048A000F08F00BF0002090030AC0922636AB3F543
:1048B000906FEED1A56A002DEBD1E36A102BE8D101
:1048C00004F5373909F5BC79484606F079F900282E
:1048D000DFD0236D13B12F4646F00206B34DAB6A0D
:1048E000032B8FBF0023B249B24A01FB0323079376
:1048F000636C0593002B00F08483E36C33B1A26CEE
:10490000D5F890309A4200F039840023059AA168C6
:10491000686A01F087FFEB6F002B40F07F8317B1CF
:10492000B6FA86F77F093B46079A494612A806F071
:104930005DF99DF84D2046F04003002A9DF848B0EF
:1049400018BF1E46BDF84A30BBF1020F0A9300F0B3
:104950002C83ABF10103B3FA83F35B090C93FFF7EC
:1049600047FF0746002800F0CD83BFF34F8F924BDF
:104970005B680B93BFF36F8F002704F158030D930F
:104980003AA802F0A5FE4FF0440CA1688B48002322
:10499000A1FB000E8A4A0CFB01E12DF055FF42F20B
:1049A0006F6A8C46D5F8A0302C2210EB0308D5F89E
:1049B000A4304FF0000143EB0C0318EB0A0A43F15B
:1049C000000C1FA80893CDF818C02CF047FAEA6F26
:1049D000089B002A40F0E4827A4AD2F800C00CF129
:1049E00001011160CDE92283D5E90A210A9B4846DD
:1049F000ADF898300C9B1E928DF89C30069BCDE94B
:104A00001CC125938DF89D60D5E90223CDF890A0B7
:104A1000CDE9202306F010FA0D9BCDE92803FFF71E
:104A2000E7FE002800F0E582BFF34F8F624B5E681F
:104A3000BFF36F8F1CA8CEA9D5F8909004F074FD39
:104A4000002F40F00B83FFF7D3FE28B1BFF34F8F49
:104A5000594B5B68BFF36F8F4FF00008EB6F33B9B2
:104A6000AB6A032B03D8EB6A002B40F09E83FFF761
:104A7000BFFE002800F0BF82BFF34F8F4E4B5B6834
:104A80000693BFF36F8F4FF4FC72002150A82CF0F7
:104A9000E5F94FF480635593EB6F002B236D0CBF4A
:104AA00012220322002B4FF00103569342F0080319
:104AB00008BF13466A68002F549243F0040218BFDF
:104AC0001346BBF1020F57931CBF43F040035793AB
:104AD0000DF0D4FF636B04F5BB2103F50073C3F342
:104AE00009035893A36B4FF480729C9001F5E47115
:104AF0005CA85A932CF056FE334BD5F82480D4F89A
:104B00000890E06BA093636ACDF84881A193CDF83B
:104B10007492D4E90423A290CDE99E23002F40F0A3
:104B20002682D4F840A0069AE36CA2EB0A02A3976F
:104B3000A492002B00F0CC82BC46A16CD5F890303A
:104B4000994200F0D9807AB3002310EB0C0C43EBB0
:104B5000030BCDF824B0CDF820C0DDE9080150EA00
:104B60004F11B0EB0C0ECDE908017046099E66EBC3
:104B70000B0150EA8F011CEB000C4BEB010109917A
:104B8000CDF820C0DDE9080150EACF01CDE90801E8
:104B900009992DF059FE40F2E933984271F1000174
:104BA000024628BF4FF47A72F7B10FE030AC092209
:104BB000D8280700C0D60168001000E0004062B9A4
:104BC00000879303D48C092200020900489B5BB143
:104BD0009DED3D7F8DED147F1B9B43F001031B93E7
:104BE000DDE94113CDE9181314ABCDE90223069B8F
:104BF000404601930B9B524649460093059B01F0AA
:104C000015FB41F6F073EA692968CD93D5E90230C6
:104C10000E93EB6CCDE90F01FF2B28BFFF23119200
:104C20009DED0E7F8DF832333B9BD5F87C80A593AC
:104C30003A9BAA93354BAB93AB6A8DF83033A3689C
:104C40008DF83133ADAB83ED007FD5E91C23CDE981
:104C5000A823B8F1000F63D1079B2BB103F5E42320
:104C600093F8D638002B5BD1B1AE402200213046FC
:104C70002CF0F4F820220021C1A82CF0EFF800233A
:104C80000DF54A7CCCE90033AC93002F5FD104F5DD
:104C9000B9214FF440621E4801F5B9612CF082FD44
:104CA00001212046FFF7CAFB002150A802F09EF91F
:104CB000EB6F002B40F05981079A32B102F5E423E3
:104CC00093F8D638003B18BF01233A9AA168AA6727
:104CD0006A6DC5F88430A29B01320E4C589EEB657C
:104CE0006A65DDE9A3030C4AC5E918035A980B4B22
:104CF000266010601960D0E54E9B002B7FF423AF37
:104D0000C99B43F00503C9931DE700BF10002000B5
:104D1000008D0922E08C0922DC8C0922D88C092222
:104D200043F6F073B1AE402200213046CD932CF013
:104D300095F820220021C1A82CF090F800230DF551
:104D40004A7CCDE9CA33AC93002F00F0EF800DF51B
:104D5000A8670FCF0FC60FCF0FC60FCF0FC697E8AC
:104D60000F000DF5A76E86E80F009EE80300BDF862
:104D700068338CE80300002B00F0CE804FF0000871
:104D8000CEAED6F844A0AA4B9A45C0F2B980336C97
:104D9000A8498B4280F2B480B76CA74A974200F2D0
:104DA000AF80D6F84CB0BBF1000F00F0A980DA1745
:104DB0005B1842F10002012B72F10001C0F2A781E1
:104DC00018461146002350EA0F219C4A2DF0ECFCB6
:104DD0008146984A994B4FEAEA711AEB020A41F16F
:104DE00000019A4571F1000380F2868152460B461C
:104DF00052EA0F239248101843F100018F4A002312
:104E00002DF0D2FC8246002347B1384619468D4A20
:104E100050EA0F2100232DF0C7FC0746864B0021E6
:104E20005B45C0F06C814FF48070EBFB0031854A2C
:104E3000184600232DF0B8FC834696F8520004F083
:104E400069FB03285CD8CA457F49326C5AEA899AC3
:104E5000BB455BEA879B8A4296F85330C0F23681A5
:104E60007449726C8A4200F3318113F0020F14BF4F
:104E70000521012143F3000202F0020211435A0707
:104E800048BF41F008011A0748BF41F01001DB0696
:104E9000FBB24FF000075FFA89F969F30707ABEB44
:104EA000030B63F30F27B6F85030684AC3EB0323B4
:104EB00003F57F5303F13F03A2FB03C2A3EB0203FD
:104EC000DDF8B0C202EB530296F8523048BF41F011
:104ED000200143EA0121AAEB090A0CF138030DF580
:104EE000A07E0EEBC303C2F387326AF317476BF35E
:104EF0001F675A720CF10102AC92187259815F60FF
:104F0000BDF8683308F10108984506F1180603D288
:104F1000AC9B032B7FF635AF9DF8900504F0FAFAB1
:104F2000BDF89235D5F87C80A690A79304F5B921F9
:104F30004FF44062464801F5B9612CF033FCB8F1FA
:104F4000000F3FF4ADAEA168579AAB6A9DF832737B
:104F5000CEB2002951D008208446CDE9020CCDE91B
:104F600000673B4801F092FF9EE60123ADE6D4F8CE
:104F700040A0069ADDF8F0C04D9BA2EB0A02E16C5E
:104F8000CDF88CC2A4921BB1C99B43F00203C99314
:104F900000297FF4D2AD002A40F0BE80002215E641
:104FA0004FF0000C1EE500230A93FFF721FC0028B8
:104FB00000F0B080BFF34F8F264B5B680B93BFF3BD
:104FC0006F8F04F1580304F5B731D5E902AB1846E9
:104FD000CDE900AB204AE8310D9302F0D9FA07463B
:104FE000002840F0DC804FF0020B46F020060C90C9
:104FF000C6E406461EE5069045E508464FF0100C4F
:10500000ABE7FFF7F5FB00283FF477ACBFF34F8F1A
:10501000104B5B680593BFF36F8F6EE4484605F055
:10502000A5FE0028BFD183460A900C9097E400BFEC
:1050300001C154FE003FAB01FF010900007E560391
:10504000FF7D56030002090000C154FE0500020066
:10505000008D0922001000E0906E010002F044FB78
:10506000022301932AAB00935246069B95F8281021
:1050700008F096FE8046FFF7BBFB28B1BFF34F8FC9
:105080005D4B5868BFF36F8F5C4BD3F8FC30D90190
:1050900010D5594B1A6892010CD41B68D90709D551
:1050A000D5F890304B4505D11B9B801B43F0020384
:1050B0001A901B939DF8900504F02CFABDF89215F8
:1050C00002F0FEFA3AA802F003FBC7E40521D1E69C
:1050D000002A3FF489AD4FF47A7B3B46A0FB0B01DD
:1050E0002DF0B2FB40F2E933984271F10001024623
:1050F000FFF47AAD5A4677E54FF4807A83E64FF4B1
:10510000807B9AE604F158030B900D9338E44FF03E
:1051100000095EE60B9054E700231CEB000C43EB08
:10512000030BCDF824B0CDF820C0DDE9080150EA2A
:105130004F11B0EB0C0ECDE908017046099E66EBED
:105140000B0150EA8F011CEB000C4BEB01010991A4
:10515000CDF820C0DDE9080150EACF01CDE9080112
:1051600009992DF071FB40F2E933984271F1000189
:105170000246FFF42BAD4FF47A7227E51F4BD3F8AC
:10518000FC3013F080733FF4C1AB1B4B1A689001E5
:105190003FF5BBAB1B6803F00103FFF7B7BB4FF054
:1051A000020BCDF830B0FFF7EBBB0126CDF8048041
:1051B000A3680DF5B16203936B6A0DF5B0610293BC
:1051C0002AAB0093CEA80DF28C5306F075FA0C4A68
:1051D0000C48536801680893AB6AC5F89C609E4010
:1051E0001368314353450160089B06998B4138BFD2
:1051F000C2E900A13BE400BF001000E000ED00E0C8
:10520000C08C0922CC8C09222DE9F04FA94C8DB01D
:10521000A56CCDE9032306900191002D00F0628179
:10522000D4E90E23DDE90310984208BF914200F053
:10523000A580E36EA04A0133E366136823B1936946
:1052400013B1A36E0133A3669C4BD3F8C82A2AB1CD
:10525000D3F8E03A13B1A36E0133A366039B049D18
:10526000D4E90C01834275EB010280F083800020B9
:1052700001460023A269551E43F1FF36281841EB71
:1052800006012DF0E1FA024600294FF0FF3308BF76
:1052900013460122236501238748C4E92223FEF730
:1052A000C5FF8748FEF7C2FF019B002B00F08D80F1
:1052B000814B4FF00009029303F53B2303F2E753C0
:1052C0009A46039B019A19EB0305049BA2EB09087C
:1052D00043F10006D4E91337002B53D0BB4251D819
:1052E000DDF804B0744B774F184602935346CA4614
:1052F000C146B0462E4605462A68EAB1D5E90421E2
:10530000964278EB010C704816D3121841F1000157
:10531000964278EB01000FD2921B61EB08010593D6
:105320004A45069B71F1000128BF4A4603EB8A01FA
:1053300028462DF029FC059B05F5BB2505F53275A2
:10534000BD42D9D19A46614D55F8573C3BB155F80D
:10535000536C26B95C4B55F83F2C9A4242D005F568
:10536000BB2505F53275AA45EED1019B5B452CD9CD
:10537000D946A6E7181A65EB01017AE7169B99074B
:1053800092D556E7A169D4E90C32E7FB0132964287
:1053900008BF9D42029909680ED09D4276EB02013A
:1053A0009ED25B1B62EB0602434572F1000297D26C
:1053B000984603EB090B95E7002900F010813F4B5D
:1053C000D3F8C83A002B00F0B5800123019A039965
:1053D000A3645118049A42F10002C4E90E120DB000
:1053E000BDE8F08FFFF704FAB0B1BFF34F8F384B31
:1053F0005B68BFF36F8FDFF8E48045F8133CD8F8A3
:10540000007097B9E66F002E4AD1E36C012B40F093
:10541000888045F8533CA2E73346DFF8C08045F862
:10542000133CD8F80070002FECD005F5373000F2AF
:10543000211005F09BFC78B3FFF7DAF928B1BFF330
:105440004F8F234B5E68BFF36F8FDFF894E02946E0
:105450004EF001E01F4B2048C8F8086011F8012FFA
:10546000534000FB03F30FF007C8C8F80C3055F8A1
:10547000333CC8F8103055F81B3CC8F8143055F8C8
:10548000233CC8F8283055F81F3CC8F82C30BFF32F
:105490005F8F0123C8F80430002345F8573C5EE7CE
:1054A0003A460121A5F15700FFF7E2F945F8577C8C
:1054B00055E700BF30AC0922207A1E68204A2468D4
:1054C000E8542468B02F2A6800020900777A1E6821
:1054D000001000E0C59D1C8193010001908C092201
:1054E000906E010013460892049A08A9CDE9092399
:1054F0000B922565012391ED007F3A4E04F13002B5
:105500003046A364C4F8883082ED007FFEF78EFE3B
:1055100035483565FEF78AFE06F5BA23C3F8185BF1
:10552000C2E620223146A5F15700FFF7A1F945F860
:10553000576C14E701212C48D4F88C30079105935F
:10554000FEF774FE0122294B0799029801FB03F331
:10555000C25003449F603B4627B1059BB3FA83F3D7
:105560005B09DB00029A2148079100FB0120A16939
:105570000363D4E90C32E7FB0132C0E90432FFF7E0
:1055800037F9079928B1BFF34F8F194B5868BFF30C
:105590006F8F029B154A02FB0132D4F890301064E1
:1055A0009364144BD3F8FC3013F0807307D0104B86
:1055B0001A6892014EBF00231B6803F00103029A90
:1055C0000A4800FB012BCBF84C30059BCBF8503040
:1055D0000023C4F88C30236D0133236580E6014835
:1055E000AAE700BF207A1E68E8542468C8DA0500DC
:1055F000001000E000ED00E0F8B550A5D5E9004549
:105600003B4B2DED048BA822002118462BF026FCE5
:1056100003460C2237493848A3F1080643E90245FE
:10562000C6E90501F261FFF7E3F834482AF01CF9F6
:10563000B0FA80F300249FED329ADFED328A9FEDBD
:10564000328A324F5B09324D3B7007EE904AB8EE1A
:10565000E70A20EE090A20EE280A2AF019FAF6EEE7
:10566000007AE0EE677A67EE887AFDEEE77A47F631
:10567000FF7217EE903A9342A8BF13460134B4F577
:10568000806F25F8023FE0D1224805F04DFAFEF781
:1056900029FF00234FF0FF34002000211E4A1F4D38
:1056A00013603A782B60C6F880201D4AB3671360F8
:1056B0001C4A1D4B1460C3E9000105F0DFFF1B4CC1
:1056C0001B4D204605F054FA204604F5E524002140
:1056D000D83405F057FAA542F3D11648FEF7A6FDD7
:1056E000BDEC048BBDE8F8401348FEF79FBD00BF3A
:1056F00038AC0922008104000002090004AC092230
:10570000DB0FC9400000803A00FEFF4600AC0922D2
:105710005EBF002020BC0020D48C0922D08C09223E
:10572000CC8C0922C88C0922C08C0922C0D6016801
:10573000207A1E68207A1E68E85424680087930344
:1057400000879303F8B51F46264B002808BF18466C
:10575000254C00291646206018BF0846089D069A69
:10576000C4E902672261099E6060FEF7BBFE6A1E03
:10577000102A28BF10251D491D4B06F00102C4E95F
:1057800005132662E267E56112B9A16A03291CD9F3
:105790000023206C174D616C8542C4E9212373EB13
:1057A0000102A36408D2144D00234019104A61F18C
:1057B00000012DF049F8431C1048E364FEF736FD64
:1057C000BDE8F8400E48FEF731BD0E4A0E4B02FB15
:1057D000013303F5E52393F8D620003A18BF0122E0
:1057E000D6E700BF0087930330AC0922000209000E
:1057F00000810400FF01090000FEF6FF207A1E6808
:10580000E8542468D8280700C0D601680146012959
:1058100070B54FF000024FF000044FF0000538BFA4
:1058200001210C4B0C4E0D48C3E91445C3E91A4540
:10583000C3E922453260C3E925229A649A65C3F818
:105840009C205962FEF7F2FCBDE870400448FEF768
:10585000EDBC00BF30AC0922D88C0922207A1E682A
:10586000E8542468F8B50026354B364C834276EB75
:105870000103C4E91001A26224D2334B1546C018BB
:10588000324A4FF0000361F100012CF0DDFFE36FBD
:105890000130E064C4F89C60BBB9032D15D82C4ED0
:1058A0002C4F3368B3B10F2B14D03A68022A0FD8AB
:1058B000013295420CD10122AA401A4208D1264B4E
:1058C0001B6810E0E664C4F89C600023E362F8BD46
:1058D00005F002FF204A0021136831600133012BDB
:1058E00038BF01231360E3623D600DF0C7F81B4928
:1058F0004FF47A720023A0FB01012CF0A5FF184B96
:10590000D3E90023904271EB03063CBF19461046D1
:1059100042F26F62134B144EC4E9280106FB0533B3
:1059200003F5E52393F8D630801841F10001003BE0
:1059300018BF0123C4E92A01C4F88430F8BD00BFB0
:10594000FF01090030AC092200FEF6FF00810400CF
:10595000CC8C0922C88C0922D08C092240420F002D
:10596000C08C0922C0D60168D8280700014BC3E9C2
:105970001C01704730AC09222DE9F04FADF21C6DCF
:10598000CDE90423DDF8408600284FD0DFF8D0A011
:105990008646DAF81C308946002B5AD0B9F1000F40
:1059A00044D0002447F6FF772C4ECDF80CE0A9EB4D
:1059B0000405B5F5C07F28BF4FF4C075DAF81C00A8
:1059C0006A000C283ED0102834D0002A08BF0121DC
:1059D000039B18BF114603EB84020DF1180C023A29
:1059E000C0F1100B32F9023F102803FA0BFE38BF4A
:1059F0007346B342B8BF3346BB42A8BF3B460139EA
:105A00002CF8023BEED1DAF8803053B1049B2946E2
:105A1000E218059BCDF8008006A843F10003FFF7CC
:105A2000F3FB2C44A14528F00208C0D80DF21C6DF0
:105A3000BDE8F08F039B06A8AA0003EB84012BF0BE
:105A4000B1FEE0E7039B06A903EB84002DF098F874
:105A5000D9E70C23CAF81C30A0E700BF0080FFFF85
:105A600030AC092270B4039E40B1054DD5F880508A
:105A700025B119B1039670BCFFF7C6BB70BC704767
:105A800030AC0922084B1A680AB15B684BB9074B66
:105A9000D3F8C80A30B1D3F8CC0A003818BF0120B7
:105AA00070470120704700BF207A1E68204A246892
:105AB00070B5134C23680BB1636843B9114BD3F82D
:105AC000C80A18B1D3F8CC2A0020A2B970BD20466C
:105AD000002500260C4B012103FB05F53246631916
